ARM GAS  /tmp/ccmW860o.s 			page 1


   1              		.cpu cortex-m7
   2              		.eabi_attribute 28, 1
   3              		.eabi_attribute 20, 1
   4              		.eabi_attribute 21, 1
   5              		.eabi_attribute 23, 3
   6              		.eabi_attribute 24, 1
   7              		.eabi_attribute 25, 1
   8              		.eabi_attribute 26, 1
   9              		.eabi_attribute 30, 1
  10              		.eabi_attribute 34, 1
  11              		.eabi_attribute 18, 4
  12              		.file	"stm32f7xx_hal_timebase_tim.c"
  13              		.text
  14              	.Ltext0:
  15              		.cfi_sections	.debug_frame
  16              		.section	.text.HAL_InitTick,"ax",%progbits
  17              		.align	1
  18              		.global	HAL_InitTick
  19              		.arch armv7e-m
  20              		.syntax unified
  21              		.thumb
  22              		.thumb_func
  23              		.fpu fpv5-d16
  25              	HAL_InitTick:
  26              	.LVL0:
  27              	.LFB141:
  28              		.file 1 "Src/stm32f7xx_hal_timebase_tim.c"
   1:Src/stm32f7xx_hal_timebase_tim.c **** /* USER CODE BEGIN Header */
   2:Src/stm32f7xx_hal_timebase_tim.c **** /**
   3:Src/stm32f7xx_hal_timebase_tim.c ****   ******************************************************************************
   4:Src/stm32f7xx_hal_timebase_tim.c ****   * @file    stm32f7xx_hal_timebase_TIM.c 
   5:Src/stm32f7xx_hal_timebase_tim.c ****   * @brief   HAL time base based on the hardware TIM.
   6:Src/stm32f7xx_hal_timebase_tim.c ****   ******************************************************************************
   7:Src/stm32f7xx_hal_timebase_tim.c ****   * @attention
   8:Src/stm32f7xx_hal_timebase_tim.c ****   *
   9:Src/stm32f7xx_hal_timebase_tim.c ****   * <h2><center>&copy; Copyright (c) 2019 STMicroelectronics.
  10:Src/stm32f7xx_hal_timebase_tim.c ****   * All rights reserved.</center></h2>
  11:Src/stm32f7xx_hal_timebase_tim.c ****   *
  12:Src/stm32f7xx_hal_timebase_tim.c ****   * This software component is licensed by ST under Ultimate Liberty license
  13:Src/stm32f7xx_hal_timebase_tim.c ****   * SLA0044, the "License"; You may not use this file except in compliance with
  14:Src/stm32f7xx_hal_timebase_tim.c ****   * the License. You may obtain a copy of the License at:
  15:Src/stm32f7xx_hal_timebase_tim.c ****   *                             www.st.com/SLA0044
  16:Src/stm32f7xx_hal_timebase_tim.c ****   *
  17:Src/stm32f7xx_hal_timebase_tim.c ****   ******************************************************************************
  18:Src/stm32f7xx_hal_timebase_tim.c ****   */
  19:Src/stm32f7xx_hal_timebase_tim.c **** /* USER CODE END Header */
  20:Src/stm32f7xx_hal_timebase_tim.c **** 
  21:Src/stm32f7xx_hal_timebase_tim.c **** /* Includes ------------------------------------------------------------------*/
  22:Src/stm32f7xx_hal_timebase_tim.c **** #include "stm32f7xx_hal.h"
  23:Src/stm32f7xx_hal_timebase_tim.c **** #include "stm32f7xx_hal_tim.h"
  24:Src/stm32f7xx_hal_timebase_tim.c ****  
  25:Src/stm32f7xx_hal_timebase_tim.c **** /* Private typedef -----------------------------------------------------------*/
  26:Src/stm32f7xx_hal_timebase_tim.c **** /* Private define ------------------------------------------------------------*/
  27:Src/stm32f7xx_hal_timebase_tim.c **** /* Private macro -------------------------------------------------------------*/
  28:Src/stm32f7xx_hal_timebase_tim.c **** /* Private variables ---------------------------------------------------------*/
  29:Src/stm32f7xx_hal_timebase_tim.c **** TIM_HandleTypeDef        htim14; 
  30:Src/stm32f7xx_hal_timebase_tim.c **** /* Private function prototypes -----------------------------------------------*/
ARM GAS  /tmp/ccmW860o.s 			page 2


  31:Src/stm32f7xx_hal_timebase_tim.c **** /* Private functions ---------------------------------------------------------*/
  32:Src/stm32f7xx_hal_timebase_tim.c **** 
  33:Src/stm32f7xx_hal_timebase_tim.c **** /**
  34:Src/stm32f7xx_hal_timebase_tim.c ****   * @brief  This function configures the TIM14 as a time base source. 
  35:Src/stm32f7xx_hal_timebase_tim.c ****   *         The time source is configured  to have 1ms time base with a dedicated 
  36:Src/stm32f7xx_hal_timebase_tim.c ****   *         Tick interrupt priority. 
  37:Src/stm32f7xx_hal_timebase_tim.c ****   * @note   This function is called  automatically at the beginning of program after
  38:Src/stm32f7xx_hal_timebase_tim.c ****   *         reset by HAL_Init() or at any time when clock is configured, by HAL_RCC_ClockConfig(). 
  39:Src/stm32f7xx_hal_timebase_tim.c ****   * @param  TickPriority: Tick interrupt priority.
  40:Src/stm32f7xx_hal_timebase_tim.c ****   * @retval HAL status
  41:Src/stm32f7xx_hal_timebase_tim.c ****   */
  42:Src/stm32f7xx_hal_timebase_tim.c **** HAL_StatusTypeDef HAL_InitTick(uint32_t TickPriority)
  43:Src/stm32f7xx_hal_timebase_tim.c **** {
  29              		.loc 1 43 1 view -0
  30              		.cfi_startproc
  31              		@ args = 0, pretend = 0, frame = 32
  32              		@ frame_needed = 0, uses_anonymous_args = 0
  33              		.loc 1 43 1 is_stmt 0 view .LVU1
  34 0000 00B5     		push	{lr}
  35              	.LCFI0:
  36              		.cfi_def_cfa_offset 4
  37              		.cfi_offset 14, -4
  38 0002 89B0     		sub	sp, sp, #36
  39              	.LCFI1:
  40              		.cfi_def_cfa_offset 40
  44:Src/stm32f7xx_hal_timebase_tim.c ****   RCC_ClkInitTypeDef    clkconfig;
  41              		.loc 1 44 3 is_stmt 1 view .LVU2
  45:Src/stm32f7xx_hal_timebase_tim.c ****   uint32_t              uwTimclock = 0;
  42              		.loc 1 45 3 view .LVU3
  43              	.LVL1:
  46:Src/stm32f7xx_hal_timebase_tim.c ****   uint32_t              uwPrescalerValue = 0;
  44              		.loc 1 46 3 view .LVU4
  47:Src/stm32f7xx_hal_timebase_tim.c ****   uint32_t              pFLatency;
  45              		.loc 1 47 3 view .LVU5
  48:Src/stm32f7xx_hal_timebase_tim.c ****   
  49:Src/stm32f7xx_hal_timebase_tim.c ****   /*Configure the TIM14 IRQ priority */
  50:Src/stm32f7xx_hal_timebase_tim.c ****   HAL_NVIC_SetPriority(TIM8_TRG_COM_TIM14_IRQn, TickPriority ,0); 
  46              		.loc 1 50 3 view .LVU6
  47 0004 0022     		movs	r2, #0
  48 0006 0146     		mov	r1, r0
  49 0008 2D20     		movs	r0, #45
  50              	.LVL2:
  51              		.loc 1 50 3 is_stmt 0 view .LVU7
  52 000a FFF7FEFF 		bl	HAL_NVIC_SetPriority
  53              	.LVL3:
  51:Src/stm32f7xx_hal_timebase_tim.c ****   
  52:Src/stm32f7xx_hal_timebase_tim.c ****   /* Enable the TIM14 global Interrupt */
  53:Src/stm32f7xx_hal_timebase_tim.c ****   HAL_NVIC_EnableIRQ(TIM8_TRG_COM_TIM14_IRQn); 
  54              		.loc 1 53 3 is_stmt 1 view .LVU8
  55 000e 2D20     		movs	r0, #45
  56 0010 FFF7FEFF 		bl	HAL_NVIC_EnableIRQ
  57              	.LVL4:
  54:Src/stm32f7xx_hal_timebase_tim.c ****   
  55:Src/stm32f7xx_hal_timebase_tim.c ****   /* Enable TIM14 clock */
  56:Src/stm32f7xx_hal_timebase_tim.c ****   __HAL_RCC_TIM14_CLK_ENABLE();
  58              		.loc 1 56 3 view .LVU9
  59              	.LBB2:
ARM GAS  /tmp/ccmW860o.s 			page 3


  60              		.loc 1 56 3 view .LVU10
  61              		.loc 1 56 3 view .LVU11
  62 0014 154B     		ldr	r3, .L6
  63 0016 1A6C     		ldr	r2, [r3, #64]
  64 0018 42F48072 		orr	r2, r2, #256
  65 001c 1A64     		str	r2, [r3, #64]
  66              		.loc 1 56 3 view .LVU12
  67 001e 1B6C     		ldr	r3, [r3, #64]
  68 0020 03F48073 		and	r3, r3, #256
  69 0024 0193     		str	r3, [sp, #4]
  70              		.loc 1 56 3 view .LVU13
  71 0026 019B     		ldr	r3, [sp, #4]
  72              	.LBE2:
  57:Src/stm32f7xx_hal_timebase_tim.c ****   
  58:Src/stm32f7xx_hal_timebase_tim.c ****   /* Get clock configuration */
  59:Src/stm32f7xx_hal_timebase_tim.c ****   HAL_RCC_GetClockConfig(&clkconfig, &pFLatency);
  73              		.loc 1 59 3 view .LVU14
  74 0028 02A9     		add	r1, sp, #8
  75 002a 03A8     		add	r0, sp, #12
  76 002c FFF7FEFF 		bl	HAL_RCC_GetClockConfig
  77              	.LVL5:
  60:Src/stm32f7xx_hal_timebase_tim.c ****   
  61:Src/stm32f7xx_hal_timebase_tim.c ****   /* Compute TIM14 clock */
  62:Src/stm32f7xx_hal_timebase_tim.c ****   uwTimclock = 2*HAL_RCC_GetPCLK1Freq();
  78              		.loc 1 62 3 view .LVU15
  79              		.loc 1 62 18 is_stmt 0 view .LVU16
  80 0030 FFF7FEFF 		bl	HAL_RCC_GetPCLK1Freq
  81              	.LVL6:
  82              		.loc 1 62 14 view .LVU17
  83 0034 4300     		lsls	r3, r0, #1
  84              	.LVL7:
  63:Src/stm32f7xx_hal_timebase_tim.c ****    
  64:Src/stm32f7xx_hal_timebase_tim.c ****   /* Compute the prescaler value to have TIM14 counter clock equal to 1MHz */
  65:Src/stm32f7xx_hal_timebase_tim.c ****   uwPrescalerValue = (uint32_t) ((uwTimclock / 1000000) - 1);
  85              		.loc 1 65 3 is_stmt 1 view .LVU18
  86              		.loc 1 65 46 is_stmt 0 view .LVU19
  87 0036 0E48     		ldr	r0, .L6+4
  88 0038 A0FB0323 		umull	r2, r3, r0, r3
  89              	.LVL8:
  90              		.loc 1 65 46 view .LVU20
  91 003c 9B0C     		lsrs	r3, r3, #18
  92              		.loc 1 65 20 view .LVU21
  93 003e 013B     		subs	r3, r3, #1
  94              	.LVL9:
  66:Src/stm32f7xx_hal_timebase_tim.c ****   
  67:Src/stm32f7xx_hal_timebase_tim.c ****   /* Initialize TIM14 */
  68:Src/stm32f7xx_hal_timebase_tim.c ****   htim14.Instance = TIM14;
  95              		.loc 1 68 3 is_stmt 1 view .LVU22
  96              		.loc 1 68 19 is_stmt 0 view .LVU23
  97 0040 0C48     		ldr	r0, .L6+8
  98 0042 0D4A     		ldr	r2, .L6+12
  99 0044 0260     		str	r2, [r0]
  69:Src/stm32f7xx_hal_timebase_tim.c ****   
  70:Src/stm32f7xx_hal_timebase_tim.c ****   /* Initialize TIMx peripheral as follow:
  71:Src/stm32f7xx_hal_timebase_tim.c ****   + Period = [(TIM14CLK/1000) - 1]. to have a (1/1000) s time base.
  72:Src/stm32f7xx_hal_timebase_tim.c ****   + Prescaler = (uwTimclock/1000000 - 1) to have a 1MHz counter clock.
  73:Src/stm32f7xx_hal_timebase_tim.c ****   + ClockDivision = 0
ARM GAS  /tmp/ccmW860o.s 			page 4


  74:Src/stm32f7xx_hal_timebase_tim.c ****   + Counter direction = Up
  75:Src/stm32f7xx_hal_timebase_tim.c ****   */
  76:Src/stm32f7xx_hal_timebase_tim.c ****   htim14.Init.Period = (1000000 / 1000) - 1;
 100              		.loc 1 76 3 is_stmt 1 view .LVU24
 101              		.loc 1 76 22 is_stmt 0 view .LVU25
 102 0046 40F2E732 		movw	r2, #999
 103 004a C260     		str	r2, [r0, #12]
  77:Src/stm32f7xx_hal_timebase_tim.c ****   htim14.Init.Prescaler = uwPrescalerValue;
 104              		.loc 1 77 3 is_stmt 1 view .LVU26
 105              		.loc 1 77 25 is_stmt 0 view .LVU27
 106 004c 4360     		str	r3, [r0, #4]
  78:Src/stm32f7xx_hal_timebase_tim.c ****   htim14.Init.ClockDivision = 0;
 107              		.loc 1 78 3 is_stmt 1 view .LVU28
 108              		.loc 1 78 29 is_stmt 0 view .LVU29
 109 004e 0023     		movs	r3, #0
 110              	.LVL10:
 111              		.loc 1 78 29 view .LVU30
 112 0050 0361     		str	r3, [r0, #16]
  79:Src/stm32f7xx_hal_timebase_tim.c ****   htim14.Init.CounterMode = TIM_COUNTERMODE_UP;
 113              		.loc 1 79 3 is_stmt 1 view .LVU31
 114              		.loc 1 79 27 is_stmt 0 view .LVU32
 115 0052 8360     		str	r3, [r0, #8]
  80:Src/stm32f7xx_hal_timebase_tim.c ****   if(HAL_TIM_Base_Init(&htim14) == HAL_OK)
 116              		.loc 1 80 3 is_stmt 1 view .LVU33
 117              		.loc 1 80 6 is_stmt 0 view .LVU34
 118 0054 FFF7FEFF 		bl	HAL_TIM_Base_Init
 119              	.LVL11:
 120              		.loc 1 80 5 view .LVU35
 121 0058 18B1     		cbz	r0, .L5
  81:Src/stm32f7xx_hal_timebase_tim.c ****   {
  82:Src/stm32f7xx_hal_timebase_tim.c ****     /* Start the TIM time Base generation in interrupt mode */
  83:Src/stm32f7xx_hal_timebase_tim.c ****     return HAL_TIM_Base_Start_IT(&htim14);
  84:Src/stm32f7xx_hal_timebase_tim.c ****   }
  85:Src/stm32f7xx_hal_timebase_tim.c ****   
  86:Src/stm32f7xx_hal_timebase_tim.c ****   /* Return function status */
  87:Src/stm32f7xx_hal_timebase_tim.c ****   return HAL_ERROR;
 122              		.loc 1 87 10 view .LVU36
 123 005a 0120     		movs	r0, #1
 124              	.L2:
  88:Src/stm32f7xx_hal_timebase_tim.c **** }
 125              		.loc 1 88 1 view .LVU37
 126 005c 09B0     		add	sp, sp, #36
 127              	.LCFI2:
 128              		.cfi_remember_state
 129              		.cfi_def_cfa_offset 4
 130              		@ sp needed
 131 005e 5DF804FB 		ldr	pc, [sp], #4
 132              	.L5:
 133              	.LCFI3:
 134              		.cfi_restore_state
  83:Src/stm32f7xx_hal_timebase_tim.c ****   }
 135              		.loc 1 83 5 is_stmt 1 view .LVU38
  83:Src/stm32f7xx_hal_timebase_tim.c ****   }
 136              		.loc 1 83 12 is_stmt 0 view .LVU39
 137 0062 0448     		ldr	r0, .L6+8
 138 0064 FFF7FEFF 		bl	HAL_TIM_Base_Start_IT
 139              	.LVL12:
ARM GAS  /tmp/ccmW860o.s 			page 5


 140 0068 F8E7     		b	.L2
 141              	.L7:
 142 006a 00BF     		.align	2
 143              	.L6:
 144 006c 00380240 		.word	1073887232
 145 0070 83DE1B43 		.word	1125899907
 146 0074 00000000 		.word	htim14
 147 0078 00200040 		.word	1073750016
 148              		.cfi_endproc
 149              	.LFE141:
 151              		.section	.text.HAL_SuspendTick,"ax",%progbits
 152              		.align	1
 153              		.global	HAL_SuspendTick
 154              		.syntax unified
 155              		.thumb
 156              		.thumb_func
 157              		.fpu fpv5-d16
 159              	HAL_SuspendTick:
 160              	.LFB142:
  89:Src/stm32f7xx_hal_timebase_tim.c **** 
  90:Src/stm32f7xx_hal_timebase_tim.c **** /**
  91:Src/stm32f7xx_hal_timebase_tim.c ****   * @brief  Suspend Tick increment.
  92:Src/stm32f7xx_hal_timebase_tim.c ****   * @note   Disable the tick increment by disabling TIM14 update interrupt.
  93:Src/stm32f7xx_hal_timebase_tim.c ****   * @param  None
  94:Src/stm32f7xx_hal_timebase_tim.c ****   * @retval None
  95:Src/stm32f7xx_hal_timebase_tim.c ****   */
  96:Src/stm32f7xx_hal_timebase_tim.c **** void HAL_SuspendTick(void)
  97:Src/stm32f7xx_hal_timebase_tim.c **** {
 161              		.loc 1 97 1 is_stmt 1 view -0
 162              		.cfi_startproc
 163              		@ args = 0, pretend = 0, frame = 0
 164              		@ frame_needed = 0, uses_anonymous_args = 0
 165              		@ link register save eliminated.
  98:Src/stm32f7xx_hal_timebase_tim.c ****   /* Disable TIM14 update Interrupt */
  99:Src/stm32f7xx_hal_timebase_tim.c ****   __HAL_TIM_DISABLE_IT(&htim14, TIM_IT_UPDATE);                                                  
 166              		.loc 1 99 3 view .LVU41
 167 0000 034B     		ldr	r3, .L9
 168 0002 1A68     		ldr	r2, [r3]
 169 0004 D368     		ldr	r3, [r2, #12]
 170 0006 23F00103 		bic	r3, r3, #1
 171 000a D360     		str	r3, [r2, #12]
 100:Src/stm32f7xx_hal_timebase_tim.c **** }
 172              		.loc 1 100 1 is_stmt 0 view .LVU42
 173 000c 7047     		bx	lr
 174              	.L10:
 175 000e 00BF     		.align	2
 176              	.L9:
 177 0010 00000000 		.word	htim14
 178              		.cfi_endproc
 179              	.LFE142:
 181              		.section	.text.HAL_ResumeTick,"ax",%progbits
 182              		.align	1
 183              		.global	HAL_ResumeTick
 184              		.syntax unified
 185              		.thumb
 186              		.thumb_func
 187              		.fpu fpv5-d16
ARM GAS  /tmp/ccmW860o.s 			page 6


 189              	HAL_ResumeTick:
 190              	.LFB143:
 101:Src/stm32f7xx_hal_timebase_tim.c **** 
 102:Src/stm32f7xx_hal_timebase_tim.c **** /**
 103:Src/stm32f7xx_hal_timebase_tim.c ****   * @brief  Resume Tick increment.
 104:Src/stm32f7xx_hal_timebase_tim.c ****   * @note   Enable the tick increment by Enabling TIM14 update interrupt.
 105:Src/stm32f7xx_hal_timebase_tim.c ****   * @param  None
 106:Src/stm32f7xx_hal_timebase_tim.c ****   * @retval None
 107:Src/stm32f7xx_hal_timebase_tim.c ****   */
 108:Src/stm32f7xx_hal_timebase_tim.c **** void HAL_ResumeTick(void)
 109:Src/stm32f7xx_hal_timebase_tim.c **** {
 191              		.loc 1 109 1 is_stmt 1 view -0
 192              		.cfi_startproc
 193              		@ args = 0, pretend = 0, frame = 0
 194              		@ frame_needed = 0, uses_anonymous_args = 0
 195              		@ link register save eliminated.
 110:Src/stm32f7xx_hal_timebase_tim.c ****   /* Enable TIM14 Update interrupt */
 111:Src/stm32f7xx_hal_timebase_tim.c ****   __HAL_TIM_ENABLE_IT(&htim14, TIM_IT_UPDATE);
 196              		.loc 1 111 3 view .LVU44
 197 0000 034B     		ldr	r3, .L12
 198 0002 1A68     		ldr	r2, [r3]
 199 0004 D368     		ldr	r3, [r2, #12]
 200 0006 43F00103 		orr	r3, r3, #1
 201 000a D360     		str	r3, [r2, #12]
 112:Src/stm32f7xx_hal_timebase_tim.c **** }
 202              		.loc 1 112 1 is_stmt 0 view .LVU45
 203 000c 7047     		bx	lr
 204              	.L13:
 205 000e 00BF     		.align	2
 206              	.L12:
 207 0010 00000000 		.word	htim14
 208              		.cfi_endproc
 209              	.LFE143:
 211              		.comm	htim14,64,4
 212              		.text
 213              	.Letext0:
 214              		.file 2 "/home/kevin/ProgramInstalls/gcc-arm-none-eabi-8-2019-q3-update/arm-none-eabi/include/mach
 215              		.file 3 "/home/kevin/ProgramInstalls/gcc-arm-none-eabi-8-2019-q3-update/arm-none-eabi/include/sys/
 216              		.file 4 "STM32F769/Drivers/CMSIS/Include/core_cm7.h"
 217              		.file 5 "STM32F769/Drivers/CMSIS/Device/ST/STM32F7xx/Include/system_stm32f7xx.h"
 218              		.file 6 "STM32F769/Drivers/CMSIS/Device/ST/STM32F7xx/Include/stm32f769xx.h"
 219              		.file 7 "STM32F769/Drivers/STM32F7xx_HAL_Driver/Inc/stm32f7xx_hal_def.h"
 220              		.file 8 "STM32F769/Drivers/STM32F7xx_HAL_Driver/Inc/stm32f7xx_hal_rcc.h"
 221              		.file 9 "STM32F769/Drivers/STM32F7xx_HAL_Driver/Inc/stm32f7xx_hal_dma.h"
 222              		.file 10 "STM32F769/Drivers/STM32F7xx_HAL_Driver/Inc/stm32f7xx_hal_tim.h"
 223              		.file 11 "STM32F769/Drivers/STM32F7xx_HAL_Driver/Inc/stm32f7xx_hal.h"
 224              		.file 12 "STM32F769/Drivers/STM32F7xx_HAL_Driver/Inc/stm32f7xx_hal_cortex.h"
ARM GAS  /tmp/ccmW860o.s 			page 7


DEFINED SYMBOLS
                            *ABS*:0000000000000000 stm32f7xx_hal_timebase_tim.c
     /tmp/ccmW860o.s:17     .text.HAL_InitTick:0000000000000000 $t
     /tmp/ccmW860o.s:25     .text.HAL_InitTick:0000000000000000 HAL_InitTick
     /tmp/ccmW860o.s:144    .text.HAL_InitTick:000000000000006c $d
                            *COM*:0000000000000040 htim14
     /tmp/ccmW860o.s:152    .text.HAL_SuspendTick:0000000000000000 $t
     /tmp/ccmW860o.s:159    .text.HAL_SuspendTick:0000000000000000 HAL_SuspendTick
     /tmp/ccmW860o.s:177    .text.HAL_SuspendTick:0000000000000010 $d
     /tmp/ccmW860o.s:182    .text.HAL_ResumeTick:0000000000000000 $t
     /tmp/ccmW860o.s:189    .text.HAL_ResumeTick:0000000000000000 HAL_ResumeTick
     /tmp/ccmW860o.s:207    .text.HAL_ResumeTick:0000000000000010 $d

UNDEFINED SYMBOLS
HAL_NVIC_SetPriority
HAL_NVIC_EnableIRQ
HAL_RCC_GetClockConfig
HAL_RCC_GetPCLK1Freq
HAL_TIM_Base_Init
HAL_TIM_Base_Start_IT
