ARM GAS  /tmp/ccPn5Faf.s 			page 1


   1              		.cpu cortex-m7
   2              		.eabi_attribute 28, 1
   3              		.eabi_attribute 20, 1
   4              		.eabi_attribute 21, 1
   5              		.eabi_attribute 23, 3
   6              		.eabi_attribute 24, 1
   7              		.eabi_attribute 25, 1
   8              		.eabi_attribute 26, 1
   9              		.eabi_attribute 30, 1
  10              		.eabi_attribute 34, 1
  11              		.eabi_attribute 18, 4
  12              		.file	"stm32f7xx_hal_pwr_ex.c"
  13              		.text
  14              	.Ltext0:
  15              		.cfi_sections	.debug_frame
  16              		.section	.text.HAL_PWREx_EnableBkUpReg,"ax",%progbits
  17              		.align	1
  18              		.global	HAL_PWREx_EnableBkUpReg
  19              		.arch armv7e-m
  20              		.syntax unified
  21              		.thumb
  22              		.thumb_func
  23              		.fpu fpv5-d16
  25              	HAL_PWREx_EnableBkUpReg:
  26              	.LFB141:
  27              		.file 1 "STM32F769/Drivers/STM32F7xx_HAL_Driver/Src/stm32f7xx_hal_pwr_ex.c"
   1:STM32F769/Drivers/STM32F7xx_HAL_Driver/Src/stm32f7xx_hal_pwr_ex.c **** /**
   2:STM32F769/Drivers/STM32F7xx_HAL_Driver/Src/stm32f7xx_hal_pwr_ex.c ****   ******************************************************************************
   3:STM32F769/Drivers/STM32F7xx_HAL_Driver/Src/stm32f7xx_hal_pwr_ex.c ****   * @file    stm32f7xx_hal_pwr_ex.c
   4:STM32F769/Drivers/STM32F7xx_HAL_Driver/Src/stm32f7xx_hal_pwr_ex.c ****   * @author  MCD Application Team
   5:STM32F769/Drivers/STM32F7xx_HAL_Driver/Src/stm32f7xx_hal_pwr_ex.c ****   * @brief   Extended PWR HAL module driver.
   6:STM32F769/Drivers/STM32F7xx_HAL_Driver/Src/stm32f7xx_hal_pwr_ex.c ****   *          This file provides firmware functions to manage the following 
   7:STM32F769/Drivers/STM32F7xx_HAL_Driver/Src/stm32f7xx_hal_pwr_ex.c ****   *          functionalities of PWR extension peripheral:           
   8:STM32F769/Drivers/STM32F7xx_HAL_Driver/Src/stm32f7xx_hal_pwr_ex.c ****   *           + Peripheral Extended features functions
   9:STM32F769/Drivers/STM32F7xx_HAL_Driver/Src/stm32f7xx_hal_pwr_ex.c ****   *         
  10:STM32F769/Drivers/STM32F7xx_HAL_Driver/Src/stm32f7xx_hal_pwr_ex.c ****   ******************************************************************************
  11:STM32F769/Drivers/STM32F7xx_HAL_Driver/Src/stm32f7xx_hal_pwr_ex.c ****   * @attention
  12:STM32F769/Drivers/STM32F7xx_HAL_Driver/Src/stm32f7xx_hal_pwr_ex.c ****   *
  13:STM32F769/Drivers/STM32F7xx_HAL_Driver/Src/stm32f7xx_hal_pwr_ex.c ****   * <h2><center>&copy; Copyright (c) 2017 STMicroelectronics.
  14:STM32F769/Drivers/STM32F7xx_HAL_Driver/Src/stm32f7xx_hal_pwr_ex.c ****   * All rights reserved.</center></h2>
  15:STM32F769/Drivers/STM32F7xx_HAL_Driver/Src/stm32f7xx_hal_pwr_ex.c ****   *
  16:STM32F769/Drivers/STM32F7xx_HAL_Driver/Src/stm32f7xx_hal_pwr_ex.c ****   * This software component is licensed by ST under BSD 3-Clause license,
  17:STM32F769/Drivers/STM32F7xx_HAL_Driver/Src/stm32f7xx_hal_pwr_ex.c ****   * the "License"; You may not use this file except in compliance with the
  18:STM32F769/Drivers/STM32F7xx_HAL_Driver/Src/stm32f7xx_hal_pwr_ex.c ****   * License. You may obtain a copy of the License at:
  19:STM32F769/Drivers/STM32F7xx_HAL_Driver/Src/stm32f7xx_hal_pwr_ex.c ****   *                        opensource.org/licenses/BSD-3-Clause
  20:STM32F769/Drivers/STM32F7xx_HAL_Driver/Src/stm32f7xx_hal_pwr_ex.c ****   *
  21:STM32F769/Drivers/STM32F7xx_HAL_Driver/Src/stm32f7xx_hal_pwr_ex.c ****   ******************************************************************************
  22:STM32F769/Drivers/STM32F7xx_HAL_Driver/Src/stm32f7xx_hal_pwr_ex.c ****   */ 
  23:STM32F769/Drivers/STM32F7xx_HAL_Driver/Src/stm32f7xx_hal_pwr_ex.c **** 
  24:STM32F769/Drivers/STM32F7xx_HAL_Driver/Src/stm32f7xx_hal_pwr_ex.c **** /* Includes ------------------------------------------------------------------*/
  25:STM32F769/Drivers/STM32F7xx_HAL_Driver/Src/stm32f7xx_hal_pwr_ex.c **** #include "stm32f7xx_hal.h"
  26:STM32F769/Drivers/STM32F7xx_HAL_Driver/Src/stm32f7xx_hal_pwr_ex.c **** 
  27:STM32F769/Drivers/STM32F7xx_HAL_Driver/Src/stm32f7xx_hal_pwr_ex.c **** /** @addtogroup STM32F7xx_HAL_Driver
  28:STM32F769/Drivers/STM32F7xx_HAL_Driver/Src/stm32f7xx_hal_pwr_ex.c ****   * @{
  29:STM32F769/Drivers/STM32F7xx_HAL_Driver/Src/stm32f7xx_hal_pwr_ex.c ****   */
  30:STM32F769/Drivers/STM32F7xx_HAL_Driver/Src/stm32f7xx_hal_pwr_ex.c **** 
  31:STM32F769/Drivers/STM32F7xx_HAL_Driver/Src/stm32f7xx_hal_pwr_ex.c **** /** @defgroup PWREx PWREx
ARM GAS  /tmp/ccPn5Faf.s 			page 2


  32:STM32F769/Drivers/STM32F7xx_HAL_Driver/Src/stm32f7xx_hal_pwr_ex.c ****   * @brief PWR HAL module driver
  33:STM32F769/Drivers/STM32F7xx_HAL_Driver/Src/stm32f7xx_hal_pwr_ex.c ****   * @{
  34:STM32F769/Drivers/STM32F7xx_HAL_Driver/Src/stm32f7xx_hal_pwr_ex.c ****   */
  35:STM32F769/Drivers/STM32F7xx_HAL_Driver/Src/stm32f7xx_hal_pwr_ex.c **** 
  36:STM32F769/Drivers/STM32F7xx_HAL_Driver/Src/stm32f7xx_hal_pwr_ex.c **** #ifdef HAL_PWR_MODULE_ENABLED
  37:STM32F769/Drivers/STM32F7xx_HAL_Driver/Src/stm32f7xx_hal_pwr_ex.c **** 
  38:STM32F769/Drivers/STM32F7xx_HAL_Driver/Src/stm32f7xx_hal_pwr_ex.c **** /* Private typedef -----------------------------------------------------------*/
  39:STM32F769/Drivers/STM32F7xx_HAL_Driver/Src/stm32f7xx_hal_pwr_ex.c **** /* Private define ------------------------------------------------------------*/
  40:STM32F769/Drivers/STM32F7xx_HAL_Driver/Src/stm32f7xx_hal_pwr_ex.c **** /** @addtogroup PWREx_Private_Constants
  41:STM32F769/Drivers/STM32F7xx_HAL_Driver/Src/stm32f7xx_hal_pwr_ex.c ****   * @{
  42:STM32F769/Drivers/STM32F7xx_HAL_Driver/Src/stm32f7xx_hal_pwr_ex.c ****   */    
  43:STM32F769/Drivers/STM32F7xx_HAL_Driver/Src/stm32f7xx_hal_pwr_ex.c **** #define PWR_OVERDRIVE_TIMEOUT_VALUE  1000
  44:STM32F769/Drivers/STM32F7xx_HAL_Driver/Src/stm32f7xx_hal_pwr_ex.c **** #define PWR_UDERDRIVE_TIMEOUT_VALUE  1000
  45:STM32F769/Drivers/STM32F7xx_HAL_Driver/Src/stm32f7xx_hal_pwr_ex.c **** #define PWR_BKPREG_TIMEOUT_VALUE     1000
  46:STM32F769/Drivers/STM32F7xx_HAL_Driver/Src/stm32f7xx_hal_pwr_ex.c **** #define PWR_VOSRDY_TIMEOUT_VALUE     1000
  47:STM32F769/Drivers/STM32F7xx_HAL_Driver/Src/stm32f7xx_hal_pwr_ex.c **** /**
  48:STM32F769/Drivers/STM32F7xx_HAL_Driver/Src/stm32f7xx_hal_pwr_ex.c ****   * @}
  49:STM32F769/Drivers/STM32F7xx_HAL_Driver/Src/stm32f7xx_hal_pwr_ex.c ****   */
  50:STM32F769/Drivers/STM32F7xx_HAL_Driver/Src/stm32f7xx_hal_pwr_ex.c ****     
  51:STM32F769/Drivers/STM32F7xx_HAL_Driver/Src/stm32f7xx_hal_pwr_ex.c **** /* Private macro -------------------------------------------------------------*/
  52:STM32F769/Drivers/STM32F7xx_HAL_Driver/Src/stm32f7xx_hal_pwr_ex.c **** /* Private variables ---------------------------------------------------------*/
  53:STM32F769/Drivers/STM32F7xx_HAL_Driver/Src/stm32f7xx_hal_pwr_ex.c **** /* Private function prototypes -----------------------------------------------*/
  54:STM32F769/Drivers/STM32F7xx_HAL_Driver/Src/stm32f7xx_hal_pwr_ex.c **** /* Private functions ---------------------------------------------------------*/
  55:STM32F769/Drivers/STM32F7xx_HAL_Driver/Src/stm32f7xx_hal_pwr_ex.c **** /** @defgroup PWREx_Exported_Functions PWREx Exported Functions
  56:STM32F769/Drivers/STM32F7xx_HAL_Driver/Src/stm32f7xx_hal_pwr_ex.c ****   *  @{
  57:STM32F769/Drivers/STM32F7xx_HAL_Driver/Src/stm32f7xx_hal_pwr_ex.c ****   */
  58:STM32F769/Drivers/STM32F7xx_HAL_Driver/Src/stm32f7xx_hal_pwr_ex.c **** 
  59:STM32F769/Drivers/STM32F7xx_HAL_Driver/Src/stm32f7xx_hal_pwr_ex.c **** /** @defgroup PWREx_Exported_Functions_Group1 Peripheral Extended features functions 
  60:STM32F769/Drivers/STM32F7xx_HAL_Driver/Src/stm32f7xx_hal_pwr_ex.c ****   *  @brief Peripheral Extended features functions 
  61:STM32F769/Drivers/STM32F7xx_HAL_Driver/Src/stm32f7xx_hal_pwr_ex.c ****   *
  62:STM32F769/Drivers/STM32F7xx_HAL_Driver/Src/stm32f7xx_hal_pwr_ex.c **** @verbatim   
  63:STM32F769/Drivers/STM32F7xx_HAL_Driver/Src/stm32f7xx_hal_pwr_ex.c **** 
  64:STM32F769/Drivers/STM32F7xx_HAL_Driver/Src/stm32f7xx_hal_pwr_ex.c ****  ===============================================================================
  65:STM32F769/Drivers/STM32F7xx_HAL_Driver/Src/stm32f7xx_hal_pwr_ex.c ****                  ##### Peripheral extended features functions #####
  66:STM32F769/Drivers/STM32F7xx_HAL_Driver/Src/stm32f7xx_hal_pwr_ex.c ****  ===============================================================================
  67:STM32F769/Drivers/STM32F7xx_HAL_Driver/Src/stm32f7xx_hal_pwr_ex.c **** 
  68:STM32F769/Drivers/STM32F7xx_HAL_Driver/Src/stm32f7xx_hal_pwr_ex.c ****     *** Main and Backup Regulators configuration ***
  69:STM32F769/Drivers/STM32F7xx_HAL_Driver/Src/stm32f7xx_hal_pwr_ex.c ****     ================================================
  70:STM32F769/Drivers/STM32F7xx_HAL_Driver/Src/stm32f7xx_hal_pwr_ex.c ****     [..] 
  71:STM32F769/Drivers/STM32F7xx_HAL_Driver/Src/stm32f7xx_hal_pwr_ex.c ****       (+) The backup domain includes 4 Kbytes of backup SRAM accessible only from 
  72:STM32F769/Drivers/STM32F7xx_HAL_Driver/Src/stm32f7xx_hal_pwr_ex.c ****           the CPU, and address in 32-bit, 16-bit or 8-bit mode. Its content is 
  73:STM32F769/Drivers/STM32F7xx_HAL_Driver/Src/stm32f7xx_hal_pwr_ex.c ****           retained even in Standby or VBAT mode when the low power backup regulator
  74:STM32F769/Drivers/STM32F7xx_HAL_Driver/Src/stm32f7xx_hal_pwr_ex.c ****           is enabled. It can be considered as an internal EEPROM when VBAT is 
  75:STM32F769/Drivers/STM32F7xx_HAL_Driver/Src/stm32f7xx_hal_pwr_ex.c ****           always present. You can use the HAL_PWREx_EnableBkUpReg() function to 
  76:STM32F769/Drivers/STM32F7xx_HAL_Driver/Src/stm32f7xx_hal_pwr_ex.c ****           enable the low power backup regulator. 
  77:STM32F769/Drivers/STM32F7xx_HAL_Driver/Src/stm32f7xx_hal_pwr_ex.c **** 
  78:STM32F769/Drivers/STM32F7xx_HAL_Driver/Src/stm32f7xx_hal_pwr_ex.c ****       (+) When the backup domain is supplied by VDD (analog switch connected to VDD) 
  79:STM32F769/Drivers/STM32F7xx_HAL_Driver/Src/stm32f7xx_hal_pwr_ex.c ****           the backup SRAM is powered from VDD which replaces the VBAT power supply to 
  80:STM32F769/Drivers/STM32F7xx_HAL_Driver/Src/stm32f7xx_hal_pwr_ex.c ****           save battery life.
  81:STM32F769/Drivers/STM32F7xx_HAL_Driver/Src/stm32f7xx_hal_pwr_ex.c **** 
  82:STM32F769/Drivers/STM32F7xx_HAL_Driver/Src/stm32f7xx_hal_pwr_ex.c ****       (+) The backup SRAM is not mass erased by a tamper event. It is read 
  83:STM32F769/Drivers/STM32F7xx_HAL_Driver/Src/stm32f7xx_hal_pwr_ex.c ****           protected to prevent confidential data, such as cryptographic private 
  84:STM32F769/Drivers/STM32F7xx_HAL_Driver/Src/stm32f7xx_hal_pwr_ex.c ****           key, from being accessed. The backup SRAM can be erased only through 
  85:STM32F769/Drivers/STM32F7xx_HAL_Driver/Src/stm32f7xx_hal_pwr_ex.c ****           the Flash interface when a protection level change from level 1 to 
  86:STM32F769/Drivers/STM32F7xx_HAL_Driver/Src/stm32f7xx_hal_pwr_ex.c ****           level 0 is requested. 
  87:STM32F769/Drivers/STM32F7xx_HAL_Driver/Src/stm32f7xx_hal_pwr_ex.c ****       -@- Refer to the description of Read protection (RDP) in the Flash 
  88:STM32F769/Drivers/STM32F7xx_HAL_Driver/Src/stm32f7xx_hal_pwr_ex.c ****           programming manual.
ARM GAS  /tmp/ccPn5Faf.s 			page 3


  89:STM32F769/Drivers/STM32F7xx_HAL_Driver/Src/stm32f7xx_hal_pwr_ex.c **** 
  90:STM32F769/Drivers/STM32F7xx_HAL_Driver/Src/stm32f7xx_hal_pwr_ex.c ****       (+) The main internal regulator can be configured to have a tradeoff between 
  91:STM32F769/Drivers/STM32F7xx_HAL_Driver/Src/stm32f7xx_hal_pwr_ex.c ****           performance and power consumption when the device does not operate at 
  92:STM32F769/Drivers/STM32F7xx_HAL_Driver/Src/stm32f7xx_hal_pwr_ex.c ****           the maximum frequency. This is done through __HAL_PWR_MAINREGULATORMODE_CONFIG() 
  93:STM32F769/Drivers/STM32F7xx_HAL_Driver/Src/stm32f7xx_hal_pwr_ex.c ****           macro which configure VOS bit in PWR_CR register
  94:STM32F769/Drivers/STM32F7xx_HAL_Driver/Src/stm32f7xx_hal_pwr_ex.c ****           
  95:STM32F769/Drivers/STM32F7xx_HAL_Driver/Src/stm32f7xx_hal_pwr_ex.c ****         Refer to the product datasheets for more details.
  96:STM32F769/Drivers/STM32F7xx_HAL_Driver/Src/stm32f7xx_hal_pwr_ex.c **** 
  97:STM32F769/Drivers/STM32F7xx_HAL_Driver/Src/stm32f7xx_hal_pwr_ex.c ****     *** FLASH Power Down configuration ****
  98:STM32F769/Drivers/STM32F7xx_HAL_Driver/Src/stm32f7xx_hal_pwr_ex.c ****     =======================================
  99:STM32F769/Drivers/STM32F7xx_HAL_Driver/Src/stm32f7xx_hal_pwr_ex.c ****     [..] 
 100:STM32F769/Drivers/STM32F7xx_HAL_Driver/Src/stm32f7xx_hal_pwr_ex.c ****       (+) By setting the FPDS bit in the PWR_CR register by using the 
 101:STM32F769/Drivers/STM32F7xx_HAL_Driver/Src/stm32f7xx_hal_pwr_ex.c ****           HAL_PWREx_EnableFlashPowerDown() function, the Flash memory also enters power 
 102:STM32F769/Drivers/STM32F7xx_HAL_Driver/Src/stm32f7xx_hal_pwr_ex.c ****           down mode when the device enters Stop mode. When the Flash memory 
 103:STM32F769/Drivers/STM32F7xx_HAL_Driver/Src/stm32f7xx_hal_pwr_ex.c ****           is in power down mode, an additional startup delay is incurred when 
 104:STM32F769/Drivers/STM32F7xx_HAL_Driver/Src/stm32f7xx_hal_pwr_ex.c ****           waking up from Stop mode.
 105:STM32F769/Drivers/STM32F7xx_HAL_Driver/Src/stm32f7xx_hal_pwr_ex.c **** 
 106:STM32F769/Drivers/STM32F7xx_HAL_Driver/Src/stm32f7xx_hal_pwr_ex.c ****     *** Over-Drive and Under-Drive configuration ****
 107:STM32F769/Drivers/STM32F7xx_HAL_Driver/Src/stm32f7xx_hal_pwr_ex.c ****     =================================================
 108:STM32F769/Drivers/STM32F7xx_HAL_Driver/Src/stm32f7xx_hal_pwr_ex.c ****     [..]         
 109:STM32F769/Drivers/STM32F7xx_HAL_Driver/Src/stm32f7xx_hal_pwr_ex.c ****        (+) In Run mode: the main regulator has 2 operating modes available:
 110:STM32F769/Drivers/STM32F7xx_HAL_Driver/Src/stm32f7xx_hal_pwr_ex.c ****         (++) Normal mode: The CPU and core logic operate at maximum frequency at a given 
 111:STM32F769/Drivers/STM32F7xx_HAL_Driver/Src/stm32f7xx_hal_pwr_ex.c ****              voltage scaling (scale 1, scale 2 or scale 3)
 112:STM32F769/Drivers/STM32F7xx_HAL_Driver/Src/stm32f7xx_hal_pwr_ex.c ****         (++) Over-drive mode: This mode allows the CPU and the core logic to operate at a 
 113:STM32F769/Drivers/STM32F7xx_HAL_Driver/Src/stm32f7xx_hal_pwr_ex.c ****             higher frequency than the normal mode for a given voltage scaling (scale 1,  
 114:STM32F769/Drivers/STM32F7xx_HAL_Driver/Src/stm32f7xx_hal_pwr_ex.c ****             scale 2 or scale 3). This mode is enabled through HAL_PWREx_EnableOverDrive() function 
 115:STM32F769/Drivers/STM32F7xx_HAL_Driver/Src/stm32f7xx_hal_pwr_ex.c ****             disabled by HAL_PWREx_DisableOverDrive() function, to enter or exit from Over-drive mod
 116:STM32F769/Drivers/STM32F7xx_HAL_Driver/Src/stm32f7xx_hal_pwr_ex.c ****             the sequence described in Reference manual.
 117:STM32F769/Drivers/STM32F7xx_HAL_Driver/Src/stm32f7xx_hal_pwr_ex.c ****              
 118:STM32F769/Drivers/STM32F7xx_HAL_Driver/Src/stm32f7xx_hal_pwr_ex.c ****        (+) In Stop mode: the main regulator or low power regulator supplies a low power 
 119:STM32F769/Drivers/STM32F7xx_HAL_Driver/Src/stm32f7xx_hal_pwr_ex.c ****            voltage to the 1.2V domain, thus preserving the content of registers 
 120:STM32F769/Drivers/STM32F7xx_HAL_Driver/Src/stm32f7xx_hal_pwr_ex.c ****            and internal SRAM. 2 operating modes are available:
 121:STM32F769/Drivers/STM32F7xx_HAL_Driver/Src/stm32f7xx_hal_pwr_ex.c ****          (++) Normal mode: the 1.2V domain is preserved in nominal leakage mode. This mode is only 
 122:STM32F769/Drivers/STM32F7xx_HAL_Driver/Src/stm32f7xx_hal_pwr_ex.c ****               available when the main regulator or the low power regulator is used in Scale 3 or 
 123:STM32F769/Drivers/STM32F7xx_HAL_Driver/Src/stm32f7xx_hal_pwr_ex.c ****               low voltage mode.
 124:STM32F769/Drivers/STM32F7xx_HAL_Driver/Src/stm32f7xx_hal_pwr_ex.c ****          (++) Under-drive mode: the 1.2V domain is preserved in reduced leakage mode. This mode is 
 125:STM32F769/Drivers/STM32F7xx_HAL_Driver/Src/stm32f7xx_hal_pwr_ex.c ****               available when the main regulator or the low power regulator is in low voltage mode.
 126:STM32F769/Drivers/STM32F7xx_HAL_Driver/Src/stm32f7xx_hal_pwr_ex.c **** 
 127:STM32F769/Drivers/STM32F7xx_HAL_Driver/Src/stm32f7xx_hal_pwr_ex.c **** @endverbatim
 128:STM32F769/Drivers/STM32F7xx_HAL_Driver/Src/stm32f7xx_hal_pwr_ex.c ****   * @{
 129:STM32F769/Drivers/STM32F7xx_HAL_Driver/Src/stm32f7xx_hal_pwr_ex.c ****   */
 130:STM32F769/Drivers/STM32F7xx_HAL_Driver/Src/stm32f7xx_hal_pwr_ex.c **** 
 131:STM32F769/Drivers/STM32F7xx_HAL_Driver/Src/stm32f7xx_hal_pwr_ex.c **** /**
 132:STM32F769/Drivers/STM32F7xx_HAL_Driver/Src/stm32f7xx_hal_pwr_ex.c ****   * @brief Enables the Backup Regulator.
 133:STM32F769/Drivers/STM32F7xx_HAL_Driver/Src/stm32f7xx_hal_pwr_ex.c ****   * @retval HAL status
 134:STM32F769/Drivers/STM32F7xx_HAL_Driver/Src/stm32f7xx_hal_pwr_ex.c ****   */
 135:STM32F769/Drivers/STM32F7xx_HAL_Driver/Src/stm32f7xx_hal_pwr_ex.c **** HAL_StatusTypeDef HAL_PWREx_EnableBkUpReg(void)
 136:STM32F769/Drivers/STM32F7xx_HAL_Driver/Src/stm32f7xx_hal_pwr_ex.c **** {
  28              		.loc 1 136 1 view -0
  29              		.cfi_startproc
  30              		@ args = 0, pretend = 0, frame = 0
  31              		@ frame_needed = 0, uses_anonymous_args = 0
  32 0000 10B5     		push	{r4, lr}
  33              	.LCFI0:
  34              		.cfi_def_cfa_offset 8
  35              		.cfi_offset 4, -8
  36              		.cfi_offset 14, -4
ARM GAS  /tmp/ccPn5Faf.s 			page 4


 137:STM32F769/Drivers/STM32F7xx_HAL_Driver/Src/stm32f7xx_hal_pwr_ex.c ****   uint32_t tickstart = 0;
  37              		.loc 1 137 3 view .LVU1
  38              	.LVL0:
 138:STM32F769/Drivers/STM32F7xx_HAL_Driver/Src/stm32f7xx_hal_pwr_ex.c **** 
 139:STM32F769/Drivers/STM32F7xx_HAL_Driver/Src/stm32f7xx_hal_pwr_ex.c ****   /* Enable Backup regulator */
 140:STM32F769/Drivers/STM32F7xx_HAL_Driver/Src/stm32f7xx_hal_pwr_ex.c ****   PWR->CSR1 |= PWR_CSR1_BRE;
  39              		.loc 1 140 3 view .LVU2
  40              		.loc 1 140 13 is_stmt 0 view .LVU3
  41 0002 0D4B     		ldr	r3, .L8
  42 0004 5A68     		ldr	r2, [r3, #4]
  43 0006 42F40072 		orr	r2, r2, #512
  44 000a 5A60     		str	r2, [r3, #4]
 141:STM32F769/Drivers/STM32F7xx_HAL_Driver/Src/stm32f7xx_hal_pwr_ex.c ****     
 142:STM32F769/Drivers/STM32F7xx_HAL_Driver/Src/stm32f7xx_hal_pwr_ex.c ****   /* Workaround for the following hardware bug: */
 143:STM32F769/Drivers/STM32F7xx_HAL_Driver/Src/stm32f7xx_hal_pwr_ex.c ****   /* Id 19: PWR : No STANDBY wake-up when Back-up RAM enabled (ref. Errata Sheet p23) */
 144:STM32F769/Drivers/STM32F7xx_HAL_Driver/Src/stm32f7xx_hal_pwr_ex.c ****   PWR->CSR1 |= PWR_CSR1_EIWUP;
  45              		.loc 1 144 3 is_stmt 1 view .LVU4
  46              		.loc 1 144 13 is_stmt 0 view .LVU5
  47 000c 5A68     		ldr	r2, [r3, #4]
  48 000e 42F48072 		orr	r2, r2, #256
  49 0012 5A60     		str	r2, [r3, #4]
 145:STM32F769/Drivers/STM32F7xx_HAL_Driver/Src/stm32f7xx_hal_pwr_ex.c **** 
 146:STM32F769/Drivers/STM32F7xx_HAL_Driver/Src/stm32f7xx_hal_pwr_ex.c ****   /* Get tick */
 147:STM32F769/Drivers/STM32F7xx_HAL_Driver/Src/stm32f7xx_hal_pwr_ex.c ****   tickstart = HAL_GetTick();
  50              		.loc 1 147 3 is_stmt 1 view .LVU6
  51              		.loc 1 147 15 is_stmt 0 view .LVU7
  52 0014 FFF7FEFF 		bl	HAL_GetTick
  53              	.LVL1:
  54 0018 0446     		mov	r4, r0
  55              	.LVL2:
 148:STM32F769/Drivers/STM32F7xx_HAL_Driver/Src/stm32f7xx_hal_pwr_ex.c **** 
 149:STM32F769/Drivers/STM32F7xx_HAL_Driver/Src/stm32f7xx_hal_pwr_ex.c ****   /* Wait till Backup regulator ready flag is set */  
 150:STM32F769/Drivers/STM32F7xx_HAL_Driver/Src/stm32f7xx_hal_pwr_ex.c ****   while(__HAL_PWR_GET_FLAG(PWR_FLAG_BRR) == RESET)
  56              		.loc 1 150 3 is_stmt 1 view .LVU8
  57              	.L2:
  58              		.loc 1 150 9 is_stmt 0 view .LVU9
  59 001a 074B     		ldr	r3, .L8
  60 001c 5B68     		ldr	r3, [r3, #4]
  61              		.loc 1 150 8 view .LVU10
  62 001e 13F0080F 		tst	r3, #8
  63 0022 07D1     		bne	.L7
 151:STM32F769/Drivers/STM32F7xx_HAL_Driver/Src/stm32f7xx_hal_pwr_ex.c ****   {
 152:STM32F769/Drivers/STM32F7xx_HAL_Driver/Src/stm32f7xx_hal_pwr_ex.c ****     if((HAL_GetTick() - tickstart ) > PWR_BKPREG_TIMEOUT_VALUE)
  64              		.loc 1 152 5 is_stmt 1 view .LVU11
  65              		.loc 1 152 9 is_stmt 0 view .LVU12
  66 0024 FFF7FEFF 		bl	HAL_GetTick
  67              	.LVL3:
  68              		.loc 1 152 23 view .LVU13
  69 0028 001B     		subs	r0, r0, r4
  70              		.loc 1 152 7 view .LVU14
  71 002a B0F57A7F 		cmp	r0, #1000
  72 002e F4D9     		bls	.L2
 153:STM32F769/Drivers/STM32F7xx_HAL_Driver/Src/stm32f7xx_hal_pwr_ex.c ****     {
 154:STM32F769/Drivers/STM32F7xx_HAL_Driver/Src/stm32f7xx_hal_pwr_ex.c ****       return HAL_TIMEOUT;
  73              		.loc 1 154 14 view .LVU15
  74 0030 0320     		movs	r0, #3
  75 0032 00E0     		b	.L3
ARM GAS  /tmp/ccPn5Faf.s 			page 5


  76              	.L7:
 155:STM32F769/Drivers/STM32F7xx_HAL_Driver/Src/stm32f7xx_hal_pwr_ex.c ****     } 
 156:STM32F769/Drivers/STM32F7xx_HAL_Driver/Src/stm32f7xx_hal_pwr_ex.c ****   }
 157:STM32F769/Drivers/STM32F7xx_HAL_Driver/Src/stm32f7xx_hal_pwr_ex.c ****   return HAL_OK;
  77              		.loc 1 157 10 view .LVU16
  78 0034 0020     		movs	r0, #0
  79              	.L3:
 158:STM32F769/Drivers/STM32F7xx_HAL_Driver/Src/stm32f7xx_hal_pwr_ex.c **** }
  80              		.loc 1 158 1 view .LVU17
  81 0036 10BD     		pop	{r4, pc}
  82              	.LVL4:
  83              	.L9:
  84              		.loc 1 158 1 view .LVU18
  85              		.align	2
  86              	.L8:
  87 0038 00700040 		.word	1073770496
  88              		.cfi_endproc
  89              	.LFE141:
  91              		.section	.text.HAL_PWREx_DisableBkUpReg,"ax",%progbits
  92              		.align	1
  93              		.global	HAL_PWREx_DisableBkUpReg
  94              		.syntax unified
  95              		.thumb
  96              		.thumb_func
  97              		.fpu fpv5-d16
  99              	HAL_PWREx_DisableBkUpReg:
 100              	.LFB142:
 159:STM32F769/Drivers/STM32F7xx_HAL_Driver/Src/stm32f7xx_hal_pwr_ex.c **** 
 160:STM32F769/Drivers/STM32F7xx_HAL_Driver/Src/stm32f7xx_hal_pwr_ex.c **** /**
 161:STM32F769/Drivers/STM32F7xx_HAL_Driver/Src/stm32f7xx_hal_pwr_ex.c ****   * @brief Disables the Backup Regulator.
 162:STM32F769/Drivers/STM32F7xx_HAL_Driver/Src/stm32f7xx_hal_pwr_ex.c ****   * @retval HAL status
 163:STM32F769/Drivers/STM32F7xx_HAL_Driver/Src/stm32f7xx_hal_pwr_ex.c ****   */
 164:STM32F769/Drivers/STM32F7xx_HAL_Driver/Src/stm32f7xx_hal_pwr_ex.c **** HAL_StatusTypeDef HAL_PWREx_DisableBkUpReg(void)
 165:STM32F769/Drivers/STM32F7xx_HAL_Driver/Src/stm32f7xx_hal_pwr_ex.c **** {
 101              		.loc 1 165 1 is_stmt 1 view -0
 102              		.cfi_startproc
 103              		@ args = 0, pretend = 0, frame = 0
 104              		@ frame_needed = 0, uses_anonymous_args = 0
 105 0000 10B5     		push	{r4, lr}
 106              	.LCFI1:
 107              		.cfi_def_cfa_offset 8
 108              		.cfi_offset 4, -8
 109              		.cfi_offset 14, -4
 166:STM32F769/Drivers/STM32F7xx_HAL_Driver/Src/stm32f7xx_hal_pwr_ex.c ****   uint32_t tickstart = 0;
 110              		.loc 1 166 3 view .LVU20
 111              	.LVL5:
 167:STM32F769/Drivers/STM32F7xx_HAL_Driver/Src/stm32f7xx_hal_pwr_ex.c ****   
 168:STM32F769/Drivers/STM32F7xx_HAL_Driver/Src/stm32f7xx_hal_pwr_ex.c ****   /* Disable Backup regulator */
 169:STM32F769/Drivers/STM32F7xx_HAL_Driver/Src/stm32f7xx_hal_pwr_ex.c ****   PWR->CSR1 &= (uint32_t)~((uint32_t)PWR_CSR1_BRE);
 112              		.loc 1 169 3 view .LVU21
 113              		.loc 1 169 13 is_stmt 0 view .LVU22
 114 0002 0D4B     		ldr	r3, .L17
 115 0004 5A68     		ldr	r2, [r3, #4]
 116 0006 22F40072 		bic	r2, r2, #512
 117 000a 5A60     		str	r2, [r3, #4]
 170:STM32F769/Drivers/STM32F7xx_HAL_Driver/Src/stm32f7xx_hal_pwr_ex.c ****   
 171:STM32F769/Drivers/STM32F7xx_HAL_Driver/Src/stm32f7xx_hal_pwr_ex.c ****   /* Workaround for the following hardware bug: */
ARM GAS  /tmp/ccPn5Faf.s 			page 6


 172:STM32F769/Drivers/STM32F7xx_HAL_Driver/Src/stm32f7xx_hal_pwr_ex.c ****   /* Id 19: PWR : No STANDBY wake-up when Back-up RAM enabled (ref. Errata Sheet p23) */
 173:STM32F769/Drivers/STM32F7xx_HAL_Driver/Src/stm32f7xx_hal_pwr_ex.c ****   PWR->CSR1 |= PWR_CSR1_EIWUP;
 118              		.loc 1 173 3 is_stmt 1 view .LVU23
 119              		.loc 1 173 13 is_stmt 0 view .LVU24
 120 000c 5A68     		ldr	r2, [r3, #4]
 121 000e 42F48072 		orr	r2, r2, #256
 122 0012 5A60     		str	r2, [r3, #4]
 174:STM32F769/Drivers/STM32F7xx_HAL_Driver/Src/stm32f7xx_hal_pwr_ex.c **** 
 175:STM32F769/Drivers/STM32F7xx_HAL_Driver/Src/stm32f7xx_hal_pwr_ex.c ****   /* Get tick */
 176:STM32F769/Drivers/STM32F7xx_HAL_Driver/Src/stm32f7xx_hal_pwr_ex.c ****   tickstart = HAL_GetTick();
 123              		.loc 1 176 3 is_stmt 1 view .LVU25
 124              		.loc 1 176 15 is_stmt 0 view .LVU26
 125 0014 FFF7FEFF 		bl	HAL_GetTick
 126              	.LVL6:
 127 0018 0446     		mov	r4, r0
 128              	.LVL7:
 177:STM32F769/Drivers/STM32F7xx_HAL_Driver/Src/stm32f7xx_hal_pwr_ex.c **** 
 178:STM32F769/Drivers/STM32F7xx_HAL_Driver/Src/stm32f7xx_hal_pwr_ex.c ****   /* Wait till Backup regulator ready flag is set */  
 179:STM32F769/Drivers/STM32F7xx_HAL_Driver/Src/stm32f7xx_hal_pwr_ex.c ****   while(__HAL_PWR_GET_FLAG(PWR_FLAG_BRR) != RESET)
 129              		.loc 1 179 3 is_stmt 1 view .LVU27
 130              	.L11:
 131              		.loc 1 179 9 is_stmt 0 view .LVU28
 132 001a 074B     		ldr	r3, .L17
 133 001c 5B68     		ldr	r3, [r3, #4]
 134              		.loc 1 179 8 view .LVU29
 135 001e 13F0080F 		tst	r3, #8
 136 0022 07D0     		beq	.L16
 180:STM32F769/Drivers/STM32F7xx_HAL_Driver/Src/stm32f7xx_hal_pwr_ex.c ****   {
 181:STM32F769/Drivers/STM32F7xx_HAL_Driver/Src/stm32f7xx_hal_pwr_ex.c ****     if((HAL_GetTick() - tickstart ) > PWR_BKPREG_TIMEOUT_VALUE)
 137              		.loc 1 181 5 is_stmt 1 view .LVU30
 138              		.loc 1 181 9 is_stmt 0 view .LVU31
 139 0024 FFF7FEFF 		bl	HAL_GetTick
 140              	.LVL8:
 141              		.loc 1 181 23 view .LVU32
 142 0028 001B     		subs	r0, r0, r4
 143              		.loc 1 181 7 view .LVU33
 144 002a B0F57A7F 		cmp	r0, #1000
 145 002e F4D9     		bls	.L11
 182:STM32F769/Drivers/STM32F7xx_HAL_Driver/Src/stm32f7xx_hal_pwr_ex.c ****     {
 183:STM32F769/Drivers/STM32F7xx_HAL_Driver/Src/stm32f7xx_hal_pwr_ex.c ****       return HAL_TIMEOUT;
 146              		.loc 1 183 14 view .LVU34
 147 0030 0320     		movs	r0, #3
 148 0032 00E0     		b	.L12
 149              	.L16:
 184:STM32F769/Drivers/STM32F7xx_HAL_Driver/Src/stm32f7xx_hal_pwr_ex.c ****     } 
 185:STM32F769/Drivers/STM32F7xx_HAL_Driver/Src/stm32f7xx_hal_pwr_ex.c ****   }
 186:STM32F769/Drivers/STM32F7xx_HAL_Driver/Src/stm32f7xx_hal_pwr_ex.c ****   return HAL_OK;
 150              		.loc 1 186 10 view .LVU35
 151 0034 0020     		movs	r0, #0
 152              	.L12:
 187:STM32F769/Drivers/STM32F7xx_HAL_Driver/Src/stm32f7xx_hal_pwr_ex.c **** }
 153              		.loc 1 187 1 view .LVU36
 154 0036 10BD     		pop	{r4, pc}
 155              	.LVL9:
 156              	.L18:
 157              		.loc 1 187 1 view .LVU37
 158              		.align	2
ARM GAS  /tmp/ccPn5Faf.s 			page 7


 159              	.L17:
 160 0038 00700040 		.word	1073770496
 161              		.cfi_endproc
 162              	.LFE142:
 164              		.section	.text.HAL_PWREx_EnableFlashPowerDown,"ax",%progbits
 165              		.align	1
 166              		.global	HAL_PWREx_EnableFlashPowerDown
 167              		.syntax unified
 168              		.thumb
 169              		.thumb_func
 170              		.fpu fpv5-d16
 172              	HAL_PWREx_EnableFlashPowerDown:
 173              	.LFB143:
 188:STM32F769/Drivers/STM32F7xx_HAL_Driver/Src/stm32f7xx_hal_pwr_ex.c **** 
 189:STM32F769/Drivers/STM32F7xx_HAL_Driver/Src/stm32f7xx_hal_pwr_ex.c **** /**
 190:STM32F769/Drivers/STM32F7xx_HAL_Driver/Src/stm32f7xx_hal_pwr_ex.c ****   * @brief Enables the Flash Power Down in Stop mode.
 191:STM32F769/Drivers/STM32F7xx_HAL_Driver/Src/stm32f7xx_hal_pwr_ex.c ****   * @retval None
 192:STM32F769/Drivers/STM32F7xx_HAL_Driver/Src/stm32f7xx_hal_pwr_ex.c ****   */
 193:STM32F769/Drivers/STM32F7xx_HAL_Driver/Src/stm32f7xx_hal_pwr_ex.c **** void HAL_PWREx_EnableFlashPowerDown(void)
 194:STM32F769/Drivers/STM32F7xx_HAL_Driver/Src/stm32f7xx_hal_pwr_ex.c **** {
 174              		.loc 1 194 1 is_stmt 1 view -0
 175              		.cfi_startproc
 176              		@ args = 0, pretend = 0, frame = 0
 177              		@ frame_needed = 0, uses_anonymous_args = 0
 178              		@ link register save eliminated.
 195:STM32F769/Drivers/STM32F7xx_HAL_Driver/Src/stm32f7xx_hal_pwr_ex.c ****   /* Enable the Flash Power Down */
 196:STM32F769/Drivers/STM32F7xx_HAL_Driver/Src/stm32f7xx_hal_pwr_ex.c ****   PWR->CR1 |= PWR_CR1_FPDS;
 179              		.loc 1 196 3 view .LVU39
 180              		.loc 1 196 12 is_stmt 0 view .LVU40
 181 0000 024A     		ldr	r2, .L20
 182 0002 1368     		ldr	r3, [r2]
 183 0004 43F40073 		orr	r3, r3, #512
 184 0008 1360     		str	r3, [r2]
 197:STM32F769/Drivers/STM32F7xx_HAL_Driver/Src/stm32f7xx_hal_pwr_ex.c **** }
 185              		.loc 1 197 1 view .LVU41
 186 000a 7047     		bx	lr
 187              	.L21:
 188              		.align	2
 189              	.L20:
 190 000c 00700040 		.word	1073770496
 191              		.cfi_endproc
 192              	.LFE143:
 194              		.section	.text.HAL_PWREx_DisableFlashPowerDown,"ax",%progbits
 195              		.align	1
 196              		.global	HAL_PWREx_DisableFlashPowerDown
 197              		.syntax unified
 198              		.thumb
 199              		.thumb_func
 200              		.fpu fpv5-d16
 202              	HAL_PWREx_DisableFlashPowerDown:
 203              	.LFB144:
 198:STM32F769/Drivers/STM32F7xx_HAL_Driver/Src/stm32f7xx_hal_pwr_ex.c **** 
 199:STM32F769/Drivers/STM32F7xx_HAL_Driver/Src/stm32f7xx_hal_pwr_ex.c **** /**
 200:STM32F769/Drivers/STM32F7xx_HAL_Driver/Src/stm32f7xx_hal_pwr_ex.c ****   * @brief Disables the Flash Power Down in Stop mode.
 201:STM32F769/Drivers/STM32F7xx_HAL_Driver/Src/stm32f7xx_hal_pwr_ex.c ****   * @retval None
 202:STM32F769/Drivers/STM32F7xx_HAL_Driver/Src/stm32f7xx_hal_pwr_ex.c ****   */
 203:STM32F769/Drivers/STM32F7xx_HAL_Driver/Src/stm32f7xx_hal_pwr_ex.c **** void HAL_PWREx_DisableFlashPowerDown(void)
ARM GAS  /tmp/ccPn5Faf.s 			page 8


 204:STM32F769/Drivers/STM32F7xx_HAL_Driver/Src/stm32f7xx_hal_pwr_ex.c **** {
 204              		.loc 1 204 1 is_stmt 1 view -0
 205              		.cfi_startproc
 206              		@ args = 0, pretend = 0, frame = 0
 207              		@ frame_needed = 0, uses_anonymous_args = 0
 208              		@ link register save eliminated.
 205:STM32F769/Drivers/STM32F7xx_HAL_Driver/Src/stm32f7xx_hal_pwr_ex.c ****   /* Disable the Flash Power Down */
 206:STM32F769/Drivers/STM32F7xx_HAL_Driver/Src/stm32f7xx_hal_pwr_ex.c ****   PWR->CR1 &= (uint32_t)~((uint32_t)PWR_CR1_FPDS);
 209              		.loc 1 206 3 view .LVU43
 210              		.loc 1 206 12 is_stmt 0 view .LVU44
 211 0000 024A     		ldr	r2, .L23
 212 0002 1368     		ldr	r3, [r2]
 213 0004 23F40073 		bic	r3, r3, #512
 214 0008 1360     		str	r3, [r2]
 207:STM32F769/Drivers/STM32F7xx_HAL_Driver/Src/stm32f7xx_hal_pwr_ex.c **** }
 215              		.loc 1 207 1 view .LVU45
 216 000a 7047     		bx	lr
 217              	.L24:
 218              		.align	2
 219              	.L23:
 220 000c 00700040 		.word	1073770496
 221              		.cfi_endproc
 222              	.LFE144:
 224              		.section	.text.HAL_PWREx_EnableMainRegulatorLowVoltage,"ax",%progbits
 225              		.align	1
 226              		.global	HAL_PWREx_EnableMainRegulatorLowVoltage
 227              		.syntax unified
 228              		.thumb
 229              		.thumb_func
 230              		.fpu fpv5-d16
 232              	HAL_PWREx_EnableMainRegulatorLowVoltage:
 233              	.LFB145:
 208:STM32F769/Drivers/STM32F7xx_HAL_Driver/Src/stm32f7xx_hal_pwr_ex.c **** 
 209:STM32F769/Drivers/STM32F7xx_HAL_Driver/Src/stm32f7xx_hal_pwr_ex.c **** /**
 210:STM32F769/Drivers/STM32F7xx_HAL_Driver/Src/stm32f7xx_hal_pwr_ex.c ****   * @brief Enables Main Regulator low voltage mode.
 211:STM32F769/Drivers/STM32F7xx_HAL_Driver/Src/stm32f7xx_hal_pwr_ex.c ****   * @retval None
 212:STM32F769/Drivers/STM32F7xx_HAL_Driver/Src/stm32f7xx_hal_pwr_ex.c ****   */
 213:STM32F769/Drivers/STM32F7xx_HAL_Driver/Src/stm32f7xx_hal_pwr_ex.c **** void HAL_PWREx_EnableMainRegulatorLowVoltage(void)
 214:STM32F769/Drivers/STM32F7xx_HAL_Driver/Src/stm32f7xx_hal_pwr_ex.c **** {
 234              		.loc 1 214 1 is_stmt 1 view -0
 235              		.cfi_startproc
 236              		@ args = 0, pretend = 0, frame = 0
 237              		@ frame_needed = 0, uses_anonymous_args = 0
 238              		@ link register save eliminated.
 215:STM32F769/Drivers/STM32F7xx_HAL_Driver/Src/stm32f7xx_hal_pwr_ex.c ****   /* Enable Main regulator low voltage */
 216:STM32F769/Drivers/STM32F7xx_HAL_Driver/Src/stm32f7xx_hal_pwr_ex.c ****   PWR->CR1 |= PWR_CR1_MRUDS;
 239              		.loc 1 216 3 view .LVU47
 240              		.loc 1 216 12 is_stmt 0 view .LVU48
 241 0000 024A     		ldr	r2, .L26
 242 0002 1368     		ldr	r3, [r2]
 243 0004 43F40063 		orr	r3, r3, #2048
 244 0008 1360     		str	r3, [r2]
 217:STM32F769/Drivers/STM32F7xx_HAL_Driver/Src/stm32f7xx_hal_pwr_ex.c **** }
 245              		.loc 1 217 1 view .LVU49
 246 000a 7047     		bx	lr
 247              	.L27:
 248              		.align	2
ARM GAS  /tmp/ccPn5Faf.s 			page 9


 249              	.L26:
 250 000c 00700040 		.word	1073770496
 251              		.cfi_endproc
 252              	.LFE145:
 254              		.section	.text.HAL_PWREx_DisableMainRegulatorLowVoltage,"ax",%progbits
 255              		.align	1
 256              		.global	HAL_PWREx_DisableMainRegulatorLowVoltage
 257              		.syntax unified
 258              		.thumb
 259              		.thumb_func
 260              		.fpu fpv5-d16
 262              	HAL_PWREx_DisableMainRegulatorLowVoltage:
 263              	.LFB146:
 218:STM32F769/Drivers/STM32F7xx_HAL_Driver/Src/stm32f7xx_hal_pwr_ex.c **** 
 219:STM32F769/Drivers/STM32F7xx_HAL_Driver/Src/stm32f7xx_hal_pwr_ex.c **** /**
 220:STM32F769/Drivers/STM32F7xx_HAL_Driver/Src/stm32f7xx_hal_pwr_ex.c ****   * @brief Disables Main Regulator low voltage mode.
 221:STM32F769/Drivers/STM32F7xx_HAL_Driver/Src/stm32f7xx_hal_pwr_ex.c ****   * @retval None
 222:STM32F769/Drivers/STM32F7xx_HAL_Driver/Src/stm32f7xx_hal_pwr_ex.c ****   */
 223:STM32F769/Drivers/STM32F7xx_HAL_Driver/Src/stm32f7xx_hal_pwr_ex.c **** void HAL_PWREx_DisableMainRegulatorLowVoltage(void)
 224:STM32F769/Drivers/STM32F7xx_HAL_Driver/Src/stm32f7xx_hal_pwr_ex.c **** {  
 264              		.loc 1 224 1 is_stmt 1 view -0
 265              		.cfi_startproc
 266              		@ args = 0, pretend = 0, frame = 0
 267              		@ frame_needed = 0, uses_anonymous_args = 0
 268              		@ link register save eliminated.
 225:STM32F769/Drivers/STM32F7xx_HAL_Driver/Src/stm32f7xx_hal_pwr_ex.c ****   /* Disable Main regulator low voltage */
 226:STM32F769/Drivers/STM32F7xx_HAL_Driver/Src/stm32f7xx_hal_pwr_ex.c ****   PWR->CR1 &= (uint32_t)~((uint32_t)PWR_CR1_MRUDS);
 269              		.loc 1 226 3 view .LVU51
 270              		.loc 1 226 12 is_stmt 0 view .LVU52
 271 0000 024A     		ldr	r2, .L29
 272 0002 1368     		ldr	r3, [r2]
 273 0004 23F40063 		bic	r3, r3, #2048
 274 0008 1360     		str	r3, [r2]
 227:STM32F769/Drivers/STM32F7xx_HAL_Driver/Src/stm32f7xx_hal_pwr_ex.c **** }
 275              		.loc 1 227 1 view .LVU53
 276 000a 7047     		bx	lr
 277              	.L30:
 278              		.align	2
 279              	.L29:
 280 000c 00700040 		.word	1073770496
 281              		.cfi_endproc
 282              	.LFE146:
 284              		.section	.text.HAL_PWREx_EnableLowRegulatorLowVoltage,"ax",%progbits
 285              		.align	1
 286              		.global	HAL_PWREx_EnableLowRegulatorLowVoltage
 287              		.syntax unified
 288              		.thumb
 289              		.thumb_func
 290              		.fpu fpv5-d16
 292              	HAL_PWREx_EnableLowRegulatorLowVoltage:
 293              	.LFB147:
 228:STM32F769/Drivers/STM32F7xx_HAL_Driver/Src/stm32f7xx_hal_pwr_ex.c **** 
 229:STM32F769/Drivers/STM32F7xx_HAL_Driver/Src/stm32f7xx_hal_pwr_ex.c **** /**
 230:STM32F769/Drivers/STM32F7xx_HAL_Driver/Src/stm32f7xx_hal_pwr_ex.c ****   * @brief Enables Low Power Regulator low voltage mode.
 231:STM32F769/Drivers/STM32F7xx_HAL_Driver/Src/stm32f7xx_hal_pwr_ex.c ****   * @retval None
 232:STM32F769/Drivers/STM32F7xx_HAL_Driver/Src/stm32f7xx_hal_pwr_ex.c ****   */
 233:STM32F769/Drivers/STM32F7xx_HAL_Driver/Src/stm32f7xx_hal_pwr_ex.c **** void HAL_PWREx_EnableLowRegulatorLowVoltage(void)
ARM GAS  /tmp/ccPn5Faf.s 			page 10


 234:STM32F769/Drivers/STM32F7xx_HAL_Driver/Src/stm32f7xx_hal_pwr_ex.c **** {
 294              		.loc 1 234 1 is_stmt 1 view -0
 295              		.cfi_startproc
 296              		@ args = 0, pretend = 0, frame = 0
 297              		@ frame_needed = 0, uses_anonymous_args = 0
 298              		@ link register save eliminated.
 235:STM32F769/Drivers/STM32F7xx_HAL_Driver/Src/stm32f7xx_hal_pwr_ex.c ****   /* Enable low power regulator */
 236:STM32F769/Drivers/STM32F7xx_HAL_Driver/Src/stm32f7xx_hal_pwr_ex.c ****   PWR->CR1 |= PWR_CR1_LPUDS;
 299              		.loc 1 236 3 view .LVU55
 300              		.loc 1 236 12 is_stmt 0 view .LVU56
 301 0000 024A     		ldr	r2, .L32
 302 0002 1368     		ldr	r3, [r2]
 303 0004 43F48063 		orr	r3, r3, #1024
 304 0008 1360     		str	r3, [r2]
 237:STM32F769/Drivers/STM32F7xx_HAL_Driver/Src/stm32f7xx_hal_pwr_ex.c **** }
 305              		.loc 1 237 1 view .LVU57
 306 000a 7047     		bx	lr
 307              	.L33:
 308              		.align	2
 309              	.L32:
 310 000c 00700040 		.word	1073770496
 311              		.cfi_endproc
 312              	.LFE147:
 314              		.section	.text.HAL_PWREx_DisableLowRegulatorLowVoltage,"ax",%progbits
 315              		.align	1
 316              		.global	HAL_PWREx_DisableLowRegulatorLowVoltage
 317              		.syntax unified
 318              		.thumb
 319              		.thumb_func
 320              		.fpu fpv5-d16
 322              	HAL_PWREx_DisableLowRegulatorLowVoltage:
 323              	.LFB148:
 238:STM32F769/Drivers/STM32F7xx_HAL_Driver/Src/stm32f7xx_hal_pwr_ex.c **** 
 239:STM32F769/Drivers/STM32F7xx_HAL_Driver/Src/stm32f7xx_hal_pwr_ex.c **** /**
 240:STM32F769/Drivers/STM32F7xx_HAL_Driver/Src/stm32f7xx_hal_pwr_ex.c ****   * @brief Disables Low Power Regulator low voltage mode.
 241:STM32F769/Drivers/STM32F7xx_HAL_Driver/Src/stm32f7xx_hal_pwr_ex.c ****   * @retval None
 242:STM32F769/Drivers/STM32F7xx_HAL_Driver/Src/stm32f7xx_hal_pwr_ex.c ****   */
 243:STM32F769/Drivers/STM32F7xx_HAL_Driver/Src/stm32f7xx_hal_pwr_ex.c **** void HAL_PWREx_DisableLowRegulatorLowVoltage(void)
 244:STM32F769/Drivers/STM32F7xx_HAL_Driver/Src/stm32f7xx_hal_pwr_ex.c **** {
 324              		.loc 1 244 1 is_stmt 1 view -0
 325              		.cfi_startproc
 326              		@ args = 0, pretend = 0, frame = 0
 327              		@ frame_needed = 0, uses_anonymous_args = 0
 328              		@ link register save eliminated.
 245:STM32F769/Drivers/STM32F7xx_HAL_Driver/Src/stm32f7xx_hal_pwr_ex.c ****   /* Disable low power regulator */
 246:STM32F769/Drivers/STM32F7xx_HAL_Driver/Src/stm32f7xx_hal_pwr_ex.c ****   PWR->CR1 &= (uint32_t)~((uint32_t)PWR_CR1_LPUDS);
 329              		.loc 1 246 3 view .LVU59
 330              		.loc 1 246 12 is_stmt 0 view .LVU60
 331 0000 024A     		ldr	r2, .L35
 332 0002 1368     		ldr	r3, [r2]
 333 0004 23F48063 		bic	r3, r3, #1024
 334 0008 1360     		str	r3, [r2]
 247:STM32F769/Drivers/STM32F7xx_HAL_Driver/Src/stm32f7xx_hal_pwr_ex.c **** }
 335              		.loc 1 247 1 view .LVU61
 336 000a 7047     		bx	lr
 337              	.L36:
 338              		.align	2
ARM GAS  /tmp/ccPn5Faf.s 			page 11


 339              	.L35:
 340 000c 00700040 		.word	1073770496
 341              		.cfi_endproc
 342              	.LFE148:
 344              		.section	.text.HAL_PWREx_EnableOverDrive,"ax",%progbits
 345              		.align	1
 346              		.global	HAL_PWREx_EnableOverDrive
 347              		.syntax unified
 348              		.thumb
 349              		.thumb_func
 350              		.fpu fpv5-d16
 352              	HAL_PWREx_EnableOverDrive:
 353              	.LFB149:
 248:STM32F769/Drivers/STM32F7xx_HAL_Driver/Src/stm32f7xx_hal_pwr_ex.c **** 
 249:STM32F769/Drivers/STM32F7xx_HAL_Driver/Src/stm32f7xx_hal_pwr_ex.c **** /**
 250:STM32F769/Drivers/STM32F7xx_HAL_Driver/Src/stm32f7xx_hal_pwr_ex.c ****   * @brief  Activates the Over-Drive mode.
 251:STM32F769/Drivers/STM32F7xx_HAL_Driver/Src/stm32f7xx_hal_pwr_ex.c ****   * @note   This mode allows the CPU and the core logic to operate at a higher frequency
 252:STM32F769/Drivers/STM32F7xx_HAL_Driver/Src/stm32f7xx_hal_pwr_ex.c ****   *         than the normal mode for a given voltage scaling (scale 1, scale 2 or scale 3).   
 253:STM32F769/Drivers/STM32F7xx_HAL_Driver/Src/stm32f7xx_hal_pwr_ex.c ****   * @note   It is recommended to enter or exit Over-drive mode when the application is not running 
 254:STM32F769/Drivers/STM32F7xx_HAL_Driver/Src/stm32f7xx_hal_pwr_ex.c ****   *         critical tasks and when the system clock source is either HSI or HSE. 
 255:STM32F769/Drivers/STM32F7xx_HAL_Driver/Src/stm32f7xx_hal_pwr_ex.c ****   *         During the Over-drive switch activation, no peripheral clocks should be enabled.   
 256:STM32F769/Drivers/STM32F7xx_HAL_Driver/Src/stm32f7xx_hal_pwr_ex.c ****   *         The peripheral clocks must be enabled once the Over-drive mode is activated.   
 257:STM32F769/Drivers/STM32F7xx_HAL_Driver/Src/stm32f7xx_hal_pwr_ex.c ****   * @retval HAL status
 258:STM32F769/Drivers/STM32F7xx_HAL_Driver/Src/stm32f7xx_hal_pwr_ex.c ****   */
 259:STM32F769/Drivers/STM32F7xx_HAL_Driver/Src/stm32f7xx_hal_pwr_ex.c **** HAL_StatusTypeDef HAL_PWREx_EnableOverDrive(void)
 260:STM32F769/Drivers/STM32F7xx_HAL_Driver/Src/stm32f7xx_hal_pwr_ex.c **** {
 354              		.loc 1 260 1 is_stmt 1 view -0
 355              		.cfi_startproc
 356              		@ args = 0, pretend = 0, frame = 8
 357              		@ frame_needed = 0, uses_anonymous_args = 0
 358 0000 10B5     		push	{r4, lr}
 359              	.LCFI2:
 360              		.cfi_def_cfa_offset 8
 361              		.cfi_offset 4, -8
 362              		.cfi_offset 14, -4
 363 0002 82B0     		sub	sp, sp, #8
 364              	.LCFI3:
 365              		.cfi_def_cfa_offset 16
 261:STM32F769/Drivers/STM32F7xx_HAL_Driver/Src/stm32f7xx_hal_pwr_ex.c ****   uint32_t tickstart = 0;
 366              		.loc 1 261 3 view .LVU63
 367              	.LVL10:
 262:STM32F769/Drivers/STM32F7xx_HAL_Driver/Src/stm32f7xx_hal_pwr_ex.c **** 
 263:STM32F769/Drivers/STM32F7xx_HAL_Driver/Src/stm32f7xx_hal_pwr_ex.c ****   __HAL_RCC_PWR_CLK_ENABLE();
 368              		.loc 1 263 3 view .LVU64
 369              	.LBB2:
 370              		.loc 1 263 3 view .LVU65
 371              		.loc 1 263 3 view .LVU66
 372 0004 1B4B     		ldr	r3, .L48
 373 0006 1A6C     		ldr	r2, [r3, #64]
 374 0008 42F08052 		orr	r2, r2, #268435456
 375 000c 1A64     		str	r2, [r3, #64]
 376              		.loc 1 263 3 view .LVU67
 377 000e 1B6C     		ldr	r3, [r3, #64]
 378 0010 03F08053 		and	r3, r3, #268435456
 379 0014 0193     		str	r3, [sp, #4]
 380              		.loc 1 263 3 view .LVU68
 381 0016 019B     		ldr	r3, [sp, #4]
ARM GAS  /tmp/ccPn5Faf.s 			page 12


 382              	.LBE2:
 264:STM32F769/Drivers/STM32F7xx_HAL_Driver/Src/stm32f7xx_hal_pwr_ex.c ****   
 265:STM32F769/Drivers/STM32F7xx_HAL_Driver/Src/stm32f7xx_hal_pwr_ex.c ****   /* Enable the Over-drive to extend the clock frequency to 216 MHz */
 266:STM32F769/Drivers/STM32F7xx_HAL_Driver/Src/stm32f7xx_hal_pwr_ex.c ****   __HAL_PWR_OVERDRIVE_ENABLE();
 383              		.loc 1 266 3 view .LVU69
 384 0018 174A     		ldr	r2, .L48+4
 385 001a 1368     		ldr	r3, [r2]
 386 001c 43F48033 		orr	r3, r3, #65536
 387 0020 1360     		str	r3, [r2]
 267:STM32F769/Drivers/STM32F7xx_HAL_Driver/Src/stm32f7xx_hal_pwr_ex.c **** 
 268:STM32F769/Drivers/STM32F7xx_HAL_Driver/Src/stm32f7xx_hal_pwr_ex.c ****   /* Get tick */
 269:STM32F769/Drivers/STM32F7xx_HAL_Driver/Src/stm32f7xx_hal_pwr_ex.c ****   tickstart = HAL_GetTick();
 388              		.loc 1 269 3 view .LVU70
 389              		.loc 1 269 15 is_stmt 0 view .LVU71
 390 0022 FFF7FEFF 		bl	HAL_GetTick
 391              	.LVL11:
 392 0026 0446     		mov	r4, r0
 393              	.LVL12:
 270:STM32F769/Drivers/STM32F7xx_HAL_Driver/Src/stm32f7xx_hal_pwr_ex.c **** 
 271:STM32F769/Drivers/STM32F7xx_HAL_Driver/Src/stm32f7xx_hal_pwr_ex.c ****   while(!__HAL_PWR_GET_FLAG(PWR_FLAG_ODRDY))
 394              		.loc 1 271 3 is_stmt 1 view .LVU72
 395              	.L38:
 396              		.loc 1 271 10 is_stmt 0 view .LVU73
 397 0028 134B     		ldr	r3, .L48+4
 398 002a 5B68     		ldr	r3, [r3, #4]
 399              		.loc 1 271 8 view .LVU74
 400 002c 13F4803F 		tst	r3, #65536
 401 0030 08D1     		bne	.L46
 272:STM32F769/Drivers/STM32F7xx_HAL_Driver/Src/stm32f7xx_hal_pwr_ex.c ****   {
 273:STM32F769/Drivers/STM32F7xx_HAL_Driver/Src/stm32f7xx_hal_pwr_ex.c ****     if((HAL_GetTick() - tickstart ) > PWR_OVERDRIVE_TIMEOUT_VALUE)
 402              		.loc 1 273 5 is_stmt 1 view .LVU75
 403              		.loc 1 273 9 is_stmt 0 view .LVU76
 404 0032 FFF7FEFF 		bl	HAL_GetTick
 405              	.LVL13:
 406              		.loc 1 273 23 view .LVU77
 407 0036 001B     		subs	r0, r0, r4
 408              		.loc 1 273 7 view .LVU78
 409 0038 B0F57A7F 		cmp	r0, #1000
 410 003c F4D9     		bls	.L38
 274:STM32F769/Drivers/STM32F7xx_HAL_Driver/Src/stm32f7xx_hal_pwr_ex.c ****     {
 275:STM32F769/Drivers/STM32F7xx_HAL_Driver/Src/stm32f7xx_hal_pwr_ex.c ****       return HAL_TIMEOUT;
 411              		.loc 1 275 14 view .LVU79
 412 003e 0320     		movs	r0, #3
 413              	.L39:
 276:STM32F769/Drivers/STM32F7xx_HAL_Driver/Src/stm32f7xx_hal_pwr_ex.c ****     }
 277:STM32F769/Drivers/STM32F7xx_HAL_Driver/Src/stm32f7xx_hal_pwr_ex.c ****   }
 278:STM32F769/Drivers/STM32F7xx_HAL_Driver/Src/stm32f7xx_hal_pwr_ex.c ****   
 279:STM32F769/Drivers/STM32F7xx_HAL_Driver/Src/stm32f7xx_hal_pwr_ex.c ****   /* Enable the Over-drive switch */
 280:STM32F769/Drivers/STM32F7xx_HAL_Driver/Src/stm32f7xx_hal_pwr_ex.c ****   __HAL_PWR_OVERDRIVESWITCHING_ENABLE();
 281:STM32F769/Drivers/STM32F7xx_HAL_Driver/Src/stm32f7xx_hal_pwr_ex.c **** 
 282:STM32F769/Drivers/STM32F7xx_HAL_Driver/Src/stm32f7xx_hal_pwr_ex.c ****   /* Get tick */
 283:STM32F769/Drivers/STM32F7xx_HAL_Driver/Src/stm32f7xx_hal_pwr_ex.c ****   tickstart = HAL_GetTick();
 284:STM32F769/Drivers/STM32F7xx_HAL_Driver/Src/stm32f7xx_hal_pwr_ex.c **** 
 285:STM32F769/Drivers/STM32F7xx_HAL_Driver/Src/stm32f7xx_hal_pwr_ex.c ****   while(!__HAL_PWR_GET_FLAG(PWR_FLAG_ODSWRDY))
 286:STM32F769/Drivers/STM32F7xx_HAL_Driver/Src/stm32f7xx_hal_pwr_ex.c ****   {
 287:STM32F769/Drivers/STM32F7xx_HAL_Driver/Src/stm32f7xx_hal_pwr_ex.c ****     if((HAL_GetTick() - tickstart ) > PWR_OVERDRIVE_TIMEOUT_VALUE)
 288:STM32F769/Drivers/STM32F7xx_HAL_Driver/Src/stm32f7xx_hal_pwr_ex.c ****     {
ARM GAS  /tmp/ccPn5Faf.s 			page 13


 289:STM32F769/Drivers/STM32F7xx_HAL_Driver/Src/stm32f7xx_hal_pwr_ex.c ****       return HAL_TIMEOUT;
 290:STM32F769/Drivers/STM32F7xx_HAL_Driver/Src/stm32f7xx_hal_pwr_ex.c ****     }
 291:STM32F769/Drivers/STM32F7xx_HAL_Driver/Src/stm32f7xx_hal_pwr_ex.c ****   } 
 292:STM32F769/Drivers/STM32F7xx_HAL_Driver/Src/stm32f7xx_hal_pwr_ex.c ****   return HAL_OK;
 293:STM32F769/Drivers/STM32F7xx_HAL_Driver/Src/stm32f7xx_hal_pwr_ex.c **** }
 414              		.loc 1 293 1 view .LVU80
 415 0040 02B0     		add	sp, sp, #8
 416              	.LCFI4:
 417              		.cfi_remember_state
 418              		.cfi_def_cfa_offset 8
 419              		@ sp needed
 420 0042 10BD     		pop	{r4, pc}
 421              	.LVL14:
 422              	.L46:
 423              	.LCFI5:
 424              		.cfi_restore_state
 280:STM32F769/Drivers/STM32F7xx_HAL_Driver/Src/stm32f7xx_hal_pwr_ex.c **** 
 425              		.loc 1 280 3 is_stmt 1 view .LVU81
 426 0044 0C4A     		ldr	r2, .L48+4
 427 0046 1368     		ldr	r3, [r2]
 428 0048 43F40033 		orr	r3, r3, #131072
 429 004c 1360     		str	r3, [r2]
 283:STM32F769/Drivers/STM32F7xx_HAL_Driver/Src/stm32f7xx_hal_pwr_ex.c **** 
 430              		.loc 1 283 3 view .LVU82
 283:STM32F769/Drivers/STM32F7xx_HAL_Driver/Src/stm32f7xx_hal_pwr_ex.c **** 
 431              		.loc 1 283 15 is_stmt 0 view .LVU83
 432 004e FFF7FEFF 		bl	HAL_GetTick
 433              	.LVL15:
 434 0052 0446     		mov	r4, r0
 435              	.LVL16:
 285:STM32F769/Drivers/STM32F7xx_HAL_Driver/Src/stm32f7xx_hal_pwr_ex.c ****   {
 436              		.loc 1 285 3 is_stmt 1 view .LVU84
 437              	.L41:
 285:STM32F769/Drivers/STM32F7xx_HAL_Driver/Src/stm32f7xx_hal_pwr_ex.c ****   {
 438              		.loc 1 285 10 is_stmt 0 view .LVU85
 439 0054 084B     		ldr	r3, .L48+4
 440 0056 5B68     		ldr	r3, [r3, #4]
 285:STM32F769/Drivers/STM32F7xx_HAL_Driver/Src/stm32f7xx_hal_pwr_ex.c ****   {
 441              		.loc 1 285 8 view .LVU86
 442 0058 13F4003F 		tst	r3, #131072
 443 005c 07D1     		bne	.L47
 287:STM32F769/Drivers/STM32F7xx_HAL_Driver/Src/stm32f7xx_hal_pwr_ex.c ****     {
 444              		.loc 1 287 5 is_stmt 1 view .LVU87
 287:STM32F769/Drivers/STM32F7xx_HAL_Driver/Src/stm32f7xx_hal_pwr_ex.c ****     {
 445              		.loc 1 287 9 is_stmt 0 view .LVU88
 446 005e FFF7FEFF 		bl	HAL_GetTick
 447              	.LVL17:
 287:STM32F769/Drivers/STM32F7xx_HAL_Driver/Src/stm32f7xx_hal_pwr_ex.c ****     {
 448              		.loc 1 287 23 view .LVU89
 449 0062 001B     		subs	r0, r0, r4
 287:STM32F769/Drivers/STM32F7xx_HAL_Driver/Src/stm32f7xx_hal_pwr_ex.c ****     {
 450              		.loc 1 287 7 view .LVU90
 451 0064 B0F57A7F 		cmp	r0, #1000
 452 0068 F4D9     		bls	.L41
 289:STM32F769/Drivers/STM32F7xx_HAL_Driver/Src/stm32f7xx_hal_pwr_ex.c ****     }
 453              		.loc 1 289 14 view .LVU91
 454 006a 0320     		movs	r0, #3
ARM GAS  /tmp/ccPn5Faf.s 			page 14


 455 006c E8E7     		b	.L39
 456              	.L47:
 292:STM32F769/Drivers/STM32F7xx_HAL_Driver/Src/stm32f7xx_hal_pwr_ex.c **** }
 457              		.loc 1 292 10 view .LVU92
 458 006e 0020     		movs	r0, #0
 459 0070 E6E7     		b	.L39
 460              	.L49:
 461 0072 00BF     		.align	2
 462              	.L48:
 463 0074 00380240 		.word	1073887232
 464 0078 00700040 		.word	1073770496
 465              		.cfi_endproc
 466              	.LFE149:
 468              		.section	.text.HAL_PWREx_DisableOverDrive,"ax",%progbits
 469              		.align	1
 470              		.global	HAL_PWREx_DisableOverDrive
 471              		.syntax unified
 472              		.thumb
 473              		.thumb_func
 474              		.fpu fpv5-d16
 476              	HAL_PWREx_DisableOverDrive:
 477              	.LFB150:
 294:STM32F769/Drivers/STM32F7xx_HAL_Driver/Src/stm32f7xx_hal_pwr_ex.c **** 
 295:STM32F769/Drivers/STM32F7xx_HAL_Driver/Src/stm32f7xx_hal_pwr_ex.c **** /**
 296:STM32F769/Drivers/STM32F7xx_HAL_Driver/Src/stm32f7xx_hal_pwr_ex.c ****   * @brief  Deactivates the Over-Drive mode.
 297:STM32F769/Drivers/STM32F7xx_HAL_Driver/Src/stm32f7xx_hal_pwr_ex.c ****   * @note   This mode allows the CPU and the core logic to operate at a higher frequency
 298:STM32F769/Drivers/STM32F7xx_HAL_Driver/Src/stm32f7xx_hal_pwr_ex.c ****   *         than the normal mode for a given voltage scaling (scale 1, scale 2 or scale 3).    
 299:STM32F769/Drivers/STM32F7xx_HAL_Driver/Src/stm32f7xx_hal_pwr_ex.c ****   * @note   It is recommended to enter or exit Over-drive mode when the application is not running 
 300:STM32F769/Drivers/STM32F7xx_HAL_Driver/Src/stm32f7xx_hal_pwr_ex.c ****   *         critical tasks and when the system clock source is either HSI or HSE. 
 301:STM32F769/Drivers/STM32F7xx_HAL_Driver/Src/stm32f7xx_hal_pwr_ex.c ****   *         During the Over-drive switch activation, no peripheral clocks should be enabled.   
 302:STM32F769/Drivers/STM32F7xx_HAL_Driver/Src/stm32f7xx_hal_pwr_ex.c ****   *         The peripheral clocks must be enabled once the Over-drive mode is activated.
 303:STM32F769/Drivers/STM32F7xx_HAL_Driver/Src/stm32f7xx_hal_pwr_ex.c ****   * @retval HAL status
 304:STM32F769/Drivers/STM32F7xx_HAL_Driver/Src/stm32f7xx_hal_pwr_ex.c ****   */
 305:STM32F769/Drivers/STM32F7xx_HAL_Driver/Src/stm32f7xx_hal_pwr_ex.c **** HAL_StatusTypeDef HAL_PWREx_DisableOverDrive(void)
 306:STM32F769/Drivers/STM32F7xx_HAL_Driver/Src/stm32f7xx_hal_pwr_ex.c **** {
 478              		.loc 1 306 1 is_stmt 1 view -0
 479              		.cfi_startproc
 480              		@ args = 0, pretend = 0, frame = 8
 481              		@ frame_needed = 0, uses_anonymous_args = 0
 482 0000 10B5     		push	{r4, lr}
 483              	.LCFI6:
 484              		.cfi_def_cfa_offset 8
 485              		.cfi_offset 4, -8
 486              		.cfi_offset 14, -4
 487 0002 82B0     		sub	sp, sp, #8
 488              	.LCFI7:
 489              		.cfi_def_cfa_offset 16
 307:STM32F769/Drivers/STM32F7xx_HAL_Driver/Src/stm32f7xx_hal_pwr_ex.c ****   uint32_t tickstart = 0;
 490              		.loc 1 307 3 view .LVU94
 491              	.LVL18:
 308:STM32F769/Drivers/STM32F7xx_HAL_Driver/Src/stm32f7xx_hal_pwr_ex.c ****   
 309:STM32F769/Drivers/STM32F7xx_HAL_Driver/Src/stm32f7xx_hal_pwr_ex.c ****   __HAL_RCC_PWR_CLK_ENABLE();
 492              		.loc 1 309 3 view .LVU95
 493              	.LBB3:
 494              		.loc 1 309 3 view .LVU96
 495              		.loc 1 309 3 view .LVU97
 496 0004 1B4B     		ldr	r3, .L61
ARM GAS  /tmp/ccPn5Faf.s 			page 15


 497 0006 1A6C     		ldr	r2, [r3, #64]
 498 0008 42F08052 		orr	r2, r2, #268435456
 499 000c 1A64     		str	r2, [r3, #64]
 500              		.loc 1 309 3 view .LVU98
 501 000e 1B6C     		ldr	r3, [r3, #64]
 502 0010 03F08053 		and	r3, r3, #268435456
 503 0014 0193     		str	r3, [sp, #4]
 504              		.loc 1 309 3 view .LVU99
 505 0016 019B     		ldr	r3, [sp, #4]
 506              	.LBE3:
 310:STM32F769/Drivers/STM32F7xx_HAL_Driver/Src/stm32f7xx_hal_pwr_ex.c ****     
 311:STM32F769/Drivers/STM32F7xx_HAL_Driver/Src/stm32f7xx_hal_pwr_ex.c ****   /* Disable the Over-drive switch */
 312:STM32F769/Drivers/STM32F7xx_HAL_Driver/Src/stm32f7xx_hal_pwr_ex.c ****   __HAL_PWR_OVERDRIVESWITCHING_DISABLE();
 507              		.loc 1 312 3 view .LVU100
 508 0018 174A     		ldr	r2, .L61+4
 509 001a 1368     		ldr	r3, [r2]
 510 001c 23F40033 		bic	r3, r3, #131072
 511 0020 1360     		str	r3, [r2]
 313:STM32F769/Drivers/STM32F7xx_HAL_Driver/Src/stm32f7xx_hal_pwr_ex.c ****   
 314:STM32F769/Drivers/STM32F7xx_HAL_Driver/Src/stm32f7xx_hal_pwr_ex.c ****   /* Get tick */
 315:STM32F769/Drivers/STM32F7xx_HAL_Driver/Src/stm32f7xx_hal_pwr_ex.c ****   tickstart = HAL_GetTick();
 512              		.loc 1 315 3 view .LVU101
 513              		.loc 1 315 15 is_stmt 0 view .LVU102
 514 0022 FFF7FEFF 		bl	HAL_GetTick
 515              	.LVL19:
 516 0026 0446     		mov	r4, r0
 517              	.LVL20:
 316:STM32F769/Drivers/STM32F7xx_HAL_Driver/Src/stm32f7xx_hal_pwr_ex.c ****  
 317:STM32F769/Drivers/STM32F7xx_HAL_Driver/Src/stm32f7xx_hal_pwr_ex.c ****   while(__HAL_PWR_GET_FLAG(PWR_FLAG_ODSWRDY))
 518              		.loc 1 317 3 is_stmt 1 view .LVU103
 519              	.L51:
 520              		.loc 1 317 9 is_stmt 0 view .LVU104
 521 0028 134B     		ldr	r3, .L61+4
 522 002a 5B68     		ldr	r3, [r3, #4]
 523              		.loc 1 317 8 view .LVU105
 524 002c 13F4003F 		tst	r3, #131072
 525 0030 08D0     		beq	.L59
 318:STM32F769/Drivers/STM32F7xx_HAL_Driver/Src/stm32f7xx_hal_pwr_ex.c ****   {
 319:STM32F769/Drivers/STM32F7xx_HAL_Driver/Src/stm32f7xx_hal_pwr_ex.c ****     if((HAL_GetTick() - tickstart ) > PWR_OVERDRIVE_TIMEOUT_VALUE)
 526              		.loc 1 319 5 is_stmt 1 view .LVU106
 527              		.loc 1 319 9 is_stmt 0 view .LVU107
 528 0032 FFF7FEFF 		bl	HAL_GetTick
 529              	.LVL21:
 530              		.loc 1 319 23 view .LVU108
 531 0036 001B     		subs	r0, r0, r4
 532              		.loc 1 319 7 view .LVU109
 533 0038 B0F57A7F 		cmp	r0, #1000
 534 003c F4D9     		bls	.L51
 320:STM32F769/Drivers/STM32F7xx_HAL_Driver/Src/stm32f7xx_hal_pwr_ex.c ****     {
 321:STM32F769/Drivers/STM32F7xx_HAL_Driver/Src/stm32f7xx_hal_pwr_ex.c ****       return HAL_TIMEOUT;
 535              		.loc 1 321 14 view .LVU110
 536 003e 0320     		movs	r0, #3
 537              	.L52:
 322:STM32F769/Drivers/STM32F7xx_HAL_Driver/Src/stm32f7xx_hal_pwr_ex.c ****     }
 323:STM32F769/Drivers/STM32F7xx_HAL_Driver/Src/stm32f7xx_hal_pwr_ex.c ****   } 
 324:STM32F769/Drivers/STM32F7xx_HAL_Driver/Src/stm32f7xx_hal_pwr_ex.c ****   
 325:STM32F769/Drivers/STM32F7xx_HAL_Driver/Src/stm32f7xx_hal_pwr_ex.c ****   /* Disable the Over-drive */
ARM GAS  /tmp/ccPn5Faf.s 			page 16


 326:STM32F769/Drivers/STM32F7xx_HAL_Driver/Src/stm32f7xx_hal_pwr_ex.c ****   __HAL_PWR_OVERDRIVE_DISABLE();
 327:STM32F769/Drivers/STM32F7xx_HAL_Driver/Src/stm32f7xx_hal_pwr_ex.c **** 
 328:STM32F769/Drivers/STM32F7xx_HAL_Driver/Src/stm32f7xx_hal_pwr_ex.c ****   /* Get tick */
 329:STM32F769/Drivers/STM32F7xx_HAL_Driver/Src/stm32f7xx_hal_pwr_ex.c ****   tickstart = HAL_GetTick();
 330:STM32F769/Drivers/STM32F7xx_HAL_Driver/Src/stm32f7xx_hal_pwr_ex.c **** 
 331:STM32F769/Drivers/STM32F7xx_HAL_Driver/Src/stm32f7xx_hal_pwr_ex.c ****   while(__HAL_PWR_GET_FLAG(PWR_FLAG_ODRDY))
 332:STM32F769/Drivers/STM32F7xx_HAL_Driver/Src/stm32f7xx_hal_pwr_ex.c ****   {
 333:STM32F769/Drivers/STM32F7xx_HAL_Driver/Src/stm32f7xx_hal_pwr_ex.c ****     if((HAL_GetTick() - tickstart ) > PWR_OVERDRIVE_TIMEOUT_VALUE)
 334:STM32F769/Drivers/STM32F7xx_HAL_Driver/Src/stm32f7xx_hal_pwr_ex.c ****     {
 335:STM32F769/Drivers/STM32F7xx_HAL_Driver/Src/stm32f7xx_hal_pwr_ex.c ****       return HAL_TIMEOUT;
 336:STM32F769/Drivers/STM32F7xx_HAL_Driver/Src/stm32f7xx_hal_pwr_ex.c ****     }
 337:STM32F769/Drivers/STM32F7xx_HAL_Driver/Src/stm32f7xx_hal_pwr_ex.c ****   }
 338:STM32F769/Drivers/STM32F7xx_HAL_Driver/Src/stm32f7xx_hal_pwr_ex.c ****   
 339:STM32F769/Drivers/STM32F7xx_HAL_Driver/Src/stm32f7xx_hal_pwr_ex.c ****   return HAL_OK;
 340:STM32F769/Drivers/STM32F7xx_HAL_Driver/Src/stm32f7xx_hal_pwr_ex.c **** }
 538              		.loc 1 340 1 view .LVU111
 539 0040 02B0     		add	sp, sp, #8
 540              	.LCFI8:
 541              		.cfi_remember_state
 542              		.cfi_def_cfa_offset 8
 543              		@ sp needed
 544 0042 10BD     		pop	{r4, pc}
 545              	.LVL22:
 546              	.L59:
 547              	.LCFI9:
 548              		.cfi_restore_state
 326:STM32F769/Drivers/STM32F7xx_HAL_Driver/Src/stm32f7xx_hal_pwr_ex.c **** 
 549              		.loc 1 326 3 is_stmt 1 view .LVU112
 550 0044 0C4A     		ldr	r2, .L61+4
 551 0046 1368     		ldr	r3, [r2]
 552 0048 23F48033 		bic	r3, r3, #65536
 553 004c 1360     		str	r3, [r2]
 329:STM32F769/Drivers/STM32F7xx_HAL_Driver/Src/stm32f7xx_hal_pwr_ex.c **** 
 554              		.loc 1 329 3 view .LVU113
 329:STM32F769/Drivers/STM32F7xx_HAL_Driver/Src/stm32f7xx_hal_pwr_ex.c **** 
 555              		.loc 1 329 15 is_stmt 0 view .LVU114
 556 004e FFF7FEFF 		bl	HAL_GetTick
 557              	.LVL23:
 558 0052 0446     		mov	r4, r0
 559              	.LVL24:
 331:STM32F769/Drivers/STM32F7xx_HAL_Driver/Src/stm32f7xx_hal_pwr_ex.c ****   {
 560              		.loc 1 331 3 is_stmt 1 view .LVU115
 561              	.L54:
 331:STM32F769/Drivers/STM32F7xx_HAL_Driver/Src/stm32f7xx_hal_pwr_ex.c ****   {
 562              		.loc 1 331 9 is_stmt 0 view .LVU116
 563 0054 084B     		ldr	r3, .L61+4
 564 0056 5B68     		ldr	r3, [r3, #4]
 331:STM32F769/Drivers/STM32F7xx_HAL_Driver/Src/stm32f7xx_hal_pwr_ex.c ****   {
 565              		.loc 1 331 8 view .LVU117
 566 0058 13F4803F 		tst	r3, #65536
 567 005c 07D0     		beq	.L60
 333:STM32F769/Drivers/STM32F7xx_HAL_Driver/Src/stm32f7xx_hal_pwr_ex.c ****     {
 568              		.loc 1 333 5 is_stmt 1 view .LVU118
 333:STM32F769/Drivers/STM32F7xx_HAL_Driver/Src/stm32f7xx_hal_pwr_ex.c ****     {
 569              		.loc 1 333 9 is_stmt 0 view .LVU119
 570 005e FFF7FEFF 		bl	HAL_GetTick
 571              	.LVL25:
ARM GAS  /tmp/ccPn5Faf.s 			page 17


 333:STM32F769/Drivers/STM32F7xx_HAL_Driver/Src/stm32f7xx_hal_pwr_ex.c ****     {
 572              		.loc 1 333 23 view .LVU120
 573 0062 001B     		subs	r0, r0, r4
 333:STM32F769/Drivers/STM32F7xx_HAL_Driver/Src/stm32f7xx_hal_pwr_ex.c ****     {
 574              		.loc 1 333 7 view .LVU121
 575 0064 B0F57A7F 		cmp	r0, #1000
 576 0068 F4D9     		bls	.L54
 335:STM32F769/Drivers/STM32F7xx_HAL_Driver/Src/stm32f7xx_hal_pwr_ex.c ****     }
 577              		.loc 1 335 14 view .LVU122
 578 006a 0320     		movs	r0, #3
 579 006c E8E7     		b	.L52
 580              	.L60:
 339:STM32F769/Drivers/STM32F7xx_HAL_Driver/Src/stm32f7xx_hal_pwr_ex.c **** }
 581              		.loc 1 339 10 view .LVU123
 582 006e 0020     		movs	r0, #0
 583 0070 E6E7     		b	.L52
 584              	.L62:
 585 0072 00BF     		.align	2
 586              	.L61:
 587 0074 00380240 		.word	1073887232
 588 0078 00700040 		.word	1073770496
 589              		.cfi_endproc
 590              	.LFE150:
 592              		.section	.text.HAL_PWREx_EnterUnderDriveSTOPMode,"ax",%progbits
 593              		.align	1
 594              		.global	HAL_PWREx_EnterUnderDriveSTOPMode
 595              		.syntax unified
 596              		.thumb
 597              		.thumb_func
 598              		.fpu fpv5-d16
 600              	HAL_PWREx_EnterUnderDriveSTOPMode:
 601              	.LVL26:
 602              	.LFB151:
 341:STM32F769/Drivers/STM32F7xx_HAL_Driver/Src/stm32f7xx_hal_pwr_ex.c **** 
 342:STM32F769/Drivers/STM32F7xx_HAL_Driver/Src/stm32f7xx_hal_pwr_ex.c **** /**
 343:STM32F769/Drivers/STM32F7xx_HAL_Driver/Src/stm32f7xx_hal_pwr_ex.c ****   * @brief  Enters in Under-Drive STOP mode.
 344:STM32F769/Drivers/STM32F7xx_HAL_Driver/Src/stm32f7xx_hal_pwr_ex.c ****   * 
 345:STM32F769/Drivers/STM32F7xx_HAL_Driver/Src/stm32f7xx_hal_pwr_ex.c ****   * @note    This mode can be selected only when the Under-Drive is already active 
 346:STM32F769/Drivers/STM32F7xx_HAL_Driver/Src/stm32f7xx_hal_pwr_ex.c ****   *   
 347:STM32F769/Drivers/STM32F7xx_HAL_Driver/Src/stm32f7xx_hal_pwr_ex.c ****   * @note    This mode is enabled only with STOP low power mode.
 348:STM32F769/Drivers/STM32F7xx_HAL_Driver/Src/stm32f7xx_hal_pwr_ex.c ****   *          In this mode, the 1.2V domain is preserved in reduced leakage mode. This 
 349:STM32F769/Drivers/STM32F7xx_HAL_Driver/Src/stm32f7xx_hal_pwr_ex.c ****   *          mode is only available when the main regulator or the low power regulator 
 350:STM32F769/Drivers/STM32F7xx_HAL_Driver/Src/stm32f7xx_hal_pwr_ex.c ****   *          is in low voltage mode
 351:STM32F769/Drivers/STM32F7xx_HAL_Driver/Src/stm32f7xx_hal_pwr_ex.c ****   *        
 352:STM32F769/Drivers/STM32F7xx_HAL_Driver/Src/stm32f7xx_hal_pwr_ex.c ****   * @note   If the Under-drive mode was enabled, it is automatically disabled after 
 353:STM32F769/Drivers/STM32F7xx_HAL_Driver/Src/stm32f7xx_hal_pwr_ex.c ****   *         exiting Stop mode. 
 354:STM32F769/Drivers/STM32F7xx_HAL_Driver/Src/stm32f7xx_hal_pwr_ex.c ****   *         When the voltage regulator operates in Under-drive mode, an additional  
 355:STM32F769/Drivers/STM32F7xx_HAL_Driver/Src/stm32f7xx_hal_pwr_ex.c ****   *         startup delay is induced when waking up from Stop mode.
 356:STM32F769/Drivers/STM32F7xx_HAL_Driver/Src/stm32f7xx_hal_pwr_ex.c ****   *                    
 357:STM32F769/Drivers/STM32F7xx_HAL_Driver/Src/stm32f7xx_hal_pwr_ex.c ****   * @note   In Stop mode, all I/O pins keep the same state as in Run mode.
 358:STM32F769/Drivers/STM32F7xx_HAL_Driver/Src/stm32f7xx_hal_pwr_ex.c ****   *   
 359:STM32F769/Drivers/STM32F7xx_HAL_Driver/Src/stm32f7xx_hal_pwr_ex.c ****   * @note   When exiting Stop mode by issuing an interrupt or a wakeup event, 
 360:STM32F769/Drivers/STM32F7xx_HAL_Driver/Src/stm32f7xx_hal_pwr_ex.c ****   *         the HSI RC oscillator is selected as system clock.
 361:STM32F769/Drivers/STM32F7xx_HAL_Driver/Src/stm32f7xx_hal_pwr_ex.c ****   *           
 362:STM32F769/Drivers/STM32F7xx_HAL_Driver/Src/stm32f7xx_hal_pwr_ex.c ****   * @note   When the voltage regulator operates in low power mode, an additional 
 363:STM32F769/Drivers/STM32F7xx_HAL_Driver/Src/stm32f7xx_hal_pwr_ex.c ****   *         startup delay is incurred when waking up from Stop mode. 
 364:STM32F769/Drivers/STM32F7xx_HAL_Driver/Src/stm32f7xx_hal_pwr_ex.c ****   *         By keeping the internal regulator ON during Stop mode, the consumption 
ARM GAS  /tmp/ccPn5Faf.s 			page 18


 365:STM32F769/Drivers/STM32F7xx_HAL_Driver/Src/stm32f7xx_hal_pwr_ex.c ****   *         is higher although the startup time is reduced.
 366:STM32F769/Drivers/STM32F7xx_HAL_Driver/Src/stm32f7xx_hal_pwr_ex.c ****   *     
 367:STM32F769/Drivers/STM32F7xx_HAL_Driver/Src/stm32f7xx_hal_pwr_ex.c ****   * @param  Regulator specifies the regulator state in STOP mode.
 368:STM32F769/Drivers/STM32F7xx_HAL_Driver/Src/stm32f7xx_hal_pwr_ex.c ****   *          This parameter can be one of the following values:
 369:STM32F769/Drivers/STM32F7xx_HAL_Driver/Src/stm32f7xx_hal_pwr_ex.c ****   *            @arg PWR_MAINREGULATOR_UNDERDRIVE_ON:  Main Regulator in under-drive mode 
 370:STM32F769/Drivers/STM32F7xx_HAL_Driver/Src/stm32f7xx_hal_pwr_ex.c ****   *                 and Flash memory in power-down when the device is in Stop under-drive mode
 371:STM32F769/Drivers/STM32F7xx_HAL_Driver/Src/stm32f7xx_hal_pwr_ex.c ****   *            @arg PWR_LOWPOWERREGULATOR_UNDERDRIVE_ON:  Low Power Regulator in under-drive mode 
 372:STM32F769/Drivers/STM32F7xx_HAL_Driver/Src/stm32f7xx_hal_pwr_ex.c ****   *                and Flash memory in power-down when the device is in Stop under-drive mode
 373:STM32F769/Drivers/STM32F7xx_HAL_Driver/Src/stm32f7xx_hal_pwr_ex.c ****   * @param  STOPEntry specifies if STOP mode in entered with WFI or WFE instruction.
 374:STM32F769/Drivers/STM32F7xx_HAL_Driver/Src/stm32f7xx_hal_pwr_ex.c ****   *          This parameter can be one of the following values:
 375:STM32F769/Drivers/STM32F7xx_HAL_Driver/Src/stm32f7xx_hal_pwr_ex.c ****   *            @arg PWR_SLEEPENTRY_WFI: enter STOP mode with WFI instruction
 376:STM32F769/Drivers/STM32F7xx_HAL_Driver/Src/stm32f7xx_hal_pwr_ex.c ****   *            @arg PWR_SLEEPENTRY_WFE: enter STOP mode with WFE instruction
 377:STM32F769/Drivers/STM32F7xx_HAL_Driver/Src/stm32f7xx_hal_pwr_ex.c ****   * @retval None
 378:STM32F769/Drivers/STM32F7xx_HAL_Driver/Src/stm32f7xx_hal_pwr_ex.c ****   */
 379:STM32F769/Drivers/STM32F7xx_HAL_Driver/Src/stm32f7xx_hal_pwr_ex.c **** HAL_StatusTypeDef HAL_PWREx_EnterUnderDriveSTOPMode(uint32_t Regulator, uint8_t STOPEntry)
 380:STM32F769/Drivers/STM32F7xx_HAL_Driver/Src/stm32f7xx_hal_pwr_ex.c **** {
 603              		.loc 1 380 1 is_stmt 1 view -0
 604              		.cfi_startproc
 605              		@ args = 0, pretend = 0, frame = 8
 606              		@ frame_needed = 0, uses_anonymous_args = 0
 607              		.loc 1 380 1 is_stmt 0 view .LVU125
 608 0000 70B5     		push	{r4, r5, r6, lr}
 609              	.LCFI10:
 610              		.cfi_def_cfa_offset 16
 611              		.cfi_offset 4, -16
 612              		.cfi_offset 5, -12
 613              		.cfi_offset 6, -8
 614              		.cfi_offset 14, -4
 615 0002 82B0     		sub	sp, sp, #8
 616              	.LCFI11:
 617              		.cfi_def_cfa_offset 24
 618 0004 0646     		mov	r6, r0
 619 0006 0D46     		mov	r5, r1
 381:STM32F769/Drivers/STM32F7xx_HAL_Driver/Src/stm32f7xx_hal_pwr_ex.c ****   uint32_t tempreg = 0;
 620              		.loc 1 381 3 is_stmt 1 view .LVU126
 621              	.LVL27:
 382:STM32F769/Drivers/STM32F7xx_HAL_Driver/Src/stm32f7xx_hal_pwr_ex.c ****   uint32_t tickstart = 0;
 622              		.loc 1 382 3 view .LVU127
 383:STM32F769/Drivers/STM32F7xx_HAL_Driver/Src/stm32f7xx_hal_pwr_ex.c ****   
 384:STM32F769/Drivers/STM32F7xx_HAL_Driver/Src/stm32f7xx_hal_pwr_ex.c ****   /* Check the parameters */
 385:STM32F769/Drivers/STM32F7xx_HAL_Driver/Src/stm32f7xx_hal_pwr_ex.c ****   assert_param(IS_PWR_REGULATOR_UNDERDRIVE(Regulator));
 623              		.loc 1 385 3 view .LVU128
 386:STM32F769/Drivers/STM32F7xx_HAL_Driver/Src/stm32f7xx_hal_pwr_ex.c ****   assert_param(IS_PWR_STOP_ENTRY(STOPEntry));
 624              		.loc 1 386 3 view .LVU129
 387:STM32F769/Drivers/STM32F7xx_HAL_Driver/Src/stm32f7xx_hal_pwr_ex.c ****   
 388:STM32F769/Drivers/STM32F7xx_HAL_Driver/Src/stm32f7xx_hal_pwr_ex.c ****   /* Enable Power ctrl clock */
 389:STM32F769/Drivers/STM32F7xx_HAL_Driver/Src/stm32f7xx_hal_pwr_ex.c ****   __HAL_RCC_PWR_CLK_ENABLE();
 625              		.loc 1 389 3 view .LVU130
 626              	.LBB4:
 627              		.loc 1 389 3 view .LVU131
 628              		.loc 1 389 3 view .LVU132
 629 0008 1E4B     		ldr	r3, .L73
 630 000a 1A6C     		ldr	r2, [r3, #64]
 631 000c 42F08052 		orr	r2, r2, #268435456
 632 0010 1A64     		str	r2, [r3, #64]
 633              		.loc 1 389 3 view .LVU133
 634 0012 1B6C     		ldr	r3, [r3, #64]
ARM GAS  /tmp/ccPn5Faf.s 			page 19


 635 0014 03F08053 		and	r3, r3, #268435456
 636 0018 0193     		str	r3, [sp, #4]
 637              		.loc 1 389 3 view .LVU134
 638 001a 019B     		ldr	r3, [sp, #4]
 639              	.LBE4:
 390:STM32F769/Drivers/STM32F7xx_HAL_Driver/Src/stm32f7xx_hal_pwr_ex.c ****   /* Enable the Under-drive Mode ---------------------------------------------*/
 391:STM32F769/Drivers/STM32F7xx_HAL_Driver/Src/stm32f7xx_hal_pwr_ex.c ****   /* Clear Under-drive flag */
 392:STM32F769/Drivers/STM32F7xx_HAL_Driver/Src/stm32f7xx_hal_pwr_ex.c ****   __HAL_PWR_CLEAR_ODRUDR_FLAG();
 640              		.loc 1 392 3 view .LVU135
 641 001c 1A4B     		ldr	r3, .L73+4
 642 001e 5A68     		ldr	r2, [r3, #4]
 643 0020 42F44022 		orr	r2, r2, #786432
 644 0024 5A60     		str	r2, [r3, #4]
 393:STM32F769/Drivers/STM32F7xx_HAL_Driver/Src/stm32f7xx_hal_pwr_ex.c ****   
 394:STM32F769/Drivers/STM32F7xx_HAL_Driver/Src/stm32f7xx_hal_pwr_ex.c ****   /* Enable the Under-drive */ 
 395:STM32F769/Drivers/STM32F7xx_HAL_Driver/Src/stm32f7xx_hal_pwr_ex.c ****   __HAL_PWR_UNDERDRIVE_ENABLE();
 645              		.loc 1 395 3 view .LVU136
 646 0026 1A68     		ldr	r2, [r3]
 647 0028 42F44022 		orr	r2, r2, #786432
 648 002c 1A60     		str	r2, [r3]
 396:STM32F769/Drivers/STM32F7xx_HAL_Driver/Src/stm32f7xx_hal_pwr_ex.c **** 
 397:STM32F769/Drivers/STM32F7xx_HAL_Driver/Src/stm32f7xx_hal_pwr_ex.c ****   /* Get tick */
 398:STM32F769/Drivers/STM32F7xx_HAL_Driver/Src/stm32f7xx_hal_pwr_ex.c ****   tickstart = HAL_GetTick();
 649              		.loc 1 398 3 view .LVU137
 650              		.loc 1 398 15 is_stmt 0 view .LVU138
 651 002e FFF7FEFF 		bl	HAL_GetTick
 652              	.LVL28:
 653              		.loc 1 398 15 view .LVU139
 654 0032 0446     		mov	r4, r0
 655              	.LVL29:
 399:STM32F769/Drivers/STM32F7xx_HAL_Driver/Src/stm32f7xx_hal_pwr_ex.c **** 
 400:STM32F769/Drivers/STM32F7xx_HAL_Driver/Src/stm32f7xx_hal_pwr_ex.c ****   /* Wait for UnderDrive mode is ready */
 401:STM32F769/Drivers/STM32F7xx_HAL_Driver/Src/stm32f7xx_hal_pwr_ex.c ****   while(__HAL_PWR_GET_FLAG(PWR_FLAG_UDRDY))
 656              		.loc 1 401 3 is_stmt 1 view .LVU140
 657              	.L64:
 658              		.loc 1 401 9 is_stmt 0 view .LVU141
 659 0034 144B     		ldr	r3, .L73+4
 660 0036 5B68     		ldr	r3, [r3, #4]
 661 0038 03F44023 		and	r3, r3, #786432
 662              		.loc 1 401 8 view .LVU142
 663 003c B3F5402F 		cmp	r3, #786432
 664 0040 07D1     		bne	.L71
 402:STM32F769/Drivers/STM32F7xx_HAL_Driver/Src/stm32f7xx_hal_pwr_ex.c ****   {
 403:STM32F769/Drivers/STM32F7xx_HAL_Driver/Src/stm32f7xx_hal_pwr_ex.c ****     if((HAL_GetTick() - tickstart ) > PWR_UDERDRIVE_TIMEOUT_VALUE)
 665              		.loc 1 403 5 is_stmt 1 view .LVU143
 666              		.loc 1 403 9 is_stmt 0 view .LVU144
 667 0042 FFF7FEFF 		bl	HAL_GetTick
 668              	.LVL30:
 669              		.loc 1 403 23 view .LVU145
 670 0046 001B     		subs	r0, r0, r4
 671              		.loc 1 403 7 view .LVU146
 672 0048 B0F57A7F 		cmp	r0, #1000
 673 004c F2D9     		bls	.L64
 404:STM32F769/Drivers/STM32F7xx_HAL_Driver/Src/stm32f7xx_hal_pwr_ex.c ****     {
 405:STM32F769/Drivers/STM32F7xx_HAL_Driver/Src/stm32f7xx_hal_pwr_ex.c ****       return HAL_TIMEOUT;
 674              		.loc 1 405 14 view .LVU147
 675 004e 0320     		movs	r0, #3
ARM GAS  /tmp/ccPn5Faf.s 			page 20


 676 0050 13E0     		b	.L65
 677              	.L71:
 406:STM32F769/Drivers/STM32F7xx_HAL_Driver/Src/stm32f7xx_hal_pwr_ex.c ****     }
 407:STM32F769/Drivers/STM32F7xx_HAL_Driver/Src/stm32f7xx_hal_pwr_ex.c ****   }
 408:STM32F769/Drivers/STM32F7xx_HAL_Driver/Src/stm32f7xx_hal_pwr_ex.c ****   
 409:STM32F769/Drivers/STM32F7xx_HAL_Driver/Src/stm32f7xx_hal_pwr_ex.c ****   /* Select the regulator state in STOP mode ---------------------------------*/
 410:STM32F769/Drivers/STM32F7xx_HAL_Driver/Src/stm32f7xx_hal_pwr_ex.c ****   tempreg = PWR->CR1;
 678              		.loc 1 410 3 is_stmt 1 view .LVU148
 679              		.loc 1 410 11 is_stmt 0 view .LVU149
 680 0052 0D4A     		ldr	r2, .L73+4
 681 0054 1168     		ldr	r1, [r2]
 682              	.LVL31:
 411:STM32F769/Drivers/STM32F7xx_HAL_Driver/Src/stm32f7xx_hal_pwr_ex.c ****   /* Clear PDDS, LPDS, MRLUDS and LPLUDS bits */
 412:STM32F769/Drivers/STM32F7xx_HAL_Driver/Src/stm32f7xx_hal_pwr_ex.c ****   tempreg &= (uint32_t)~(PWR_CR1_PDDS | PWR_CR1_LPDS | PWR_CR1_LPUDS | PWR_CR1_MRUDS);
 683              		.loc 1 412 3 is_stmt 1 view .LVU150
 684              		.loc 1 412 11 is_stmt 0 view .LVU151
 685 0056 0D4B     		ldr	r3, .L73+8
 686 0058 0B40     		ands	r3, r3, r1
 687              	.LVL32:
 413:STM32F769/Drivers/STM32F7xx_HAL_Driver/Src/stm32f7xx_hal_pwr_ex.c ****   
 414:STM32F769/Drivers/STM32F7xx_HAL_Driver/Src/stm32f7xx_hal_pwr_ex.c ****   /* Set LPDS, MRLUDS and LPLUDS bits according to PWR_Regulator value */
 415:STM32F769/Drivers/STM32F7xx_HAL_Driver/Src/stm32f7xx_hal_pwr_ex.c ****   tempreg |= Regulator;
 688              		.loc 1 415 3 is_stmt 1 view .LVU152
 689              		.loc 1 415 11 is_stmt 0 view .LVU153
 690 005a 1E43     		orrs	r6, r6, r3
 691              	.LVL33:
 416:STM32F769/Drivers/STM32F7xx_HAL_Driver/Src/stm32f7xx_hal_pwr_ex.c ****   
 417:STM32F769/Drivers/STM32F7xx_HAL_Driver/Src/stm32f7xx_hal_pwr_ex.c ****   /* Store the new value */
 418:STM32F769/Drivers/STM32F7xx_HAL_Driver/Src/stm32f7xx_hal_pwr_ex.c ****   PWR->CR1 = tempreg;
 692              		.loc 1 418 3 is_stmt 1 view .LVU154
 693              		.loc 1 418 12 is_stmt 0 view .LVU155
 694 005c 1660     		str	r6, [r2]
 419:STM32F769/Drivers/STM32F7xx_HAL_Driver/Src/stm32f7xx_hal_pwr_ex.c ****   
 420:STM32F769/Drivers/STM32F7xx_HAL_Driver/Src/stm32f7xx_hal_pwr_ex.c ****   /* Set SLEEPDEEP bit of Cortex System Control Register */
 421:STM32F769/Drivers/STM32F7xx_HAL_Driver/Src/stm32f7xx_hal_pwr_ex.c ****   SCB->SCR |= SCB_SCR_SLEEPDEEP_Msk;
 695              		.loc 1 421 3 is_stmt 1 view .LVU156
 696              		.loc 1 421 12 is_stmt 0 view .LVU157
 697 005e 0C4A     		ldr	r2, .L73+12
 698 0060 1369     		ldr	r3, [r2, #16]
 699 0062 43F00403 		orr	r3, r3, #4
 700 0066 1361     		str	r3, [r2, #16]
 422:STM32F769/Drivers/STM32F7xx_HAL_Driver/Src/stm32f7xx_hal_pwr_ex.c ****   
 423:STM32F769/Drivers/STM32F7xx_HAL_Driver/Src/stm32f7xx_hal_pwr_ex.c ****   /* Select STOP mode entry --------------------------------------------------*/
 424:STM32F769/Drivers/STM32F7xx_HAL_Driver/Src/stm32f7xx_hal_pwr_ex.c ****   if(STOPEntry == PWR_SLEEPENTRY_WFI)
 701              		.loc 1 424 3 is_stmt 1 view .LVU158
 702              		.loc 1 424 5 is_stmt 0 view .LVU159
 703 0068 012D     		cmp	r5, #1
 704 006a 08D0     		beq	.L72
 425:STM32F769/Drivers/STM32F7xx_HAL_Driver/Src/stm32f7xx_hal_pwr_ex.c ****   {   
 426:STM32F769/Drivers/STM32F7xx_HAL_Driver/Src/stm32f7xx_hal_pwr_ex.c ****     /* Request Wait For Interrupt */
 427:STM32F769/Drivers/STM32F7xx_HAL_Driver/Src/stm32f7xx_hal_pwr_ex.c ****     __WFI();
 428:STM32F769/Drivers/STM32F7xx_HAL_Driver/Src/stm32f7xx_hal_pwr_ex.c ****   }
 429:STM32F769/Drivers/STM32F7xx_HAL_Driver/Src/stm32f7xx_hal_pwr_ex.c ****   else
 430:STM32F769/Drivers/STM32F7xx_HAL_Driver/Src/stm32f7xx_hal_pwr_ex.c ****   {
 431:STM32F769/Drivers/STM32F7xx_HAL_Driver/Src/stm32f7xx_hal_pwr_ex.c ****     /* Request Wait For Event */
 432:STM32F769/Drivers/STM32F7xx_HAL_Driver/Src/stm32f7xx_hal_pwr_ex.c ****     __WFE();
 705              		.loc 1 432 5 is_stmt 1 view .LVU160
ARM GAS  /tmp/ccPn5Faf.s 			page 21


 706              		.syntax unified
 707              	@ 432 "STM32F769/Drivers/STM32F7xx_HAL_Driver/Src/stm32f7xx_hal_pwr_ex.c" 1
 708 006c 20BF     		wfe
 709              	@ 0 "" 2
 710              		.thumb
 711              		.syntax unified
 712              	.L68:
 433:STM32F769/Drivers/STM32F7xx_HAL_Driver/Src/stm32f7xx_hal_pwr_ex.c ****   }
 434:STM32F769/Drivers/STM32F7xx_HAL_Driver/Src/stm32f7xx_hal_pwr_ex.c ****   /* Reset SLEEPDEEP bit of Cortex System Control Register */
 435:STM32F769/Drivers/STM32F7xx_HAL_Driver/Src/stm32f7xx_hal_pwr_ex.c ****   SCB->SCR &= (uint32_t)~((uint32_t)SCB_SCR_SLEEPDEEP_Msk);
 713              		.loc 1 435 3 view .LVU161
 714              		.loc 1 435 12 is_stmt 0 view .LVU162
 715 006e 084A     		ldr	r2, .L73+12
 716 0070 1369     		ldr	r3, [r2, #16]
 717 0072 23F00403 		bic	r3, r3, #4
 718 0076 1361     		str	r3, [r2, #16]
 436:STM32F769/Drivers/STM32F7xx_HAL_Driver/Src/stm32f7xx_hal_pwr_ex.c **** 
 437:STM32F769/Drivers/STM32F7xx_HAL_Driver/Src/stm32f7xx_hal_pwr_ex.c ****   return HAL_OK;  
 719              		.loc 1 437 3 is_stmt 1 view .LVU163
 720              		.loc 1 437 10 is_stmt 0 view .LVU164
 721 0078 0020     		movs	r0, #0
 722              	.LVL34:
 723              	.L65:
 438:STM32F769/Drivers/STM32F7xx_HAL_Driver/Src/stm32f7xx_hal_pwr_ex.c **** }
 724              		.loc 1 438 1 view .LVU165
 725 007a 02B0     		add	sp, sp, #8
 726              	.LCFI12:
 727              		.cfi_remember_state
 728              		.cfi_def_cfa_offset 16
 729              		@ sp needed
 730 007c 70BD     		pop	{r4, r5, r6, pc}
 731              	.LVL35:
 732              	.L72:
 733              	.LCFI13:
 734              		.cfi_restore_state
 427:STM32F769/Drivers/STM32F7xx_HAL_Driver/Src/stm32f7xx_hal_pwr_ex.c ****   }
 735              		.loc 1 427 5 is_stmt 1 view .LVU166
 736              		.syntax unified
 737              	@ 427 "STM32F769/Drivers/STM32F7xx_HAL_Driver/Src/stm32f7xx_hal_pwr_ex.c" 1
 738 007e 30BF     		wfi
 739              	@ 0 "" 2
 740              		.thumb
 741              		.syntax unified
 742 0080 F5E7     		b	.L68
 743              	.L74:
 744 0082 00BF     		.align	2
 745              	.L73:
 746 0084 00380240 		.word	1073887232
 747 0088 00700040 		.word	1073770496
 748 008c FCF3FFFF 		.word	-3076
 749 0090 00ED00E0 		.word	-536810240
 750              		.cfi_endproc
 751              	.LFE151:
 753              		.section	.text.HAL_PWREx_GetVoltageRange,"ax",%progbits
 754              		.align	1
 755              		.global	HAL_PWREx_GetVoltageRange
 756              		.syntax unified
ARM GAS  /tmp/ccPn5Faf.s 			page 22


 757              		.thumb
 758              		.thumb_func
 759              		.fpu fpv5-d16
 761              	HAL_PWREx_GetVoltageRange:
 762              	.LFB152:
 439:STM32F769/Drivers/STM32F7xx_HAL_Driver/Src/stm32f7xx_hal_pwr_ex.c **** 
 440:STM32F769/Drivers/STM32F7xx_HAL_Driver/Src/stm32f7xx_hal_pwr_ex.c **** /**
 441:STM32F769/Drivers/STM32F7xx_HAL_Driver/Src/stm32f7xx_hal_pwr_ex.c ****   * @brief Returns Voltage Scaling Range.
 442:STM32F769/Drivers/STM32F7xx_HAL_Driver/Src/stm32f7xx_hal_pwr_ex.c ****   * @retval VOS bit field (PWR_REGULATOR_VOLTAGE_SCALE1, PWR_REGULATOR_VOLTAGE_SCALE2 or 
 443:STM32F769/Drivers/STM32F7xx_HAL_Driver/Src/stm32f7xx_hal_pwr_ex.c ****   *            PWR_REGULATOR_VOLTAGE_SCALE3)PWR_REGULATOR_VOLTAGE_SCALE1
 444:STM32F769/Drivers/STM32F7xx_HAL_Driver/Src/stm32f7xx_hal_pwr_ex.c ****   */  
 445:STM32F769/Drivers/STM32F7xx_HAL_Driver/Src/stm32f7xx_hal_pwr_ex.c **** uint32_t HAL_PWREx_GetVoltageRange(void)
 446:STM32F769/Drivers/STM32F7xx_HAL_Driver/Src/stm32f7xx_hal_pwr_ex.c **** {
 763              		.loc 1 446 1 view -0
 764              		.cfi_startproc
 765              		@ args = 0, pretend = 0, frame = 0
 766              		@ frame_needed = 0, uses_anonymous_args = 0
 767              		@ link register save eliminated.
 447:STM32F769/Drivers/STM32F7xx_HAL_Driver/Src/stm32f7xx_hal_pwr_ex.c ****   return  (PWR->CR1 & PWR_CR1_VOS);
 768              		.loc 1 447 3 view .LVU168
 769              		.loc 1 447 15 is_stmt 0 view .LVU169
 770 0000 024B     		ldr	r3, .L76
 771 0002 1868     		ldr	r0, [r3]
 448:STM32F769/Drivers/STM32F7xx_HAL_Driver/Src/stm32f7xx_hal_pwr_ex.c **** }
 772              		.loc 1 448 1 view .LVU170
 773 0004 00F44040 		and	r0, r0, #49152
 774 0008 7047     		bx	lr
 775              	.L77:
 776 000a 00BF     		.align	2
 777              	.L76:
 778 000c 00700040 		.word	1073770496
 779              		.cfi_endproc
 780              	.LFE152:
 782              		.section	.text.HAL_PWREx_ControlVoltageScaling,"ax",%progbits
 783              		.align	1
 784              		.global	HAL_PWREx_ControlVoltageScaling
 785              		.syntax unified
 786              		.thumb
 787              		.thumb_func
 788              		.fpu fpv5-d16
 790              	HAL_PWREx_ControlVoltageScaling:
 791              	.LVL36:
 792              	.LFB153:
 449:STM32F769/Drivers/STM32F7xx_HAL_Driver/Src/stm32f7xx_hal_pwr_ex.c **** 
 450:STM32F769/Drivers/STM32F7xx_HAL_Driver/Src/stm32f7xx_hal_pwr_ex.c **** /**
 451:STM32F769/Drivers/STM32F7xx_HAL_Driver/Src/stm32f7xx_hal_pwr_ex.c ****   * @brief Configures the main internal regulator output voltage.
 452:STM32F769/Drivers/STM32F7xx_HAL_Driver/Src/stm32f7xx_hal_pwr_ex.c ****   * @param  VoltageScaling specifies the regulator output voltage to achieve
 453:STM32F769/Drivers/STM32F7xx_HAL_Driver/Src/stm32f7xx_hal_pwr_ex.c ****   *         a tradeoff between performance and power consumption.
 454:STM32F769/Drivers/STM32F7xx_HAL_Driver/Src/stm32f7xx_hal_pwr_ex.c ****   *          This parameter can be one of the following values:
 455:STM32F769/Drivers/STM32F7xx_HAL_Driver/Src/stm32f7xx_hal_pwr_ex.c ****   *            @arg PWR_REGULATOR_VOLTAGE_SCALE1: Regulator voltage output range 1 mode,
 456:STM32F769/Drivers/STM32F7xx_HAL_Driver/Src/stm32f7xx_hal_pwr_ex.c ****   *                                                typical output voltage at 1.4 V,  
 457:STM32F769/Drivers/STM32F7xx_HAL_Driver/Src/stm32f7xx_hal_pwr_ex.c ****   *                                                system frequency up to 216 MHz.
 458:STM32F769/Drivers/STM32F7xx_HAL_Driver/Src/stm32f7xx_hal_pwr_ex.c ****   *            @arg PWR_REGULATOR_VOLTAGE_SCALE2: Regulator voltage output range 2 mode,
 459:STM32F769/Drivers/STM32F7xx_HAL_Driver/Src/stm32f7xx_hal_pwr_ex.c ****   *                                                typical output voltage at 1.2 V,                
 460:STM32F769/Drivers/STM32F7xx_HAL_Driver/Src/stm32f7xx_hal_pwr_ex.c ****   *                                                system frequency up to 180 MHz.
 461:STM32F769/Drivers/STM32F7xx_HAL_Driver/Src/stm32f7xx_hal_pwr_ex.c ****   *            @arg PWR_REGULATOR_VOLTAGE_SCALE3: Regulator voltage output range 2 mode,
 462:STM32F769/Drivers/STM32F7xx_HAL_Driver/Src/stm32f7xx_hal_pwr_ex.c ****   *                                                typical output voltage at 1.00 V,               
ARM GAS  /tmp/ccPn5Faf.s 			page 23


 463:STM32F769/Drivers/STM32F7xx_HAL_Driver/Src/stm32f7xx_hal_pwr_ex.c ****   *                                                system frequency up to 151 MHz.
 464:STM32F769/Drivers/STM32F7xx_HAL_Driver/Src/stm32f7xx_hal_pwr_ex.c ****   * @note To update the system clock frequency(SYSCLK):
 465:STM32F769/Drivers/STM32F7xx_HAL_Driver/Src/stm32f7xx_hal_pwr_ex.c ****   *        - Set the HSI or HSE as system clock frequency using the HAL_RCC_ClockConfig().
 466:STM32F769/Drivers/STM32F7xx_HAL_Driver/Src/stm32f7xx_hal_pwr_ex.c ****   *        - Call the HAL_RCC_OscConfig() to configure the PLL.
 467:STM32F769/Drivers/STM32F7xx_HAL_Driver/Src/stm32f7xx_hal_pwr_ex.c ****   *        - Call HAL_PWREx_ConfigVoltageScaling() API to adjust the voltage scale.
 468:STM32F769/Drivers/STM32F7xx_HAL_Driver/Src/stm32f7xx_hal_pwr_ex.c ****   *        - Set the new system clock frequency using the HAL_RCC_ClockConfig().
 469:STM32F769/Drivers/STM32F7xx_HAL_Driver/Src/stm32f7xx_hal_pwr_ex.c ****   * @note The scale can be modified only when the HSI or HSE clock source is selected 
 470:STM32F769/Drivers/STM32F7xx_HAL_Driver/Src/stm32f7xx_hal_pwr_ex.c ****   *        as system clock source, otherwise the API returns HAL_ERROR.  
 471:STM32F769/Drivers/STM32F7xx_HAL_Driver/Src/stm32f7xx_hal_pwr_ex.c ****   * @note When the PLL is OFF, the voltage scale 3 is automatically selected and the VOS bits
 472:STM32F769/Drivers/STM32F7xx_HAL_Driver/Src/stm32f7xx_hal_pwr_ex.c ****   *       value in the PWR_CR1 register are not taken in account.
 473:STM32F769/Drivers/STM32F7xx_HAL_Driver/Src/stm32f7xx_hal_pwr_ex.c ****   * @note This API forces the PLL state ON to allow the possibility to configure the voltage scale 
 474:STM32F769/Drivers/STM32F7xx_HAL_Driver/Src/stm32f7xx_hal_pwr_ex.c ****   * @note The new voltage scale is active only when the PLL is ON.  
 475:STM32F769/Drivers/STM32F7xx_HAL_Driver/Src/stm32f7xx_hal_pwr_ex.c ****   * @retval HAL Status
 476:STM32F769/Drivers/STM32F7xx_HAL_Driver/Src/stm32f7xx_hal_pwr_ex.c ****   */
 477:STM32F769/Drivers/STM32F7xx_HAL_Driver/Src/stm32f7xx_hal_pwr_ex.c **** HAL_StatusTypeDef HAL_PWREx_ControlVoltageScaling(uint32_t VoltageScaling)
 478:STM32F769/Drivers/STM32F7xx_HAL_Driver/Src/stm32f7xx_hal_pwr_ex.c **** {
 793              		.loc 1 478 1 is_stmt 1 view -0
 794              		.cfi_startproc
 795              		@ args = 0, pretend = 0, frame = 8
 796              		@ frame_needed = 0, uses_anonymous_args = 0
 797              		.loc 1 478 1 is_stmt 0 view .LVU172
 798 0000 30B5     		push	{r4, r5, lr}
 799              	.LCFI14:
 800              		.cfi_def_cfa_offset 12
 801              		.cfi_offset 4, -12
 802              		.cfi_offset 5, -8
 803              		.cfi_offset 14, -4
 804 0002 83B0     		sub	sp, sp, #12
 805              	.LCFI15:
 806              		.cfi_def_cfa_offset 24
 479:STM32F769/Drivers/STM32F7xx_HAL_Driver/Src/stm32f7xx_hal_pwr_ex.c ****   uint32_t tickstart = 0;
 807              		.loc 1 479 3 is_stmt 1 view .LVU173
 808              	.LVL37:
 480:STM32F769/Drivers/STM32F7xx_HAL_Driver/Src/stm32f7xx_hal_pwr_ex.c **** 
 481:STM32F769/Drivers/STM32F7xx_HAL_Driver/Src/stm32f7xx_hal_pwr_ex.c ****   assert_param(IS_PWR_REGULATOR_VOLTAGE(VoltageScaling));
 809              		.loc 1 481 3 view .LVU174
 482:STM32F769/Drivers/STM32F7xx_HAL_Driver/Src/stm32f7xx_hal_pwr_ex.c **** 
 483:STM32F769/Drivers/STM32F7xx_HAL_Driver/Src/stm32f7xx_hal_pwr_ex.c ****   /* Enable Power ctrl clock */
 484:STM32F769/Drivers/STM32F7xx_HAL_Driver/Src/stm32f7xx_hal_pwr_ex.c ****   __HAL_RCC_PWR_CLK_ENABLE();
 810              		.loc 1 484 3 view .LVU175
 811              	.LBB5:
 812              		.loc 1 484 3 view .LVU176
 813              		.loc 1 484 3 view .LVU177
 814 0004 2C4B     		ldr	r3, .L94
 815 0006 1A6C     		ldr	r2, [r3, #64]
 816 0008 42F08052 		orr	r2, r2, #268435456
 817 000c 1A64     		str	r2, [r3, #64]
 818              		.loc 1 484 3 view .LVU178
 819 000e 1A6C     		ldr	r2, [r3, #64]
 820 0010 02F08052 		and	r2, r2, #268435456
 821 0014 0092     		str	r2, [sp]
 822              		.loc 1 484 3 view .LVU179
 823 0016 009A     		ldr	r2, [sp]
 824              	.LBE5:
 485:STM32F769/Drivers/STM32F7xx_HAL_Driver/Src/stm32f7xx_hal_pwr_ex.c **** 
 486:STM32F769/Drivers/STM32F7xx_HAL_Driver/Src/stm32f7xx_hal_pwr_ex.c ****   /* Check if the PLL is used as system clock or not */
 487:STM32F769/Drivers/STM32F7xx_HAL_Driver/Src/stm32f7xx_hal_pwr_ex.c ****   if(__HAL_RCC_GET_SYSCLK_SOURCE() != RCC_CFGR_SWS_PLL)
ARM GAS  /tmp/ccPn5Faf.s 			page 24


 825              		.loc 1 487 3 view .LVU180
 826              		.loc 1 487 6 is_stmt 0 view .LVU181
 827 0018 9B68     		ldr	r3, [r3, #8]
 828 001a 03F00C03 		and	r3, r3, #12
 829              		.loc 1 487 5 view .LVU182
 830 001e 082B     		cmp	r3, #8
 831 0020 46D0     		beq	.L86
 832 0022 0546     		mov	r5, r0
 488:STM32F769/Drivers/STM32F7xx_HAL_Driver/Src/stm32f7xx_hal_pwr_ex.c ****   {
 489:STM32F769/Drivers/STM32F7xx_HAL_Driver/Src/stm32f7xx_hal_pwr_ex.c ****     /* Disable the main PLL */
 490:STM32F769/Drivers/STM32F7xx_HAL_Driver/Src/stm32f7xx_hal_pwr_ex.c ****     __HAL_RCC_PLL_DISABLE();
 833              		.loc 1 490 5 is_stmt 1 view .LVU183
 834 0024 244A     		ldr	r2, .L94
 835 0026 1368     		ldr	r3, [r2]
 836 0028 23F08073 		bic	r3, r3, #16777216
 837 002c 1360     		str	r3, [r2]
 491:STM32F769/Drivers/STM32F7xx_HAL_Driver/Src/stm32f7xx_hal_pwr_ex.c ****     
 492:STM32F769/Drivers/STM32F7xx_HAL_Driver/Src/stm32f7xx_hal_pwr_ex.c ****     /* Get Start Tick */
 493:STM32F769/Drivers/STM32F7xx_HAL_Driver/Src/stm32f7xx_hal_pwr_ex.c ****     tickstart = HAL_GetTick();    
 838              		.loc 1 493 5 view .LVU184
 839              		.loc 1 493 17 is_stmt 0 view .LVU185
 840 002e FFF7FEFF 		bl	HAL_GetTick
 841              	.LVL38:
 842              		.loc 1 493 17 view .LVU186
 843 0032 0446     		mov	r4, r0
 844              	.LVL39:
 494:STM32F769/Drivers/STM32F7xx_HAL_Driver/Src/stm32f7xx_hal_pwr_ex.c ****     /* Wait till PLL is disabled */  
 495:STM32F769/Drivers/STM32F7xx_HAL_Driver/Src/stm32f7xx_hal_pwr_ex.c ****     while(__HAL_RCC_GET_FLAG(RCC_FLAG_PLLRDY) != RESET)
 845              		.loc 1 495 5 is_stmt 1 view .LVU187
 846              	.L80:
 847              		.loc 1 495 11 is_stmt 0 view .LVU188
 848 0034 204B     		ldr	r3, .L94
 849 0036 1B68     		ldr	r3, [r3]
 850              		.loc 1 495 10 view .LVU189
 851 0038 13F0007F 		tst	r3, #33554432
 852 003c 06D0     		beq	.L91
 496:STM32F769/Drivers/STM32F7xx_HAL_Driver/Src/stm32f7xx_hal_pwr_ex.c ****     {
 497:STM32F769/Drivers/STM32F7xx_HAL_Driver/Src/stm32f7xx_hal_pwr_ex.c ****       if((HAL_GetTick() - tickstart ) > PLL_TIMEOUT_VALUE)
 853              		.loc 1 497 7 is_stmt 1 view .LVU190
 854              		.loc 1 497 11 is_stmt 0 view .LVU191
 855 003e FFF7FEFF 		bl	HAL_GetTick
 856              	.LVL40:
 857              		.loc 1 497 25 view .LVU192
 858 0042 001B     		subs	r0, r0, r4
 859              		.loc 1 497 9 view .LVU193
 860 0044 0228     		cmp	r0, #2
 861 0046 F5D9     		bls	.L80
 498:STM32F769/Drivers/STM32F7xx_HAL_Driver/Src/stm32f7xx_hal_pwr_ex.c ****       {
 499:STM32F769/Drivers/STM32F7xx_HAL_Driver/Src/stm32f7xx_hal_pwr_ex.c ****         return HAL_TIMEOUT;
 862              		.loc 1 499 16 view .LVU194
 863 0048 0320     		movs	r0, #3
 864 004a 32E0     		b	.L79
 865              	.L91:
 500:STM32F769/Drivers/STM32F7xx_HAL_Driver/Src/stm32f7xx_hal_pwr_ex.c ****       }
 501:STM32F769/Drivers/STM32F7xx_HAL_Driver/Src/stm32f7xx_hal_pwr_ex.c ****     }
 502:STM32F769/Drivers/STM32F7xx_HAL_Driver/Src/stm32f7xx_hal_pwr_ex.c ****     
 503:STM32F769/Drivers/STM32F7xx_HAL_Driver/Src/stm32f7xx_hal_pwr_ex.c ****     /* Set Range */
ARM GAS  /tmp/ccPn5Faf.s 			page 25


 504:STM32F769/Drivers/STM32F7xx_HAL_Driver/Src/stm32f7xx_hal_pwr_ex.c ****     __HAL_PWR_VOLTAGESCALING_CONFIG(VoltageScaling);
 866              		.loc 1 504 5 is_stmt 1 view .LVU195
 867              	.LBB6:
 868              		.loc 1 504 5 view .LVU196
 869              		.loc 1 504 5 view .LVU197
 870 004c 1B4A     		ldr	r2, .L94+4
 871 004e 1368     		ldr	r3, [r2]
 872 0050 23F44043 		bic	r3, r3, #49152
 873 0054 1D43     		orrs	r5, r5, r3
 874              	.LVL41:
 875              		.loc 1 504 5 is_stmt 0 view .LVU198
 876 0056 1560     		str	r5, [r2]
 877              		.loc 1 504 5 is_stmt 1 view .LVU199
 878 0058 1368     		ldr	r3, [r2]
 879 005a 03F44043 		and	r3, r3, #49152
 880 005e 0193     		str	r3, [sp, #4]
 881              		.loc 1 504 5 view .LVU200
 882 0060 019B     		ldr	r3, [sp, #4]
 883              	.LBE6:
 505:STM32F769/Drivers/STM32F7xx_HAL_Driver/Src/stm32f7xx_hal_pwr_ex.c ****     
 506:STM32F769/Drivers/STM32F7xx_HAL_Driver/Src/stm32f7xx_hal_pwr_ex.c ****     /* Enable the main PLL */
 507:STM32F769/Drivers/STM32F7xx_HAL_Driver/Src/stm32f7xx_hal_pwr_ex.c ****     __HAL_RCC_PLL_ENABLE();
 884              		.loc 1 507 5 view .LVU201
 885 0062 02F5E432 		add	r2, r2, #116736
 886 0066 1368     		ldr	r3, [r2]
 887 0068 43F08073 		orr	r3, r3, #16777216
 888 006c 1360     		str	r3, [r2]
 508:STM32F769/Drivers/STM32F7xx_HAL_Driver/Src/stm32f7xx_hal_pwr_ex.c ****     
 509:STM32F769/Drivers/STM32F7xx_HAL_Driver/Src/stm32f7xx_hal_pwr_ex.c ****     /* Get Start Tick */
 510:STM32F769/Drivers/STM32F7xx_HAL_Driver/Src/stm32f7xx_hal_pwr_ex.c ****     tickstart = HAL_GetTick();
 889              		.loc 1 510 5 view .LVU202
 890              		.loc 1 510 17 is_stmt 0 view .LVU203
 891 006e FFF7FEFF 		bl	HAL_GetTick
 892              	.LVL42:
 893 0072 0446     		mov	r4, r0
 894              	.LVL43:
 511:STM32F769/Drivers/STM32F7xx_HAL_Driver/Src/stm32f7xx_hal_pwr_ex.c ****     /* Wait till PLL is ready */  
 512:STM32F769/Drivers/STM32F7xx_HAL_Driver/Src/stm32f7xx_hal_pwr_ex.c ****     while(__HAL_RCC_GET_FLAG(RCC_FLAG_PLLRDY) == RESET)
 895              		.loc 1 512 5 is_stmt 1 view .LVU204
 896              	.L82:
 897              		.loc 1 512 11 is_stmt 0 view .LVU205
 898 0074 104B     		ldr	r3, .L94
 899 0076 1B68     		ldr	r3, [r3]
 900              		.loc 1 512 10 view .LVU206
 901 0078 13F0007F 		tst	r3, #33554432
 902 007c 06D1     		bne	.L92
 513:STM32F769/Drivers/STM32F7xx_HAL_Driver/Src/stm32f7xx_hal_pwr_ex.c ****     {
 514:STM32F769/Drivers/STM32F7xx_HAL_Driver/Src/stm32f7xx_hal_pwr_ex.c ****       if((HAL_GetTick() - tickstart ) > PLL_TIMEOUT_VALUE)
 903              		.loc 1 514 7 is_stmt 1 view .LVU207
 904              		.loc 1 514 11 is_stmt 0 view .LVU208
 905 007e FFF7FEFF 		bl	HAL_GetTick
 906              	.LVL44:
 907              		.loc 1 514 25 view .LVU209
 908 0082 001B     		subs	r0, r0, r4
 909              		.loc 1 514 9 view .LVU210
 910 0084 0228     		cmp	r0, #2
 911 0086 F5D9     		bls	.L82
ARM GAS  /tmp/ccPn5Faf.s 			page 26


 515:STM32F769/Drivers/STM32F7xx_HAL_Driver/Src/stm32f7xx_hal_pwr_ex.c ****       {
 516:STM32F769/Drivers/STM32F7xx_HAL_Driver/Src/stm32f7xx_hal_pwr_ex.c ****         return HAL_TIMEOUT;
 912              		.loc 1 516 16 view .LVU211
 913 0088 0320     		movs	r0, #3
 914 008a 12E0     		b	.L79
 915              	.L92:
 517:STM32F769/Drivers/STM32F7xx_HAL_Driver/Src/stm32f7xx_hal_pwr_ex.c ****       } 
 518:STM32F769/Drivers/STM32F7xx_HAL_Driver/Src/stm32f7xx_hal_pwr_ex.c ****     }
 519:STM32F769/Drivers/STM32F7xx_HAL_Driver/Src/stm32f7xx_hal_pwr_ex.c ****     
 520:STM32F769/Drivers/STM32F7xx_HAL_Driver/Src/stm32f7xx_hal_pwr_ex.c ****     /* Get Start Tick */
 521:STM32F769/Drivers/STM32F7xx_HAL_Driver/Src/stm32f7xx_hal_pwr_ex.c ****     tickstart = HAL_GetTick();
 916              		.loc 1 521 5 is_stmt 1 view .LVU212
 917              		.loc 1 521 17 is_stmt 0 view .LVU213
 918 008c FFF7FEFF 		bl	HAL_GetTick
 919              	.LVL45:
 920 0090 0446     		mov	r4, r0
 921              	.LVL46:
 522:STM32F769/Drivers/STM32F7xx_HAL_Driver/Src/stm32f7xx_hal_pwr_ex.c ****     while((__HAL_PWR_GET_FLAG(PWR_FLAG_VOSRDY) == RESET))
 922              		.loc 1 522 5 is_stmt 1 view .LVU214
 923              	.L84:
 924              		.loc 1 522 12 is_stmt 0 view .LVU215
 925 0092 0A4B     		ldr	r3, .L94+4
 926 0094 5B68     		ldr	r3, [r3, #4]
 927              		.loc 1 522 10 view .LVU216
 928 0096 13F4804F 		tst	r3, #16384
 929 009a 07D1     		bne	.L93
 523:STM32F769/Drivers/STM32F7xx_HAL_Driver/Src/stm32f7xx_hal_pwr_ex.c ****     {
 524:STM32F769/Drivers/STM32F7xx_HAL_Driver/Src/stm32f7xx_hal_pwr_ex.c ****       if((HAL_GetTick() - tickstart ) > PWR_VOSRDY_TIMEOUT_VALUE)
 930              		.loc 1 524 7 is_stmt 1 view .LVU217
 931              		.loc 1 524 11 is_stmt 0 view .LVU218
 932 009c FFF7FEFF 		bl	HAL_GetTick
 933              	.LVL47:
 934              		.loc 1 524 25 view .LVU219
 935 00a0 001B     		subs	r0, r0, r4
 936              		.loc 1 524 9 view .LVU220
 937 00a2 B0F57A7F 		cmp	r0, #1000
 938 00a6 F4D9     		bls	.L84
 525:STM32F769/Drivers/STM32F7xx_HAL_Driver/Src/stm32f7xx_hal_pwr_ex.c ****       {
 526:STM32F769/Drivers/STM32F7xx_HAL_Driver/Src/stm32f7xx_hal_pwr_ex.c ****         return HAL_TIMEOUT;
 939              		.loc 1 526 16 view .LVU221
 940 00a8 0320     		movs	r0, #3
 941 00aa 02E0     		b	.L79
 942              	.L93:
 527:STM32F769/Drivers/STM32F7xx_HAL_Driver/Src/stm32f7xx_hal_pwr_ex.c ****       } 
 528:STM32F769/Drivers/STM32F7xx_HAL_Driver/Src/stm32f7xx_hal_pwr_ex.c ****     }
 529:STM32F769/Drivers/STM32F7xx_HAL_Driver/Src/stm32f7xx_hal_pwr_ex.c ****   }
 530:STM32F769/Drivers/STM32F7xx_HAL_Driver/Src/stm32f7xx_hal_pwr_ex.c ****   else
 531:STM32F769/Drivers/STM32F7xx_HAL_Driver/Src/stm32f7xx_hal_pwr_ex.c ****   {
 532:STM32F769/Drivers/STM32F7xx_HAL_Driver/Src/stm32f7xx_hal_pwr_ex.c ****     return HAL_ERROR;
 533:STM32F769/Drivers/STM32F7xx_HAL_Driver/Src/stm32f7xx_hal_pwr_ex.c ****   }
 534:STM32F769/Drivers/STM32F7xx_HAL_Driver/Src/stm32f7xx_hal_pwr_ex.c ****   return HAL_OK;
 943              		.loc 1 534 10 view .LVU222
 944 00ac 0020     		movs	r0, #0
 945 00ae 00E0     		b	.L79
 946              	.LVL48:
 947              	.L86:
 532:STM32F769/Drivers/STM32F7xx_HAL_Driver/Src/stm32f7xx_hal_pwr_ex.c ****   }
ARM GAS  /tmp/ccPn5Faf.s 			page 27


 948              		.loc 1 532 12 view .LVU223
 949 00b0 0120     		movs	r0, #1
 950              	.LVL49:
 951              	.L79:
 535:STM32F769/Drivers/STM32F7xx_HAL_Driver/Src/stm32f7xx_hal_pwr_ex.c **** }
 952              		.loc 1 535 1 view .LVU224
 953 00b2 03B0     		add	sp, sp, #12
 954              	.LCFI16:
 955              		.cfi_def_cfa_offset 12
 956              		@ sp needed
 957 00b4 30BD     		pop	{r4, r5, pc}
 958              	.L95:
 959 00b6 00BF     		.align	2
 960              	.L94:
 961 00b8 00380240 		.word	1073887232
 962 00bc 00700040 		.word	1073770496
 963              		.cfi_endproc
 964              	.LFE153:
 966              		.text
 967              	.Letext0:
 968              		.file 2 "/home/kevin/ProgramInstalls/gcc-arm-none-eabi-8-2019-q3-update/arm-none-eabi/include/mach
 969              		.file 3 "/home/kevin/ProgramInstalls/gcc-arm-none-eabi-8-2019-q3-update/arm-none-eabi/include/sys/
 970              		.file 4 "STM32F769/Drivers/CMSIS/Include/core_cm7.h"
 971              		.file 5 "STM32F769/Drivers/CMSIS/Device/ST/STM32F7xx/Include/system_stm32f7xx.h"
 972              		.file 6 "STM32F769/Drivers/CMSIS/Device/ST/STM32F7xx/Include/stm32f769xx.h"
 973              		.file 7 "STM32F769/Drivers/CMSIS/Device/ST/STM32F7xx/Include/stm32f7xx.h"
 974              		.file 8 "STM32F769/Drivers/STM32F7xx_HAL_Driver/Inc/stm32f7xx_hal_def.h"
 975              		.file 9 "STM32F769/Drivers/STM32F7xx_HAL_Driver/Inc/stm32f7xx_hal.h"
ARM GAS  /tmp/ccPn5Faf.s 			page 28


DEFINED SYMBOLS
                            *ABS*:0000000000000000 stm32f7xx_hal_pwr_ex.c
     /tmp/ccPn5Faf.s:17     .text.HAL_PWREx_EnableBkUpReg:0000000000000000 $t
     /tmp/ccPn5Faf.s:25     .text.HAL_PWREx_EnableBkUpReg:0000000000000000 HAL_PWREx_EnableBkUpReg
     /tmp/ccPn5Faf.s:87     .text.HAL_PWREx_EnableBkUpReg:0000000000000038 $d
     /tmp/ccPn5Faf.s:92     .text.HAL_PWREx_DisableBkUpReg:0000000000000000 $t
     /tmp/ccPn5Faf.s:99     .text.HAL_PWREx_DisableBkUpReg:0000000000000000 HAL_PWREx_DisableBkUpReg
     /tmp/ccPn5Faf.s:160    .text.HAL_PWREx_DisableBkUpReg:0000000000000038 $d
     /tmp/ccPn5Faf.s:165    .text.HAL_PWREx_EnableFlashPowerDown:0000000000000000 $t
     /tmp/ccPn5Faf.s:172    .text.HAL_PWREx_EnableFlashPowerDown:0000000000000000 HAL_PWREx_EnableFlashPowerDown
     /tmp/ccPn5Faf.s:190    .text.HAL_PWREx_EnableFlashPowerDown:000000000000000c $d
     /tmp/ccPn5Faf.s:195    .text.HAL_PWREx_DisableFlashPowerDown:0000000000000000 $t
     /tmp/ccPn5Faf.s:202    .text.HAL_PWREx_DisableFlashPowerDown:0000000000000000 HAL_PWREx_DisableFlashPowerDown
     /tmp/ccPn5Faf.s:220    .text.HAL_PWREx_DisableFlashPowerDown:000000000000000c $d
     /tmp/ccPn5Faf.s:225    .text.HAL_PWREx_EnableMainRegulatorLowVoltage:0000000000000000 $t
     /tmp/ccPn5Faf.s:232    .text.HAL_PWREx_EnableMainRegulatorLowVoltage:0000000000000000 HAL_PWREx_EnableMainRegulatorLowVoltage
     /tmp/ccPn5Faf.s:250    .text.HAL_PWREx_EnableMainRegulatorLowVoltage:000000000000000c $d
     /tmp/ccPn5Faf.s:255    .text.HAL_PWREx_DisableMainRegulatorLowVoltage:0000000000000000 $t
     /tmp/ccPn5Faf.s:262    .text.HAL_PWREx_DisableMainRegulatorLowVoltage:0000000000000000 HAL_PWREx_DisableMainRegulatorLowVoltage
     /tmp/ccPn5Faf.s:280    .text.HAL_PWREx_DisableMainRegulatorLowVoltage:000000000000000c $d
     /tmp/ccPn5Faf.s:285    .text.HAL_PWREx_EnableLowRegulatorLowVoltage:0000000000000000 $t
     /tmp/ccPn5Faf.s:292    .text.HAL_PWREx_EnableLowRegulatorLowVoltage:0000000000000000 HAL_PWREx_EnableLowRegulatorLowVoltage
     /tmp/ccPn5Faf.s:310    .text.HAL_PWREx_EnableLowRegulatorLowVoltage:000000000000000c $d
     /tmp/ccPn5Faf.s:315    .text.HAL_PWREx_DisableLowRegulatorLowVoltage:0000000000000000 $t
     /tmp/ccPn5Faf.s:322    .text.HAL_PWREx_DisableLowRegulatorLowVoltage:0000000000000000 HAL_PWREx_DisableLowRegulatorLowVoltage
     /tmp/ccPn5Faf.s:340    .text.HAL_PWREx_DisableLowRegulatorLowVoltage:000000000000000c $d
     /tmp/ccPn5Faf.s:345    .text.HAL_PWREx_EnableOverDrive:0000000000000000 $t
     /tmp/ccPn5Faf.s:352    .text.HAL_PWREx_EnableOverDrive:0000000000000000 HAL_PWREx_EnableOverDrive
     /tmp/ccPn5Faf.s:463    .text.HAL_PWREx_EnableOverDrive:0000000000000074 $d
     /tmp/ccPn5Faf.s:469    .text.HAL_PWREx_DisableOverDrive:0000000000000000 $t
     /tmp/ccPn5Faf.s:476    .text.HAL_PWREx_DisableOverDrive:0000000000000000 HAL_PWREx_DisableOverDrive
     /tmp/ccPn5Faf.s:587    .text.HAL_PWREx_DisableOverDrive:0000000000000074 $d
     /tmp/ccPn5Faf.s:593    .text.HAL_PWREx_EnterUnderDriveSTOPMode:0000000000000000 $t
     /tmp/ccPn5Faf.s:600    .text.HAL_PWREx_EnterUnderDriveSTOPMode:0000000000000000 HAL_PWREx_EnterUnderDriveSTOPMode
     /tmp/ccPn5Faf.s:746    .text.HAL_PWREx_EnterUnderDriveSTOPMode:0000000000000084 $d
     /tmp/ccPn5Faf.s:754    .text.HAL_PWREx_GetVoltageRange:0000000000000000 $t
     /tmp/ccPn5Faf.s:761    .text.HAL_PWREx_GetVoltageRange:0000000000000000 HAL_PWREx_GetVoltageRange
     /tmp/ccPn5Faf.s:778    .text.HAL_PWREx_GetVoltageRange:000000000000000c $d
     /tmp/ccPn5Faf.s:783    .text.HAL_PWREx_ControlVoltageScaling:0000000000000000 $t
     /tmp/ccPn5Faf.s:790    .text.HAL_PWREx_ControlVoltageScaling:0000000000000000 HAL_PWREx_ControlVoltageScaling
     /tmp/ccPn5Faf.s:961    .text.HAL_PWREx_ControlVoltageScaling:00000000000000b8 $d

UNDEFINED SYMBOLS
HAL_GetTick
