ARM GAS  /tmp/ccXXkp3U.s 			page 1


   1              		.cpu cortex-m7
   2              		.eabi_attribute 28, 1
   3              		.eabi_attribute 20, 1
   4              		.eabi_attribute 21, 1
   5              		.eabi_attribute 23, 3
   6              		.eabi_attribute 24, 1
   7              		.eabi_attribute 25, 1
   8              		.eabi_attribute 26, 1
   9              		.eabi_attribute 30, 1
  10              		.eabi_attribute 34, 1
  11              		.eabi_attribute 18, 4
  12              		.file	"heap_4.c"
  13              		.text
  14              	.Ltext0:
  15              		.cfi_sections	.debug_frame
  16              		.section	.text.prvHeapInit,"ax",%progbits
  17              		.align	1
  18              		.arch armv7e-m
  19              		.syntax unified
  20              		.thumb
  21              		.thumb_func
  22              		.fpu fpv5-d16
  24              	prvHeapInit:
  25              	.LFB9:
  26              		.file 1 "STM32F769/Middlewares/Third_Party/FreeRTOS/Source/portable/MemMang/heap_4.c"
   1:STM32F769/Middlewares/Third_Party/FreeRTOS/Source/portable/MemMang/heap_4.c **** /*
   2:STM32F769/Middlewares/Third_Party/FreeRTOS/Source/portable/MemMang/heap_4.c ****  * FreeRTOS Kernel V10.0.1
   3:STM32F769/Middlewares/Third_Party/FreeRTOS/Source/portable/MemMang/heap_4.c ****  * Copyright (C) 2017 Amazon.com, Inc. or its affiliates.  All Rights Reserved.
   4:STM32F769/Middlewares/Third_Party/FreeRTOS/Source/portable/MemMang/heap_4.c ****  *
   5:STM32F769/Middlewares/Third_Party/FreeRTOS/Source/portable/MemMang/heap_4.c ****  * Permission is hereby granted, free of charge, to any person obtaining a copy of
   6:STM32F769/Middlewares/Third_Party/FreeRTOS/Source/portable/MemMang/heap_4.c ****  * this software and associated documentation files (the "Software"), to deal in
   7:STM32F769/Middlewares/Third_Party/FreeRTOS/Source/portable/MemMang/heap_4.c ****  * the Software without restriction, including without limitation the rights to
   8:STM32F769/Middlewares/Third_Party/FreeRTOS/Source/portable/MemMang/heap_4.c ****  * use, copy, modify, merge, publish, distribute, sublicense, and/or sell copies of
   9:STM32F769/Middlewares/Third_Party/FreeRTOS/Source/portable/MemMang/heap_4.c ****  * the Software, and to permit persons to whom the Software is furnished to do so,
  10:STM32F769/Middlewares/Third_Party/FreeRTOS/Source/portable/MemMang/heap_4.c ****  * subject to the following conditions:
  11:STM32F769/Middlewares/Third_Party/FreeRTOS/Source/portable/MemMang/heap_4.c ****  *
  12:STM32F769/Middlewares/Third_Party/FreeRTOS/Source/portable/MemMang/heap_4.c ****  * The above copyright notice and this permission notice shall be included in all
  13:STM32F769/Middlewares/Third_Party/FreeRTOS/Source/portable/MemMang/heap_4.c ****  * copies or substantial portions of the Software.
  14:STM32F769/Middlewares/Third_Party/FreeRTOS/Source/portable/MemMang/heap_4.c ****  *
  15:STM32F769/Middlewares/Third_Party/FreeRTOS/Source/portable/MemMang/heap_4.c ****  * THE SOFTWARE IS PROVIDED "AS IS", WITHOUT WARRANTY OF ANY KIND, EXPRESS OR
  16:STM32F769/Middlewares/Third_Party/FreeRTOS/Source/portable/MemMang/heap_4.c ****  * IMPLIED, INCLUDING BUT NOT LIMITED TO THE WARRANTIES OF MERCHANTABILITY, FITNESS
  17:STM32F769/Middlewares/Third_Party/FreeRTOS/Source/portable/MemMang/heap_4.c ****  * FOR A PARTICULAR PURPOSE AND NONINFRINGEMENT. IN NO EVENT SHALL THE AUTHORS OR
  18:STM32F769/Middlewares/Third_Party/FreeRTOS/Source/portable/MemMang/heap_4.c ****  * COPYRIGHT HOLDERS BE LIABLE FOR ANY CLAIM, DAMAGES OR OTHER LIABILITY, WHETHER
  19:STM32F769/Middlewares/Third_Party/FreeRTOS/Source/portable/MemMang/heap_4.c ****  * IN AN ACTION OF CONTRACT, TORT OR OTHERWISE, ARISING FROM, OUT OF OR IN
  20:STM32F769/Middlewares/Third_Party/FreeRTOS/Source/portable/MemMang/heap_4.c ****  * CONNECTION WITH THE SOFTWARE OR THE USE OR OTHER DEALINGS IN THE SOFTWARE.
  21:STM32F769/Middlewares/Third_Party/FreeRTOS/Source/portable/MemMang/heap_4.c ****  *
  22:STM32F769/Middlewares/Third_Party/FreeRTOS/Source/portable/MemMang/heap_4.c ****  * http://www.FreeRTOS.org
  23:STM32F769/Middlewares/Third_Party/FreeRTOS/Source/portable/MemMang/heap_4.c ****  * http://aws.amazon.com/freertos
  24:STM32F769/Middlewares/Third_Party/FreeRTOS/Source/portable/MemMang/heap_4.c ****  *
  25:STM32F769/Middlewares/Third_Party/FreeRTOS/Source/portable/MemMang/heap_4.c ****  * 1 tab == 4 spaces!
  26:STM32F769/Middlewares/Third_Party/FreeRTOS/Source/portable/MemMang/heap_4.c ****  */
  27:STM32F769/Middlewares/Third_Party/FreeRTOS/Source/portable/MemMang/heap_4.c **** 
  28:STM32F769/Middlewares/Third_Party/FreeRTOS/Source/portable/MemMang/heap_4.c **** /*
  29:STM32F769/Middlewares/Third_Party/FreeRTOS/Source/portable/MemMang/heap_4.c ****  * A sample implementation of pvPortMalloc() and vPortFree() that combines
  30:STM32F769/Middlewares/Third_Party/FreeRTOS/Source/portable/MemMang/heap_4.c ****  * (coalescences) adjacent memory blocks as they are freed, and in so doing
  31:STM32F769/Middlewares/Third_Party/FreeRTOS/Source/portable/MemMang/heap_4.c ****  * limits memory fragmentation.
  32:STM32F769/Middlewares/Third_Party/FreeRTOS/Source/portable/MemMang/heap_4.c ****  *
ARM GAS  /tmp/ccXXkp3U.s 			page 2


  33:STM32F769/Middlewares/Third_Party/FreeRTOS/Source/portable/MemMang/heap_4.c ****  * See heap_1.c, heap_2.c and heap_3.c for alternative implementations, and the
  34:STM32F769/Middlewares/Third_Party/FreeRTOS/Source/portable/MemMang/heap_4.c ****  * memory management pages of http://www.FreeRTOS.org for more information.
  35:STM32F769/Middlewares/Third_Party/FreeRTOS/Source/portable/MemMang/heap_4.c ****  */
  36:STM32F769/Middlewares/Third_Party/FreeRTOS/Source/portable/MemMang/heap_4.c **** #include <stdlib.h>
  37:STM32F769/Middlewares/Third_Party/FreeRTOS/Source/portable/MemMang/heap_4.c **** 
  38:STM32F769/Middlewares/Third_Party/FreeRTOS/Source/portable/MemMang/heap_4.c **** /* Defining MPU_WRAPPERS_INCLUDED_FROM_API_FILE prevents task.h from redefining
  39:STM32F769/Middlewares/Third_Party/FreeRTOS/Source/portable/MemMang/heap_4.c **** all the API functions to use the MPU wrappers.  That should only be done when
  40:STM32F769/Middlewares/Third_Party/FreeRTOS/Source/portable/MemMang/heap_4.c **** task.h is included from an application file. */
  41:STM32F769/Middlewares/Third_Party/FreeRTOS/Source/portable/MemMang/heap_4.c **** #define MPU_WRAPPERS_INCLUDED_FROM_API_FILE
  42:STM32F769/Middlewares/Third_Party/FreeRTOS/Source/portable/MemMang/heap_4.c **** 
  43:STM32F769/Middlewares/Third_Party/FreeRTOS/Source/portable/MemMang/heap_4.c **** #include "FreeRTOS.h"
  44:STM32F769/Middlewares/Third_Party/FreeRTOS/Source/portable/MemMang/heap_4.c **** #include "task.h"
  45:STM32F769/Middlewares/Third_Party/FreeRTOS/Source/portable/MemMang/heap_4.c **** 
  46:STM32F769/Middlewares/Third_Party/FreeRTOS/Source/portable/MemMang/heap_4.c **** #undef MPU_WRAPPERS_INCLUDED_FROM_API_FILE
  47:STM32F769/Middlewares/Third_Party/FreeRTOS/Source/portable/MemMang/heap_4.c **** 
  48:STM32F769/Middlewares/Third_Party/FreeRTOS/Source/portable/MemMang/heap_4.c **** #if( configSUPPORT_DYNAMIC_ALLOCATION == 0 )
  49:STM32F769/Middlewares/Third_Party/FreeRTOS/Source/portable/MemMang/heap_4.c **** 	#error This file must not be used if configSUPPORT_DYNAMIC_ALLOCATION is 0
  50:STM32F769/Middlewares/Third_Party/FreeRTOS/Source/portable/MemMang/heap_4.c **** #endif
  51:STM32F769/Middlewares/Third_Party/FreeRTOS/Source/portable/MemMang/heap_4.c **** 
  52:STM32F769/Middlewares/Third_Party/FreeRTOS/Source/portable/MemMang/heap_4.c **** /* Block sizes must not get too small. */
  53:STM32F769/Middlewares/Third_Party/FreeRTOS/Source/portable/MemMang/heap_4.c **** #define heapMINIMUM_BLOCK_SIZE	( ( size_t ) ( xHeapStructSize << 1 ) )
  54:STM32F769/Middlewares/Third_Party/FreeRTOS/Source/portable/MemMang/heap_4.c **** 
  55:STM32F769/Middlewares/Third_Party/FreeRTOS/Source/portable/MemMang/heap_4.c **** /* Assumes 8bit bytes! */
  56:STM32F769/Middlewares/Third_Party/FreeRTOS/Source/portable/MemMang/heap_4.c **** #define heapBITS_PER_BYTE		( ( size_t ) 8 )
  57:STM32F769/Middlewares/Third_Party/FreeRTOS/Source/portable/MemMang/heap_4.c **** 
  58:STM32F769/Middlewares/Third_Party/FreeRTOS/Source/portable/MemMang/heap_4.c **** /* Allocate the memory for the heap. */
  59:STM32F769/Middlewares/Third_Party/FreeRTOS/Source/portable/MemMang/heap_4.c **** #if( configAPPLICATION_ALLOCATED_HEAP == 1 )
  60:STM32F769/Middlewares/Third_Party/FreeRTOS/Source/portable/MemMang/heap_4.c **** 	/* The application writer has already defined the array used for the RTOS
  61:STM32F769/Middlewares/Third_Party/FreeRTOS/Source/portable/MemMang/heap_4.c **** 	heap - probably so it can be placed in a special segment or address. */
  62:STM32F769/Middlewares/Third_Party/FreeRTOS/Source/portable/MemMang/heap_4.c **** 	extern uint8_t ucHeap[ configTOTAL_HEAP_SIZE ];
  63:STM32F769/Middlewares/Third_Party/FreeRTOS/Source/portable/MemMang/heap_4.c **** #else
  64:STM32F769/Middlewares/Third_Party/FreeRTOS/Source/portable/MemMang/heap_4.c **** 	static uint8_t ucHeap[ configTOTAL_HEAP_SIZE ];
  65:STM32F769/Middlewares/Third_Party/FreeRTOS/Source/portable/MemMang/heap_4.c **** #endif /* configAPPLICATION_ALLOCATED_HEAP */
  66:STM32F769/Middlewares/Third_Party/FreeRTOS/Source/portable/MemMang/heap_4.c **** 
  67:STM32F769/Middlewares/Third_Party/FreeRTOS/Source/portable/MemMang/heap_4.c **** /* Define the linked list structure.  This is used to link free blocks in order
  68:STM32F769/Middlewares/Third_Party/FreeRTOS/Source/portable/MemMang/heap_4.c **** of their memory address. */
  69:STM32F769/Middlewares/Third_Party/FreeRTOS/Source/portable/MemMang/heap_4.c **** typedef struct A_BLOCK_LINK
  70:STM32F769/Middlewares/Third_Party/FreeRTOS/Source/portable/MemMang/heap_4.c **** {
  71:STM32F769/Middlewares/Third_Party/FreeRTOS/Source/portable/MemMang/heap_4.c **** 	struct A_BLOCK_LINK *pxNextFreeBlock;	/*<< The next free block in the list. */
  72:STM32F769/Middlewares/Third_Party/FreeRTOS/Source/portable/MemMang/heap_4.c **** 	size_t xBlockSize;						/*<< The size of the free block. */
  73:STM32F769/Middlewares/Third_Party/FreeRTOS/Source/portable/MemMang/heap_4.c **** } BlockLink_t;
  74:STM32F769/Middlewares/Third_Party/FreeRTOS/Source/portable/MemMang/heap_4.c **** 
  75:STM32F769/Middlewares/Third_Party/FreeRTOS/Source/portable/MemMang/heap_4.c **** /*-----------------------------------------------------------*/
  76:STM32F769/Middlewares/Third_Party/FreeRTOS/Source/portable/MemMang/heap_4.c **** 
  77:STM32F769/Middlewares/Third_Party/FreeRTOS/Source/portable/MemMang/heap_4.c **** /*
  78:STM32F769/Middlewares/Third_Party/FreeRTOS/Source/portable/MemMang/heap_4.c ****  * Inserts a block of memory that is being freed into the correct position in
  79:STM32F769/Middlewares/Third_Party/FreeRTOS/Source/portable/MemMang/heap_4.c ****  * the list of free memory blocks.  The block being freed will be merged with
  80:STM32F769/Middlewares/Third_Party/FreeRTOS/Source/portable/MemMang/heap_4.c ****  * the block in front it and/or the block behind it if the memory blocks are
  81:STM32F769/Middlewares/Third_Party/FreeRTOS/Source/portable/MemMang/heap_4.c ****  * adjacent to each other.
  82:STM32F769/Middlewares/Third_Party/FreeRTOS/Source/portable/MemMang/heap_4.c ****  */
  83:STM32F769/Middlewares/Third_Party/FreeRTOS/Source/portable/MemMang/heap_4.c **** static void prvInsertBlockIntoFreeList( BlockLink_t *pxBlockToInsert );
  84:STM32F769/Middlewares/Third_Party/FreeRTOS/Source/portable/MemMang/heap_4.c **** 
  85:STM32F769/Middlewares/Third_Party/FreeRTOS/Source/portable/MemMang/heap_4.c **** /*
  86:STM32F769/Middlewares/Third_Party/FreeRTOS/Source/portable/MemMang/heap_4.c ****  * Called automatically to setup the required heap structures the first time
  87:STM32F769/Middlewares/Third_Party/FreeRTOS/Source/portable/MemMang/heap_4.c ****  * pvPortMalloc() is called.
  88:STM32F769/Middlewares/Third_Party/FreeRTOS/Source/portable/MemMang/heap_4.c ****  */
  89:STM32F769/Middlewares/Third_Party/FreeRTOS/Source/portable/MemMang/heap_4.c **** static void prvHeapInit( void );
ARM GAS  /tmp/ccXXkp3U.s 			page 3


  90:STM32F769/Middlewares/Third_Party/FreeRTOS/Source/portable/MemMang/heap_4.c **** 
  91:STM32F769/Middlewares/Third_Party/FreeRTOS/Source/portable/MemMang/heap_4.c **** /*-----------------------------------------------------------*/
  92:STM32F769/Middlewares/Third_Party/FreeRTOS/Source/portable/MemMang/heap_4.c **** 
  93:STM32F769/Middlewares/Third_Party/FreeRTOS/Source/portable/MemMang/heap_4.c **** /* The size of the structure placed at the beginning of each allocated memory
  94:STM32F769/Middlewares/Third_Party/FreeRTOS/Source/portable/MemMang/heap_4.c **** block must by correctly byte aligned. */
  95:STM32F769/Middlewares/Third_Party/FreeRTOS/Source/portable/MemMang/heap_4.c **** static const size_t xHeapStructSize	= ( sizeof( BlockLink_t ) + ( ( size_t ) ( portBYTE_ALIGNMENT -
  96:STM32F769/Middlewares/Third_Party/FreeRTOS/Source/portable/MemMang/heap_4.c **** 
  97:STM32F769/Middlewares/Third_Party/FreeRTOS/Source/portable/MemMang/heap_4.c **** /* Create a couple of list links to mark the start and end of the list. */
  98:STM32F769/Middlewares/Third_Party/FreeRTOS/Source/portable/MemMang/heap_4.c **** static BlockLink_t xStart, *pxEnd = NULL;
  99:STM32F769/Middlewares/Third_Party/FreeRTOS/Source/portable/MemMang/heap_4.c **** 
 100:STM32F769/Middlewares/Third_Party/FreeRTOS/Source/portable/MemMang/heap_4.c **** /* Keeps track of the number of free bytes remaining, but says nothing about
 101:STM32F769/Middlewares/Third_Party/FreeRTOS/Source/portable/MemMang/heap_4.c **** fragmentation. */
 102:STM32F769/Middlewares/Third_Party/FreeRTOS/Source/portable/MemMang/heap_4.c **** static size_t xFreeBytesRemaining = 0U;
 103:STM32F769/Middlewares/Third_Party/FreeRTOS/Source/portable/MemMang/heap_4.c **** static size_t xMinimumEverFreeBytesRemaining = 0U;
 104:STM32F769/Middlewares/Third_Party/FreeRTOS/Source/portable/MemMang/heap_4.c **** 
 105:STM32F769/Middlewares/Third_Party/FreeRTOS/Source/portable/MemMang/heap_4.c **** /* Gets set to the top bit of an size_t type.  When this bit in the xBlockSize
 106:STM32F769/Middlewares/Third_Party/FreeRTOS/Source/portable/MemMang/heap_4.c **** member of an BlockLink_t structure is set then the block belongs to the
 107:STM32F769/Middlewares/Third_Party/FreeRTOS/Source/portable/MemMang/heap_4.c **** application.  When the bit is free the block is still part of the free heap
 108:STM32F769/Middlewares/Third_Party/FreeRTOS/Source/portable/MemMang/heap_4.c **** space. */
 109:STM32F769/Middlewares/Third_Party/FreeRTOS/Source/portable/MemMang/heap_4.c **** static size_t xBlockAllocatedBit = 0;
 110:STM32F769/Middlewares/Third_Party/FreeRTOS/Source/portable/MemMang/heap_4.c **** 
 111:STM32F769/Middlewares/Third_Party/FreeRTOS/Source/portable/MemMang/heap_4.c **** /*-----------------------------------------------------------*/
 112:STM32F769/Middlewares/Third_Party/FreeRTOS/Source/portable/MemMang/heap_4.c **** 
 113:STM32F769/Middlewares/Third_Party/FreeRTOS/Source/portable/MemMang/heap_4.c **** void *pvPortMalloc( size_t xWantedSize )
 114:STM32F769/Middlewares/Third_Party/FreeRTOS/Source/portable/MemMang/heap_4.c **** {
 115:STM32F769/Middlewares/Third_Party/FreeRTOS/Source/portable/MemMang/heap_4.c **** BlockLink_t *pxBlock, *pxPreviousBlock, *pxNewBlockLink;
 116:STM32F769/Middlewares/Third_Party/FreeRTOS/Source/portable/MemMang/heap_4.c **** void *pvReturn = NULL;
 117:STM32F769/Middlewares/Third_Party/FreeRTOS/Source/portable/MemMang/heap_4.c **** 
 118:STM32F769/Middlewares/Third_Party/FreeRTOS/Source/portable/MemMang/heap_4.c **** 	vTaskSuspendAll();
 119:STM32F769/Middlewares/Third_Party/FreeRTOS/Source/portable/MemMang/heap_4.c **** 	{
 120:STM32F769/Middlewares/Third_Party/FreeRTOS/Source/portable/MemMang/heap_4.c **** 		/* If this is the first call to malloc then the heap will require
 121:STM32F769/Middlewares/Third_Party/FreeRTOS/Source/portable/MemMang/heap_4.c **** 		initialisation to setup the list of free blocks. */
 122:STM32F769/Middlewares/Third_Party/FreeRTOS/Source/portable/MemMang/heap_4.c **** 		if( pxEnd == NULL )
 123:STM32F769/Middlewares/Third_Party/FreeRTOS/Source/portable/MemMang/heap_4.c **** 		{
 124:STM32F769/Middlewares/Third_Party/FreeRTOS/Source/portable/MemMang/heap_4.c **** 			prvHeapInit();
 125:STM32F769/Middlewares/Third_Party/FreeRTOS/Source/portable/MemMang/heap_4.c **** 		}
 126:STM32F769/Middlewares/Third_Party/FreeRTOS/Source/portable/MemMang/heap_4.c **** 		else
 127:STM32F769/Middlewares/Third_Party/FreeRTOS/Source/portable/MemMang/heap_4.c **** 		{
 128:STM32F769/Middlewares/Third_Party/FreeRTOS/Source/portable/MemMang/heap_4.c **** 			mtCOVERAGE_TEST_MARKER();
 129:STM32F769/Middlewares/Third_Party/FreeRTOS/Source/portable/MemMang/heap_4.c **** 		}
 130:STM32F769/Middlewares/Third_Party/FreeRTOS/Source/portable/MemMang/heap_4.c **** 
 131:STM32F769/Middlewares/Third_Party/FreeRTOS/Source/portable/MemMang/heap_4.c **** 		/* Check the requested block size is not so large that the top bit is
 132:STM32F769/Middlewares/Third_Party/FreeRTOS/Source/portable/MemMang/heap_4.c **** 		set.  The top bit of the block size member of the BlockLink_t structure
 133:STM32F769/Middlewares/Third_Party/FreeRTOS/Source/portable/MemMang/heap_4.c **** 		is used to determine who owns the block - the application or the
 134:STM32F769/Middlewares/Third_Party/FreeRTOS/Source/portable/MemMang/heap_4.c **** 		kernel, so it must be free. */
 135:STM32F769/Middlewares/Third_Party/FreeRTOS/Source/portable/MemMang/heap_4.c **** 		if( ( xWantedSize & xBlockAllocatedBit ) == 0 )
 136:STM32F769/Middlewares/Third_Party/FreeRTOS/Source/portable/MemMang/heap_4.c **** 		{
 137:STM32F769/Middlewares/Third_Party/FreeRTOS/Source/portable/MemMang/heap_4.c **** 			/* The wanted size is increased so it can contain a BlockLink_t
 138:STM32F769/Middlewares/Third_Party/FreeRTOS/Source/portable/MemMang/heap_4.c **** 			structure in addition to the requested amount of bytes. */
 139:STM32F769/Middlewares/Third_Party/FreeRTOS/Source/portable/MemMang/heap_4.c **** 			if( xWantedSize > 0 )
 140:STM32F769/Middlewares/Third_Party/FreeRTOS/Source/portable/MemMang/heap_4.c **** 			{
 141:STM32F769/Middlewares/Third_Party/FreeRTOS/Source/portable/MemMang/heap_4.c **** 				xWantedSize += xHeapStructSize;
 142:STM32F769/Middlewares/Third_Party/FreeRTOS/Source/portable/MemMang/heap_4.c **** 
 143:STM32F769/Middlewares/Third_Party/FreeRTOS/Source/portable/MemMang/heap_4.c **** 				/* Ensure that blocks are always aligned to the required number
 144:STM32F769/Middlewares/Third_Party/FreeRTOS/Source/portable/MemMang/heap_4.c **** 				of bytes. */
 145:STM32F769/Middlewares/Third_Party/FreeRTOS/Source/portable/MemMang/heap_4.c **** 				if( ( xWantedSize & portBYTE_ALIGNMENT_MASK ) != 0x00 )
 146:STM32F769/Middlewares/Third_Party/FreeRTOS/Source/portable/MemMang/heap_4.c **** 				{
ARM GAS  /tmp/ccXXkp3U.s 			page 4


 147:STM32F769/Middlewares/Third_Party/FreeRTOS/Source/portable/MemMang/heap_4.c **** 					/* Byte alignment required. */
 148:STM32F769/Middlewares/Third_Party/FreeRTOS/Source/portable/MemMang/heap_4.c **** 					xWantedSize += ( portBYTE_ALIGNMENT - ( xWantedSize & portBYTE_ALIGNMENT_MASK ) );
 149:STM32F769/Middlewares/Third_Party/FreeRTOS/Source/portable/MemMang/heap_4.c **** 					configASSERT( ( xWantedSize & portBYTE_ALIGNMENT_MASK ) == 0 );
 150:STM32F769/Middlewares/Third_Party/FreeRTOS/Source/portable/MemMang/heap_4.c **** 				}
 151:STM32F769/Middlewares/Third_Party/FreeRTOS/Source/portable/MemMang/heap_4.c **** 				else
 152:STM32F769/Middlewares/Third_Party/FreeRTOS/Source/portable/MemMang/heap_4.c **** 				{
 153:STM32F769/Middlewares/Third_Party/FreeRTOS/Source/portable/MemMang/heap_4.c **** 					mtCOVERAGE_TEST_MARKER();
 154:STM32F769/Middlewares/Third_Party/FreeRTOS/Source/portable/MemMang/heap_4.c **** 				}
 155:STM32F769/Middlewares/Third_Party/FreeRTOS/Source/portable/MemMang/heap_4.c **** 			}
 156:STM32F769/Middlewares/Third_Party/FreeRTOS/Source/portable/MemMang/heap_4.c **** 			else
 157:STM32F769/Middlewares/Third_Party/FreeRTOS/Source/portable/MemMang/heap_4.c **** 			{
 158:STM32F769/Middlewares/Third_Party/FreeRTOS/Source/portable/MemMang/heap_4.c **** 				mtCOVERAGE_TEST_MARKER();
 159:STM32F769/Middlewares/Third_Party/FreeRTOS/Source/portable/MemMang/heap_4.c **** 			}
 160:STM32F769/Middlewares/Third_Party/FreeRTOS/Source/portable/MemMang/heap_4.c **** 
 161:STM32F769/Middlewares/Third_Party/FreeRTOS/Source/portable/MemMang/heap_4.c **** 			if( ( xWantedSize > 0 ) && ( xWantedSize <= xFreeBytesRemaining ) )
 162:STM32F769/Middlewares/Third_Party/FreeRTOS/Source/portable/MemMang/heap_4.c **** 			{
 163:STM32F769/Middlewares/Third_Party/FreeRTOS/Source/portable/MemMang/heap_4.c **** 				/* Traverse the list from the start	(lowest address) block until
 164:STM32F769/Middlewares/Third_Party/FreeRTOS/Source/portable/MemMang/heap_4.c **** 				one	of adequate size is found. */
 165:STM32F769/Middlewares/Third_Party/FreeRTOS/Source/portable/MemMang/heap_4.c **** 				pxPreviousBlock = &xStart;
 166:STM32F769/Middlewares/Third_Party/FreeRTOS/Source/portable/MemMang/heap_4.c **** 				pxBlock = xStart.pxNextFreeBlock;
 167:STM32F769/Middlewares/Third_Party/FreeRTOS/Source/portable/MemMang/heap_4.c **** 				while( ( pxBlock->xBlockSize < xWantedSize ) && ( pxBlock->pxNextFreeBlock != NULL ) )
 168:STM32F769/Middlewares/Third_Party/FreeRTOS/Source/portable/MemMang/heap_4.c **** 				{
 169:STM32F769/Middlewares/Third_Party/FreeRTOS/Source/portable/MemMang/heap_4.c **** 					pxPreviousBlock = pxBlock;
 170:STM32F769/Middlewares/Third_Party/FreeRTOS/Source/portable/MemMang/heap_4.c **** 					pxBlock = pxBlock->pxNextFreeBlock;
 171:STM32F769/Middlewares/Third_Party/FreeRTOS/Source/portable/MemMang/heap_4.c **** 				}
 172:STM32F769/Middlewares/Third_Party/FreeRTOS/Source/portable/MemMang/heap_4.c **** 
 173:STM32F769/Middlewares/Third_Party/FreeRTOS/Source/portable/MemMang/heap_4.c **** 				/* If the end marker was reached then a block of adequate size
 174:STM32F769/Middlewares/Third_Party/FreeRTOS/Source/portable/MemMang/heap_4.c **** 				was	not found. */
 175:STM32F769/Middlewares/Third_Party/FreeRTOS/Source/portable/MemMang/heap_4.c **** 				if( pxBlock != pxEnd )
 176:STM32F769/Middlewares/Third_Party/FreeRTOS/Source/portable/MemMang/heap_4.c **** 				{
 177:STM32F769/Middlewares/Third_Party/FreeRTOS/Source/portable/MemMang/heap_4.c **** 					/* Return the memory space pointed to - jumping over the
 178:STM32F769/Middlewares/Third_Party/FreeRTOS/Source/portable/MemMang/heap_4.c **** 					BlockLink_t structure at its start. */
 179:STM32F769/Middlewares/Third_Party/FreeRTOS/Source/portable/MemMang/heap_4.c **** 					pvReturn = ( void * ) ( ( ( uint8_t * ) pxPreviousBlock->pxNextFreeBlock ) + xHeapStructSize )
 180:STM32F769/Middlewares/Third_Party/FreeRTOS/Source/portable/MemMang/heap_4.c **** 
 181:STM32F769/Middlewares/Third_Party/FreeRTOS/Source/portable/MemMang/heap_4.c **** 					/* This block is being returned for use so must be taken out
 182:STM32F769/Middlewares/Third_Party/FreeRTOS/Source/portable/MemMang/heap_4.c **** 					of the list of free blocks. */
 183:STM32F769/Middlewares/Third_Party/FreeRTOS/Source/portable/MemMang/heap_4.c **** 					pxPreviousBlock->pxNextFreeBlock = pxBlock->pxNextFreeBlock;
 184:STM32F769/Middlewares/Third_Party/FreeRTOS/Source/portable/MemMang/heap_4.c **** 
 185:STM32F769/Middlewares/Third_Party/FreeRTOS/Source/portable/MemMang/heap_4.c **** 					/* If the block is larger than required it can be split into
 186:STM32F769/Middlewares/Third_Party/FreeRTOS/Source/portable/MemMang/heap_4.c **** 					two. */
 187:STM32F769/Middlewares/Third_Party/FreeRTOS/Source/portable/MemMang/heap_4.c **** 					if( ( pxBlock->xBlockSize - xWantedSize ) > heapMINIMUM_BLOCK_SIZE )
 188:STM32F769/Middlewares/Third_Party/FreeRTOS/Source/portable/MemMang/heap_4.c **** 					{
 189:STM32F769/Middlewares/Third_Party/FreeRTOS/Source/portable/MemMang/heap_4.c **** 						/* This block is to be split into two.  Create a new
 190:STM32F769/Middlewares/Third_Party/FreeRTOS/Source/portable/MemMang/heap_4.c **** 						block following the number of bytes requested. The void
 191:STM32F769/Middlewares/Third_Party/FreeRTOS/Source/portable/MemMang/heap_4.c **** 						cast is used to prevent byte alignment warnings from the
 192:STM32F769/Middlewares/Third_Party/FreeRTOS/Source/portable/MemMang/heap_4.c **** 						compiler. */
 193:STM32F769/Middlewares/Third_Party/FreeRTOS/Source/portable/MemMang/heap_4.c **** 						pxNewBlockLink = ( void * ) ( ( ( uint8_t * ) pxBlock ) + xWantedSize );
 194:STM32F769/Middlewares/Third_Party/FreeRTOS/Source/portable/MemMang/heap_4.c **** 						configASSERT( ( ( ( size_t ) pxNewBlockLink ) & portBYTE_ALIGNMENT_MASK ) == 0 );
 195:STM32F769/Middlewares/Third_Party/FreeRTOS/Source/portable/MemMang/heap_4.c **** 
 196:STM32F769/Middlewares/Third_Party/FreeRTOS/Source/portable/MemMang/heap_4.c **** 						/* Calculate the sizes of two blocks split from the
 197:STM32F769/Middlewares/Third_Party/FreeRTOS/Source/portable/MemMang/heap_4.c **** 						single block. */
 198:STM32F769/Middlewares/Third_Party/FreeRTOS/Source/portable/MemMang/heap_4.c **** 						pxNewBlockLink->xBlockSize = pxBlock->xBlockSize - xWantedSize;
 199:STM32F769/Middlewares/Third_Party/FreeRTOS/Source/portable/MemMang/heap_4.c **** 						pxBlock->xBlockSize = xWantedSize;
 200:STM32F769/Middlewares/Third_Party/FreeRTOS/Source/portable/MemMang/heap_4.c **** 
 201:STM32F769/Middlewares/Third_Party/FreeRTOS/Source/portable/MemMang/heap_4.c **** 						/* Insert the new block into the list of free blocks. */
 202:STM32F769/Middlewares/Third_Party/FreeRTOS/Source/portable/MemMang/heap_4.c **** 						prvInsertBlockIntoFreeList( pxNewBlockLink );
 203:STM32F769/Middlewares/Third_Party/FreeRTOS/Source/portable/MemMang/heap_4.c **** 					}
ARM GAS  /tmp/ccXXkp3U.s 			page 5


 204:STM32F769/Middlewares/Third_Party/FreeRTOS/Source/portable/MemMang/heap_4.c **** 					else
 205:STM32F769/Middlewares/Third_Party/FreeRTOS/Source/portable/MemMang/heap_4.c **** 					{
 206:STM32F769/Middlewares/Third_Party/FreeRTOS/Source/portable/MemMang/heap_4.c **** 						mtCOVERAGE_TEST_MARKER();
 207:STM32F769/Middlewares/Third_Party/FreeRTOS/Source/portable/MemMang/heap_4.c **** 					}
 208:STM32F769/Middlewares/Third_Party/FreeRTOS/Source/portable/MemMang/heap_4.c **** 
 209:STM32F769/Middlewares/Third_Party/FreeRTOS/Source/portable/MemMang/heap_4.c **** 					xFreeBytesRemaining -= pxBlock->xBlockSize;
 210:STM32F769/Middlewares/Third_Party/FreeRTOS/Source/portable/MemMang/heap_4.c **** 
 211:STM32F769/Middlewares/Third_Party/FreeRTOS/Source/portable/MemMang/heap_4.c **** 					if( xFreeBytesRemaining < xMinimumEverFreeBytesRemaining )
 212:STM32F769/Middlewares/Third_Party/FreeRTOS/Source/portable/MemMang/heap_4.c **** 					{
 213:STM32F769/Middlewares/Third_Party/FreeRTOS/Source/portable/MemMang/heap_4.c **** 						xMinimumEverFreeBytesRemaining = xFreeBytesRemaining;
 214:STM32F769/Middlewares/Third_Party/FreeRTOS/Source/portable/MemMang/heap_4.c **** 					}
 215:STM32F769/Middlewares/Third_Party/FreeRTOS/Source/portable/MemMang/heap_4.c **** 					else
 216:STM32F769/Middlewares/Third_Party/FreeRTOS/Source/portable/MemMang/heap_4.c **** 					{
 217:STM32F769/Middlewares/Third_Party/FreeRTOS/Source/portable/MemMang/heap_4.c **** 						mtCOVERAGE_TEST_MARKER();
 218:STM32F769/Middlewares/Third_Party/FreeRTOS/Source/portable/MemMang/heap_4.c **** 					}
 219:STM32F769/Middlewares/Third_Party/FreeRTOS/Source/portable/MemMang/heap_4.c **** 
 220:STM32F769/Middlewares/Third_Party/FreeRTOS/Source/portable/MemMang/heap_4.c **** 					/* The block is being returned - it is allocated and owned
 221:STM32F769/Middlewares/Third_Party/FreeRTOS/Source/portable/MemMang/heap_4.c **** 					by the application and has no "next" block. */
 222:STM32F769/Middlewares/Third_Party/FreeRTOS/Source/portable/MemMang/heap_4.c **** 					pxBlock->xBlockSize |= xBlockAllocatedBit;
 223:STM32F769/Middlewares/Third_Party/FreeRTOS/Source/portable/MemMang/heap_4.c **** 					pxBlock->pxNextFreeBlock = NULL;
 224:STM32F769/Middlewares/Third_Party/FreeRTOS/Source/portable/MemMang/heap_4.c **** 				}
 225:STM32F769/Middlewares/Third_Party/FreeRTOS/Source/portable/MemMang/heap_4.c **** 				else
 226:STM32F769/Middlewares/Third_Party/FreeRTOS/Source/portable/MemMang/heap_4.c **** 				{
 227:STM32F769/Middlewares/Third_Party/FreeRTOS/Source/portable/MemMang/heap_4.c **** 					mtCOVERAGE_TEST_MARKER();
 228:STM32F769/Middlewares/Third_Party/FreeRTOS/Source/portable/MemMang/heap_4.c **** 				}
 229:STM32F769/Middlewares/Third_Party/FreeRTOS/Source/portable/MemMang/heap_4.c **** 			}
 230:STM32F769/Middlewares/Third_Party/FreeRTOS/Source/portable/MemMang/heap_4.c **** 			else
 231:STM32F769/Middlewares/Third_Party/FreeRTOS/Source/portable/MemMang/heap_4.c **** 			{
 232:STM32F769/Middlewares/Third_Party/FreeRTOS/Source/portable/MemMang/heap_4.c **** 				mtCOVERAGE_TEST_MARKER();
 233:STM32F769/Middlewares/Third_Party/FreeRTOS/Source/portable/MemMang/heap_4.c **** 			}
 234:STM32F769/Middlewares/Third_Party/FreeRTOS/Source/portable/MemMang/heap_4.c **** 		}
 235:STM32F769/Middlewares/Third_Party/FreeRTOS/Source/portable/MemMang/heap_4.c **** 		else
 236:STM32F769/Middlewares/Third_Party/FreeRTOS/Source/portable/MemMang/heap_4.c **** 		{
 237:STM32F769/Middlewares/Third_Party/FreeRTOS/Source/portable/MemMang/heap_4.c **** 			mtCOVERAGE_TEST_MARKER();
 238:STM32F769/Middlewares/Third_Party/FreeRTOS/Source/portable/MemMang/heap_4.c **** 		}
 239:STM32F769/Middlewares/Third_Party/FreeRTOS/Source/portable/MemMang/heap_4.c **** 
 240:STM32F769/Middlewares/Third_Party/FreeRTOS/Source/portable/MemMang/heap_4.c **** 		traceMALLOC( pvReturn, xWantedSize );
 241:STM32F769/Middlewares/Third_Party/FreeRTOS/Source/portable/MemMang/heap_4.c **** 	}
 242:STM32F769/Middlewares/Third_Party/FreeRTOS/Source/portable/MemMang/heap_4.c **** 	( void ) xTaskResumeAll();
 243:STM32F769/Middlewares/Third_Party/FreeRTOS/Source/portable/MemMang/heap_4.c **** 
 244:STM32F769/Middlewares/Third_Party/FreeRTOS/Source/portable/MemMang/heap_4.c **** 	#if( configUSE_MALLOC_FAILED_HOOK == 1 )
 245:STM32F769/Middlewares/Third_Party/FreeRTOS/Source/portable/MemMang/heap_4.c **** 	{
 246:STM32F769/Middlewares/Third_Party/FreeRTOS/Source/portable/MemMang/heap_4.c **** 		if( pvReturn == NULL )
 247:STM32F769/Middlewares/Third_Party/FreeRTOS/Source/portable/MemMang/heap_4.c **** 		{
 248:STM32F769/Middlewares/Third_Party/FreeRTOS/Source/portable/MemMang/heap_4.c **** 			extern void vApplicationMallocFailedHook( void );
 249:STM32F769/Middlewares/Third_Party/FreeRTOS/Source/portable/MemMang/heap_4.c **** 			vApplicationMallocFailedHook();
 250:STM32F769/Middlewares/Third_Party/FreeRTOS/Source/portable/MemMang/heap_4.c **** 		}
 251:STM32F769/Middlewares/Third_Party/FreeRTOS/Source/portable/MemMang/heap_4.c **** 		else
 252:STM32F769/Middlewares/Third_Party/FreeRTOS/Source/portable/MemMang/heap_4.c **** 		{
 253:STM32F769/Middlewares/Third_Party/FreeRTOS/Source/portable/MemMang/heap_4.c **** 			mtCOVERAGE_TEST_MARKER();
 254:STM32F769/Middlewares/Third_Party/FreeRTOS/Source/portable/MemMang/heap_4.c **** 		}
 255:STM32F769/Middlewares/Third_Party/FreeRTOS/Source/portable/MemMang/heap_4.c **** 	}
 256:STM32F769/Middlewares/Third_Party/FreeRTOS/Source/portable/MemMang/heap_4.c **** 	#endif
 257:STM32F769/Middlewares/Third_Party/FreeRTOS/Source/portable/MemMang/heap_4.c **** 
 258:STM32F769/Middlewares/Third_Party/FreeRTOS/Source/portable/MemMang/heap_4.c **** 	configASSERT( ( ( ( size_t ) pvReturn ) & ( size_t ) portBYTE_ALIGNMENT_MASK ) == 0 );
 259:STM32F769/Middlewares/Third_Party/FreeRTOS/Source/portable/MemMang/heap_4.c **** 	return pvReturn;
 260:STM32F769/Middlewares/Third_Party/FreeRTOS/Source/portable/MemMang/heap_4.c **** }
ARM GAS  /tmp/ccXXkp3U.s 			page 6


 261:STM32F769/Middlewares/Third_Party/FreeRTOS/Source/portable/MemMang/heap_4.c **** /*-----------------------------------------------------------*/
 262:STM32F769/Middlewares/Third_Party/FreeRTOS/Source/portable/MemMang/heap_4.c **** 
 263:STM32F769/Middlewares/Third_Party/FreeRTOS/Source/portable/MemMang/heap_4.c **** void vPortFree( void *pv )
 264:STM32F769/Middlewares/Third_Party/FreeRTOS/Source/portable/MemMang/heap_4.c **** {
 265:STM32F769/Middlewares/Third_Party/FreeRTOS/Source/portable/MemMang/heap_4.c **** uint8_t *puc = ( uint8_t * ) pv;
 266:STM32F769/Middlewares/Third_Party/FreeRTOS/Source/portable/MemMang/heap_4.c **** BlockLink_t *pxLink;
 267:STM32F769/Middlewares/Third_Party/FreeRTOS/Source/portable/MemMang/heap_4.c **** 
 268:STM32F769/Middlewares/Third_Party/FreeRTOS/Source/portable/MemMang/heap_4.c **** 	if( pv != NULL )
 269:STM32F769/Middlewares/Third_Party/FreeRTOS/Source/portable/MemMang/heap_4.c **** 	{
 270:STM32F769/Middlewares/Third_Party/FreeRTOS/Source/portable/MemMang/heap_4.c **** 		/* The memory being freed will have an BlockLink_t structure immediately
 271:STM32F769/Middlewares/Third_Party/FreeRTOS/Source/portable/MemMang/heap_4.c **** 		before it. */
 272:STM32F769/Middlewares/Third_Party/FreeRTOS/Source/portable/MemMang/heap_4.c **** 		puc -= xHeapStructSize;
 273:STM32F769/Middlewares/Third_Party/FreeRTOS/Source/portable/MemMang/heap_4.c **** 
 274:STM32F769/Middlewares/Third_Party/FreeRTOS/Source/portable/MemMang/heap_4.c **** 		/* This casting is to keep the compiler from issuing warnings. */
 275:STM32F769/Middlewares/Third_Party/FreeRTOS/Source/portable/MemMang/heap_4.c **** 		pxLink = ( void * ) puc;
 276:STM32F769/Middlewares/Third_Party/FreeRTOS/Source/portable/MemMang/heap_4.c **** 
 277:STM32F769/Middlewares/Third_Party/FreeRTOS/Source/portable/MemMang/heap_4.c **** 		/* Check the block is actually allocated. */
 278:STM32F769/Middlewares/Third_Party/FreeRTOS/Source/portable/MemMang/heap_4.c **** 		configASSERT( ( pxLink->xBlockSize & xBlockAllocatedBit ) != 0 );
 279:STM32F769/Middlewares/Third_Party/FreeRTOS/Source/portable/MemMang/heap_4.c **** 		configASSERT( pxLink->pxNextFreeBlock == NULL );
 280:STM32F769/Middlewares/Third_Party/FreeRTOS/Source/portable/MemMang/heap_4.c **** 
 281:STM32F769/Middlewares/Third_Party/FreeRTOS/Source/portable/MemMang/heap_4.c **** 		if( ( pxLink->xBlockSize & xBlockAllocatedBit ) != 0 )
 282:STM32F769/Middlewares/Third_Party/FreeRTOS/Source/portable/MemMang/heap_4.c **** 		{
 283:STM32F769/Middlewares/Third_Party/FreeRTOS/Source/portable/MemMang/heap_4.c **** 			if( pxLink->pxNextFreeBlock == NULL )
 284:STM32F769/Middlewares/Third_Party/FreeRTOS/Source/portable/MemMang/heap_4.c **** 			{
 285:STM32F769/Middlewares/Third_Party/FreeRTOS/Source/portable/MemMang/heap_4.c **** 				/* The block is being returned to the heap - it is no longer
 286:STM32F769/Middlewares/Third_Party/FreeRTOS/Source/portable/MemMang/heap_4.c **** 				allocated. */
 287:STM32F769/Middlewares/Third_Party/FreeRTOS/Source/portable/MemMang/heap_4.c **** 				pxLink->xBlockSize &= ~xBlockAllocatedBit;
 288:STM32F769/Middlewares/Third_Party/FreeRTOS/Source/portable/MemMang/heap_4.c **** 
 289:STM32F769/Middlewares/Third_Party/FreeRTOS/Source/portable/MemMang/heap_4.c **** 				vTaskSuspendAll();
 290:STM32F769/Middlewares/Third_Party/FreeRTOS/Source/portable/MemMang/heap_4.c **** 				{
 291:STM32F769/Middlewares/Third_Party/FreeRTOS/Source/portable/MemMang/heap_4.c **** 					/* Add this block to the list of free blocks. */
 292:STM32F769/Middlewares/Third_Party/FreeRTOS/Source/portable/MemMang/heap_4.c **** 					xFreeBytesRemaining += pxLink->xBlockSize;
 293:STM32F769/Middlewares/Third_Party/FreeRTOS/Source/portable/MemMang/heap_4.c **** 					traceFREE( pv, pxLink->xBlockSize );
 294:STM32F769/Middlewares/Third_Party/FreeRTOS/Source/portable/MemMang/heap_4.c **** 					prvInsertBlockIntoFreeList( ( ( BlockLink_t * ) pxLink ) );
 295:STM32F769/Middlewares/Third_Party/FreeRTOS/Source/portable/MemMang/heap_4.c **** 				}
 296:STM32F769/Middlewares/Third_Party/FreeRTOS/Source/portable/MemMang/heap_4.c **** 				( void ) xTaskResumeAll();
 297:STM32F769/Middlewares/Third_Party/FreeRTOS/Source/portable/MemMang/heap_4.c **** 			}
 298:STM32F769/Middlewares/Third_Party/FreeRTOS/Source/portable/MemMang/heap_4.c **** 			else
 299:STM32F769/Middlewares/Third_Party/FreeRTOS/Source/portable/MemMang/heap_4.c **** 			{
 300:STM32F769/Middlewares/Third_Party/FreeRTOS/Source/portable/MemMang/heap_4.c **** 				mtCOVERAGE_TEST_MARKER();
 301:STM32F769/Middlewares/Third_Party/FreeRTOS/Source/portable/MemMang/heap_4.c **** 			}
 302:STM32F769/Middlewares/Third_Party/FreeRTOS/Source/portable/MemMang/heap_4.c **** 		}
 303:STM32F769/Middlewares/Third_Party/FreeRTOS/Source/portable/MemMang/heap_4.c **** 		else
 304:STM32F769/Middlewares/Third_Party/FreeRTOS/Source/portable/MemMang/heap_4.c **** 		{
 305:STM32F769/Middlewares/Third_Party/FreeRTOS/Source/portable/MemMang/heap_4.c **** 			mtCOVERAGE_TEST_MARKER();
 306:STM32F769/Middlewares/Third_Party/FreeRTOS/Source/portable/MemMang/heap_4.c **** 		}
 307:STM32F769/Middlewares/Third_Party/FreeRTOS/Source/portable/MemMang/heap_4.c **** 	}
 308:STM32F769/Middlewares/Third_Party/FreeRTOS/Source/portable/MemMang/heap_4.c **** }
 309:STM32F769/Middlewares/Third_Party/FreeRTOS/Source/portable/MemMang/heap_4.c **** /*-----------------------------------------------------------*/
 310:STM32F769/Middlewares/Third_Party/FreeRTOS/Source/portable/MemMang/heap_4.c **** 
 311:STM32F769/Middlewares/Third_Party/FreeRTOS/Source/portable/MemMang/heap_4.c **** size_t xPortGetFreeHeapSize( void )
 312:STM32F769/Middlewares/Third_Party/FreeRTOS/Source/portable/MemMang/heap_4.c **** {
 313:STM32F769/Middlewares/Third_Party/FreeRTOS/Source/portable/MemMang/heap_4.c **** 	return xFreeBytesRemaining;
 314:STM32F769/Middlewares/Third_Party/FreeRTOS/Source/portable/MemMang/heap_4.c **** }
 315:STM32F769/Middlewares/Third_Party/FreeRTOS/Source/portable/MemMang/heap_4.c **** /*-----------------------------------------------------------*/
 316:STM32F769/Middlewares/Third_Party/FreeRTOS/Source/portable/MemMang/heap_4.c **** 
 317:STM32F769/Middlewares/Third_Party/FreeRTOS/Source/portable/MemMang/heap_4.c **** size_t xPortGetMinimumEverFreeHeapSize( void )
ARM GAS  /tmp/ccXXkp3U.s 			page 7


 318:STM32F769/Middlewares/Third_Party/FreeRTOS/Source/portable/MemMang/heap_4.c **** {
 319:STM32F769/Middlewares/Third_Party/FreeRTOS/Source/portable/MemMang/heap_4.c **** 	return xMinimumEverFreeBytesRemaining;
 320:STM32F769/Middlewares/Third_Party/FreeRTOS/Source/portable/MemMang/heap_4.c **** }
 321:STM32F769/Middlewares/Third_Party/FreeRTOS/Source/portable/MemMang/heap_4.c **** /*-----------------------------------------------------------*/
 322:STM32F769/Middlewares/Third_Party/FreeRTOS/Source/portable/MemMang/heap_4.c **** 
 323:STM32F769/Middlewares/Third_Party/FreeRTOS/Source/portable/MemMang/heap_4.c **** void vPortInitialiseBlocks( void )
 324:STM32F769/Middlewares/Third_Party/FreeRTOS/Source/portable/MemMang/heap_4.c **** {
 325:STM32F769/Middlewares/Third_Party/FreeRTOS/Source/portable/MemMang/heap_4.c **** 	/* This just exists to keep the linker quiet. */
 326:STM32F769/Middlewares/Third_Party/FreeRTOS/Source/portable/MemMang/heap_4.c **** }
 327:STM32F769/Middlewares/Third_Party/FreeRTOS/Source/portable/MemMang/heap_4.c **** /*-----------------------------------------------------------*/
 328:STM32F769/Middlewares/Third_Party/FreeRTOS/Source/portable/MemMang/heap_4.c **** 
 329:STM32F769/Middlewares/Third_Party/FreeRTOS/Source/portable/MemMang/heap_4.c **** static void prvHeapInit( void )
 330:STM32F769/Middlewares/Third_Party/FreeRTOS/Source/portable/MemMang/heap_4.c **** {
  27              		.loc 1 330 1 view -0
  28              		.cfi_startproc
  29              		@ args = 0, pretend = 0, frame = 0
  30              		@ frame_needed = 0, uses_anonymous_args = 0
  31              		@ link register save eliminated.
 331:STM32F769/Middlewares/Third_Party/FreeRTOS/Source/portable/MemMang/heap_4.c **** BlockLink_t *pxFirstFreeBlock;
  32              		.loc 1 331 1 view .LVU1
 332:STM32F769/Middlewares/Third_Party/FreeRTOS/Source/portable/MemMang/heap_4.c **** uint8_t *pucAlignedHeap;
  33              		.loc 1 332 1 view .LVU2
 333:STM32F769/Middlewares/Third_Party/FreeRTOS/Source/portable/MemMang/heap_4.c **** size_t uxAddress;
  34              		.loc 1 333 1 view .LVU3
 334:STM32F769/Middlewares/Third_Party/FreeRTOS/Source/portable/MemMang/heap_4.c **** size_t xTotalHeapSize = configTOTAL_HEAP_SIZE;
  35              		.loc 1 334 1 view .LVU4
  36              	.LVL0:
 335:STM32F769/Middlewares/Third_Party/FreeRTOS/Source/portable/MemMang/heap_4.c **** 
 336:STM32F769/Middlewares/Third_Party/FreeRTOS/Source/portable/MemMang/heap_4.c **** 	/* Ensure the heap starts on a correctly aligned boundary. */
 337:STM32F769/Middlewares/Third_Party/FreeRTOS/Source/portable/MemMang/heap_4.c **** 	uxAddress = ( size_t ) ucHeap;
  37              		.loc 1 337 2 view .LVU5
  38              		.loc 1 337 12 is_stmt 0 view .LVU6
  39 0000 124A     		ldr	r2, .L4
  40              	.LVL1:
 338:STM32F769/Middlewares/Third_Party/FreeRTOS/Source/portable/MemMang/heap_4.c **** 
 339:STM32F769/Middlewares/Third_Party/FreeRTOS/Source/portable/MemMang/heap_4.c **** 	if( ( uxAddress & portBYTE_ALIGNMENT_MASK ) != 0 )
  41              		.loc 1 339 2 is_stmt 1 view .LVU7
  42              		.loc 1 339 4 is_stmt 0 view .LVU8
  43 0002 12F0070F 		tst	r2, #7
  44 0006 07D0     		beq	.L3
 340:STM32F769/Middlewares/Third_Party/FreeRTOS/Source/portable/MemMang/heap_4.c **** 	{
 341:STM32F769/Middlewares/Third_Party/FreeRTOS/Source/portable/MemMang/heap_4.c **** 		uxAddress += ( portBYTE_ALIGNMENT - 1 );
  45              		.loc 1 341 3 is_stmt 1 view .LVU9
  46              		.loc 1 341 13 is_stmt 0 view .LVU10
  47 0008 D11D     		adds	r1, r2, #7
  48              	.LVL2:
 342:STM32F769/Middlewares/Third_Party/FreeRTOS/Source/portable/MemMang/heap_4.c **** 		uxAddress &= ~( ( size_t ) portBYTE_ALIGNMENT_MASK );
  49              		.loc 1 342 3 is_stmt 1 view .LVU11
  50              		.loc 1 342 13 is_stmt 0 view .LVU12
  51 000a 21F00701 		bic	r1, r1, #7
  52              	.LVL3:
 343:STM32F769/Middlewares/Third_Party/FreeRTOS/Source/portable/MemMang/heap_4.c **** 		xTotalHeapSize -= uxAddress - ( size_t ) ucHeap;
  53              		.loc 1 343 3 is_stmt 1 view .LVU13
  54              		.loc 1 343 18 is_stmt 0 view .LVU14
  55 000e C1F57053 		rsb	r3, r1, #15360
  56 0012 1344     		add	r3, r3, r2
  57              	.LVL4:
ARM GAS  /tmp/ccXXkp3U.s 			page 8


 342:STM32F769/Middlewares/Third_Party/FreeRTOS/Source/portable/MemMang/heap_4.c **** 		uxAddress &= ~( ( size_t ) portBYTE_ALIGNMENT_MASK );
  58              		.loc 1 342 13 view .LVU15
  59 0014 0A46     		mov	r2, r1
  60 0016 01E0     		b	.L2
  61              	.LVL5:
  62              	.L3:
 334:STM32F769/Middlewares/Third_Party/FreeRTOS/Source/portable/MemMang/heap_4.c **** 
  63              		.loc 1 334 8 view .LVU16
  64 0018 4FF47053 		mov	r3, #15360
  65              	.LVL6:
  66              	.L2:
 344:STM32F769/Middlewares/Third_Party/FreeRTOS/Source/portable/MemMang/heap_4.c **** 	}
 345:STM32F769/Middlewares/Third_Party/FreeRTOS/Source/portable/MemMang/heap_4.c **** 
 346:STM32F769/Middlewares/Third_Party/FreeRTOS/Source/portable/MemMang/heap_4.c **** 	pucAlignedHeap = ( uint8_t * ) uxAddress;
  67              		.loc 1 346 2 is_stmt 1 view .LVU17
 347:STM32F769/Middlewares/Third_Party/FreeRTOS/Source/portable/MemMang/heap_4.c **** 
 348:STM32F769/Middlewares/Third_Party/FreeRTOS/Source/portable/MemMang/heap_4.c **** 	/* xStart is used to hold a pointer to the first item in the list of free
 349:STM32F769/Middlewares/Third_Party/FreeRTOS/Source/portable/MemMang/heap_4.c **** 	blocks.  The void cast is used to prevent compiler warnings. */
 350:STM32F769/Middlewares/Third_Party/FreeRTOS/Source/portable/MemMang/heap_4.c **** 	xStart.pxNextFreeBlock = ( void * ) pucAlignedHeap;
  68              		.loc 1 350 2 view .LVU18
  69              		.loc 1 350 25 is_stmt 0 view .LVU19
  70 001c 0C48     		ldr	r0, .L4+4
  71 001e 0260     		str	r2, [r0]
 351:STM32F769/Middlewares/Third_Party/FreeRTOS/Source/portable/MemMang/heap_4.c **** 	xStart.xBlockSize = ( size_t ) 0;
  72              		.loc 1 351 2 is_stmt 1 view .LVU20
  73              		.loc 1 351 20 is_stmt 0 view .LVU21
  74 0020 0021     		movs	r1, #0
  75 0022 4160     		str	r1, [r0, #4]
 352:STM32F769/Middlewares/Third_Party/FreeRTOS/Source/portable/MemMang/heap_4.c **** 
 353:STM32F769/Middlewares/Third_Party/FreeRTOS/Source/portable/MemMang/heap_4.c **** 	/* pxEnd is used to mark the end of the list of free blocks and is inserted
 354:STM32F769/Middlewares/Third_Party/FreeRTOS/Source/portable/MemMang/heap_4.c **** 	at the end of the heap space. */
 355:STM32F769/Middlewares/Third_Party/FreeRTOS/Source/portable/MemMang/heap_4.c **** 	uxAddress = ( ( size_t ) pucAlignedHeap ) + xTotalHeapSize;
  76              		.loc 1 355 2 is_stmt 1 view .LVU22
  77              		.loc 1 355 12 is_stmt 0 view .LVU23
  78 0024 1344     		add	r3, r3, r2
  79              	.LVL7:
 356:STM32F769/Middlewares/Third_Party/FreeRTOS/Source/portable/MemMang/heap_4.c **** 	uxAddress -= xHeapStructSize;
  80              		.loc 1 356 2 is_stmt 1 view .LVU24
  81              		.loc 1 356 12 is_stmt 0 view .LVU25
  82 0026 083B     		subs	r3, r3, #8
  83              	.LVL8:
 357:STM32F769/Middlewares/Third_Party/FreeRTOS/Source/portable/MemMang/heap_4.c **** 	uxAddress &= ~( ( size_t ) portBYTE_ALIGNMENT_MASK );
  84              		.loc 1 357 2 is_stmt 1 view .LVU26
  85              		.loc 1 357 12 is_stmt 0 view .LVU27
  86 0028 23F00703 		bic	r3, r3, #7
  87              	.LVL9:
 358:STM32F769/Middlewares/Third_Party/FreeRTOS/Source/portable/MemMang/heap_4.c **** 	pxEnd = ( void * ) uxAddress;
  88              		.loc 1 358 2 is_stmt 1 view .LVU28
  89              		.loc 1 358 8 is_stmt 0 view .LVU29
  90 002c 0948     		ldr	r0, .L4+8
  91 002e 0360     		str	r3, [r0]
 359:STM32F769/Middlewares/Third_Party/FreeRTOS/Source/portable/MemMang/heap_4.c **** 	pxEnd->xBlockSize = 0;
  92              		.loc 1 359 2 is_stmt 1 view .LVU30
  93              		.loc 1 359 20 is_stmt 0 view .LVU31
  94 0030 5960     		str	r1, [r3, #4]
 360:STM32F769/Middlewares/Third_Party/FreeRTOS/Source/portable/MemMang/heap_4.c **** 	pxEnd->pxNextFreeBlock = NULL;
  95              		.loc 1 360 2 is_stmt 1 view .LVU32
ARM GAS  /tmp/ccXXkp3U.s 			page 9


  96              		.loc 1 360 25 is_stmt 0 view .LVU33
  97 0032 1960     		str	r1, [r3]
 361:STM32F769/Middlewares/Third_Party/FreeRTOS/Source/portable/MemMang/heap_4.c **** 
 362:STM32F769/Middlewares/Third_Party/FreeRTOS/Source/portable/MemMang/heap_4.c **** 	/* To start with there is a single free block that is sized to take up the
 363:STM32F769/Middlewares/Third_Party/FreeRTOS/Source/portable/MemMang/heap_4.c **** 	entire heap space, minus the space taken by pxEnd. */
 364:STM32F769/Middlewares/Third_Party/FreeRTOS/Source/portable/MemMang/heap_4.c **** 	pxFirstFreeBlock = ( void * ) pucAlignedHeap;
  98              		.loc 1 364 2 is_stmt 1 view .LVU34
  99              	.LVL10:
 365:STM32F769/Middlewares/Third_Party/FreeRTOS/Source/portable/MemMang/heap_4.c **** 	pxFirstFreeBlock->xBlockSize = uxAddress - ( size_t ) pxFirstFreeBlock;
 100              		.loc 1 365 2 view .LVU35
 101              		.loc 1 365 43 is_stmt 0 view .LVU36
 102 0034 991A     		subs	r1, r3, r2
 103              		.loc 1 365 31 view .LVU37
 104 0036 5160     		str	r1, [r2, #4]
 366:STM32F769/Middlewares/Third_Party/FreeRTOS/Source/portable/MemMang/heap_4.c **** 	pxFirstFreeBlock->pxNextFreeBlock = pxEnd;
 105              		.loc 1 366 2 is_stmt 1 view .LVU38
 106              		.loc 1 366 36 is_stmt 0 view .LVU39
 107 0038 1360     		str	r3, [r2]
 367:STM32F769/Middlewares/Third_Party/FreeRTOS/Source/portable/MemMang/heap_4.c **** 
 368:STM32F769/Middlewares/Third_Party/FreeRTOS/Source/portable/MemMang/heap_4.c **** 	/* Only one block exists - and it covers the entire usable heap space. */
 369:STM32F769/Middlewares/Third_Party/FreeRTOS/Source/portable/MemMang/heap_4.c **** 	xMinimumEverFreeBytesRemaining = pxFirstFreeBlock->xBlockSize;
 108              		.loc 1 369 2 is_stmt 1 view .LVU40
 109              		.loc 1 369 33 is_stmt 0 view .LVU41
 110 003a 074B     		ldr	r3, .L4+12
 111              	.LVL11:
 112              		.loc 1 369 33 view .LVU42
 113 003c 1960     		str	r1, [r3]
 370:STM32F769/Middlewares/Third_Party/FreeRTOS/Source/portable/MemMang/heap_4.c **** 	xFreeBytesRemaining = pxFirstFreeBlock->xBlockSize;
 114              		.loc 1 370 2 is_stmt 1 view .LVU43
 115              		.loc 1 370 22 is_stmt 0 view .LVU44
 116 003e 074B     		ldr	r3, .L4+16
 117 0040 1960     		str	r1, [r3]
 371:STM32F769/Middlewares/Third_Party/FreeRTOS/Source/portable/MemMang/heap_4.c **** 
 372:STM32F769/Middlewares/Third_Party/FreeRTOS/Source/portable/MemMang/heap_4.c **** 	/* Work out the position of the top bit in a size_t variable. */
 373:STM32F769/Middlewares/Third_Party/FreeRTOS/Source/portable/MemMang/heap_4.c **** 	xBlockAllocatedBit = ( ( size_t ) 1 ) << ( ( sizeof( size_t ) * heapBITS_PER_BYTE ) - 1 );
 118              		.loc 1 373 2 is_stmt 1 view .LVU45
 119              		.loc 1 373 21 is_stmt 0 view .LVU46
 120 0042 074B     		ldr	r3, .L4+20
 121 0044 4FF00042 		mov	r2, #-2147483648
 122              	.LVL12:
 123              		.loc 1 373 21 view .LVU47
 124 0048 1A60     		str	r2, [r3]
 374:STM32F769/Middlewares/Third_Party/FreeRTOS/Source/portable/MemMang/heap_4.c **** }
 125              		.loc 1 374 1 view .LVU48
 126 004a 7047     		bx	lr
 127              	.L5:
 128              		.align	2
 129              	.L4:
 130 004c 00000000 		.word	ucHeap
 131 0050 00000000 		.word	.LANCHOR0
 132 0054 00000000 		.word	.LANCHOR1
 133 0058 00000000 		.word	.LANCHOR2
 134 005c 00000000 		.word	.LANCHOR3
 135 0060 00000000 		.word	.LANCHOR4
 136              		.cfi_endproc
 137              	.LFE9:
 139              		.section	.text.prvInsertBlockIntoFreeList,"ax",%progbits
ARM GAS  /tmp/ccXXkp3U.s 			page 10


 140              		.align	1
 141              		.syntax unified
 142              		.thumb
 143              		.thumb_func
 144              		.fpu fpv5-d16
 146              	prvInsertBlockIntoFreeList:
 147              	.LVL13:
 148              	.LFB10:
 375:STM32F769/Middlewares/Third_Party/FreeRTOS/Source/portable/MemMang/heap_4.c **** /*-----------------------------------------------------------*/
 376:STM32F769/Middlewares/Third_Party/FreeRTOS/Source/portable/MemMang/heap_4.c **** 
 377:STM32F769/Middlewares/Third_Party/FreeRTOS/Source/portable/MemMang/heap_4.c **** static void prvInsertBlockIntoFreeList( BlockLink_t *pxBlockToInsert )
 378:STM32F769/Middlewares/Third_Party/FreeRTOS/Source/portable/MemMang/heap_4.c **** {
 149              		.loc 1 378 1 is_stmt 1 view -0
 150              		.cfi_startproc
 151              		@ args = 0, pretend = 0, frame = 0
 152              		@ frame_needed = 0, uses_anonymous_args = 0
 153              		@ link register save eliminated.
 154              		.loc 1 378 1 is_stmt 0 view .LVU50
 155 0000 10B4     		push	{r4}
 156              	.LCFI0:
 157              		.cfi_def_cfa_offset 4
 158              		.cfi_offset 4, -4
 379:STM32F769/Middlewares/Third_Party/FreeRTOS/Source/portable/MemMang/heap_4.c **** BlockLink_t *pxIterator;
 159              		.loc 1 379 1 is_stmt 1 view .LVU51
 380:STM32F769/Middlewares/Third_Party/FreeRTOS/Source/portable/MemMang/heap_4.c **** uint8_t *puc;
 160              		.loc 1 380 1 view .LVU52
 381:STM32F769/Middlewares/Third_Party/FreeRTOS/Source/portable/MemMang/heap_4.c **** 
 382:STM32F769/Middlewares/Third_Party/FreeRTOS/Source/portable/MemMang/heap_4.c **** 	/* Iterate through the list until a block is found that has a higher address
 383:STM32F769/Middlewares/Third_Party/FreeRTOS/Source/portable/MemMang/heap_4.c **** 	than the block being inserted. */
 384:STM32F769/Middlewares/Third_Party/FreeRTOS/Source/portable/MemMang/heap_4.c **** 	for( pxIterator = &xStart; pxIterator->pxNextFreeBlock < pxBlockToInsert; pxIterator = pxIterator-
 161              		.loc 1 384 2 view .LVU53
 162              	.LVL14:
 163              		.loc 1 384 18 is_stmt 0 view .LVU54
 164 0002 134A     		ldr	r2, .L17
 165              		.loc 1 384 2 view .LVU55
 166 0004 00E0     		b	.L7
 167              	.LVL15:
 168              	.L13:
 169              		.loc 1 384 87 view .LVU56
 170 0006 1A46     		mov	r2, r3
 171              	.LVL16:
 172              	.L7:
 173              		.loc 1 384 39 discriminator 1 view .LVU57
 174 0008 1368     		ldr	r3, [r2]
 175              		.loc 1 384 2 discriminator 1 view .LVU58
 176 000a 8342     		cmp	r3, r0
 177 000c FBD3     		bcc	.L13
 385:STM32F769/Middlewares/Third_Party/FreeRTOS/Source/portable/MemMang/heap_4.c **** 	{
 386:STM32F769/Middlewares/Third_Party/FreeRTOS/Source/portable/MemMang/heap_4.c **** 		/* Nothing to do here, just iterate to the right position. */
 387:STM32F769/Middlewares/Third_Party/FreeRTOS/Source/portable/MemMang/heap_4.c **** 	}
 388:STM32F769/Middlewares/Third_Party/FreeRTOS/Source/portable/MemMang/heap_4.c **** 
 389:STM32F769/Middlewares/Third_Party/FreeRTOS/Source/portable/MemMang/heap_4.c **** 	/* Do the block being inserted, and the block it is being inserted after
 390:STM32F769/Middlewares/Third_Party/FreeRTOS/Source/portable/MemMang/heap_4.c **** 	make a contiguous block of memory? */
 391:STM32F769/Middlewares/Third_Party/FreeRTOS/Source/portable/MemMang/heap_4.c **** 	puc = ( uint8_t * ) pxIterator;
 178              		.loc 1 391 2 is_stmt 1 view .LVU59
 179              	.LVL17:
 392:STM32F769/Middlewares/Third_Party/FreeRTOS/Source/portable/MemMang/heap_4.c **** 	if( ( puc + pxIterator->xBlockSize ) == ( uint8_t * ) pxBlockToInsert )
ARM GAS  /tmp/ccXXkp3U.s 			page 11


 180              		.loc 1 392 2 view .LVU60
 181              		.loc 1 392 24 is_stmt 0 view .LVU61
 182 000e 5168     		ldr	r1, [r2, #4]
 183              		.loc 1 392 12 view .LVU62
 184 0010 5418     		adds	r4, r2, r1
 185              		.loc 1 392 4 view .LVU63
 186 0012 8442     		cmp	r4, r0
 187 0014 0AD0     		beq	.L15
 188              	.L8:
 393:STM32F769/Middlewares/Third_Party/FreeRTOS/Source/portable/MemMang/heap_4.c **** 	{
 394:STM32F769/Middlewares/Third_Party/FreeRTOS/Source/portable/MemMang/heap_4.c **** 		pxIterator->xBlockSize += pxBlockToInsert->xBlockSize;
 395:STM32F769/Middlewares/Third_Party/FreeRTOS/Source/portable/MemMang/heap_4.c **** 		pxBlockToInsert = pxIterator;
 396:STM32F769/Middlewares/Third_Party/FreeRTOS/Source/portable/MemMang/heap_4.c **** 	}
 397:STM32F769/Middlewares/Third_Party/FreeRTOS/Source/portable/MemMang/heap_4.c **** 	else
 398:STM32F769/Middlewares/Third_Party/FreeRTOS/Source/portable/MemMang/heap_4.c **** 	{
 399:STM32F769/Middlewares/Third_Party/FreeRTOS/Source/portable/MemMang/heap_4.c **** 		mtCOVERAGE_TEST_MARKER();
 189              		.loc 1 399 27 is_stmt 1 view .LVU64
 400:STM32F769/Middlewares/Third_Party/FreeRTOS/Source/portable/MemMang/heap_4.c **** 	}
 401:STM32F769/Middlewares/Third_Party/FreeRTOS/Source/portable/MemMang/heap_4.c **** 
 402:STM32F769/Middlewares/Third_Party/FreeRTOS/Source/portable/MemMang/heap_4.c **** 	/* Do the block being inserted, and the block it is being inserted before
 403:STM32F769/Middlewares/Third_Party/FreeRTOS/Source/portable/MemMang/heap_4.c **** 	make a contiguous block of memory? */
 404:STM32F769/Middlewares/Third_Party/FreeRTOS/Source/portable/MemMang/heap_4.c **** 	puc = ( uint8_t * ) pxBlockToInsert;
 190              		.loc 1 404 2 view .LVU65
 191              	.LVL18:
 405:STM32F769/Middlewares/Third_Party/FreeRTOS/Source/portable/MemMang/heap_4.c **** 	if( ( puc + pxBlockToInsert->xBlockSize ) == ( uint8_t * ) pxIterator->pxNextFreeBlock )
 192              		.loc 1 405 2 view .LVU66
 193              		.loc 1 405 29 is_stmt 0 view .LVU67
 194 0016 4168     		ldr	r1, [r0, #4]
 195              		.loc 1 405 12 view .LVU68
 196 0018 4418     		adds	r4, r0, r1
 197              		.loc 1 405 4 view .LVU69
 198 001a A342     		cmp	r3, r4
 199 001c 0BD0     		beq	.L16
 406:STM32F769/Middlewares/Third_Party/FreeRTOS/Source/portable/MemMang/heap_4.c **** 	{
 407:STM32F769/Middlewares/Third_Party/FreeRTOS/Source/portable/MemMang/heap_4.c **** 		if( pxIterator->pxNextFreeBlock != pxEnd )
 408:STM32F769/Middlewares/Third_Party/FreeRTOS/Source/portable/MemMang/heap_4.c **** 		{
 409:STM32F769/Middlewares/Third_Party/FreeRTOS/Source/portable/MemMang/heap_4.c **** 			/* Form one big block from the two blocks. */
 410:STM32F769/Middlewares/Third_Party/FreeRTOS/Source/portable/MemMang/heap_4.c **** 			pxBlockToInsert->xBlockSize += pxIterator->pxNextFreeBlock->xBlockSize;
 411:STM32F769/Middlewares/Third_Party/FreeRTOS/Source/portable/MemMang/heap_4.c **** 			pxBlockToInsert->pxNextFreeBlock = pxIterator->pxNextFreeBlock->pxNextFreeBlock;
 412:STM32F769/Middlewares/Third_Party/FreeRTOS/Source/portable/MemMang/heap_4.c **** 		}
 413:STM32F769/Middlewares/Third_Party/FreeRTOS/Source/portable/MemMang/heap_4.c **** 		else
 414:STM32F769/Middlewares/Third_Party/FreeRTOS/Source/portable/MemMang/heap_4.c **** 		{
 415:STM32F769/Middlewares/Third_Party/FreeRTOS/Source/portable/MemMang/heap_4.c **** 			pxBlockToInsert->pxNextFreeBlock = pxEnd;
 416:STM32F769/Middlewares/Third_Party/FreeRTOS/Source/portable/MemMang/heap_4.c **** 		}
 417:STM32F769/Middlewares/Third_Party/FreeRTOS/Source/portable/MemMang/heap_4.c **** 	}
 418:STM32F769/Middlewares/Third_Party/FreeRTOS/Source/portable/MemMang/heap_4.c **** 	else
 419:STM32F769/Middlewares/Third_Party/FreeRTOS/Source/portable/MemMang/heap_4.c **** 	{
 420:STM32F769/Middlewares/Third_Party/FreeRTOS/Source/portable/MemMang/heap_4.c **** 		pxBlockToInsert->pxNextFreeBlock = pxIterator->pxNextFreeBlock;
 200              		.loc 1 420 3 is_stmt 1 view .LVU70
 201              		.loc 1 420 36 is_stmt 0 view .LVU71
 202 001e 0360     		str	r3, [r0]
 203              	.L11:
 421:STM32F769/Middlewares/Third_Party/FreeRTOS/Source/portable/MemMang/heap_4.c **** 	}
 422:STM32F769/Middlewares/Third_Party/FreeRTOS/Source/portable/MemMang/heap_4.c **** 
 423:STM32F769/Middlewares/Third_Party/FreeRTOS/Source/portable/MemMang/heap_4.c **** 	/* If the block being inserted plugged a gab, so was merged with the block
 424:STM32F769/Middlewares/Third_Party/FreeRTOS/Source/portable/MemMang/heap_4.c **** 	before and the block after, then it's pxNextFreeBlock pointer will have
 425:STM32F769/Middlewares/Third_Party/FreeRTOS/Source/portable/MemMang/heap_4.c **** 	already been set, and should not be set here as that would make it point
ARM GAS  /tmp/ccXXkp3U.s 			page 12


 426:STM32F769/Middlewares/Third_Party/FreeRTOS/Source/portable/MemMang/heap_4.c **** 	to itself. */
 427:STM32F769/Middlewares/Third_Party/FreeRTOS/Source/portable/MemMang/heap_4.c **** 	if( pxIterator != pxBlockToInsert )
 204              		.loc 1 427 2 is_stmt 1 view .LVU72
 205              		.loc 1 427 4 is_stmt 0 view .LVU73
 206 0020 9042     		cmp	r0, r2
 207 0022 00D0     		beq	.L6
 428:STM32F769/Middlewares/Third_Party/FreeRTOS/Source/portable/MemMang/heap_4.c **** 	{
 429:STM32F769/Middlewares/Third_Party/FreeRTOS/Source/portable/MemMang/heap_4.c **** 		pxIterator->pxNextFreeBlock = pxBlockToInsert;
 208              		.loc 1 429 3 is_stmt 1 view .LVU74
 209              		.loc 1 429 31 is_stmt 0 view .LVU75
 210 0024 1060     		str	r0, [r2]
 430:STM32F769/Middlewares/Third_Party/FreeRTOS/Source/portable/MemMang/heap_4.c **** 	}
 431:STM32F769/Middlewares/Third_Party/FreeRTOS/Source/portable/MemMang/heap_4.c **** 	else
 432:STM32F769/Middlewares/Third_Party/FreeRTOS/Source/portable/MemMang/heap_4.c **** 	{
 433:STM32F769/Middlewares/Third_Party/FreeRTOS/Source/portable/MemMang/heap_4.c **** 		mtCOVERAGE_TEST_MARKER();
 211              		.loc 1 433 27 is_stmt 1 view .LVU76
 212              	.L6:
 434:STM32F769/Middlewares/Third_Party/FreeRTOS/Source/portable/MemMang/heap_4.c **** 	}
 435:STM32F769/Middlewares/Third_Party/FreeRTOS/Source/portable/MemMang/heap_4.c **** }
 213              		.loc 1 435 1 is_stmt 0 view .LVU77
 214 0026 5DF8044B 		ldr	r4, [sp], #4
 215              	.LCFI1:
 216              		.cfi_remember_state
 217              		.cfi_restore 4
 218              		.cfi_def_cfa_offset 0
 219 002a 7047     		bx	lr
 220              	.LVL19:
 221              	.L15:
 222              	.LCFI2:
 223              		.cfi_restore_state
 394:STM32F769/Middlewares/Third_Party/FreeRTOS/Source/portable/MemMang/heap_4.c **** 		pxBlockToInsert = pxIterator;
 224              		.loc 1 394 3 is_stmt 1 view .LVU78
 394:STM32F769/Middlewares/Third_Party/FreeRTOS/Source/portable/MemMang/heap_4.c **** 		pxBlockToInsert = pxIterator;
 225              		.loc 1 394 44 is_stmt 0 view .LVU79
 226 002c 4068     		ldr	r0, [r0, #4]
 227              	.LVL20:
 394:STM32F769/Middlewares/Third_Party/FreeRTOS/Source/portable/MemMang/heap_4.c **** 		pxBlockToInsert = pxIterator;
 228              		.loc 1 394 26 view .LVU80
 229 002e 0144     		add	r1, r1, r0
 230 0030 5160     		str	r1, [r2, #4]
 395:STM32F769/Middlewares/Third_Party/FreeRTOS/Source/portable/MemMang/heap_4.c **** 	}
 231              		.loc 1 395 3 is_stmt 1 view .LVU81
 232              	.LVL21:
 395:STM32F769/Middlewares/Third_Party/FreeRTOS/Source/portable/MemMang/heap_4.c **** 	}
 233              		.loc 1 395 19 is_stmt 0 view .LVU82
 234 0032 1046     		mov	r0, r2
 235 0034 EFE7     		b	.L8
 236              	.LVL22:
 237              	.L16:
 407:STM32F769/Middlewares/Third_Party/FreeRTOS/Source/portable/MemMang/heap_4.c **** 		{
 238              		.loc 1 407 3 is_stmt 1 view .LVU83
 407:STM32F769/Middlewares/Third_Party/FreeRTOS/Source/portable/MemMang/heap_4.c **** 		{
 239              		.loc 1 407 35 is_stmt 0 view .LVU84
 240 0036 074C     		ldr	r4, .L17+4
 241 0038 2468     		ldr	r4, [r4]
 407:STM32F769/Middlewares/Third_Party/FreeRTOS/Source/portable/MemMang/heap_4.c **** 		{
 242              		.loc 1 407 5 view .LVU85
ARM GAS  /tmp/ccXXkp3U.s 			page 13


 243 003a A342     		cmp	r3, r4
 244 003c 06D0     		beq	.L10
 410:STM32F769/Middlewares/Third_Party/FreeRTOS/Source/portable/MemMang/heap_4.c **** 			pxBlockToInsert->pxNextFreeBlock = pxIterator->pxNextFreeBlock->pxNextFreeBlock;
 245              		.loc 1 410 4 is_stmt 1 view .LVU86
 410:STM32F769/Middlewares/Third_Party/FreeRTOS/Source/portable/MemMang/heap_4.c **** 			pxBlockToInsert->pxNextFreeBlock = pxIterator->pxNextFreeBlock->pxNextFreeBlock;
 246              		.loc 1 410 62 is_stmt 0 view .LVU87
 247 003e 5B68     		ldr	r3, [r3, #4]
 410:STM32F769/Middlewares/Third_Party/FreeRTOS/Source/portable/MemMang/heap_4.c **** 			pxBlockToInsert->pxNextFreeBlock = pxIterator->pxNextFreeBlock->pxNextFreeBlock;
 248              		.loc 1 410 32 view .LVU88
 249 0040 1944     		add	r1, r1, r3
 250 0042 4160     		str	r1, [r0, #4]
 411:STM32F769/Middlewares/Third_Party/FreeRTOS/Source/portable/MemMang/heap_4.c **** 		}
 251              		.loc 1 411 4 is_stmt 1 view .LVU89
 411:STM32F769/Middlewares/Third_Party/FreeRTOS/Source/portable/MemMang/heap_4.c **** 		}
 252              		.loc 1 411 49 is_stmt 0 view .LVU90
 253 0044 1368     		ldr	r3, [r2]
 411:STM32F769/Middlewares/Third_Party/FreeRTOS/Source/portable/MemMang/heap_4.c **** 		}
 254              		.loc 1 411 66 view .LVU91
 255 0046 1B68     		ldr	r3, [r3]
 411:STM32F769/Middlewares/Third_Party/FreeRTOS/Source/portable/MemMang/heap_4.c **** 		}
 256              		.loc 1 411 37 view .LVU92
 257 0048 0360     		str	r3, [r0]
 258 004a E9E7     		b	.L11
 259              	.L10:
 415:STM32F769/Middlewares/Third_Party/FreeRTOS/Source/portable/MemMang/heap_4.c **** 		}
 260              		.loc 1 415 4 is_stmt 1 view .LVU93
 415:STM32F769/Middlewares/Third_Party/FreeRTOS/Source/portable/MemMang/heap_4.c **** 		}
 261              		.loc 1 415 37 is_stmt 0 view .LVU94
 262 004c 0460     		str	r4, [r0]
 263 004e E7E7     		b	.L11
 264              	.L18:
 265              		.align	2
 266              	.L17:
 267 0050 00000000 		.word	.LANCHOR0
 268 0054 00000000 		.word	.LANCHOR1
 269              		.cfi_endproc
 270              	.LFE10:
 272              		.section	.text.pvPortMalloc,"ax",%progbits
 273              		.align	1
 274              		.global	pvPortMalloc
 275              		.syntax unified
 276              		.thumb
 277              		.thumb_func
 278              		.fpu fpv5-d16
 280              	pvPortMalloc:
 281              	.LVL23:
 282              	.LFB4:
 114:STM32F769/Middlewares/Third_Party/FreeRTOS/Source/portable/MemMang/heap_4.c **** BlockLink_t *pxBlock, *pxPreviousBlock, *pxNewBlockLink;
 283              		.loc 1 114 1 is_stmt 1 view -0
 284              		.cfi_startproc
 285              		@ args = 0, pretend = 0, frame = 0
 286              		@ frame_needed = 0, uses_anonymous_args = 0
 114:STM32F769/Middlewares/Third_Party/FreeRTOS/Source/portable/MemMang/heap_4.c **** BlockLink_t *pxBlock, *pxPreviousBlock, *pxNewBlockLink;
 287              		.loc 1 114 1 is_stmt 0 view .LVU96
 288 0000 70B5     		push	{r4, r5, r6, lr}
 289              	.LCFI3:
 290              		.cfi_def_cfa_offset 16
ARM GAS  /tmp/ccXXkp3U.s 			page 14


 291              		.cfi_offset 4, -16
 292              		.cfi_offset 5, -12
 293              		.cfi_offset 6, -8
 294              		.cfi_offset 14, -4
 295 0002 0446     		mov	r4, r0
 115:STM32F769/Middlewares/Third_Party/FreeRTOS/Source/portable/MemMang/heap_4.c **** void *pvReturn = NULL;
 296              		.loc 1 115 1 is_stmt 1 view .LVU97
 116:STM32F769/Middlewares/Third_Party/FreeRTOS/Source/portable/MemMang/heap_4.c **** 
 297              		.loc 1 116 1 view .LVU98
 298              	.LVL24:
 118:STM32F769/Middlewares/Third_Party/FreeRTOS/Source/portable/MemMang/heap_4.c **** 	{
 299              		.loc 1 118 2 view .LVU99
 300 0004 FFF7FEFF 		bl	vTaskSuspendAll
 301              	.LVL25:
 122:STM32F769/Middlewares/Third_Party/FreeRTOS/Source/portable/MemMang/heap_4.c **** 		{
 302              		.loc 1 122 3 view .LVU100
 122:STM32F769/Middlewares/Third_Party/FreeRTOS/Source/portable/MemMang/heap_4.c **** 		{
 303              		.loc 1 122 13 is_stmt 0 view .LVU101
 304 0008 3D4B     		ldr	r3, .L39
 305 000a 1B68     		ldr	r3, [r3]
 122:STM32F769/Middlewares/Third_Party/FreeRTOS/Source/portable/MemMang/heap_4.c **** 		{
 306              		.loc 1 122 5 view .LVU102
 307 000c CBB1     		cbz	r3, .L38
 308              	.L20:
 128:STM32F769/Middlewares/Third_Party/FreeRTOS/Source/portable/MemMang/heap_4.c **** 		}
 309              		.loc 1 128 28 is_stmt 1 view .LVU103
 135:STM32F769/Middlewares/Third_Party/FreeRTOS/Source/portable/MemMang/heap_4.c **** 		{
 310              		.loc 1 135 3 view .LVU104
 135:STM32F769/Middlewares/Third_Party/FreeRTOS/Source/portable/MemMang/heap_4.c **** 		{
 311              		.loc 1 135 21 is_stmt 0 view .LVU105
 312 000e 3D4B     		ldr	r3, .L39+4
 313 0010 1B68     		ldr	r3, [r3]
 135:STM32F769/Middlewares/Third_Party/FreeRTOS/Source/portable/MemMang/heap_4.c **** 		{
 314              		.loc 1 135 5 view .LVU106
 315 0012 1C42     		tst	r4, r3
 316 0014 5AD1     		bne	.L32
 139:STM32F769/Middlewares/Third_Party/FreeRTOS/Source/portable/MemMang/heap_4.c **** 			{
 317              		.loc 1 139 4 is_stmt 1 view .LVU107
 139:STM32F769/Middlewares/Third_Party/FreeRTOS/Source/portable/MemMang/heap_4.c **** 			{
 318              		.loc 1 139 6 is_stmt 0 view .LVU108
 319 0016 BCB1     		cbz	r4, .L22
 141:STM32F769/Middlewares/Third_Party/FreeRTOS/Source/portable/MemMang/heap_4.c **** 
 320              		.loc 1 141 5 is_stmt 1 view .LVU109
 141:STM32F769/Middlewares/Third_Party/FreeRTOS/Source/portable/MemMang/heap_4.c **** 
 321              		.loc 1 141 17 is_stmt 0 view .LVU110
 322 0018 0834     		adds	r4, r4, #8
 323              	.LVL26:
 145:STM32F769/Middlewares/Third_Party/FreeRTOS/Source/portable/MemMang/heap_4.c **** 				{
 324              		.loc 1 145 5 is_stmt 1 view .LVU111
 145:STM32F769/Middlewares/Third_Party/FreeRTOS/Source/portable/MemMang/heap_4.c **** 				{
 325              		.loc 1 145 7 is_stmt 0 view .LVU112
 326 001a 14F0070F 		tst	r4, #7
 327 001e 13D0     		beq	.L22
 148:STM32F769/Middlewares/Third_Party/FreeRTOS/Source/portable/MemMang/heap_4.c **** 					configASSERT( ( xWantedSize & portBYTE_ALIGNMENT_MASK ) == 0 );
 328              		.loc 1 148 6 is_stmt 1 view .LVU113
 148:STM32F769/Middlewares/Third_Party/FreeRTOS/Source/portable/MemMang/heap_4.c **** 					configASSERT( ( xWantedSize & portBYTE_ALIGNMENT_MASK ) == 0 );
 329              		.loc 1 148 18 is_stmt 0 view .LVU114
ARM GAS  /tmp/ccXXkp3U.s 			page 15


 330 0020 24F00704 		bic	r4, r4, #7
 331              	.LVL27:
 148:STM32F769/Middlewares/Third_Party/FreeRTOS/Source/portable/MemMang/heap_4.c **** 					configASSERT( ( xWantedSize & portBYTE_ALIGNMENT_MASK ) == 0 );
 332              		.loc 1 148 18 view .LVU115
 333 0024 0834     		adds	r4, r4, #8
 334              	.LVL28:
 149:STM32F769/Middlewares/Third_Party/FreeRTOS/Source/portable/MemMang/heap_4.c **** 				}
 335              		.loc 1 149 6 is_stmt 1 view .LVU116
 336 0026 04F00703 		and	r3, r4, #7
 337 002a 6BB1     		cbz	r3, .L22
 149:STM32F769/Middlewares/Third_Party/FreeRTOS/Source/portable/MemMang/heap_4.c **** 				}
 338              		.loc 1 149 6 view .LVU117
 339              	.LBB12:
 340              	.LBI12:
 341              		.file 2 "STM32F769/Middlewares/Third_Party/FreeRTOS/Source/portable/GCC/ARM_CM7/r0p1/portmacro.h"
   1:STM32F769/Middlewares/Third_Party/FreeRTOS/Source/portable/GCC/ARM_CM7/r0p1/portmacro.h **** /*
   2:STM32F769/Middlewares/Third_Party/FreeRTOS/Source/portable/GCC/ARM_CM7/r0p1/portmacro.h ****  * FreeRTOS Kernel V10.0.1
   3:STM32F769/Middlewares/Third_Party/FreeRTOS/Source/portable/GCC/ARM_CM7/r0p1/portmacro.h ****  * Copyright (C) 2017 Amazon.com, Inc. or its affiliates.  All Rights Reserved.
   4:STM32F769/Middlewares/Third_Party/FreeRTOS/Source/portable/GCC/ARM_CM7/r0p1/portmacro.h ****  *
   5:STM32F769/Middlewares/Third_Party/FreeRTOS/Source/portable/GCC/ARM_CM7/r0p1/portmacro.h ****  * Permission is hereby granted, free of charge, to any person obtaining a copy of
   6:STM32F769/Middlewares/Third_Party/FreeRTOS/Source/portable/GCC/ARM_CM7/r0p1/portmacro.h ****  * this software and associated documentation files (the "Software"), to deal in
   7:STM32F769/Middlewares/Third_Party/FreeRTOS/Source/portable/GCC/ARM_CM7/r0p1/portmacro.h ****  * the Software without restriction, including without limitation the rights to
   8:STM32F769/Middlewares/Third_Party/FreeRTOS/Source/portable/GCC/ARM_CM7/r0p1/portmacro.h ****  * use, copy, modify, merge, publish, distribute, sublicense, and/or sell copies of
   9:STM32F769/Middlewares/Third_Party/FreeRTOS/Source/portable/GCC/ARM_CM7/r0p1/portmacro.h ****  * the Software, and to permit persons to whom the Software is furnished to do so,
  10:STM32F769/Middlewares/Third_Party/FreeRTOS/Source/portable/GCC/ARM_CM7/r0p1/portmacro.h ****  * subject to the following conditions:
  11:STM32F769/Middlewares/Third_Party/FreeRTOS/Source/portable/GCC/ARM_CM7/r0p1/portmacro.h ****  *
  12:STM32F769/Middlewares/Third_Party/FreeRTOS/Source/portable/GCC/ARM_CM7/r0p1/portmacro.h ****  * The above copyright notice and this permission notice shall be included in all
  13:STM32F769/Middlewares/Third_Party/FreeRTOS/Source/portable/GCC/ARM_CM7/r0p1/portmacro.h ****  * copies or substantial portions of the Software.
  14:STM32F769/Middlewares/Third_Party/FreeRTOS/Source/portable/GCC/ARM_CM7/r0p1/portmacro.h ****  *
  15:STM32F769/Middlewares/Third_Party/FreeRTOS/Source/portable/GCC/ARM_CM7/r0p1/portmacro.h ****  * THE SOFTWARE IS PROVIDED "AS IS", WITHOUT WARRANTY OF ANY KIND, EXPRESS OR
  16:STM32F769/Middlewares/Third_Party/FreeRTOS/Source/portable/GCC/ARM_CM7/r0p1/portmacro.h ****  * IMPLIED, INCLUDING BUT NOT LIMITED TO THE WARRANTIES OF MERCHANTABILITY, FITNESS
  17:STM32F769/Middlewares/Third_Party/FreeRTOS/Source/portable/GCC/ARM_CM7/r0p1/portmacro.h ****  * FOR A PARTICULAR PURPOSE AND NONINFRINGEMENT. IN NO EVENT SHALL THE AUTHORS OR
  18:STM32F769/Middlewares/Third_Party/FreeRTOS/Source/portable/GCC/ARM_CM7/r0p1/portmacro.h ****  * COPYRIGHT HOLDERS BE LIABLE FOR ANY CLAIM, DAMAGES OR OTHER LIABILITY, WHETHER
  19:STM32F769/Middlewares/Third_Party/FreeRTOS/Source/portable/GCC/ARM_CM7/r0p1/portmacro.h ****  * IN AN ACTION OF CONTRACT, TORT OR OTHERWISE, ARISING FROM, OUT OF OR IN
  20:STM32F769/Middlewares/Third_Party/FreeRTOS/Source/portable/GCC/ARM_CM7/r0p1/portmacro.h ****  * CONNECTION WITH THE SOFTWARE OR THE USE OR OTHER DEALINGS IN THE SOFTWARE.
  21:STM32F769/Middlewares/Third_Party/FreeRTOS/Source/portable/GCC/ARM_CM7/r0p1/portmacro.h ****  *
  22:STM32F769/Middlewares/Third_Party/FreeRTOS/Source/portable/GCC/ARM_CM7/r0p1/portmacro.h ****  * http://www.FreeRTOS.org
  23:STM32F769/Middlewares/Third_Party/FreeRTOS/Source/portable/GCC/ARM_CM7/r0p1/portmacro.h ****  * http://aws.amazon.com/freertos
  24:STM32F769/Middlewares/Third_Party/FreeRTOS/Source/portable/GCC/ARM_CM7/r0p1/portmacro.h ****  *
  25:STM32F769/Middlewares/Third_Party/FreeRTOS/Source/portable/GCC/ARM_CM7/r0p1/portmacro.h ****  * 1 tab == 4 spaces!
  26:STM32F769/Middlewares/Third_Party/FreeRTOS/Source/portable/GCC/ARM_CM7/r0p1/portmacro.h ****  */
  27:STM32F769/Middlewares/Third_Party/FreeRTOS/Source/portable/GCC/ARM_CM7/r0p1/portmacro.h **** 
  28:STM32F769/Middlewares/Third_Party/FreeRTOS/Source/portable/GCC/ARM_CM7/r0p1/portmacro.h **** 
  29:STM32F769/Middlewares/Third_Party/FreeRTOS/Source/portable/GCC/ARM_CM7/r0p1/portmacro.h **** #ifndef PORTMACRO_H
  30:STM32F769/Middlewares/Third_Party/FreeRTOS/Source/portable/GCC/ARM_CM7/r0p1/portmacro.h **** #define PORTMACRO_H
  31:STM32F769/Middlewares/Third_Party/FreeRTOS/Source/portable/GCC/ARM_CM7/r0p1/portmacro.h **** 
  32:STM32F769/Middlewares/Third_Party/FreeRTOS/Source/portable/GCC/ARM_CM7/r0p1/portmacro.h **** #ifdef __cplusplus
  33:STM32F769/Middlewares/Third_Party/FreeRTOS/Source/portable/GCC/ARM_CM7/r0p1/portmacro.h **** extern "C" {
  34:STM32F769/Middlewares/Third_Party/FreeRTOS/Source/portable/GCC/ARM_CM7/r0p1/portmacro.h **** #endif
  35:STM32F769/Middlewares/Third_Party/FreeRTOS/Source/portable/GCC/ARM_CM7/r0p1/portmacro.h **** 
  36:STM32F769/Middlewares/Third_Party/FreeRTOS/Source/portable/GCC/ARM_CM7/r0p1/portmacro.h **** /*-----------------------------------------------------------
  37:STM32F769/Middlewares/Third_Party/FreeRTOS/Source/portable/GCC/ARM_CM7/r0p1/portmacro.h ****  * Port specific definitions.
  38:STM32F769/Middlewares/Third_Party/FreeRTOS/Source/portable/GCC/ARM_CM7/r0p1/portmacro.h ****  *
  39:STM32F769/Middlewares/Third_Party/FreeRTOS/Source/portable/GCC/ARM_CM7/r0p1/portmacro.h ****  * The settings in this file configure FreeRTOS correctly for the
  40:STM32F769/Middlewares/Third_Party/FreeRTOS/Source/portable/GCC/ARM_CM7/r0p1/portmacro.h ****  * given hardware and compiler.
  41:STM32F769/Middlewares/Third_Party/FreeRTOS/Source/portable/GCC/ARM_CM7/r0p1/portmacro.h ****  *
  42:STM32F769/Middlewares/Third_Party/FreeRTOS/Source/portable/GCC/ARM_CM7/r0p1/portmacro.h ****  * These settings should not be altered.
ARM GAS  /tmp/ccXXkp3U.s 			page 16


  43:STM32F769/Middlewares/Third_Party/FreeRTOS/Source/portable/GCC/ARM_CM7/r0p1/portmacro.h ****  *-----------------------------------------------------------
  44:STM32F769/Middlewares/Third_Party/FreeRTOS/Source/portable/GCC/ARM_CM7/r0p1/portmacro.h ****  */
  45:STM32F769/Middlewares/Third_Party/FreeRTOS/Source/portable/GCC/ARM_CM7/r0p1/portmacro.h **** 
  46:STM32F769/Middlewares/Third_Party/FreeRTOS/Source/portable/GCC/ARM_CM7/r0p1/portmacro.h **** /* Type definitions. */
  47:STM32F769/Middlewares/Third_Party/FreeRTOS/Source/portable/GCC/ARM_CM7/r0p1/portmacro.h **** #define portCHAR		char
  48:STM32F769/Middlewares/Third_Party/FreeRTOS/Source/portable/GCC/ARM_CM7/r0p1/portmacro.h **** #define portFLOAT		float
  49:STM32F769/Middlewares/Third_Party/FreeRTOS/Source/portable/GCC/ARM_CM7/r0p1/portmacro.h **** #define portDOUBLE		double
  50:STM32F769/Middlewares/Third_Party/FreeRTOS/Source/portable/GCC/ARM_CM7/r0p1/portmacro.h **** #define portLONG		long
  51:STM32F769/Middlewares/Third_Party/FreeRTOS/Source/portable/GCC/ARM_CM7/r0p1/portmacro.h **** #define portSHORT		short
  52:STM32F769/Middlewares/Third_Party/FreeRTOS/Source/portable/GCC/ARM_CM7/r0p1/portmacro.h **** #define portSTACK_TYPE	uint32_t
  53:STM32F769/Middlewares/Third_Party/FreeRTOS/Source/portable/GCC/ARM_CM7/r0p1/portmacro.h **** #define portBASE_TYPE	long
  54:STM32F769/Middlewares/Third_Party/FreeRTOS/Source/portable/GCC/ARM_CM7/r0p1/portmacro.h **** 
  55:STM32F769/Middlewares/Third_Party/FreeRTOS/Source/portable/GCC/ARM_CM7/r0p1/portmacro.h **** typedef portSTACK_TYPE StackType_t;
  56:STM32F769/Middlewares/Third_Party/FreeRTOS/Source/portable/GCC/ARM_CM7/r0p1/portmacro.h **** typedef long BaseType_t;
  57:STM32F769/Middlewares/Third_Party/FreeRTOS/Source/portable/GCC/ARM_CM7/r0p1/portmacro.h **** typedef unsigned long UBaseType_t;
  58:STM32F769/Middlewares/Third_Party/FreeRTOS/Source/portable/GCC/ARM_CM7/r0p1/portmacro.h **** 
  59:STM32F769/Middlewares/Third_Party/FreeRTOS/Source/portable/GCC/ARM_CM7/r0p1/portmacro.h **** #if( configUSE_16_BIT_TICKS == 1 )
  60:STM32F769/Middlewares/Third_Party/FreeRTOS/Source/portable/GCC/ARM_CM7/r0p1/portmacro.h **** 	typedef uint16_t TickType_t;
  61:STM32F769/Middlewares/Third_Party/FreeRTOS/Source/portable/GCC/ARM_CM7/r0p1/portmacro.h **** 	#define portMAX_DELAY ( TickType_t ) 0xffff
  62:STM32F769/Middlewares/Third_Party/FreeRTOS/Source/portable/GCC/ARM_CM7/r0p1/portmacro.h **** #else
  63:STM32F769/Middlewares/Third_Party/FreeRTOS/Source/portable/GCC/ARM_CM7/r0p1/portmacro.h **** 	typedef uint32_t TickType_t;
  64:STM32F769/Middlewares/Third_Party/FreeRTOS/Source/portable/GCC/ARM_CM7/r0p1/portmacro.h **** 	#define portMAX_DELAY ( TickType_t ) 0xffffffffUL
  65:STM32F769/Middlewares/Third_Party/FreeRTOS/Source/portable/GCC/ARM_CM7/r0p1/portmacro.h **** 
  66:STM32F769/Middlewares/Third_Party/FreeRTOS/Source/portable/GCC/ARM_CM7/r0p1/portmacro.h **** 	/* 32-bit tick type on a 32-bit architecture, so reads of the tick count do
  67:STM32F769/Middlewares/Third_Party/FreeRTOS/Source/portable/GCC/ARM_CM7/r0p1/portmacro.h **** 	not need to be guarded with a critical section. */
  68:STM32F769/Middlewares/Third_Party/FreeRTOS/Source/portable/GCC/ARM_CM7/r0p1/portmacro.h **** 	#define portTICK_TYPE_IS_ATOMIC 1
  69:STM32F769/Middlewares/Third_Party/FreeRTOS/Source/portable/GCC/ARM_CM7/r0p1/portmacro.h **** #endif
  70:STM32F769/Middlewares/Third_Party/FreeRTOS/Source/portable/GCC/ARM_CM7/r0p1/portmacro.h **** /*-----------------------------------------------------------*/
  71:STM32F769/Middlewares/Third_Party/FreeRTOS/Source/portable/GCC/ARM_CM7/r0p1/portmacro.h **** 
  72:STM32F769/Middlewares/Third_Party/FreeRTOS/Source/portable/GCC/ARM_CM7/r0p1/portmacro.h **** /* Architecture specifics. */
  73:STM32F769/Middlewares/Third_Party/FreeRTOS/Source/portable/GCC/ARM_CM7/r0p1/portmacro.h **** #define portSTACK_GROWTH			( -1 )
  74:STM32F769/Middlewares/Third_Party/FreeRTOS/Source/portable/GCC/ARM_CM7/r0p1/portmacro.h **** #define portTICK_PERIOD_MS			( ( TickType_t ) 1000 / configTICK_RATE_HZ )
  75:STM32F769/Middlewares/Third_Party/FreeRTOS/Source/portable/GCC/ARM_CM7/r0p1/portmacro.h **** #define portBYTE_ALIGNMENT			8
  76:STM32F769/Middlewares/Third_Party/FreeRTOS/Source/portable/GCC/ARM_CM7/r0p1/portmacro.h **** /*-----------------------------------------------------------*/
  77:STM32F769/Middlewares/Third_Party/FreeRTOS/Source/portable/GCC/ARM_CM7/r0p1/portmacro.h **** 
  78:STM32F769/Middlewares/Third_Party/FreeRTOS/Source/portable/GCC/ARM_CM7/r0p1/portmacro.h **** /* Scheduler utilities. */
  79:STM32F769/Middlewares/Third_Party/FreeRTOS/Source/portable/GCC/ARM_CM7/r0p1/portmacro.h **** #define portYIELD() 															\
  80:STM32F769/Middlewares/Third_Party/FreeRTOS/Source/portable/GCC/ARM_CM7/r0p1/portmacro.h **** {																				\
  81:STM32F769/Middlewares/Third_Party/FreeRTOS/Source/portable/GCC/ARM_CM7/r0p1/portmacro.h **** 	/* Set a PendSV to request a context switch. */								\
  82:STM32F769/Middlewares/Third_Party/FreeRTOS/Source/portable/GCC/ARM_CM7/r0p1/portmacro.h **** 	portNVIC_INT_CTRL_REG = portNVIC_PENDSVSET_BIT;								\
  83:STM32F769/Middlewares/Third_Party/FreeRTOS/Source/portable/GCC/ARM_CM7/r0p1/portmacro.h **** 																				\
  84:STM32F769/Middlewares/Third_Party/FreeRTOS/Source/portable/GCC/ARM_CM7/r0p1/portmacro.h **** 	/* Barriers are normally not required but do ensure the code is completely	\
  85:STM32F769/Middlewares/Third_Party/FreeRTOS/Source/portable/GCC/ARM_CM7/r0p1/portmacro.h **** 	within the specified behaviour for the architecture. */						\
  86:STM32F769/Middlewares/Third_Party/FreeRTOS/Source/portable/GCC/ARM_CM7/r0p1/portmacro.h **** 	__asm volatile( "dsb" ::: "memory" );										\
  87:STM32F769/Middlewares/Third_Party/FreeRTOS/Source/portable/GCC/ARM_CM7/r0p1/portmacro.h **** 	__asm volatile( "isb" );													\
  88:STM32F769/Middlewares/Third_Party/FreeRTOS/Source/portable/GCC/ARM_CM7/r0p1/portmacro.h **** }
  89:STM32F769/Middlewares/Third_Party/FreeRTOS/Source/portable/GCC/ARM_CM7/r0p1/portmacro.h **** 
  90:STM32F769/Middlewares/Third_Party/FreeRTOS/Source/portable/GCC/ARM_CM7/r0p1/portmacro.h **** #define portNVIC_INT_CTRL_REG		( * ( ( volatile uint32_t * ) 0xe000ed04 ) )
  91:STM32F769/Middlewares/Third_Party/FreeRTOS/Source/portable/GCC/ARM_CM7/r0p1/portmacro.h **** #define portNVIC_PENDSVSET_BIT		( 1UL << 28UL )
  92:STM32F769/Middlewares/Third_Party/FreeRTOS/Source/portable/GCC/ARM_CM7/r0p1/portmacro.h **** #define portEND_SWITCHING_ISR( xSwitchRequired ) if( xSwitchRequired != pdFALSE ) portYIELD()
  93:STM32F769/Middlewares/Third_Party/FreeRTOS/Source/portable/GCC/ARM_CM7/r0p1/portmacro.h **** #define portYIELD_FROM_ISR( x ) portEND_SWITCHING_ISR( x )
  94:STM32F769/Middlewares/Third_Party/FreeRTOS/Source/portable/GCC/ARM_CM7/r0p1/portmacro.h **** /*-----------------------------------------------------------*/
  95:STM32F769/Middlewares/Third_Party/FreeRTOS/Source/portable/GCC/ARM_CM7/r0p1/portmacro.h **** 
  96:STM32F769/Middlewares/Third_Party/FreeRTOS/Source/portable/GCC/ARM_CM7/r0p1/portmacro.h **** /* Critical section management. */
  97:STM32F769/Middlewares/Third_Party/FreeRTOS/Source/portable/GCC/ARM_CM7/r0p1/portmacro.h **** extern void vPortEnterCritical( void );
  98:STM32F769/Middlewares/Third_Party/FreeRTOS/Source/portable/GCC/ARM_CM7/r0p1/portmacro.h **** extern void vPortExitCritical( void );
  99:STM32F769/Middlewares/Third_Party/FreeRTOS/Source/portable/GCC/ARM_CM7/r0p1/portmacro.h **** #define portSET_INTERRUPT_MASK_FROM_ISR()		ulPortRaiseBASEPRI()
ARM GAS  /tmp/ccXXkp3U.s 			page 17


 100:STM32F769/Middlewares/Third_Party/FreeRTOS/Source/portable/GCC/ARM_CM7/r0p1/portmacro.h **** #define portCLEAR_INTERRUPT_MASK_FROM_ISR(x)	vPortSetBASEPRI(x)
 101:STM32F769/Middlewares/Third_Party/FreeRTOS/Source/portable/GCC/ARM_CM7/r0p1/portmacro.h **** #define portDISABLE_INTERRUPTS()				vPortRaiseBASEPRI()
 102:STM32F769/Middlewares/Third_Party/FreeRTOS/Source/portable/GCC/ARM_CM7/r0p1/portmacro.h **** #define portENABLE_INTERRUPTS()					vPortSetBASEPRI(0)
 103:STM32F769/Middlewares/Third_Party/FreeRTOS/Source/portable/GCC/ARM_CM7/r0p1/portmacro.h **** #define portENTER_CRITICAL()					vPortEnterCritical()
 104:STM32F769/Middlewares/Third_Party/FreeRTOS/Source/portable/GCC/ARM_CM7/r0p1/portmacro.h **** #define portEXIT_CRITICAL()						vPortExitCritical()
 105:STM32F769/Middlewares/Third_Party/FreeRTOS/Source/portable/GCC/ARM_CM7/r0p1/portmacro.h **** 
 106:STM32F769/Middlewares/Third_Party/FreeRTOS/Source/portable/GCC/ARM_CM7/r0p1/portmacro.h **** /*-----------------------------------------------------------*/
 107:STM32F769/Middlewares/Third_Party/FreeRTOS/Source/portable/GCC/ARM_CM7/r0p1/portmacro.h **** 
 108:STM32F769/Middlewares/Third_Party/FreeRTOS/Source/portable/GCC/ARM_CM7/r0p1/portmacro.h **** /* Task function macros as described on the FreeRTOS.org WEB site.  These are
 109:STM32F769/Middlewares/Third_Party/FreeRTOS/Source/portable/GCC/ARM_CM7/r0p1/portmacro.h **** not necessary for to use this port.  They are defined so the common demo files
 110:STM32F769/Middlewares/Third_Party/FreeRTOS/Source/portable/GCC/ARM_CM7/r0p1/portmacro.h **** (which build with all the ports) will build. */
 111:STM32F769/Middlewares/Third_Party/FreeRTOS/Source/portable/GCC/ARM_CM7/r0p1/portmacro.h **** #define portTASK_FUNCTION_PROTO( vFunction, pvParameters ) void vFunction( void *pvParameters )
 112:STM32F769/Middlewares/Third_Party/FreeRTOS/Source/portable/GCC/ARM_CM7/r0p1/portmacro.h **** #define portTASK_FUNCTION( vFunction, pvParameters ) void vFunction( void *pvParameters )
 113:STM32F769/Middlewares/Third_Party/FreeRTOS/Source/portable/GCC/ARM_CM7/r0p1/portmacro.h **** /*-----------------------------------------------------------*/
 114:STM32F769/Middlewares/Third_Party/FreeRTOS/Source/portable/GCC/ARM_CM7/r0p1/portmacro.h **** 
 115:STM32F769/Middlewares/Third_Party/FreeRTOS/Source/portable/GCC/ARM_CM7/r0p1/portmacro.h **** /* Tickless idle/low power functionality. */
 116:STM32F769/Middlewares/Third_Party/FreeRTOS/Source/portable/GCC/ARM_CM7/r0p1/portmacro.h **** #ifndef portSUPPRESS_TICKS_AND_SLEEP
 117:STM32F769/Middlewares/Third_Party/FreeRTOS/Source/portable/GCC/ARM_CM7/r0p1/portmacro.h **** 	extern void vPortSuppressTicksAndSleep( TickType_t xExpectedIdleTime );
 118:STM32F769/Middlewares/Third_Party/FreeRTOS/Source/portable/GCC/ARM_CM7/r0p1/portmacro.h **** 	#define portSUPPRESS_TICKS_AND_SLEEP( xExpectedIdleTime ) vPortSuppressTicksAndSleep( xExpectedIdl
 119:STM32F769/Middlewares/Third_Party/FreeRTOS/Source/portable/GCC/ARM_CM7/r0p1/portmacro.h **** #endif
 120:STM32F769/Middlewares/Third_Party/FreeRTOS/Source/portable/GCC/ARM_CM7/r0p1/portmacro.h **** /*-----------------------------------------------------------*/
 121:STM32F769/Middlewares/Third_Party/FreeRTOS/Source/portable/GCC/ARM_CM7/r0p1/portmacro.h **** 
 122:STM32F769/Middlewares/Third_Party/FreeRTOS/Source/portable/GCC/ARM_CM7/r0p1/portmacro.h **** /* Architecture specific optimisations. */
 123:STM32F769/Middlewares/Third_Party/FreeRTOS/Source/portable/GCC/ARM_CM7/r0p1/portmacro.h **** #ifndef configUSE_PORT_OPTIMISED_TASK_SELECTION
 124:STM32F769/Middlewares/Third_Party/FreeRTOS/Source/portable/GCC/ARM_CM7/r0p1/portmacro.h **** 	#define configUSE_PORT_OPTIMISED_TASK_SELECTION 1
 125:STM32F769/Middlewares/Third_Party/FreeRTOS/Source/portable/GCC/ARM_CM7/r0p1/portmacro.h **** #endif
 126:STM32F769/Middlewares/Third_Party/FreeRTOS/Source/portable/GCC/ARM_CM7/r0p1/portmacro.h **** 
 127:STM32F769/Middlewares/Third_Party/FreeRTOS/Source/portable/GCC/ARM_CM7/r0p1/portmacro.h **** #if configUSE_PORT_OPTIMISED_TASK_SELECTION == 1
 128:STM32F769/Middlewares/Third_Party/FreeRTOS/Source/portable/GCC/ARM_CM7/r0p1/portmacro.h **** 
 129:STM32F769/Middlewares/Third_Party/FreeRTOS/Source/portable/GCC/ARM_CM7/r0p1/portmacro.h **** 	/* Generic helper function. */
 130:STM32F769/Middlewares/Third_Party/FreeRTOS/Source/portable/GCC/ARM_CM7/r0p1/portmacro.h **** 	__attribute__( ( always_inline ) ) static inline uint8_t ucPortCountLeadingZeros( uint32_t ulBitma
 131:STM32F769/Middlewares/Third_Party/FreeRTOS/Source/portable/GCC/ARM_CM7/r0p1/portmacro.h **** 	{
 132:STM32F769/Middlewares/Third_Party/FreeRTOS/Source/portable/GCC/ARM_CM7/r0p1/portmacro.h **** 	uint8_t ucReturn;
 133:STM32F769/Middlewares/Third_Party/FreeRTOS/Source/portable/GCC/ARM_CM7/r0p1/portmacro.h **** 
 134:STM32F769/Middlewares/Third_Party/FreeRTOS/Source/portable/GCC/ARM_CM7/r0p1/portmacro.h **** 		__asm volatile ( "clz %0, %1" : "=r" ( ucReturn ) : "r" ( ulBitmap ) : "memory" );
 135:STM32F769/Middlewares/Third_Party/FreeRTOS/Source/portable/GCC/ARM_CM7/r0p1/portmacro.h **** 		return ucReturn;
 136:STM32F769/Middlewares/Third_Party/FreeRTOS/Source/portable/GCC/ARM_CM7/r0p1/portmacro.h **** 	}
 137:STM32F769/Middlewares/Third_Party/FreeRTOS/Source/portable/GCC/ARM_CM7/r0p1/portmacro.h **** 
 138:STM32F769/Middlewares/Third_Party/FreeRTOS/Source/portable/GCC/ARM_CM7/r0p1/portmacro.h **** 	/* Check the configuration. */
 139:STM32F769/Middlewares/Third_Party/FreeRTOS/Source/portable/GCC/ARM_CM7/r0p1/portmacro.h **** 	#if( configMAX_PRIORITIES > 32 )
 140:STM32F769/Middlewares/Third_Party/FreeRTOS/Source/portable/GCC/ARM_CM7/r0p1/portmacro.h **** 		#error configUSE_PORT_OPTIMISED_TASK_SELECTION can only be set to 1 when configMAX_PRIORITIES is 
 141:STM32F769/Middlewares/Third_Party/FreeRTOS/Source/portable/GCC/ARM_CM7/r0p1/portmacro.h **** 	#endif
 142:STM32F769/Middlewares/Third_Party/FreeRTOS/Source/portable/GCC/ARM_CM7/r0p1/portmacro.h **** 
 143:STM32F769/Middlewares/Third_Party/FreeRTOS/Source/portable/GCC/ARM_CM7/r0p1/portmacro.h **** 	/* Store/clear the ready priorities in a bit map. */
 144:STM32F769/Middlewares/Third_Party/FreeRTOS/Source/portable/GCC/ARM_CM7/r0p1/portmacro.h **** 	#define portRECORD_READY_PRIORITY( uxPriority, uxReadyPriorities ) ( uxReadyPriorities ) |= ( 1UL 
 145:STM32F769/Middlewares/Third_Party/FreeRTOS/Source/portable/GCC/ARM_CM7/r0p1/portmacro.h **** 	#define portRESET_READY_PRIORITY( uxPriority, uxReadyPriorities ) ( uxReadyPriorities ) &= ~( 1UL 
 146:STM32F769/Middlewares/Third_Party/FreeRTOS/Source/portable/GCC/ARM_CM7/r0p1/portmacro.h **** 
 147:STM32F769/Middlewares/Third_Party/FreeRTOS/Source/portable/GCC/ARM_CM7/r0p1/portmacro.h **** 	/*-----------------------------------------------------------*/
 148:STM32F769/Middlewares/Third_Party/FreeRTOS/Source/portable/GCC/ARM_CM7/r0p1/portmacro.h **** 
 149:STM32F769/Middlewares/Third_Party/FreeRTOS/Source/portable/GCC/ARM_CM7/r0p1/portmacro.h **** 	#define portGET_HIGHEST_PRIORITY( uxTopPriority, uxReadyPriorities ) uxTopPriority = ( 31UL - ( ui
 150:STM32F769/Middlewares/Third_Party/FreeRTOS/Source/portable/GCC/ARM_CM7/r0p1/portmacro.h **** 
 151:STM32F769/Middlewares/Third_Party/FreeRTOS/Source/portable/GCC/ARM_CM7/r0p1/portmacro.h **** #endif /* configUSE_PORT_OPTIMISED_TASK_SELECTION */
 152:STM32F769/Middlewares/Third_Party/FreeRTOS/Source/portable/GCC/ARM_CM7/r0p1/portmacro.h **** 
 153:STM32F769/Middlewares/Third_Party/FreeRTOS/Source/portable/GCC/ARM_CM7/r0p1/portmacro.h **** /*-----------------------------------------------------------*/
 154:STM32F769/Middlewares/Third_Party/FreeRTOS/Source/portable/GCC/ARM_CM7/r0p1/portmacro.h **** 
 155:STM32F769/Middlewares/Third_Party/FreeRTOS/Source/portable/GCC/ARM_CM7/r0p1/portmacro.h **** #ifdef configASSERT
 156:STM32F769/Middlewares/Third_Party/FreeRTOS/Source/portable/GCC/ARM_CM7/r0p1/portmacro.h **** 	void vPortValidateInterruptPriority( void );
ARM GAS  /tmp/ccXXkp3U.s 			page 18


 157:STM32F769/Middlewares/Third_Party/FreeRTOS/Source/portable/GCC/ARM_CM7/r0p1/portmacro.h **** 	#define portASSERT_IF_INTERRUPT_PRIORITY_INVALID() 	vPortValidateInterruptPriority()
 158:STM32F769/Middlewares/Third_Party/FreeRTOS/Source/portable/GCC/ARM_CM7/r0p1/portmacro.h **** #endif
 159:STM32F769/Middlewares/Third_Party/FreeRTOS/Source/portable/GCC/ARM_CM7/r0p1/portmacro.h **** 
 160:STM32F769/Middlewares/Third_Party/FreeRTOS/Source/portable/GCC/ARM_CM7/r0p1/portmacro.h **** /* portNOP() is not required by this port. */
 161:STM32F769/Middlewares/Third_Party/FreeRTOS/Source/portable/GCC/ARM_CM7/r0p1/portmacro.h **** #define portNOP()
 162:STM32F769/Middlewares/Third_Party/FreeRTOS/Source/portable/GCC/ARM_CM7/r0p1/portmacro.h **** 
 163:STM32F769/Middlewares/Third_Party/FreeRTOS/Source/portable/GCC/ARM_CM7/r0p1/portmacro.h **** #define portINLINE	__inline
 164:STM32F769/Middlewares/Third_Party/FreeRTOS/Source/portable/GCC/ARM_CM7/r0p1/portmacro.h **** 
 165:STM32F769/Middlewares/Third_Party/FreeRTOS/Source/portable/GCC/ARM_CM7/r0p1/portmacro.h **** #ifndef portFORCE_INLINE
 166:STM32F769/Middlewares/Third_Party/FreeRTOS/Source/portable/GCC/ARM_CM7/r0p1/portmacro.h **** 	#define portFORCE_INLINE inline __attribute__(( always_inline))
 167:STM32F769/Middlewares/Third_Party/FreeRTOS/Source/portable/GCC/ARM_CM7/r0p1/portmacro.h **** #endif
 168:STM32F769/Middlewares/Third_Party/FreeRTOS/Source/portable/GCC/ARM_CM7/r0p1/portmacro.h **** 
 169:STM32F769/Middlewares/Third_Party/FreeRTOS/Source/portable/GCC/ARM_CM7/r0p1/portmacro.h **** portFORCE_INLINE static BaseType_t xPortIsInsideInterrupt( void )
 170:STM32F769/Middlewares/Third_Party/FreeRTOS/Source/portable/GCC/ARM_CM7/r0p1/portmacro.h **** {
 171:STM32F769/Middlewares/Third_Party/FreeRTOS/Source/portable/GCC/ARM_CM7/r0p1/portmacro.h **** uint32_t ulCurrentInterrupt;
 172:STM32F769/Middlewares/Third_Party/FreeRTOS/Source/portable/GCC/ARM_CM7/r0p1/portmacro.h **** BaseType_t xReturn;
 173:STM32F769/Middlewares/Third_Party/FreeRTOS/Source/portable/GCC/ARM_CM7/r0p1/portmacro.h **** 
 174:STM32F769/Middlewares/Third_Party/FreeRTOS/Source/portable/GCC/ARM_CM7/r0p1/portmacro.h **** 	/* Obtain the number of the currently executing interrupt. */
 175:STM32F769/Middlewares/Third_Party/FreeRTOS/Source/portable/GCC/ARM_CM7/r0p1/portmacro.h **** 	__asm volatile( "mrs %0, ipsr" : "=r"( ulCurrentInterrupt ) :: "memory" );
 176:STM32F769/Middlewares/Third_Party/FreeRTOS/Source/portable/GCC/ARM_CM7/r0p1/portmacro.h **** 
 177:STM32F769/Middlewares/Third_Party/FreeRTOS/Source/portable/GCC/ARM_CM7/r0p1/portmacro.h **** 	if( ulCurrentInterrupt == 0 )
 178:STM32F769/Middlewares/Third_Party/FreeRTOS/Source/portable/GCC/ARM_CM7/r0p1/portmacro.h **** 	{
 179:STM32F769/Middlewares/Third_Party/FreeRTOS/Source/portable/GCC/ARM_CM7/r0p1/portmacro.h **** 		xReturn = pdFALSE;
 180:STM32F769/Middlewares/Third_Party/FreeRTOS/Source/portable/GCC/ARM_CM7/r0p1/portmacro.h **** 	}
 181:STM32F769/Middlewares/Third_Party/FreeRTOS/Source/portable/GCC/ARM_CM7/r0p1/portmacro.h **** 	else
 182:STM32F769/Middlewares/Third_Party/FreeRTOS/Source/portable/GCC/ARM_CM7/r0p1/portmacro.h **** 	{
 183:STM32F769/Middlewares/Third_Party/FreeRTOS/Source/portable/GCC/ARM_CM7/r0p1/portmacro.h **** 		xReturn = pdTRUE;
 184:STM32F769/Middlewares/Third_Party/FreeRTOS/Source/portable/GCC/ARM_CM7/r0p1/portmacro.h **** 	}
 185:STM32F769/Middlewares/Third_Party/FreeRTOS/Source/portable/GCC/ARM_CM7/r0p1/portmacro.h **** 
 186:STM32F769/Middlewares/Third_Party/FreeRTOS/Source/portable/GCC/ARM_CM7/r0p1/portmacro.h **** 	return xReturn;
 187:STM32F769/Middlewares/Third_Party/FreeRTOS/Source/portable/GCC/ARM_CM7/r0p1/portmacro.h **** }
 188:STM32F769/Middlewares/Third_Party/FreeRTOS/Source/portable/GCC/ARM_CM7/r0p1/portmacro.h **** 
 189:STM32F769/Middlewares/Third_Party/FreeRTOS/Source/portable/GCC/ARM_CM7/r0p1/portmacro.h **** /*-----------------------------------------------------------*/
 190:STM32F769/Middlewares/Third_Party/FreeRTOS/Source/portable/GCC/ARM_CM7/r0p1/portmacro.h **** 
 191:STM32F769/Middlewares/Third_Party/FreeRTOS/Source/portable/GCC/ARM_CM7/r0p1/portmacro.h **** portFORCE_INLINE static void vPortRaiseBASEPRI( void )
 342              		.loc 2 191 30 view .LVU118
 343              	.LBB13:
 192:STM32F769/Middlewares/Third_Party/FreeRTOS/Source/portable/GCC/ARM_CM7/r0p1/portmacro.h **** {
 193:STM32F769/Middlewares/Third_Party/FreeRTOS/Source/portable/GCC/ARM_CM7/r0p1/portmacro.h **** uint32_t ulNewBASEPRI;
 344              		.loc 2 193 1 view .LVU119
 194:STM32F769/Middlewares/Third_Party/FreeRTOS/Source/portable/GCC/ARM_CM7/r0p1/portmacro.h **** 
 195:STM32F769/Middlewares/Third_Party/FreeRTOS/Source/portable/GCC/ARM_CM7/r0p1/portmacro.h **** 	__asm volatile
 345              		.loc 2 195 2 view .LVU120
 346              		.syntax unified
 347              	@ 195 "STM32F769/Middlewares/Third_Party/FreeRTOS/Source/portable/GCC/ARM_CM7/r0p1/portmacro.h" 1
 348 002c 4FF05003 			mov r3, #80												
 349 0030 72B6     		cpsid i													
 350 0032 83F31188 		msr basepri, r3											
 351 0036 BFF36F8F 		isb														
 352 003a BFF34F8F 		dsb														
 353 003e 62B6     		cpsie i													
 354              	
 355              	@ 0 "" 2
 356              	.LVL29:
 357              		.thumb
 358              		.syntax unified
 359              	.L23:
ARM GAS  /tmp/ccXXkp3U.s 			page 19


 360              		.loc 2 195 2 is_stmt 0 view .LVU121
 361              	.LBE13:
 362              	.LBE12:
 149:STM32F769/Middlewares/Third_Party/FreeRTOS/Source/portable/MemMang/heap_4.c **** 				}
 363              		.loc 1 149 6 is_stmt 1 discriminator 1 view .LVU122
 149:STM32F769/Middlewares/Third_Party/FreeRTOS/Source/portable/MemMang/heap_4.c **** 				}
 364              		.loc 1 149 6 discriminator 1 view .LVU123
 365 0040 FEE7     		b	.L23
 366              	.L38:
 124:STM32F769/Middlewares/Third_Party/FreeRTOS/Source/portable/MemMang/heap_4.c **** 		}
 367              		.loc 1 124 4 view .LVU124
 368 0042 FFF7FEFF 		bl	prvHeapInit
 369              	.LVL30:
 370 0046 E2E7     		b	.L20
 371              	.L22:
 158:STM32F769/Middlewares/Third_Party/FreeRTOS/Source/portable/MemMang/heap_4.c **** 			}
 372              		.loc 1 158 29 view .LVU125
 161:STM32F769/Middlewares/Third_Party/FreeRTOS/Source/portable/MemMang/heap_4.c **** 			{
 373              		.loc 1 161 4 view .LVU126
 161:STM32F769/Middlewares/Third_Party/FreeRTOS/Source/portable/MemMang/heap_4.c **** 			{
 374              		.loc 1 161 6 is_stmt 0 view .LVU127
 375 0048 002C     		cmp	r4, #0
 376 004a 41D0     		beq	.L33
 161:STM32F769/Middlewares/Third_Party/FreeRTOS/Source/portable/MemMang/heap_4.c **** 			{
 377              		.loc 1 161 45 discriminator 1 view .LVU128
 378 004c 2E4B     		ldr	r3, .L39+8
 379 004e 1B68     		ldr	r3, [r3]
 161:STM32F769/Middlewares/Third_Party/FreeRTOS/Source/portable/MemMang/heap_4.c **** 			{
 380              		.loc 1 161 28 discriminator 1 view .LVU129
 381 0050 A342     		cmp	r3, r4
 382 0052 4ED3     		bcc	.L34
 165:STM32F769/Middlewares/Third_Party/FreeRTOS/Source/portable/MemMang/heap_4.c **** 				pxBlock = xStart.pxNextFreeBlock;
 383              		.loc 1 165 5 is_stmt 1 view .LVU130
 384              	.LVL31:
 166:STM32F769/Middlewares/Third_Party/FreeRTOS/Source/portable/MemMang/heap_4.c **** 				while( ( pxBlock->xBlockSize < xWantedSize ) && ( pxBlock->pxNextFreeBlock != NULL ) )
 385              		.loc 1 166 5 view .LVU131
 166:STM32F769/Middlewares/Third_Party/FreeRTOS/Source/portable/MemMang/heap_4.c **** 				while( ( pxBlock->xBlockSize < xWantedSize ) && ( pxBlock->pxNextFreeBlock != NULL ) )
 386              		.loc 1 166 13 is_stmt 0 view .LVU132
 387 0054 2D4B     		ldr	r3, .L39+12
 388 0056 1D68     		ldr	r5, [r3]
 389              	.LVL32:
 167:STM32F769/Middlewares/Third_Party/FreeRTOS/Source/portable/MemMang/heap_4.c **** 				{
 390              		.loc 1 167 5 is_stmt 1 view .LVU133
 167:STM32F769/Middlewares/Third_Party/FreeRTOS/Source/portable/MemMang/heap_4.c **** 				{
 391              		.loc 1 167 10 is_stmt 0 view .LVU134
 392 0058 01E0     		b	.L25
 393              	.LVL33:
 394              	.L35:
 169:STM32F769/Middlewares/Third_Party/FreeRTOS/Source/portable/MemMang/heap_4.c **** 					pxBlock = pxBlock->pxNextFreeBlock;
 395              		.loc 1 169 22 view .LVU135
 396 005a 2B46     		mov	r3, r5
 397              	.LVL34:
 170:STM32F769/Middlewares/Third_Party/FreeRTOS/Source/portable/MemMang/heap_4.c **** 				}
 398              		.loc 1 170 14 view .LVU136
 399 005c 1546     		mov	r5, r2
 400              	.LVL35:
 401              	.L25:
ARM GAS  /tmp/ccXXkp3U.s 			page 20


 167:STM32F769/Middlewares/Third_Party/FreeRTOS/Source/portable/MemMang/heap_4.c **** 				{
 402              		.loc 1 167 21 view .LVU137
 403 005e 6A68     		ldr	r2, [r5, #4]
 167:STM32F769/Middlewares/Third_Party/FreeRTOS/Source/portable/MemMang/heap_4.c **** 				{
 404              		.loc 1 167 10 view .LVU138
 405 0060 A242     		cmp	r2, r4
 406 0062 02D2     		bcs	.L24
 167:STM32F769/Middlewares/Third_Party/FreeRTOS/Source/portable/MemMang/heap_4.c **** 				{
 407              		.loc 1 167 62 discriminator 1 view .LVU139
 408 0064 2A68     		ldr	r2, [r5]
 167:STM32F769/Middlewares/Third_Party/FreeRTOS/Source/portable/MemMang/heap_4.c **** 				{
 409              		.loc 1 167 50 discriminator 1 view .LVU140
 410 0066 002A     		cmp	r2, #0
 411 0068 F7D1     		bne	.L35
 412              	.L24:
 175:STM32F769/Middlewares/Third_Party/FreeRTOS/Source/portable/MemMang/heap_4.c **** 				{
 413              		.loc 1 175 5 is_stmt 1 view .LVU141
 175:STM32F769/Middlewares/Third_Party/FreeRTOS/Source/portable/MemMang/heap_4.c **** 				{
 414              		.loc 1 175 17 is_stmt 0 view .LVU142
 415 006a 254A     		ldr	r2, .L39
 416 006c 1268     		ldr	r2, [r2]
 175:STM32F769/Middlewares/Third_Party/FreeRTOS/Source/portable/MemMang/heap_4.c **** 				{
 417              		.loc 1 175 7 view .LVU143
 418 006e AA42     		cmp	r2, r5
 419 0070 41D0     		beq	.L36
 179:STM32F769/Middlewares/Third_Party/FreeRTOS/Source/portable/MemMang/heap_4.c **** 
 420              		.loc 1 179 6 is_stmt 1 view .LVU144
 179:STM32F769/Middlewares/Third_Party/FreeRTOS/Source/portable/MemMang/heap_4.c **** 
 421              		.loc 1 179 61 is_stmt 0 view .LVU145
 422 0072 1E68     		ldr	r6, [r3]
 179:STM32F769/Middlewares/Third_Party/FreeRTOS/Source/portable/MemMang/heap_4.c **** 
 423              		.loc 1 179 15 view .LVU146
 424 0074 0836     		adds	r6, r6, #8
 425              	.LVL36:
 183:STM32F769/Middlewares/Third_Party/FreeRTOS/Source/portable/MemMang/heap_4.c **** 
 426              		.loc 1 183 6 is_stmt 1 view .LVU147
 183:STM32F769/Middlewares/Third_Party/FreeRTOS/Source/portable/MemMang/heap_4.c **** 
 427              		.loc 1 183 48 is_stmt 0 view .LVU148
 428 0076 2A68     		ldr	r2, [r5]
 183:STM32F769/Middlewares/Third_Party/FreeRTOS/Source/portable/MemMang/heap_4.c **** 
 429              		.loc 1 183 39 view .LVU149
 430 0078 1A60     		str	r2, [r3]
 187:STM32F769/Middlewares/Third_Party/FreeRTOS/Source/portable/MemMang/heap_4.c **** 					{
 431              		.loc 1 187 6 is_stmt 1 view .LVU150
 187:STM32F769/Middlewares/Third_Party/FreeRTOS/Source/portable/MemMang/heap_4.c **** 					{
 432              		.loc 1 187 19 is_stmt 0 view .LVU151
 433 007a 6B68     		ldr	r3, [r5, #4]
 434              	.LVL37:
 187:STM32F769/Middlewares/Third_Party/FreeRTOS/Source/portable/MemMang/heap_4.c **** 					{
 435              		.loc 1 187 32 view .LVU152
 436 007c 1B1B     		subs	r3, r3, r4
 187:STM32F769/Middlewares/Third_Party/FreeRTOS/Source/portable/MemMang/heap_4.c **** 					{
 437              		.loc 1 187 8 view .LVU153
 438 007e 102B     		cmp	r3, #16
 439 0080 12D9     		bls	.L26
 193:STM32F769/Middlewares/Third_Party/FreeRTOS/Source/portable/MemMang/heap_4.c **** 						configASSERT( ( ( ( size_t ) pxNewBlockLink ) & portBYTE_ALIGNMENT_MASK ) == 0 );
 440              		.loc 1 193 7 is_stmt 1 view .LVU154
ARM GAS  /tmp/ccXXkp3U.s 			page 21


 193:STM32F769/Middlewares/Third_Party/FreeRTOS/Source/portable/MemMang/heap_4.c **** 						configASSERT( ( ( ( size_t ) pxNewBlockLink ) & portBYTE_ALIGNMENT_MASK ) == 0 );
 441              		.loc 1 193 22 is_stmt 0 view .LVU155
 442 0082 2819     		adds	r0, r5, r4
 443              	.LVL38:
 194:STM32F769/Middlewares/Third_Party/FreeRTOS/Source/portable/MemMang/heap_4.c **** 
 444              		.loc 1 194 7 is_stmt 1 view .LVU156
 445 0084 10F0070F 		tst	r0, #7
 446 0088 0AD0     		beq	.L27
 194:STM32F769/Middlewares/Third_Party/FreeRTOS/Source/portable/MemMang/heap_4.c **** 
 447              		.loc 1 194 7 view .LVU157
 448              	.LBB14:
 449              	.LBI14:
 191:STM32F769/Middlewares/Third_Party/FreeRTOS/Source/portable/GCC/ARM_CM7/r0p1/portmacro.h **** {
 450              		.loc 2 191 30 view .LVU158
 451              	.LBB15:
 193:STM32F769/Middlewares/Third_Party/FreeRTOS/Source/portable/GCC/ARM_CM7/r0p1/portmacro.h **** 
 452              		.loc 2 193 1 view .LVU159
 453              		.loc 2 195 2 view .LVU160
 454              		.syntax unified
 455              	@ 195 "STM32F769/Middlewares/Third_Party/FreeRTOS/Source/portable/GCC/ARM_CM7/r0p1/portmacro.h" 1
 456 008a 4FF05003 			mov r3, #80												
 457 008e 72B6     		cpsid i													
 458 0090 83F31188 		msr basepri, r3											
 459 0094 BFF36F8F 		isb														
 460 0098 BFF34F8F 		dsb														
 461 009c 62B6     		cpsie i													
 462              	
 463              	@ 0 "" 2
 464              	.LVL39:
 465              		.thumb
 466              		.syntax unified
 467              	.L28:
 468              		.loc 2 195 2 is_stmt 0 view .LVU161
 469              	.LBE15:
 470              	.LBE14:
 194:STM32F769/Middlewares/Third_Party/FreeRTOS/Source/portable/MemMang/heap_4.c **** 
 471              		.loc 1 194 7 is_stmt 1 discriminator 3 view .LVU162
 194:STM32F769/Middlewares/Third_Party/FreeRTOS/Source/portable/MemMang/heap_4.c **** 
 472              		.loc 1 194 7 discriminator 3 view .LVU163
 473 009e FEE7     		b	.L28
 474              	.L27:
 194:STM32F769/Middlewares/Third_Party/FreeRTOS/Source/portable/MemMang/heap_4.c **** 
 475              		.loc 1 194 87 discriminator 2 view .LVU164
 198:STM32F769/Middlewares/Third_Party/FreeRTOS/Source/portable/MemMang/heap_4.c **** 						pxBlock->xBlockSize = xWantedSize;
 476              		.loc 1 198 7 discriminator 2 view .LVU165
 198:STM32F769/Middlewares/Third_Party/FreeRTOS/Source/portable/MemMang/heap_4.c **** 						pxBlock->xBlockSize = xWantedSize;
 477              		.loc 1 198 34 is_stmt 0 discriminator 2 view .LVU166
 478 00a0 4360     		str	r3, [r0, #4]
 199:STM32F769/Middlewares/Third_Party/FreeRTOS/Source/portable/MemMang/heap_4.c **** 
 479              		.loc 1 199 7 is_stmt 1 discriminator 2 view .LVU167
 199:STM32F769/Middlewares/Third_Party/FreeRTOS/Source/portable/MemMang/heap_4.c **** 
 480              		.loc 1 199 27 is_stmt 0 discriminator 2 view .LVU168
 481 00a2 6C60     		str	r4, [r5, #4]
 202:STM32F769/Middlewares/Third_Party/FreeRTOS/Source/portable/MemMang/heap_4.c **** 					}
 482              		.loc 1 202 7 is_stmt 1 discriminator 2 view .LVU169
 483 00a4 FFF7FEFF 		bl	prvInsertBlockIntoFreeList
 484              	.LVL40:
ARM GAS  /tmp/ccXXkp3U.s 			page 22


 485              	.L26:
 206:STM32F769/Middlewares/Third_Party/FreeRTOS/Source/portable/MemMang/heap_4.c **** 					}
 486              		.loc 1 206 31 view .LVU170
 209:STM32F769/Middlewares/Third_Party/FreeRTOS/Source/portable/MemMang/heap_4.c **** 
 487              		.loc 1 209 6 view .LVU171
 209:STM32F769/Middlewares/Third_Party/FreeRTOS/Source/portable/MemMang/heap_4.c **** 
 488              		.loc 1 209 36 is_stmt 0 view .LVU172
 489 00a8 6A68     		ldr	r2, [r5, #4]
 209:STM32F769/Middlewares/Third_Party/FreeRTOS/Source/portable/MemMang/heap_4.c **** 
 490              		.loc 1 209 26 view .LVU173
 491 00aa 1749     		ldr	r1, .L39+8
 492 00ac 0B68     		ldr	r3, [r1]
 493 00ae 9B1A     		subs	r3, r3, r2
 494 00b0 0B60     		str	r3, [r1]
 211:STM32F769/Middlewares/Third_Party/FreeRTOS/Source/portable/MemMang/heap_4.c **** 					{
 495              		.loc 1 211 6 is_stmt 1 view .LVU174
 211:STM32F769/Middlewares/Third_Party/FreeRTOS/Source/portable/MemMang/heap_4.c **** 					{
 496              		.loc 1 211 30 is_stmt 0 view .LVU175
 497 00b2 1749     		ldr	r1, .L39+16
 498 00b4 0968     		ldr	r1, [r1]
 211:STM32F769/Middlewares/Third_Party/FreeRTOS/Source/portable/MemMang/heap_4.c **** 					{
 499              		.loc 1 211 8 view .LVU176
 500 00b6 8B42     		cmp	r3, r1
 501 00b8 01D2     		bcs	.L29
 213:STM32F769/Middlewares/Third_Party/FreeRTOS/Source/portable/MemMang/heap_4.c **** 					}
 502              		.loc 1 213 7 is_stmt 1 view .LVU177
 213:STM32F769/Middlewares/Third_Party/FreeRTOS/Source/portable/MemMang/heap_4.c **** 					}
 503              		.loc 1 213 38 is_stmt 0 view .LVU178
 504 00ba 1549     		ldr	r1, .L39+16
 505 00bc 0B60     		str	r3, [r1]
 506              	.L29:
 217:STM32F769/Middlewares/Third_Party/FreeRTOS/Source/portable/MemMang/heap_4.c **** 					}
 507              		.loc 1 217 31 is_stmt 1 view .LVU179
 222:STM32F769/Middlewares/Third_Party/FreeRTOS/Source/portable/MemMang/heap_4.c **** 					pxBlock->pxNextFreeBlock = NULL;
 508              		.loc 1 222 6 view .LVU180
 222:STM32F769/Middlewares/Third_Party/FreeRTOS/Source/portable/MemMang/heap_4.c **** 					pxBlock->pxNextFreeBlock = NULL;
 509              		.loc 1 222 26 is_stmt 0 view .LVU181
 510 00be 114B     		ldr	r3, .L39+4
 511 00c0 1B68     		ldr	r3, [r3]
 512 00c2 1343     		orrs	r3, r3, r2
 513 00c4 6B60     		str	r3, [r5, #4]
 223:STM32F769/Middlewares/Third_Party/FreeRTOS/Source/portable/MemMang/heap_4.c **** 				}
 514              		.loc 1 223 6 is_stmt 1 view .LVU182
 223:STM32F769/Middlewares/Third_Party/FreeRTOS/Source/portable/MemMang/heap_4.c **** 				}
 515              		.loc 1 223 31 is_stmt 0 view .LVU183
 516 00c6 0023     		movs	r3, #0
 517 00c8 2B60     		str	r3, [r5]
 518 00ca 02E0     		b	.L21
 519              	.LVL41:
 520              	.L32:
 116:STM32F769/Middlewares/Third_Party/FreeRTOS/Source/portable/MemMang/heap_4.c **** 
 521              		.loc 1 116 7 view .LVU184
 522 00cc 0026     		movs	r6, #0
 523 00ce 00E0     		b	.L21
 524              	.L33:
 116:STM32F769/Middlewares/Third_Party/FreeRTOS/Source/portable/MemMang/heap_4.c **** 
 525              		.loc 1 116 7 view .LVU185
ARM GAS  /tmp/ccXXkp3U.s 			page 23


 526 00d0 0026     		movs	r6, #0
 527              	.LVL42:
 528              	.L21:
 237:STM32F769/Middlewares/Third_Party/FreeRTOS/Source/portable/MemMang/heap_4.c **** 		}
 529              		.loc 1 237 28 is_stmt 1 view .LVU186
 240:STM32F769/Middlewares/Third_Party/FreeRTOS/Source/portable/MemMang/heap_4.c **** 	}
 530              		.loc 1 240 39 view .LVU187
 242:STM32F769/Middlewares/Third_Party/FreeRTOS/Source/portable/MemMang/heap_4.c **** 
 531              		.loc 1 242 2 view .LVU188
 242:STM32F769/Middlewares/Third_Party/FreeRTOS/Source/portable/MemMang/heap_4.c **** 
 532              		.loc 1 242 11 is_stmt 0 view .LVU189
 533 00d2 FFF7FEFF 		bl	xTaskResumeAll
 534              	.LVL43:
 258:STM32F769/Middlewares/Third_Party/FreeRTOS/Source/portable/MemMang/heap_4.c **** 	return pvReturn;
 535              		.loc 1 258 2 is_stmt 1 view .LVU190
 536 00d6 16F0070F 		tst	r6, #7
 537 00da 0ED0     		beq	.L19
 258:STM32F769/Middlewares/Third_Party/FreeRTOS/Source/portable/MemMang/heap_4.c **** 	return pvReturn;
 538              		.loc 1 258 2 view .LVU191
 539              	.LBB16:
 540              	.LBI16:
 191:STM32F769/Middlewares/Third_Party/FreeRTOS/Source/portable/GCC/ARM_CM7/r0p1/portmacro.h **** {
 541              		.loc 2 191 30 view .LVU192
 542              	.LBB17:
 193:STM32F769/Middlewares/Third_Party/FreeRTOS/Source/portable/GCC/ARM_CM7/r0p1/portmacro.h **** 
 543              		.loc 2 193 1 view .LVU193
 544              		.loc 2 195 2 view .LVU194
 545              		.syntax unified
 546              	@ 195 "STM32F769/Middlewares/Third_Party/FreeRTOS/Source/portable/GCC/ARM_CM7/r0p1/portmacro.h" 1
 547 00dc 4FF05003 			mov r3, #80												
 548 00e0 72B6     		cpsid i													
 549 00e2 83F31188 		msr basepri, r3											
 550 00e6 BFF36F8F 		isb														
 551 00ea BFF34F8F 		dsb														
 552 00ee 62B6     		cpsie i													
 553              	
 554              	@ 0 "" 2
 555              	.LVL44:
 556              		.thumb
 557              		.syntax unified
 558              	.L31:
 559              		.loc 2 195 2 is_stmt 0 view .LVU195
 560              	.LBE17:
 561              	.LBE16:
 258:STM32F769/Middlewares/Third_Party/FreeRTOS/Source/portable/MemMang/heap_4.c **** 	return pvReturn;
 562              		.loc 1 258 2 is_stmt 1 discriminator 5 view .LVU196
 258:STM32F769/Middlewares/Third_Party/FreeRTOS/Source/portable/MemMang/heap_4.c **** 	return pvReturn;
 563              		.loc 1 258 2 discriminator 5 view .LVU197
 564 00f0 FEE7     		b	.L31
 565              	.LVL45:
 566              	.L34:
 116:STM32F769/Middlewares/Third_Party/FreeRTOS/Source/portable/MemMang/heap_4.c **** 
 567              		.loc 1 116 7 is_stmt 0 view .LVU198
 568 00f2 0026     		movs	r6, #0
 569 00f4 EDE7     		b	.L21
 570              	.LVL46:
 571              	.L36:
ARM GAS  /tmp/ccXXkp3U.s 			page 24


 116:STM32F769/Middlewares/Third_Party/FreeRTOS/Source/portable/MemMang/heap_4.c **** 
 572              		.loc 1 116 7 view .LVU199
 573 00f6 0026     		movs	r6, #0
 574 00f8 EBE7     		b	.L21
 575              	.LVL47:
 576              	.L19:
 260:STM32F769/Middlewares/Third_Party/FreeRTOS/Source/portable/MemMang/heap_4.c **** /*-----------------------------------------------------------*/
 577              		.loc 1 260 1 view .LVU200
 578 00fa 3046     		mov	r0, r6
 579 00fc 70BD     		pop	{r4, r5, r6, pc}
 580              	.LVL48:
 581              	.L40:
 260:STM32F769/Middlewares/Third_Party/FreeRTOS/Source/portable/MemMang/heap_4.c **** /*-----------------------------------------------------------*/
 582              		.loc 1 260 1 view .LVU201
 583 00fe 00BF     		.align	2
 584              	.L39:
 585 0100 00000000 		.word	.LANCHOR1
 586 0104 00000000 		.word	.LANCHOR4
 587 0108 00000000 		.word	.LANCHOR3
 588 010c 00000000 		.word	.LANCHOR0
 589 0110 00000000 		.word	.LANCHOR2
 590              		.cfi_endproc
 591              	.LFE4:
 593              		.section	.text.vPortFree,"ax",%progbits
 594              		.align	1
 595              		.global	vPortFree
 596              		.syntax unified
 597              		.thumb
 598              		.thumb_func
 599              		.fpu fpv5-d16
 601              	vPortFree:
 602              	.LVL49:
 603              	.LFB5:
 264:STM32F769/Middlewares/Third_Party/FreeRTOS/Source/portable/MemMang/heap_4.c **** uint8_t *puc = ( uint8_t * ) pv;
 604              		.loc 1 264 1 is_stmt 1 view -0
 605              		.cfi_startproc
 606              		@ args = 0, pretend = 0, frame = 0
 607              		@ frame_needed = 0, uses_anonymous_args = 0
 265:STM32F769/Middlewares/Third_Party/FreeRTOS/Source/portable/MemMang/heap_4.c **** BlockLink_t *pxLink;
 608              		.loc 1 265 1 view .LVU203
 266:STM32F769/Middlewares/Third_Party/FreeRTOS/Source/portable/MemMang/heap_4.c **** 
 609              		.loc 1 266 1 view .LVU204
 268:STM32F769/Middlewares/Third_Party/FreeRTOS/Source/portable/MemMang/heap_4.c **** 	{
 610              		.loc 1 268 2 view .LVU205
 268:STM32F769/Middlewares/Third_Party/FreeRTOS/Source/portable/MemMang/heap_4.c **** 	{
 611              		.loc 1 268 4 is_stmt 0 view .LVU206
 612 0000 0028     		cmp	r0, #0
 613 0002 34D0     		beq	.L48
 264:STM32F769/Middlewares/Third_Party/FreeRTOS/Source/portable/MemMang/heap_4.c **** uint8_t *puc = ( uint8_t * ) pv;
 614              		.loc 1 264 1 view .LVU207
 615 0004 38B5     		push	{r3, r4, r5, lr}
 616              	.LCFI4:
 617              		.cfi_def_cfa_offset 16
 618              		.cfi_offset 3, -16
 619              		.cfi_offset 4, -12
 620              		.cfi_offset 5, -8
 621              		.cfi_offset 14, -4
ARM GAS  /tmp/ccXXkp3U.s 			page 25


 622 0006 0446     		mov	r4, r0
 272:STM32F769/Middlewares/Third_Party/FreeRTOS/Source/portable/MemMang/heap_4.c **** 
 623              		.loc 1 272 3 is_stmt 1 view .LVU208
 272:STM32F769/Middlewares/Third_Party/FreeRTOS/Source/portable/MemMang/heap_4.c **** 
 624              		.loc 1 272 7 is_stmt 0 view .LVU209
 625 0008 A0F10805 		sub	r5, r0, #8
 626              	.LVL50:
 275:STM32F769/Middlewares/Third_Party/FreeRTOS/Source/portable/MemMang/heap_4.c **** 
 627              		.loc 1 275 3 is_stmt 1 view .LVU210
 278:STM32F769/Middlewares/Third_Party/FreeRTOS/Source/portable/MemMang/heap_4.c **** 		configASSERT( pxLink->pxNextFreeBlock == NULL );
 628              		.loc 1 278 3 view .LVU211
 629 000c 50F8042C 		ldr	r2, [r0, #-4]
 630 0010 1749     		ldr	r1, .L51
 631 0012 0968     		ldr	r1, [r1]
 632 0014 0A42     		tst	r2, r1
 633 0016 0AD1     		bne	.L43
 278:STM32F769/Middlewares/Third_Party/FreeRTOS/Source/portable/MemMang/heap_4.c **** 		configASSERT( pxLink->pxNextFreeBlock == NULL );
 634              		.loc 1 278 3 view .LVU212
 635              	.LBB18:
 636              	.LBI18:
 191:STM32F769/Middlewares/Third_Party/FreeRTOS/Source/portable/GCC/ARM_CM7/r0p1/portmacro.h **** {
 637              		.loc 2 191 30 view .LVU213
 638              	.LBB19:
 193:STM32F769/Middlewares/Third_Party/FreeRTOS/Source/portable/GCC/ARM_CM7/r0p1/portmacro.h **** 
 639              		.loc 2 193 1 view .LVU214
 640              		.loc 2 195 2 view .LVU215
 641              		.syntax unified
 642              	@ 195 "STM32F769/Middlewares/Third_Party/FreeRTOS/Source/portable/GCC/ARM_CM7/r0p1/portmacro.h" 1
 643 0018 4FF05003 			mov r3, #80												
 644 001c 72B6     		cpsid i													
 645 001e 83F31188 		msr basepri, r3											
 646 0022 BFF36F8F 		isb														
 647 0026 BFF34F8F 		dsb														
 648 002a 62B6     		cpsie i													
 649              	
 650              	@ 0 "" 2
 651              	.LVL51:
 652              		.thumb
 653              		.syntax unified
 654              	.L44:
 655              		.loc 2 195 2 is_stmt 0 view .LVU216
 656              	.LBE19:
 657              	.LBE18:
 278:STM32F769/Middlewares/Third_Party/FreeRTOS/Source/portable/MemMang/heap_4.c **** 		configASSERT( pxLink->pxNextFreeBlock == NULL );
 658              		.loc 1 278 3 is_stmt 1 discriminator 1 view .LVU217
 278:STM32F769/Middlewares/Third_Party/FreeRTOS/Source/portable/MemMang/heap_4.c **** 		configASSERT( pxLink->pxNextFreeBlock == NULL );
 659              		.loc 1 278 3 discriminator 1 view .LVU218
 660 002c FEE7     		b	.L44
 661              	.L43:
 278:STM32F769/Middlewares/Third_Party/FreeRTOS/Source/portable/MemMang/heap_4.c **** 		configASSERT( pxLink->pxNextFreeBlock == NULL );
 662              		.loc 1 278 67 discriminator 2 view .LVU219
 279:STM32F769/Middlewares/Third_Party/FreeRTOS/Source/portable/MemMang/heap_4.c **** 
 663              		.loc 1 279 3 discriminator 2 view .LVU220
 664 002e 50F8080C 		ldr	r0, [r0, #-8]
 665              	.LVL52:
 279:STM32F769/Middlewares/Third_Party/FreeRTOS/Source/portable/MemMang/heap_4.c **** 
 666              		.loc 1 279 3 is_stmt 0 discriminator 2 view .LVU221
ARM GAS  /tmp/ccXXkp3U.s 			page 26


 667 0032 50B1     		cbz	r0, .L45
 279:STM32F769/Middlewares/Third_Party/FreeRTOS/Source/portable/MemMang/heap_4.c **** 
 668              		.loc 1 279 3 is_stmt 1 view .LVU222
 669              	.LBB20:
 670              	.LBI20:
 191:STM32F769/Middlewares/Third_Party/FreeRTOS/Source/portable/GCC/ARM_CM7/r0p1/portmacro.h **** {
 671              		.loc 2 191 30 view .LVU223
 672              	.LBB21:
 193:STM32F769/Middlewares/Third_Party/FreeRTOS/Source/portable/GCC/ARM_CM7/r0p1/portmacro.h **** 
 673              		.loc 2 193 1 view .LVU224
 674              		.loc 2 195 2 view .LVU225
 675              		.syntax unified
 676              	@ 195 "STM32F769/Middlewares/Third_Party/FreeRTOS/Source/portable/GCC/ARM_CM7/r0p1/portmacro.h" 1
 677 0034 4FF05003 			mov r3, #80												
 678 0038 72B6     		cpsid i													
 679 003a 83F31188 		msr basepri, r3											
 680 003e BFF36F8F 		isb														
 681 0042 BFF34F8F 		dsb														
 682 0046 62B6     		cpsie i													
 683              	
 684              	@ 0 "" 2
 685              	.LVL53:
 686              		.thumb
 687              		.syntax unified
 688              	.L46:
 689              		.loc 2 195 2 is_stmt 0 view .LVU226
 690              	.LBE21:
 691              	.LBE20:
 279:STM32F769/Middlewares/Third_Party/FreeRTOS/Source/portable/MemMang/heap_4.c **** 
 692              		.loc 1 279 3 is_stmt 1 discriminator 2 view .LVU227
 279:STM32F769/Middlewares/Third_Party/FreeRTOS/Source/portable/MemMang/heap_4.c **** 
 693              		.loc 1 279 3 discriminator 2 view .LVU228
 694 0048 FEE7     		b	.L46
 695              	.L45:
 279:STM32F769/Middlewares/Third_Party/FreeRTOS/Source/portable/MemMang/heap_4.c **** 
 696              		.loc 1 279 50 view .LVU229
 281:STM32F769/Middlewares/Third_Party/FreeRTOS/Source/portable/MemMang/heap_4.c **** 		{
 697              		.loc 1 281 3 view .LVU230
 283:STM32F769/Middlewares/Third_Party/FreeRTOS/Source/portable/MemMang/heap_4.c **** 			{
 698              		.loc 1 283 4 view .LVU231
 287:STM32F769/Middlewares/Third_Party/FreeRTOS/Source/portable/MemMang/heap_4.c **** 
 699              		.loc 1 287 5 view .LVU232
 287:STM32F769/Middlewares/Third_Party/FreeRTOS/Source/portable/MemMang/heap_4.c **** 
 700              		.loc 1 287 24 is_stmt 0 view .LVU233
 701 004a 22EA0102 		bic	r2, r2, r1
 702 004e 44F8042C 		str	r2, [r4, #-4]
 289:STM32F769/Middlewares/Third_Party/FreeRTOS/Source/portable/MemMang/heap_4.c **** 				{
 703              		.loc 1 289 5 is_stmt 1 view .LVU234
 704 0052 FFF7FEFF 		bl	vTaskSuspendAll
 705              	.LVL54:
 292:STM32F769/Middlewares/Third_Party/FreeRTOS/Source/portable/MemMang/heap_4.c **** 					traceFREE( pv, pxLink->xBlockSize );
 706              		.loc 1 292 6 view .LVU235
 292:STM32F769/Middlewares/Third_Party/FreeRTOS/Source/portable/MemMang/heap_4.c **** 					traceFREE( pv, pxLink->xBlockSize );
 707              		.loc 1 292 35 is_stmt 0 view .LVU236
 708 0056 54F8041C 		ldr	r1, [r4, #-4]
 292:STM32F769/Middlewares/Third_Party/FreeRTOS/Source/portable/MemMang/heap_4.c **** 					traceFREE( pv, pxLink->xBlockSize );
 709              		.loc 1 292 26 view .LVU237
ARM GAS  /tmp/ccXXkp3U.s 			page 27


 710 005a 064A     		ldr	r2, .L51+4
 711 005c 1368     		ldr	r3, [r2]
 712 005e 0B44     		add	r3, r3, r1
 713 0060 1360     		str	r3, [r2]
 293:STM32F769/Middlewares/Third_Party/FreeRTOS/Source/portable/MemMang/heap_4.c **** 					prvInsertBlockIntoFreeList( ( ( BlockLink_t * ) pxLink ) );
 714              		.loc 1 293 41 is_stmt 1 view .LVU238
 294:STM32F769/Middlewares/Third_Party/FreeRTOS/Source/portable/MemMang/heap_4.c **** 				}
 715              		.loc 1 294 6 view .LVU239
 716 0062 2846     		mov	r0, r5
 717 0064 FFF7FEFF 		bl	prvInsertBlockIntoFreeList
 718              	.LVL55:
 296:STM32F769/Middlewares/Third_Party/FreeRTOS/Source/portable/MemMang/heap_4.c **** 			}
 719              		.loc 1 296 5 view .LVU240
 296:STM32F769/Middlewares/Third_Party/FreeRTOS/Source/portable/MemMang/heap_4.c **** 			}
 720              		.loc 1 296 14 is_stmt 0 view .LVU241
 721 0068 FFF7FEFF 		bl	xTaskResumeAll
 722              	.LVL56:
 305:STM32F769/Middlewares/Third_Party/FreeRTOS/Source/portable/MemMang/heap_4.c **** 		}
 723              		.loc 1 305 28 is_stmt 1 view .LVU242
 308:STM32F769/Middlewares/Third_Party/FreeRTOS/Source/portable/MemMang/heap_4.c **** /*-----------------------------------------------------------*/
 724              		.loc 1 308 1 is_stmt 0 view .LVU243
 725 006c 38BD     		pop	{r3, r4, r5, pc}
 726              	.LVL57:
 727              	.L48:
 728              	.LCFI5:
 729              		.cfi_def_cfa_offset 0
 730              		.cfi_restore 3
 731              		.cfi_restore 4
 732              		.cfi_restore 5
 733              		.cfi_restore 14
 308:STM32F769/Middlewares/Third_Party/FreeRTOS/Source/portable/MemMang/heap_4.c **** /*-----------------------------------------------------------*/
 734              		.loc 1 308 1 view .LVU244
 735 006e 7047     		bx	lr
 736              	.L52:
 737              		.align	2
 738              	.L51:
 739 0070 00000000 		.word	.LANCHOR4
 740 0074 00000000 		.word	.LANCHOR3
 741              		.cfi_endproc
 742              	.LFE5:
 744              		.section	.text.xPortGetFreeHeapSize,"ax",%progbits
 745              		.align	1
 746              		.global	xPortGetFreeHeapSize
 747              		.syntax unified
 748              		.thumb
 749              		.thumb_func
 750              		.fpu fpv5-d16
 752              	xPortGetFreeHeapSize:
 753              	.LFB6:
 312:STM32F769/Middlewares/Third_Party/FreeRTOS/Source/portable/MemMang/heap_4.c **** 	return xFreeBytesRemaining;
 754              		.loc 1 312 1 is_stmt 1 view -0
 755              		.cfi_startproc
 756              		@ args = 0, pretend = 0, frame = 0
 757              		@ frame_needed = 0, uses_anonymous_args = 0
 758              		@ link register save eliminated.
 313:STM32F769/Middlewares/Third_Party/FreeRTOS/Source/portable/MemMang/heap_4.c **** }
 759              		.loc 1 313 2 view .LVU246
ARM GAS  /tmp/ccXXkp3U.s 			page 28


 314:STM32F769/Middlewares/Third_Party/FreeRTOS/Source/portable/MemMang/heap_4.c **** /*-----------------------------------------------------------*/
 760              		.loc 1 314 1 is_stmt 0 view .LVU247
 761 0000 014B     		ldr	r3, .L54
 762 0002 1868     		ldr	r0, [r3]
 763 0004 7047     		bx	lr
 764              	.L55:
 765 0006 00BF     		.align	2
 766              	.L54:
 767 0008 00000000 		.word	.LANCHOR3
 768              		.cfi_endproc
 769              	.LFE6:
 771              		.section	.text.xPortGetMinimumEverFreeHeapSize,"ax",%progbits
 772              		.align	1
 773              		.global	xPortGetMinimumEverFreeHeapSize
 774              		.syntax unified
 775              		.thumb
 776              		.thumb_func
 777              		.fpu fpv5-d16
 779              	xPortGetMinimumEverFreeHeapSize:
 780              	.LFB7:
 318:STM32F769/Middlewares/Third_Party/FreeRTOS/Source/portable/MemMang/heap_4.c **** 	return xMinimumEverFreeBytesRemaining;
 781              		.loc 1 318 1 is_stmt 1 view -0
 782              		.cfi_startproc
 783              		@ args = 0, pretend = 0, frame = 0
 784              		@ frame_needed = 0, uses_anonymous_args = 0
 785              		@ link register save eliminated.
 319:STM32F769/Middlewares/Third_Party/FreeRTOS/Source/portable/MemMang/heap_4.c **** }
 786              		.loc 1 319 2 view .LVU249
 320:STM32F769/Middlewares/Third_Party/FreeRTOS/Source/portable/MemMang/heap_4.c **** /*-----------------------------------------------------------*/
 787              		.loc 1 320 1 is_stmt 0 view .LVU250
 788 0000 014B     		ldr	r3, .L57
 789 0002 1868     		ldr	r0, [r3]
 790 0004 7047     		bx	lr
 791              	.L58:
 792 0006 00BF     		.align	2
 793              	.L57:
 794 0008 00000000 		.word	.LANCHOR2
 795              		.cfi_endproc
 796              	.LFE7:
 798              		.section	.text.vPortInitialiseBlocks,"ax",%progbits
 799              		.align	1
 800              		.global	vPortInitialiseBlocks
 801              		.syntax unified
 802              		.thumb
 803              		.thumb_func
 804              		.fpu fpv5-d16
 806              	vPortInitialiseBlocks:
 807              	.LFB8:
 324:STM32F769/Middlewares/Third_Party/FreeRTOS/Source/portable/MemMang/heap_4.c **** 	/* This just exists to keep the linker quiet. */
 808              		.loc 1 324 1 is_stmt 1 view -0
 809              		.cfi_startproc
 810              		@ args = 0, pretend = 0, frame = 0
 811              		@ frame_needed = 0, uses_anonymous_args = 0
 812              		@ link register save eliminated.
 326:STM32F769/Middlewares/Third_Party/FreeRTOS/Source/portable/MemMang/heap_4.c **** /*-----------------------------------------------------------*/
 813              		.loc 1 326 1 view .LVU252
 814 0000 7047     		bx	lr
ARM GAS  /tmp/ccXXkp3U.s 			page 29


 815              		.cfi_endproc
 816              	.LFE8:
 818              		.section	.bss.pxEnd,"aw",%nobits
 819              		.align	2
 820              		.set	.LANCHOR1,. + 0
 823              	pxEnd:
 824 0000 00000000 		.space	4
 825              		.section	.bss.ucHeap,"aw",%nobits
 826              		.align	2
 829              	ucHeap:
 830 0000 00000000 		.space	15360
 830      00000000 
 830      00000000 
 830      00000000 
 830      00000000 
 831              		.section	.bss.xBlockAllocatedBit,"aw",%nobits
 832              		.align	2
 833              		.set	.LANCHOR4,. + 0
 836              	xBlockAllocatedBit:
 837 0000 00000000 		.space	4
 838              		.section	.bss.xFreeBytesRemaining,"aw",%nobits
 839              		.align	2
 840              		.set	.LANCHOR3,. + 0
 843              	xFreeBytesRemaining:
 844 0000 00000000 		.space	4
 845              		.section	.bss.xMinimumEverFreeBytesRemaining,"aw",%nobits
 846              		.align	2
 847              		.set	.LANCHOR2,. + 0
 850              	xMinimumEverFreeBytesRemaining:
 851 0000 00000000 		.space	4
 852              		.section	.bss.xStart,"aw",%nobits
 853              		.align	2
 854              		.set	.LANCHOR0,. + 0
 857              	xStart:
 858 0000 00000000 		.space	8
 858      00000000 
 859              		.text
 860              	.Letext0:
 861              		.file 3 "/home/kevin/ProgramInstalls/gcc-arm-none-eabi-8-2019-q3-update/lib/gcc/arm-none-eabi/8.3.
 862              		.file 4 "/home/kevin/ProgramInstalls/gcc-arm-none-eabi-8-2019-q3-update/arm-none-eabi/include/mach
 863              		.file 5 "/home/kevin/ProgramInstalls/gcc-arm-none-eabi-8-2019-q3-update/arm-none-eabi/include/sys/
 864              		.file 6 "/home/kevin/ProgramInstalls/gcc-arm-none-eabi-8-2019-q3-update/arm-none-eabi/include/sys/
 865              		.file 7 "/home/kevin/ProgramInstalls/gcc-arm-none-eabi-8-2019-q3-update/arm-none-eabi/include/sys/
 866              		.file 8 "/home/kevin/ProgramInstalls/gcc-arm-none-eabi-8-2019-q3-update/arm-none-eabi/include/stdl
 867              		.file 9 "/home/kevin/ProgramInstalls/gcc-arm-none-eabi-8-2019-q3-update/arm-none-eabi/include/sys/
 868              		.file 10 "Inc/FreeRTOSConfig.h"
 869              		.file 11 "STM32F769/Middlewares/Third_Party/FreeRTOS/Source/include/task.h"
ARM GAS  /tmp/ccXXkp3U.s 			page 30


DEFINED SYMBOLS
                            *ABS*:0000000000000000 heap_4.c
     /tmp/ccXXkp3U.s:17     .text.prvHeapInit:0000000000000000 $t
     /tmp/ccXXkp3U.s:24     .text.prvHeapInit:0000000000000000 prvHeapInit
     /tmp/ccXXkp3U.s:130    .text.prvHeapInit:000000000000004c $d
     /tmp/ccXXkp3U.s:829    .bss.ucHeap:0000000000000000 ucHeap
     /tmp/ccXXkp3U.s:140    .text.prvInsertBlockIntoFreeList:0000000000000000 $t
     /tmp/ccXXkp3U.s:146    .text.prvInsertBlockIntoFreeList:0000000000000000 prvInsertBlockIntoFreeList
     /tmp/ccXXkp3U.s:267    .text.prvInsertBlockIntoFreeList:0000000000000050 $d
     /tmp/ccXXkp3U.s:273    .text.pvPortMalloc:0000000000000000 $t
     /tmp/ccXXkp3U.s:280    .text.pvPortMalloc:0000000000000000 pvPortMalloc
     /tmp/ccXXkp3U.s:585    .text.pvPortMalloc:0000000000000100 $d
     /tmp/ccXXkp3U.s:594    .text.vPortFree:0000000000000000 $t
     /tmp/ccXXkp3U.s:601    .text.vPortFree:0000000000000000 vPortFree
     /tmp/ccXXkp3U.s:739    .text.vPortFree:0000000000000070 $d
     /tmp/ccXXkp3U.s:745    .text.xPortGetFreeHeapSize:0000000000000000 $t
     /tmp/ccXXkp3U.s:752    .text.xPortGetFreeHeapSize:0000000000000000 xPortGetFreeHeapSize
     /tmp/ccXXkp3U.s:767    .text.xPortGetFreeHeapSize:0000000000000008 $d
     /tmp/ccXXkp3U.s:772    .text.xPortGetMinimumEverFreeHeapSize:0000000000000000 $t
     /tmp/ccXXkp3U.s:779    .text.xPortGetMinimumEverFreeHeapSize:0000000000000000 xPortGetMinimumEverFreeHeapSize
     /tmp/ccXXkp3U.s:794    .text.xPortGetMinimumEverFreeHeapSize:0000000000000008 $d
     /tmp/ccXXkp3U.s:799    .text.vPortInitialiseBlocks:0000000000000000 $t
     /tmp/ccXXkp3U.s:806    .text.vPortInitialiseBlocks:0000000000000000 vPortInitialiseBlocks
     /tmp/ccXXkp3U.s:819    .bss.pxEnd:0000000000000000 $d
     /tmp/ccXXkp3U.s:823    .bss.pxEnd:0000000000000000 pxEnd
     /tmp/ccXXkp3U.s:826    .bss.ucHeap:0000000000000000 $d
     /tmp/ccXXkp3U.s:832    .bss.xBlockAllocatedBit:0000000000000000 $d
     /tmp/ccXXkp3U.s:836    .bss.xBlockAllocatedBit:0000000000000000 xBlockAllocatedBit
     /tmp/ccXXkp3U.s:839    .bss.xFreeBytesRemaining:0000000000000000 $d
     /tmp/ccXXkp3U.s:843    .bss.xFreeBytesRemaining:0000000000000000 xFreeBytesRemaining
     /tmp/ccXXkp3U.s:846    .bss.xMinimumEverFreeBytesRemaining:0000000000000000 $d
     /tmp/ccXXkp3U.s:850    .bss.xMinimumEverFreeBytesRemaining:0000000000000000 xMinimumEverFreeBytesRemaining
     /tmp/ccXXkp3U.s:853    .bss.xStart:0000000000000000 $d
     /tmp/ccXXkp3U.s:857    .bss.xStart:0000000000000000 xStart

UNDEFINED SYMBOLS
vTaskSuspendAll
xTaskResumeAll
