ARM GAS  /tmp/ccAupAkp.s 			page 1


   1              		.cpu cortex-m7
   2              		.eabi_attribute 28, 1
   3              		.eabi_attribute 20, 1
   4              		.eabi_attribute 21, 1
   5              		.eabi_attribute 23, 3
   6              		.eabi_attribute 24, 1
   7              		.eabi_attribute 25, 1
   8              		.eabi_attribute 26, 1
   9              		.eabi_attribute 30, 1
  10              		.eabi_attribute 34, 1
  11              		.eabi_attribute 18, 4
  12              		.file	"timers.c"
  13              		.text
  14              	.Ltext0:
  15              		.cfi_sections	.debug_frame
  16              		.section	.text.prvGetNextExpireTime,"ax",%progbits
  17              		.align	1
  18              		.arch armv7e-m
  19              		.syntax unified
  20              		.thumb
  21              		.thumb_func
  22              		.fpu fpv5-d16
  24              	prvGetNextExpireTime:
  25              	.LVL0:
  26              	.LFB16:
  27              		.file 1 "STM32F769/Middlewares/Third_Party/FreeRTOS/Source/timers.c"
   1:STM32F769/Middlewares/Third_Party/FreeRTOS/Source/timers.c **** /*
   2:STM32F769/Middlewares/Third_Party/FreeRTOS/Source/timers.c ****  * FreeRTOS Kernel V10.0.1
   3:STM32F769/Middlewares/Third_Party/FreeRTOS/Source/timers.c ****  * Copyright (C) 2017 Amazon.com, Inc. or its affiliates.  All Rights Reserved.
   4:STM32F769/Middlewares/Third_Party/FreeRTOS/Source/timers.c ****  *
   5:STM32F769/Middlewares/Third_Party/FreeRTOS/Source/timers.c ****  * Permission is hereby granted, free of charge, to any person obtaining a copy of
   6:STM32F769/Middlewares/Third_Party/FreeRTOS/Source/timers.c ****  * this software and associated documentation files (the "Software"), to deal in
   7:STM32F769/Middlewares/Third_Party/FreeRTOS/Source/timers.c ****  * the Software without restriction, including without limitation the rights to
   8:STM32F769/Middlewares/Third_Party/FreeRTOS/Source/timers.c ****  * use, copy, modify, merge, publish, distribute, sublicense, and/or sell copies of
   9:STM32F769/Middlewares/Third_Party/FreeRTOS/Source/timers.c ****  * the Software, and to permit persons to whom the Software is furnished to do so,
  10:STM32F769/Middlewares/Third_Party/FreeRTOS/Source/timers.c ****  * subject to the following conditions:
  11:STM32F769/Middlewares/Third_Party/FreeRTOS/Source/timers.c ****  *
  12:STM32F769/Middlewares/Third_Party/FreeRTOS/Source/timers.c ****  * The above copyright notice and this permission notice shall be included in all
  13:STM32F769/Middlewares/Third_Party/FreeRTOS/Source/timers.c ****  * copies or substantial portions of the Software.
  14:STM32F769/Middlewares/Third_Party/FreeRTOS/Source/timers.c ****  *
  15:STM32F769/Middlewares/Third_Party/FreeRTOS/Source/timers.c ****  * THE SOFTWARE IS PROVIDED "AS IS", WITHOUT WARRANTY OF ANY KIND, EXPRESS OR
  16:STM32F769/Middlewares/Third_Party/FreeRTOS/Source/timers.c ****  * IMPLIED, INCLUDING BUT NOT LIMITED TO THE WARRANTIES OF MERCHANTABILITY, FITNESS
  17:STM32F769/Middlewares/Third_Party/FreeRTOS/Source/timers.c ****  * FOR A PARTICULAR PURPOSE AND NONINFRINGEMENT. IN NO EVENT SHALL THE AUTHORS OR
  18:STM32F769/Middlewares/Third_Party/FreeRTOS/Source/timers.c ****  * COPYRIGHT HOLDERS BE LIABLE FOR ANY CLAIM, DAMAGES OR OTHER LIABILITY, WHETHER
  19:STM32F769/Middlewares/Third_Party/FreeRTOS/Source/timers.c ****  * IN AN ACTION OF CONTRACT, TORT OR OTHERWISE, ARISING FROM, OUT OF OR IN
  20:STM32F769/Middlewares/Third_Party/FreeRTOS/Source/timers.c ****  * CONNECTION WITH THE SOFTWARE OR THE USE OR OTHER DEALINGS IN THE SOFTWARE.
  21:STM32F769/Middlewares/Third_Party/FreeRTOS/Source/timers.c ****  *
  22:STM32F769/Middlewares/Third_Party/FreeRTOS/Source/timers.c ****  * http://www.FreeRTOS.org
  23:STM32F769/Middlewares/Third_Party/FreeRTOS/Source/timers.c ****  * http://aws.amazon.com/freertos
  24:STM32F769/Middlewares/Third_Party/FreeRTOS/Source/timers.c ****  *
  25:STM32F769/Middlewares/Third_Party/FreeRTOS/Source/timers.c ****  * 1 tab == 4 spaces!
  26:STM32F769/Middlewares/Third_Party/FreeRTOS/Source/timers.c ****  */
  27:STM32F769/Middlewares/Third_Party/FreeRTOS/Source/timers.c **** 
  28:STM32F769/Middlewares/Third_Party/FreeRTOS/Source/timers.c **** /* Standard includes. */
  29:STM32F769/Middlewares/Third_Party/FreeRTOS/Source/timers.c **** #include <stdlib.h>
  30:STM32F769/Middlewares/Third_Party/FreeRTOS/Source/timers.c **** 
  31:STM32F769/Middlewares/Third_Party/FreeRTOS/Source/timers.c **** /* Defining MPU_WRAPPERS_INCLUDED_FROM_API_FILE prevents task.h from redefining
ARM GAS  /tmp/ccAupAkp.s 			page 2


  32:STM32F769/Middlewares/Third_Party/FreeRTOS/Source/timers.c **** all the API functions to use the MPU wrappers.  That should only be done when
  33:STM32F769/Middlewares/Third_Party/FreeRTOS/Source/timers.c **** task.h is included from an application file. */
  34:STM32F769/Middlewares/Third_Party/FreeRTOS/Source/timers.c **** #define MPU_WRAPPERS_INCLUDED_FROM_API_FILE
  35:STM32F769/Middlewares/Third_Party/FreeRTOS/Source/timers.c **** 
  36:STM32F769/Middlewares/Third_Party/FreeRTOS/Source/timers.c **** #include "FreeRTOS.h"
  37:STM32F769/Middlewares/Third_Party/FreeRTOS/Source/timers.c **** #include "task.h"
  38:STM32F769/Middlewares/Third_Party/FreeRTOS/Source/timers.c **** #include "queue.h"
  39:STM32F769/Middlewares/Third_Party/FreeRTOS/Source/timers.c **** #include "timers.h"
  40:STM32F769/Middlewares/Third_Party/FreeRTOS/Source/timers.c **** 
  41:STM32F769/Middlewares/Third_Party/FreeRTOS/Source/timers.c **** #if ( INCLUDE_xTimerPendFunctionCall == 1 ) && ( configUSE_TIMERS == 0 )
  42:STM32F769/Middlewares/Third_Party/FreeRTOS/Source/timers.c **** 	#error configUSE_TIMERS must be set to 1 to make the xTimerPendFunctionCall() function available.
  43:STM32F769/Middlewares/Third_Party/FreeRTOS/Source/timers.c **** #endif
  44:STM32F769/Middlewares/Third_Party/FreeRTOS/Source/timers.c **** 
  45:STM32F769/Middlewares/Third_Party/FreeRTOS/Source/timers.c **** /* Lint e961 and e750 are suppressed as a MISRA exception justified because the
  46:STM32F769/Middlewares/Third_Party/FreeRTOS/Source/timers.c **** MPU ports require MPU_WRAPPERS_INCLUDED_FROM_API_FILE to be defined for the
  47:STM32F769/Middlewares/Third_Party/FreeRTOS/Source/timers.c **** header files above, but not in this file, in order to generate the correct
  48:STM32F769/Middlewares/Third_Party/FreeRTOS/Source/timers.c **** privileged Vs unprivileged linkage and placement. */
  49:STM32F769/Middlewares/Third_Party/FreeRTOS/Source/timers.c **** #undef MPU_WRAPPERS_INCLUDED_FROM_API_FILE /*lint !e961 !e750. */
  50:STM32F769/Middlewares/Third_Party/FreeRTOS/Source/timers.c **** 
  51:STM32F769/Middlewares/Third_Party/FreeRTOS/Source/timers.c **** 
  52:STM32F769/Middlewares/Third_Party/FreeRTOS/Source/timers.c **** /* This entire source file will be skipped if the application is not configured
  53:STM32F769/Middlewares/Third_Party/FreeRTOS/Source/timers.c **** to include software timer functionality.  This #if is closed at the very bottom
  54:STM32F769/Middlewares/Third_Party/FreeRTOS/Source/timers.c **** of this file.  If you want to include software timer functionality then ensure
  55:STM32F769/Middlewares/Third_Party/FreeRTOS/Source/timers.c **** configUSE_TIMERS is set to 1 in FreeRTOSConfig.h. */
  56:STM32F769/Middlewares/Third_Party/FreeRTOS/Source/timers.c **** #if ( configUSE_TIMERS == 1 )
  57:STM32F769/Middlewares/Third_Party/FreeRTOS/Source/timers.c **** 
  58:STM32F769/Middlewares/Third_Party/FreeRTOS/Source/timers.c **** /* Misc definitions. */
  59:STM32F769/Middlewares/Third_Party/FreeRTOS/Source/timers.c **** #define tmrNO_DELAY		( TickType_t ) 0U
  60:STM32F769/Middlewares/Third_Party/FreeRTOS/Source/timers.c **** 
  61:STM32F769/Middlewares/Third_Party/FreeRTOS/Source/timers.c **** /* The name assigned to the timer service task.  This can be overridden by
  62:STM32F769/Middlewares/Third_Party/FreeRTOS/Source/timers.c **** defining trmTIMER_SERVICE_TASK_NAME in FreeRTOSConfig.h. */
  63:STM32F769/Middlewares/Third_Party/FreeRTOS/Source/timers.c **** #ifndef configTIMER_SERVICE_TASK_NAME
  64:STM32F769/Middlewares/Third_Party/FreeRTOS/Source/timers.c **** 	#define configTIMER_SERVICE_TASK_NAME "Tmr Svc"
  65:STM32F769/Middlewares/Third_Party/FreeRTOS/Source/timers.c **** #endif
  66:STM32F769/Middlewares/Third_Party/FreeRTOS/Source/timers.c **** 
  67:STM32F769/Middlewares/Third_Party/FreeRTOS/Source/timers.c **** /* The definition of the timers themselves. */
  68:STM32F769/Middlewares/Third_Party/FreeRTOS/Source/timers.c **** typedef struct tmrTimerControl
  69:STM32F769/Middlewares/Third_Party/FreeRTOS/Source/timers.c **** {
  70:STM32F769/Middlewares/Third_Party/FreeRTOS/Source/timers.c **** 	const char				*pcTimerName;		/*<< Text name.  This is not used by the kernel, it is included simpl
  71:STM32F769/Middlewares/Third_Party/FreeRTOS/Source/timers.c **** 	ListItem_t				xTimerListItem;		/*<< Standard linked list item as used by all kernel features for e
  72:STM32F769/Middlewares/Third_Party/FreeRTOS/Source/timers.c **** 	TickType_t				xTimerPeriodInTicks;/*<< How quickly and often the timer expires. */
  73:STM32F769/Middlewares/Third_Party/FreeRTOS/Source/timers.c **** 	UBaseType_t				uxAutoReload;		/*<< Set to pdTRUE if the timer should be automatically restarted on
  74:STM32F769/Middlewares/Third_Party/FreeRTOS/Source/timers.c **** 	void 					*pvTimerID;			/*<< An ID to identify the timer.  This allows the timer to be identified 
  75:STM32F769/Middlewares/Third_Party/FreeRTOS/Source/timers.c **** 	TimerCallbackFunction_t	pxCallbackFunction;	/*<< The function that will be called when the timer e
  76:STM32F769/Middlewares/Third_Party/FreeRTOS/Source/timers.c **** 	#if( configUSE_TRACE_FACILITY == 1 )
  77:STM32F769/Middlewares/Third_Party/FreeRTOS/Source/timers.c **** 		UBaseType_t			uxTimerNumber;		/*<< An ID assigned by trace tools such as FreeRTOS+Trace */
  78:STM32F769/Middlewares/Third_Party/FreeRTOS/Source/timers.c **** 	#endif
  79:STM32F769/Middlewares/Third_Party/FreeRTOS/Source/timers.c **** 
  80:STM32F769/Middlewares/Third_Party/FreeRTOS/Source/timers.c **** 	#if( ( configSUPPORT_STATIC_ALLOCATION == 1 ) && ( configSUPPORT_DYNAMIC_ALLOCATION == 1 ) )
  81:STM32F769/Middlewares/Third_Party/FreeRTOS/Source/timers.c **** 		uint8_t 			ucStaticallyAllocated; /*<< Set to pdTRUE if the timer was created statically so no at
  82:STM32F769/Middlewares/Third_Party/FreeRTOS/Source/timers.c **** 	#endif
  83:STM32F769/Middlewares/Third_Party/FreeRTOS/Source/timers.c **** } xTIMER;
  84:STM32F769/Middlewares/Third_Party/FreeRTOS/Source/timers.c **** 
  85:STM32F769/Middlewares/Third_Party/FreeRTOS/Source/timers.c **** /* The old xTIMER name is maintained above then typedefed to the new Timer_t
  86:STM32F769/Middlewares/Third_Party/FreeRTOS/Source/timers.c **** name below to enable the use of older kernel aware debuggers. */
  87:STM32F769/Middlewares/Third_Party/FreeRTOS/Source/timers.c **** typedef xTIMER Timer_t;
  88:STM32F769/Middlewares/Third_Party/FreeRTOS/Source/timers.c **** 
ARM GAS  /tmp/ccAupAkp.s 			page 3


  89:STM32F769/Middlewares/Third_Party/FreeRTOS/Source/timers.c **** /* The definition of messages that can be sent and received on the timer queue.
  90:STM32F769/Middlewares/Third_Party/FreeRTOS/Source/timers.c **** Two types of message can be queued - messages that manipulate a software timer,
  91:STM32F769/Middlewares/Third_Party/FreeRTOS/Source/timers.c **** and messages that request the execution of a non-timer related callback.  The
  92:STM32F769/Middlewares/Third_Party/FreeRTOS/Source/timers.c **** two message types are defined in two separate structures, xTimerParametersType
  93:STM32F769/Middlewares/Third_Party/FreeRTOS/Source/timers.c **** and xCallbackParametersType respectively. */
  94:STM32F769/Middlewares/Third_Party/FreeRTOS/Source/timers.c **** typedef struct tmrTimerParameters
  95:STM32F769/Middlewares/Third_Party/FreeRTOS/Source/timers.c **** {
  96:STM32F769/Middlewares/Third_Party/FreeRTOS/Source/timers.c **** 	TickType_t			xMessageValue;		/*<< An optional value used by a subset of commands, for example, whe
  97:STM32F769/Middlewares/Third_Party/FreeRTOS/Source/timers.c **** 	Timer_t *			pxTimer;			/*<< The timer to which the command will be applied. */
  98:STM32F769/Middlewares/Third_Party/FreeRTOS/Source/timers.c **** } TimerParameter_t;
  99:STM32F769/Middlewares/Third_Party/FreeRTOS/Source/timers.c **** 
 100:STM32F769/Middlewares/Third_Party/FreeRTOS/Source/timers.c **** 
 101:STM32F769/Middlewares/Third_Party/FreeRTOS/Source/timers.c **** typedef struct tmrCallbackParameters
 102:STM32F769/Middlewares/Third_Party/FreeRTOS/Source/timers.c **** {
 103:STM32F769/Middlewares/Third_Party/FreeRTOS/Source/timers.c **** 	PendedFunction_t	pxCallbackFunction;	/* << The callback function to execute. */
 104:STM32F769/Middlewares/Third_Party/FreeRTOS/Source/timers.c **** 	void *pvParameter1;						/* << The value that will be used as the callback functions first paramet
 105:STM32F769/Middlewares/Third_Party/FreeRTOS/Source/timers.c **** 	uint32_t ulParameter2;					/* << The value that will be used as the callback functions second para
 106:STM32F769/Middlewares/Third_Party/FreeRTOS/Source/timers.c **** } CallbackParameters_t;
 107:STM32F769/Middlewares/Third_Party/FreeRTOS/Source/timers.c **** 
 108:STM32F769/Middlewares/Third_Party/FreeRTOS/Source/timers.c **** /* The structure that contains the two message types, along with an identifier
 109:STM32F769/Middlewares/Third_Party/FreeRTOS/Source/timers.c **** that is used to determine which message type is valid. */
 110:STM32F769/Middlewares/Third_Party/FreeRTOS/Source/timers.c **** typedef struct tmrTimerQueueMessage
 111:STM32F769/Middlewares/Third_Party/FreeRTOS/Source/timers.c **** {
 112:STM32F769/Middlewares/Third_Party/FreeRTOS/Source/timers.c **** 	BaseType_t			xMessageID;			/*<< The command being sent to the timer service task. */
 113:STM32F769/Middlewares/Third_Party/FreeRTOS/Source/timers.c **** 	union
 114:STM32F769/Middlewares/Third_Party/FreeRTOS/Source/timers.c **** 	{
 115:STM32F769/Middlewares/Third_Party/FreeRTOS/Source/timers.c **** 		TimerParameter_t xTimerParameters;
 116:STM32F769/Middlewares/Third_Party/FreeRTOS/Source/timers.c **** 
 117:STM32F769/Middlewares/Third_Party/FreeRTOS/Source/timers.c **** 		/* Don't include xCallbackParameters if it is not going to be used as
 118:STM32F769/Middlewares/Third_Party/FreeRTOS/Source/timers.c **** 		it makes the structure (and therefore the timer queue) larger. */
 119:STM32F769/Middlewares/Third_Party/FreeRTOS/Source/timers.c **** 		#if ( INCLUDE_xTimerPendFunctionCall == 1 )
 120:STM32F769/Middlewares/Third_Party/FreeRTOS/Source/timers.c **** 			CallbackParameters_t xCallbackParameters;
 121:STM32F769/Middlewares/Third_Party/FreeRTOS/Source/timers.c **** 		#endif /* INCLUDE_xTimerPendFunctionCall */
 122:STM32F769/Middlewares/Third_Party/FreeRTOS/Source/timers.c **** 	} u;
 123:STM32F769/Middlewares/Third_Party/FreeRTOS/Source/timers.c **** } DaemonTaskMessage_t;
 124:STM32F769/Middlewares/Third_Party/FreeRTOS/Source/timers.c **** 
 125:STM32F769/Middlewares/Third_Party/FreeRTOS/Source/timers.c **** /*lint -save -e956 A manual analysis and inspection has been used to determine
 126:STM32F769/Middlewares/Third_Party/FreeRTOS/Source/timers.c **** which static variables must be declared volatile. */
 127:STM32F769/Middlewares/Third_Party/FreeRTOS/Source/timers.c **** 
 128:STM32F769/Middlewares/Third_Party/FreeRTOS/Source/timers.c **** /* The list in which active timers are stored.  Timers are referenced in expire
 129:STM32F769/Middlewares/Third_Party/FreeRTOS/Source/timers.c **** time order, with the nearest expiry time at the front of the list.  Only the
 130:STM32F769/Middlewares/Third_Party/FreeRTOS/Source/timers.c **** timer service task is allowed to access these lists. */
 131:STM32F769/Middlewares/Third_Party/FreeRTOS/Source/timers.c **** PRIVILEGED_DATA static List_t xActiveTimerList1 = {0};
 132:STM32F769/Middlewares/Third_Party/FreeRTOS/Source/timers.c **** PRIVILEGED_DATA static List_t xActiveTimerList2 = {0};
 133:STM32F769/Middlewares/Third_Party/FreeRTOS/Source/timers.c **** PRIVILEGED_DATA static List_t *pxCurrentTimerList = NULL;
 134:STM32F769/Middlewares/Third_Party/FreeRTOS/Source/timers.c **** PRIVILEGED_DATA static List_t *pxOverflowTimerList = NULL;
 135:STM32F769/Middlewares/Third_Party/FreeRTOS/Source/timers.c **** 
 136:STM32F769/Middlewares/Third_Party/FreeRTOS/Source/timers.c **** /* A queue that is used to send commands to the timer service task. */
 137:STM32F769/Middlewares/Third_Party/FreeRTOS/Source/timers.c **** PRIVILEGED_DATA static QueueHandle_t xTimerQueue = NULL;
 138:STM32F769/Middlewares/Third_Party/FreeRTOS/Source/timers.c **** PRIVILEGED_DATA static TaskHandle_t xTimerTaskHandle = NULL;
 139:STM32F769/Middlewares/Third_Party/FreeRTOS/Source/timers.c **** 
 140:STM32F769/Middlewares/Third_Party/FreeRTOS/Source/timers.c **** /*lint -restore */
 141:STM32F769/Middlewares/Third_Party/FreeRTOS/Source/timers.c **** 
 142:STM32F769/Middlewares/Third_Party/FreeRTOS/Source/timers.c **** /*-----------------------------------------------------------*/
 143:STM32F769/Middlewares/Third_Party/FreeRTOS/Source/timers.c **** 
 144:STM32F769/Middlewares/Third_Party/FreeRTOS/Source/timers.c **** #if( configSUPPORT_STATIC_ALLOCATION == 1 )
 145:STM32F769/Middlewares/Third_Party/FreeRTOS/Source/timers.c **** 
ARM GAS  /tmp/ccAupAkp.s 			page 4


 146:STM32F769/Middlewares/Third_Party/FreeRTOS/Source/timers.c **** 	/* If static allocation is supported then the application must provide the
 147:STM32F769/Middlewares/Third_Party/FreeRTOS/Source/timers.c **** 	following callback function - which enables the application to optionally
 148:STM32F769/Middlewares/Third_Party/FreeRTOS/Source/timers.c **** 	provide the memory that will be used by the timer task as the task's stack
 149:STM32F769/Middlewares/Third_Party/FreeRTOS/Source/timers.c **** 	and TCB. */
 150:STM32F769/Middlewares/Third_Party/FreeRTOS/Source/timers.c **** 	extern void vApplicationGetTimerTaskMemory( StaticTask_t **ppxTimerTaskTCBBuffer, StackType_t **pp
 151:STM32F769/Middlewares/Third_Party/FreeRTOS/Source/timers.c **** 
 152:STM32F769/Middlewares/Third_Party/FreeRTOS/Source/timers.c **** #endif
 153:STM32F769/Middlewares/Third_Party/FreeRTOS/Source/timers.c **** 
 154:STM32F769/Middlewares/Third_Party/FreeRTOS/Source/timers.c **** /*
 155:STM32F769/Middlewares/Third_Party/FreeRTOS/Source/timers.c ****  * Initialise the infrastructure used by the timer service task if it has not
 156:STM32F769/Middlewares/Third_Party/FreeRTOS/Source/timers.c ****  * been initialised already.
 157:STM32F769/Middlewares/Third_Party/FreeRTOS/Source/timers.c ****  */
 158:STM32F769/Middlewares/Third_Party/FreeRTOS/Source/timers.c **** static void prvCheckForValidListAndQueue( void ) PRIVILEGED_FUNCTION;
 159:STM32F769/Middlewares/Third_Party/FreeRTOS/Source/timers.c **** 
 160:STM32F769/Middlewares/Third_Party/FreeRTOS/Source/timers.c **** /*
 161:STM32F769/Middlewares/Third_Party/FreeRTOS/Source/timers.c ****  * The timer service task (daemon).  Timer functionality is controlled by this
 162:STM32F769/Middlewares/Third_Party/FreeRTOS/Source/timers.c ****  * task.  Other tasks communicate with the timer service task using the
 163:STM32F769/Middlewares/Third_Party/FreeRTOS/Source/timers.c ****  * xTimerQueue queue.
 164:STM32F769/Middlewares/Third_Party/FreeRTOS/Source/timers.c ****  */
 165:STM32F769/Middlewares/Third_Party/FreeRTOS/Source/timers.c **** static void prvTimerTask( void *pvParameters ) PRIVILEGED_FUNCTION;
 166:STM32F769/Middlewares/Third_Party/FreeRTOS/Source/timers.c **** 
 167:STM32F769/Middlewares/Third_Party/FreeRTOS/Source/timers.c **** /*
 168:STM32F769/Middlewares/Third_Party/FreeRTOS/Source/timers.c ****  * Called by the timer service task to interpret and process a command it
 169:STM32F769/Middlewares/Third_Party/FreeRTOS/Source/timers.c ****  * received on the timer queue.
 170:STM32F769/Middlewares/Third_Party/FreeRTOS/Source/timers.c ****  */
 171:STM32F769/Middlewares/Third_Party/FreeRTOS/Source/timers.c **** static void prvProcessReceivedCommands( void ) PRIVILEGED_FUNCTION;
 172:STM32F769/Middlewares/Third_Party/FreeRTOS/Source/timers.c **** 
 173:STM32F769/Middlewares/Third_Party/FreeRTOS/Source/timers.c **** /*
 174:STM32F769/Middlewares/Third_Party/FreeRTOS/Source/timers.c ****  * Insert the timer into either xActiveTimerList1, or xActiveTimerList2,
 175:STM32F769/Middlewares/Third_Party/FreeRTOS/Source/timers.c ****  * depending on if the expire time causes a timer counter overflow.
 176:STM32F769/Middlewares/Third_Party/FreeRTOS/Source/timers.c ****  */
 177:STM32F769/Middlewares/Third_Party/FreeRTOS/Source/timers.c **** static BaseType_t prvInsertTimerInActiveList( Timer_t * const pxTimer, const TickType_t xNextExpiry
 178:STM32F769/Middlewares/Third_Party/FreeRTOS/Source/timers.c **** 
 179:STM32F769/Middlewares/Third_Party/FreeRTOS/Source/timers.c **** /*
 180:STM32F769/Middlewares/Third_Party/FreeRTOS/Source/timers.c ****  * An active timer has reached its expire time.  Reload the timer if it is an
 181:STM32F769/Middlewares/Third_Party/FreeRTOS/Source/timers.c ****  * auto reload timer, then call its callback.
 182:STM32F769/Middlewares/Third_Party/FreeRTOS/Source/timers.c ****  */
 183:STM32F769/Middlewares/Third_Party/FreeRTOS/Source/timers.c **** static void prvProcessExpiredTimer( const TickType_t xNextExpireTime, const TickType_t xTimeNow ) P
 184:STM32F769/Middlewares/Third_Party/FreeRTOS/Source/timers.c **** 
 185:STM32F769/Middlewares/Third_Party/FreeRTOS/Source/timers.c **** /*
 186:STM32F769/Middlewares/Third_Party/FreeRTOS/Source/timers.c ****  * The tick count has overflowed.  Switch the timer lists after ensuring the
 187:STM32F769/Middlewares/Third_Party/FreeRTOS/Source/timers.c ****  * current timer list does not still reference some timers.
 188:STM32F769/Middlewares/Third_Party/FreeRTOS/Source/timers.c ****  */
 189:STM32F769/Middlewares/Third_Party/FreeRTOS/Source/timers.c **** static void prvSwitchTimerLists( void ) PRIVILEGED_FUNCTION;
 190:STM32F769/Middlewares/Third_Party/FreeRTOS/Source/timers.c **** 
 191:STM32F769/Middlewares/Third_Party/FreeRTOS/Source/timers.c **** /*
 192:STM32F769/Middlewares/Third_Party/FreeRTOS/Source/timers.c ****  * Obtain the current tick count, setting *pxTimerListsWereSwitched to pdTRUE
 193:STM32F769/Middlewares/Third_Party/FreeRTOS/Source/timers.c ****  * if a tick count overflow occurred since prvSampleTimeNow() was last called.
 194:STM32F769/Middlewares/Third_Party/FreeRTOS/Source/timers.c ****  */
 195:STM32F769/Middlewares/Third_Party/FreeRTOS/Source/timers.c **** static TickType_t prvSampleTimeNow( BaseType_t * const pxTimerListsWereSwitched ) PRIVILEGED_FUNCTI
 196:STM32F769/Middlewares/Third_Party/FreeRTOS/Source/timers.c **** 
 197:STM32F769/Middlewares/Third_Party/FreeRTOS/Source/timers.c **** /*
 198:STM32F769/Middlewares/Third_Party/FreeRTOS/Source/timers.c ****  * If the timer list contains any active timers then return the expire time of
 199:STM32F769/Middlewares/Third_Party/FreeRTOS/Source/timers.c ****  * the timer that will expire first and set *pxListWasEmpty to false.  If the
 200:STM32F769/Middlewares/Third_Party/FreeRTOS/Source/timers.c ****  * timer list does not contain any timers then return 0 and set *pxListWasEmpty
 201:STM32F769/Middlewares/Third_Party/FreeRTOS/Source/timers.c ****  * to pdTRUE.
 202:STM32F769/Middlewares/Third_Party/FreeRTOS/Source/timers.c ****  */
ARM GAS  /tmp/ccAupAkp.s 			page 5


 203:STM32F769/Middlewares/Third_Party/FreeRTOS/Source/timers.c **** static TickType_t prvGetNextExpireTime( BaseType_t * const pxListWasEmpty ) PRIVILEGED_FUNCTION;
 204:STM32F769/Middlewares/Third_Party/FreeRTOS/Source/timers.c **** 
 205:STM32F769/Middlewares/Third_Party/FreeRTOS/Source/timers.c **** /*
 206:STM32F769/Middlewares/Third_Party/FreeRTOS/Source/timers.c ****  * If a timer has expired, process it.  Otherwise, block the timer service task
 207:STM32F769/Middlewares/Third_Party/FreeRTOS/Source/timers.c ****  * until either a timer does expire or a command is received.
 208:STM32F769/Middlewares/Third_Party/FreeRTOS/Source/timers.c ****  */
 209:STM32F769/Middlewares/Third_Party/FreeRTOS/Source/timers.c **** static void prvProcessTimerOrBlockTask( const TickType_t xNextExpireTime, BaseType_t xListWasEmpty 
 210:STM32F769/Middlewares/Third_Party/FreeRTOS/Source/timers.c **** 
 211:STM32F769/Middlewares/Third_Party/FreeRTOS/Source/timers.c **** /*
 212:STM32F769/Middlewares/Third_Party/FreeRTOS/Source/timers.c ****  * Called after a Timer_t structure has been allocated either statically or
 213:STM32F769/Middlewares/Third_Party/FreeRTOS/Source/timers.c ****  * dynamically to fill in the structure's members.
 214:STM32F769/Middlewares/Third_Party/FreeRTOS/Source/timers.c ****  */
 215:STM32F769/Middlewares/Third_Party/FreeRTOS/Source/timers.c **** static void prvInitialiseNewTimer(	const char * const pcTimerName,			/*lint !e971 Unqualified char 
 216:STM32F769/Middlewares/Third_Party/FreeRTOS/Source/timers.c **** 									const TickType_t xTimerPeriodInTicks,
 217:STM32F769/Middlewares/Third_Party/FreeRTOS/Source/timers.c **** 									const UBaseType_t uxAutoReload,
 218:STM32F769/Middlewares/Third_Party/FreeRTOS/Source/timers.c **** 									void * const pvTimerID,
 219:STM32F769/Middlewares/Third_Party/FreeRTOS/Source/timers.c **** 									TimerCallbackFunction_t pxCallbackFunction,
 220:STM32F769/Middlewares/Third_Party/FreeRTOS/Source/timers.c **** 									Timer_t *pxNewTimer ) PRIVILEGED_FUNCTION;
 221:STM32F769/Middlewares/Third_Party/FreeRTOS/Source/timers.c **** /*-----------------------------------------------------------*/
 222:STM32F769/Middlewares/Third_Party/FreeRTOS/Source/timers.c **** 
 223:STM32F769/Middlewares/Third_Party/FreeRTOS/Source/timers.c **** BaseType_t xTimerCreateTimerTask( void )
 224:STM32F769/Middlewares/Third_Party/FreeRTOS/Source/timers.c **** {
 225:STM32F769/Middlewares/Third_Party/FreeRTOS/Source/timers.c **** BaseType_t xReturn = pdFAIL;
 226:STM32F769/Middlewares/Third_Party/FreeRTOS/Source/timers.c **** 
 227:STM32F769/Middlewares/Third_Party/FreeRTOS/Source/timers.c **** 	/* This function is called when the scheduler is started if
 228:STM32F769/Middlewares/Third_Party/FreeRTOS/Source/timers.c **** 	configUSE_TIMERS is set to 1.  Check that the infrastructure used by the
 229:STM32F769/Middlewares/Third_Party/FreeRTOS/Source/timers.c **** 	timer service task has been created/initialised.  If timers have already
 230:STM32F769/Middlewares/Third_Party/FreeRTOS/Source/timers.c **** 	been created then the initialisation will already have been performed. */
 231:STM32F769/Middlewares/Third_Party/FreeRTOS/Source/timers.c **** 	prvCheckForValidListAndQueue();
 232:STM32F769/Middlewares/Third_Party/FreeRTOS/Source/timers.c **** 
 233:STM32F769/Middlewares/Third_Party/FreeRTOS/Source/timers.c **** 	if( xTimerQueue != NULL )
 234:STM32F769/Middlewares/Third_Party/FreeRTOS/Source/timers.c **** 	{
 235:STM32F769/Middlewares/Third_Party/FreeRTOS/Source/timers.c **** 		#if( configSUPPORT_STATIC_ALLOCATION == 1 )
 236:STM32F769/Middlewares/Third_Party/FreeRTOS/Source/timers.c **** 		{
 237:STM32F769/Middlewares/Third_Party/FreeRTOS/Source/timers.c **** 			StaticTask_t *pxTimerTaskTCBBuffer = NULL;
 238:STM32F769/Middlewares/Third_Party/FreeRTOS/Source/timers.c **** 			StackType_t *pxTimerTaskStackBuffer = NULL;
 239:STM32F769/Middlewares/Third_Party/FreeRTOS/Source/timers.c **** 			uint32_t ulTimerTaskStackSize;
 240:STM32F769/Middlewares/Third_Party/FreeRTOS/Source/timers.c **** 
 241:STM32F769/Middlewares/Third_Party/FreeRTOS/Source/timers.c **** 			vApplicationGetTimerTaskMemory( &pxTimerTaskTCBBuffer, &pxTimerTaskStackBuffer, &ulTimerTaskStac
 242:STM32F769/Middlewares/Third_Party/FreeRTOS/Source/timers.c **** 			xTimerTaskHandle = xTaskCreateStatic(	prvTimerTask,
 243:STM32F769/Middlewares/Third_Party/FreeRTOS/Source/timers.c **** 													configTIMER_SERVICE_TASK_NAME,
 244:STM32F769/Middlewares/Third_Party/FreeRTOS/Source/timers.c **** 													ulTimerTaskStackSize,
 245:STM32F769/Middlewares/Third_Party/FreeRTOS/Source/timers.c **** 													NULL,
 246:STM32F769/Middlewares/Third_Party/FreeRTOS/Source/timers.c **** 													( ( UBaseType_t ) configTIMER_TASK_PRIORITY ) | portPRIVILEGE_BIT,
 247:STM32F769/Middlewares/Third_Party/FreeRTOS/Source/timers.c **** 													pxTimerTaskStackBuffer,
 248:STM32F769/Middlewares/Third_Party/FreeRTOS/Source/timers.c **** 													pxTimerTaskTCBBuffer );
 249:STM32F769/Middlewares/Third_Party/FreeRTOS/Source/timers.c **** 
 250:STM32F769/Middlewares/Third_Party/FreeRTOS/Source/timers.c **** 			if( xTimerTaskHandle != NULL )
 251:STM32F769/Middlewares/Third_Party/FreeRTOS/Source/timers.c **** 			{
 252:STM32F769/Middlewares/Third_Party/FreeRTOS/Source/timers.c **** 				xReturn = pdPASS;
 253:STM32F769/Middlewares/Third_Party/FreeRTOS/Source/timers.c **** 			}
 254:STM32F769/Middlewares/Third_Party/FreeRTOS/Source/timers.c **** 		}
 255:STM32F769/Middlewares/Third_Party/FreeRTOS/Source/timers.c **** 		#else
 256:STM32F769/Middlewares/Third_Party/FreeRTOS/Source/timers.c **** 		{
 257:STM32F769/Middlewares/Third_Party/FreeRTOS/Source/timers.c **** 			xReturn = xTaskCreate(	prvTimerTask,
 258:STM32F769/Middlewares/Third_Party/FreeRTOS/Source/timers.c **** 									configTIMER_SERVICE_TASK_NAME,
 259:STM32F769/Middlewares/Third_Party/FreeRTOS/Source/timers.c **** 									configTIMER_TASK_STACK_DEPTH,
ARM GAS  /tmp/ccAupAkp.s 			page 6


 260:STM32F769/Middlewares/Third_Party/FreeRTOS/Source/timers.c **** 									NULL,
 261:STM32F769/Middlewares/Third_Party/FreeRTOS/Source/timers.c **** 									( ( UBaseType_t ) configTIMER_TASK_PRIORITY ) | portPRIVILEGE_BIT,
 262:STM32F769/Middlewares/Third_Party/FreeRTOS/Source/timers.c **** 									&xTimerTaskHandle );
 263:STM32F769/Middlewares/Third_Party/FreeRTOS/Source/timers.c **** 		}
 264:STM32F769/Middlewares/Third_Party/FreeRTOS/Source/timers.c **** 		#endif /* configSUPPORT_STATIC_ALLOCATION */
 265:STM32F769/Middlewares/Third_Party/FreeRTOS/Source/timers.c **** 	}
 266:STM32F769/Middlewares/Third_Party/FreeRTOS/Source/timers.c **** 	else
 267:STM32F769/Middlewares/Third_Party/FreeRTOS/Source/timers.c **** 	{
 268:STM32F769/Middlewares/Third_Party/FreeRTOS/Source/timers.c **** 		mtCOVERAGE_TEST_MARKER();
 269:STM32F769/Middlewares/Third_Party/FreeRTOS/Source/timers.c **** 	}
 270:STM32F769/Middlewares/Third_Party/FreeRTOS/Source/timers.c **** 
 271:STM32F769/Middlewares/Third_Party/FreeRTOS/Source/timers.c **** 	configASSERT( xReturn );
 272:STM32F769/Middlewares/Third_Party/FreeRTOS/Source/timers.c **** 	return xReturn;
 273:STM32F769/Middlewares/Third_Party/FreeRTOS/Source/timers.c **** }
 274:STM32F769/Middlewares/Third_Party/FreeRTOS/Source/timers.c **** /*-----------------------------------------------------------*/
 275:STM32F769/Middlewares/Third_Party/FreeRTOS/Source/timers.c **** 
 276:STM32F769/Middlewares/Third_Party/FreeRTOS/Source/timers.c **** #if( configSUPPORT_DYNAMIC_ALLOCATION == 1 )
 277:STM32F769/Middlewares/Third_Party/FreeRTOS/Source/timers.c **** 
 278:STM32F769/Middlewares/Third_Party/FreeRTOS/Source/timers.c **** 	TimerHandle_t xTimerCreate(	const char * const pcTimerName,			/*lint !e971 Unqualified char types 
 279:STM32F769/Middlewares/Third_Party/FreeRTOS/Source/timers.c **** 								const TickType_t xTimerPeriodInTicks,
 280:STM32F769/Middlewares/Third_Party/FreeRTOS/Source/timers.c **** 								const UBaseType_t uxAutoReload,
 281:STM32F769/Middlewares/Third_Party/FreeRTOS/Source/timers.c **** 								void * const pvTimerID,
 282:STM32F769/Middlewares/Third_Party/FreeRTOS/Source/timers.c **** 								TimerCallbackFunction_t pxCallbackFunction )
 283:STM32F769/Middlewares/Third_Party/FreeRTOS/Source/timers.c **** 	{
 284:STM32F769/Middlewares/Third_Party/FreeRTOS/Source/timers.c **** 	Timer_t *pxNewTimer;
 285:STM32F769/Middlewares/Third_Party/FreeRTOS/Source/timers.c **** 
 286:STM32F769/Middlewares/Third_Party/FreeRTOS/Source/timers.c **** 		pxNewTimer = ( Timer_t * ) pvPortMalloc( sizeof( Timer_t ) );
 287:STM32F769/Middlewares/Third_Party/FreeRTOS/Source/timers.c **** 
 288:STM32F769/Middlewares/Third_Party/FreeRTOS/Source/timers.c **** 		if( pxNewTimer != NULL )
 289:STM32F769/Middlewares/Third_Party/FreeRTOS/Source/timers.c **** 		{
 290:STM32F769/Middlewares/Third_Party/FreeRTOS/Source/timers.c **** 			prvInitialiseNewTimer( pcTimerName, xTimerPeriodInTicks, uxAutoReload, pvTimerID, pxCallbackFunc
 291:STM32F769/Middlewares/Third_Party/FreeRTOS/Source/timers.c **** 
 292:STM32F769/Middlewares/Third_Party/FreeRTOS/Source/timers.c **** 			#if( configSUPPORT_STATIC_ALLOCATION == 1 )
 293:STM32F769/Middlewares/Third_Party/FreeRTOS/Source/timers.c **** 			{
 294:STM32F769/Middlewares/Third_Party/FreeRTOS/Source/timers.c **** 				/* Timers can be created statically or dynamically, so note this
 295:STM32F769/Middlewares/Third_Party/FreeRTOS/Source/timers.c **** 				timer was created dynamically in case the timer is later
 296:STM32F769/Middlewares/Third_Party/FreeRTOS/Source/timers.c **** 				deleted. */
 297:STM32F769/Middlewares/Third_Party/FreeRTOS/Source/timers.c **** 				pxNewTimer->ucStaticallyAllocated = pdFALSE;
 298:STM32F769/Middlewares/Third_Party/FreeRTOS/Source/timers.c **** 			}
 299:STM32F769/Middlewares/Third_Party/FreeRTOS/Source/timers.c **** 			#endif /* configSUPPORT_STATIC_ALLOCATION */
 300:STM32F769/Middlewares/Third_Party/FreeRTOS/Source/timers.c **** 		}
 301:STM32F769/Middlewares/Third_Party/FreeRTOS/Source/timers.c **** 
 302:STM32F769/Middlewares/Third_Party/FreeRTOS/Source/timers.c **** 		return pxNewTimer;
 303:STM32F769/Middlewares/Third_Party/FreeRTOS/Source/timers.c **** 	}
 304:STM32F769/Middlewares/Third_Party/FreeRTOS/Source/timers.c **** 
 305:STM32F769/Middlewares/Third_Party/FreeRTOS/Source/timers.c **** #endif /* configSUPPORT_STATIC_ALLOCATION */
 306:STM32F769/Middlewares/Third_Party/FreeRTOS/Source/timers.c **** /*-----------------------------------------------------------*/
 307:STM32F769/Middlewares/Third_Party/FreeRTOS/Source/timers.c **** 
 308:STM32F769/Middlewares/Third_Party/FreeRTOS/Source/timers.c **** #if( configSUPPORT_STATIC_ALLOCATION == 1 )
 309:STM32F769/Middlewares/Third_Party/FreeRTOS/Source/timers.c **** 
 310:STM32F769/Middlewares/Third_Party/FreeRTOS/Source/timers.c **** 	TimerHandle_t xTimerCreateStatic(	const char * const pcTimerName,		/*lint !e971 Unqualified char t
 311:STM32F769/Middlewares/Third_Party/FreeRTOS/Source/timers.c **** 										const TickType_t xTimerPeriodInTicks,
 312:STM32F769/Middlewares/Third_Party/FreeRTOS/Source/timers.c **** 										const UBaseType_t uxAutoReload,
 313:STM32F769/Middlewares/Third_Party/FreeRTOS/Source/timers.c **** 										void * const pvTimerID,
 314:STM32F769/Middlewares/Third_Party/FreeRTOS/Source/timers.c **** 										TimerCallbackFunction_t pxCallbackFunction,
 315:STM32F769/Middlewares/Third_Party/FreeRTOS/Source/timers.c **** 										StaticTimer_t *pxTimerBuffer )
 316:STM32F769/Middlewares/Third_Party/FreeRTOS/Source/timers.c **** 	{
ARM GAS  /tmp/ccAupAkp.s 			page 7


 317:STM32F769/Middlewares/Third_Party/FreeRTOS/Source/timers.c **** 	Timer_t *pxNewTimer;
 318:STM32F769/Middlewares/Third_Party/FreeRTOS/Source/timers.c **** 
 319:STM32F769/Middlewares/Third_Party/FreeRTOS/Source/timers.c **** 		#if( configASSERT_DEFINED == 1 )
 320:STM32F769/Middlewares/Third_Party/FreeRTOS/Source/timers.c **** 		{
 321:STM32F769/Middlewares/Third_Party/FreeRTOS/Source/timers.c **** 			/* Sanity check that the size of the structure used to declare a
 322:STM32F769/Middlewares/Third_Party/FreeRTOS/Source/timers.c **** 			variable of type StaticTimer_t equals the size of the real timer
 323:STM32F769/Middlewares/Third_Party/FreeRTOS/Source/timers.c **** 			structure. */
 324:STM32F769/Middlewares/Third_Party/FreeRTOS/Source/timers.c **** 			volatile size_t xSize = sizeof( StaticTimer_t );
 325:STM32F769/Middlewares/Third_Party/FreeRTOS/Source/timers.c **** 			configASSERT( xSize == sizeof( Timer_t ) );
 326:STM32F769/Middlewares/Third_Party/FreeRTOS/Source/timers.c **** 		}
 327:STM32F769/Middlewares/Third_Party/FreeRTOS/Source/timers.c **** 		#endif /* configASSERT_DEFINED */
 328:STM32F769/Middlewares/Third_Party/FreeRTOS/Source/timers.c **** 
 329:STM32F769/Middlewares/Third_Party/FreeRTOS/Source/timers.c **** 		/* A pointer to a StaticTimer_t structure MUST be provided, use it. */
 330:STM32F769/Middlewares/Third_Party/FreeRTOS/Source/timers.c **** 		configASSERT( pxTimerBuffer );
 331:STM32F769/Middlewares/Third_Party/FreeRTOS/Source/timers.c **** 		pxNewTimer = ( Timer_t * ) pxTimerBuffer; /*lint !e740 Unusual cast is ok as the structures are d
 332:STM32F769/Middlewares/Third_Party/FreeRTOS/Source/timers.c **** 
 333:STM32F769/Middlewares/Third_Party/FreeRTOS/Source/timers.c **** 		if( pxNewTimer != NULL )
 334:STM32F769/Middlewares/Third_Party/FreeRTOS/Source/timers.c **** 		{
 335:STM32F769/Middlewares/Third_Party/FreeRTOS/Source/timers.c **** 			prvInitialiseNewTimer( pcTimerName, xTimerPeriodInTicks, uxAutoReload, pvTimerID, pxCallbackFunc
 336:STM32F769/Middlewares/Third_Party/FreeRTOS/Source/timers.c **** 
 337:STM32F769/Middlewares/Third_Party/FreeRTOS/Source/timers.c **** 			#if( configSUPPORT_DYNAMIC_ALLOCATION == 1 )
 338:STM32F769/Middlewares/Third_Party/FreeRTOS/Source/timers.c **** 			{
 339:STM32F769/Middlewares/Third_Party/FreeRTOS/Source/timers.c **** 				/* Timers can be created statically or dynamically so note this
 340:STM32F769/Middlewares/Third_Party/FreeRTOS/Source/timers.c **** 				timer was created statically in case it is later deleted. */
 341:STM32F769/Middlewares/Third_Party/FreeRTOS/Source/timers.c **** 				pxNewTimer->ucStaticallyAllocated = pdTRUE;
 342:STM32F769/Middlewares/Third_Party/FreeRTOS/Source/timers.c **** 			}
 343:STM32F769/Middlewares/Third_Party/FreeRTOS/Source/timers.c **** 			#endif /* configSUPPORT_DYNAMIC_ALLOCATION */
 344:STM32F769/Middlewares/Third_Party/FreeRTOS/Source/timers.c **** 		}
 345:STM32F769/Middlewares/Third_Party/FreeRTOS/Source/timers.c **** 
 346:STM32F769/Middlewares/Third_Party/FreeRTOS/Source/timers.c **** 		return pxNewTimer;
 347:STM32F769/Middlewares/Third_Party/FreeRTOS/Source/timers.c **** 	}
 348:STM32F769/Middlewares/Third_Party/FreeRTOS/Source/timers.c **** 
 349:STM32F769/Middlewares/Third_Party/FreeRTOS/Source/timers.c **** #endif /* configSUPPORT_STATIC_ALLOCATION */
 350:STM32F769/Middlewares/Third_Party/FreeRTOS/Source/timers.c **** /*-----------------------------------------------------------*/
 351:STM32F769/Middlewares/Third_Party/FreeRTOS/Source/timers.c **** 
 352:STM32F769/Middlewares/Third_Party/FreeRTOS/Source/timers.c **** static void prvInitialiseNewTimer(	const char * const pcTimerName,			/*lint !e971 Unqualified char 
 353:STM32F769/Middlewares/Third_Party/FreeRTOS/Source/timers.c **** 									const TickType_t xTimerPeriodInTicks,
 354:STM32F769/Middlewares/Third_Party/FreeRTOS/Source/timers.c **** 									const UBaseType_t uxAutoReload,
 355:STM32F769/Middlewares/Third_Party/FreeRTOS/Source/timers.c **** 									void * const pvTimerID,
 356:STM32F769/Middlewares/Third_Party/FreeRTOS/Source/timers.c **** 									TimerCallbackFunction_t pxCallbackFunction,
 357:STM32F769/Middlewares/Third_Party/FreeRTOS/Source/timers.c **** 									Timer_t *pxNewTimer )
 358:STM32F769/Middlewares/Third_Party/FreeRTOS/Source/timers.c **** {
 359:STM32F769/Middlewares/Third_Party/FreeRTOS/Source/timers.c **** 	/* 0 is not a valid value for xTimerPeriodInTicks. */
 360:STM32F769/Middlewares/Third_Party/FreeRTOS/Source/timers.c **** 	configASSERT( ( xTimerPeriodInTicks > 0 ) );
 361:STM32F769/Middlewares/Third_Party/FreeRTOS/Source/timers.c **** 
 362:STM32F769/Middlewares/Third_Party/FreeRTOS/Source/timers.c **** 	if( pxNewTimer != NULL )
 363:STM32F769/Middlewares/Third_Party/FreeRTOS/Source/timers.c **** 	{
 364:STM32F769/Middlewares/Third_Party/FreeRTOS/Source/timers.c **** 		/* Ensure the infrastructure used by the timer service task has been
 365:STM32F769/Middlewares/Third_Party/FreeRTOS/Source/timers.c **** 		created/initialised. */
 366:STM32F769/Middlewares/Third_Party/FreeRTOS/Source/timers.c **** 		prvCheckForValidListAndQueue();
 367:STM32F769/Middlewares/Third_Party/FreeRTOS/Source/timers.c **** 
 368:STM32F769/Middlewares/Third_Party/FreeRTOS/Source/timers.c **** 		/* Initialise the timer structure members using the function
 369:STM32F769/Middlewares/Third_Party/FreeRTOS/Source/timers.c **** 		parameters. */
 370:STM32F769/Middlewares/Third_Party/FreeRTOS/Source/timers.c **** 		pxNewTimer->pcTimerName = pcTimerName;
 371:STM32F769/Middlewares/Third_Party/FreeRTOS/Source/timers.c **** 		pxNewTimer->xTimerPeriodInTicks = xTimerPeriodInTicks;
 372:STM32F769/Middlewares/Third_Party/FreeRTOS/Source/timers.c **** 		pxNewTimer->uxAutoReload = uxAutoReload;
 373:STM32F769/Middlewares/Third_Party/FreeRTOS/Source/timers.c **** 		pxNewTimer->pvTimerID = pvTimerID;
ARM GAS  /tmp/ccAupAkp.s 			page 8


 374:STM32F769/Middlewares/Third_Party/FreeRTOS/Source/timers.c **** 		pxNewTimer->pxCallbackFunction = pxCallbackFunction;
 375:STM32F769/Middlewares/Third_Party/FreeRTOS/Source/timers.c **** 		vListInitialiseItem( &( pxNewTimer->xTimerListItem ) );
 376:STM32F769/Middlewares/Third_Party/FreeRTOS/Source/timers.c **** 		traceTIMER_CREATE( pxNewTimer );
 377:STM32F769/Middlewares/Third_Party/FreeRTOS/Source/timers.c **** 	}
 378:STM32F769/Middlewares/Third_Party/FreeRTOS/Source/timers.c **** }
 379:STM32F769/Middlewares/Third_Party/FreeRTOS/Source/timers.c **** /*-----------------------------------------------------------*/
 380:STM32F769/Middlewares/Third_Party/FreeRTOS/Source/timers.c **** 
 381:STM32F769/Middlewares/Third_Party/FreeRTOS/Source/timers.c **** BaseType_t xTimerGenericCommand( TimerHandle_t xTimer, const BaseType_t xCommandID, const TickType_
 382:STM32F769/Middlewares/Third_Party/FreeRTOS/Source/timers.c **** {
 383:STM32F769/Middlewares/Third_Party/FreeRTOS/Source/timers.c **** BaseType_t xReturn = pdFAIL;
 384:STM32F769/Middlewares/Third_Party/FreeRTOS/Source/timers.c **** DaemonTaskMessage_t xMessage;
 385:STM32F769/Middlewares/Third_Party/FreeRTOS/Source/timers.c **** 
 386:STM32F769/Middlewares/Third_Party/FreeRTOS/Source/timers.c **** 	configASSERT( xTimer );
 387:STM32F769/Middlewares/Third_Party/FreeRTOS/Source/timers.c **** 
 388:STM32F769/Middlewares/Third_Party/FreeRTOS/Source/timers.c **** 	/* Send a message to the timer service task to perform a particular action
 389:STM32F769/Middlewares/Third_Party/FreeRTOS/Source/timers.c **** 	on a particular timer definition. */
 390:STM32F769/Middlewares/Third_Party/FreeRTOS/Source/timers.c **** 	if( xTimerQueue != NULL )
 391:STM32F769/Middlewares/Third_Party/FreeRTOS/Source/timers.c **** 	{
 392:STM32F769/Middlewares/Third_Party/FreeRTOS/Source/timers.c **** 		/* Send a command to the timer service task to start the xTimer timer. */
 393:STM32F769/Middlewares/Third_Party/FreeRTOS/Source/timers.c **** 		xMessage.xMessageID = xCommandID;
 394:STM32F769/Middlewares/Third_Party/FreeRTOS/Source/timers.c **** 		xMessage.u.xTimerParameters.xMessageValue = xOptionalValue;
 395:STM32F769/Middlewares/Third_Party/FreeRTOS/Source/timers.c **** 		xMessage.u.xTimerParameters.pxTimer = ( Timer_t * ) xTimer;
 396:STM32F769/Middlewares/Third_Party/FreeRTOS/Source/timers.c **** 
 397:STM32F769/Middlewares/Third_Party/FreeRTOS/Source/timers.c **** 		if( xCommandID < tmrFIRST_FROM_ISR_COMMAND )
 398:STM32F769/Middlewares/Third_Party/FreeRTOS/Source/timers.c **** 		{
 399:STM32F769/Middlewares/Third_Party/FreeRTOS/Source/timers.c **** 			if( xTaskGetSchedulerState() == taskSCHEDULER_RUNNING )
 400:STM32F769/Middlewares/Third_Party/FreeRTOS/Source/timers.c **** 			{
 401:STM32F769/Middlewares/Third_Party/FreeRTOS/Source/timers.c **** 				xReturn = xQueueSendToBack( xTimerQueue, &xMessage, xTicksToWait );
 402:STM32F769/Middlewares/Third_Party/FreeRTOS/Source/timers.c **** 			}
 403:STM32F769/Middlewares/Third_Party/FreeRTOS/Source/timers.c **** 			else
 404:STM32F769/Middlewares/Third_Party/FreeRTOS/Source/timers.c **** 			{
 405:STM32F769/Middlewares/Third_Party/FreeRTOS/Source/timers.c **** 				xReturn = xQueueSendToBack( xTimerQueue, &xMessage, tmrNO_DELAY );
 406:STM32F769/Middlewares/Third_Party/FreeRTOS/Source/timers.c **** 			}
 407:STM32F769/Middlewares/Third_Party/FreeRTOS/Source/timers.c **** 		}
 408:STM32F769/Middlewares/Third_Party/FreeRTOS/Source/timers.c **** 		else
 409:STM32F769/Middlewares/Third_Party/FreeRTOS/Source/timers.c **** 		{
 410:STM32F769/Middlewares/Third_Party/FreeRTOS/Source/timers.c **** 			xReturn = xQueueSendToBackFromISR( xTimerQueue, &xMessage, pxHigherPriorityTaskWoken );
 411:STM32F769/Middlewares/Third_Party/FreeRTOS/Source/timers.c **** 		}
 412:STM32F769/Middlewares/Third_Party/FreeRTOS/Source/timers.c **** 
 413:STM32F769/Middlewares/Third_Party/FreeRTOS/Source/timers.c **** 		traceTIMER_COMMAND_SEND( xTimer, xCommandID, xOptionalValue, xReturn );
 414:STM32F769/Middlewares/Third_Party/FreeRTOS/Source/timers.c **** 	}
 415:STM32F769/Middlewares/Third_Party/FreeRTOS/Source/timers.c **** 	else
 416:STM32F769/Middlewares/Third_Party/FreeRTOS/Source/timers.c **** 	{
 417:STM32F769/Middlewares/Third_Party/FreeRTOS/Source/timers.c **** 		mtCOVERAGE_TEST_MARKER();
 418:STM32F769/Middlewares/Third_Party/FreeRTOS/Source/timers.c **** 	}
 419:STM32F769/Middlewares/Third_Party/FreeRTOS/Source/timers.c **** 
 420:STM32F769/Middlewares/Third_Party/FreeRTOS/Source/timers.c **** 	return xReturn;
 421:STM32F769/Middlewares/Third_Party/FreeRTOS/Source/timers.c **** }
 422:STM32F769/Middlewares/Third_Party/FreeRTOS/Source/timers.c **** /*-----------------------------------------------------------*/
 423:STM32F769/Middlewares/Third_Party/FreeRTOS/Source/timers.c **** 
 424:STM32F769/Middlewares/Third_Party/FreeRTOS/Source/timers.c **** TaskHandle_t xTimerGetTimerDaemonTaskHandle( void )
 425:STM32F769/Middlewares/Third_Party/FreeRTOS/Source/timers.c **** {
 426:STM32F769/Middlewares/Third_Party/FreeRTOS/Source/timers.c **** 	/* If xTimerGetTimerDaemonTaskHandle() is called before the scheduler has been
 427:STM32F769/Middlewares/Third_Party/FreeRTOS/Source/timers.c **** 	started, then xTimerTaskHandle will be NULL. */
 428:STM32F769/Middlewares/Third_Party/FreeRTOS/Source/timers.c **** 	configASSERT( ( xTimerTaskHandle != NULL ) );
 429:STM32F769/Middlewares/Third_Party/FreeRTOS/Source/timers.c **** 	return xTimerTaskHandle;
 430:STM32F769/Middlewares/Third_Party/FreeRTOS/Source/timers.c **** }
ARM GAS  /tmp/ccAupAkp.s 			page 9


 431:STM32F769/Middlewares/Third_Party/FreeRTOS/Source/timers.c **** /*-----------------------------------------------------------*/
 432:STM32F769/Middlewares/Third_Party/FreeRTOS/Source/timers.c **** 
 433:STM32F769/Middlewares/Third_Party/FreeRTOS/Source/timers.c **** TickType_t xTimerGetPeriod( TimerHandle_t xTimer )
 434:STM32F769/Middlewares/Third_Party/FreeRTOS/Source/timers.c **** {
 435:STM32F769/Middlewares/Third_Party/FreeRTOS/Source/timers.c **** Timer_t *pxTimer = ( Timer_t * ) xTimer;
 436:STM32F769/Middlewares/Third_Party/FreeRTOS/Source/timers.c **** 
 437:STM32F769/Middlewares/Third_Party/FreeRTOS/Source/timers.c **** 	configASSERT( xTimer );
 438:STM32F769/Middlewares/Third_Party/FreeRTOS/Source/timers.c **** 	return pxTimer->xTimerPeriodInTicks;
 439:STM32F769/Middlewares/Third_Party/FreeRTOS/Source/timers.c **** }
 440:STM32F769/Middlewares/Third_Party/FreeRTOS/Source/timers.c **** /*-----------------------------------------------------------*/
 441:STM32F769/Middlewares/Third_Party/FreeRTOS/Source/timers.c **** 
 442:STM32F769/Middlewares/Third_Party/FreeRTOS/Source/timers.c **** TickType_t xTimerGetExpiryTime( TimerHandle_t xTimer )
 443:STM32F769/Middlewares/Third_Party/FreeRTOS/Source/timers.c **** {
 444:STM32F769/Middlewares/Third_Party/FreeRTOS/Source/timers.c **** Timer_t * pxTimer = ( Timer_t * ) xTimer;
 445:STM32F769/Middlewares/Third_Party/FreeRTOS/Source/timers.c **** TickType_t xReturn;
 446:STM32F769/Middlewares/Third_Party/FreeRTOS/Source/timers.c **** 
 447:STM32F769/Middlewares/Third_Party/FreeRTOS/Source/timers.c **** 	configASSERT( xTimer );
 448:STM32F769/Middlewares/Third_Party/FreeRTOS/Source/timers.c **** 	xReturn = listGET_LIST_ITEM_VALUE( &( pxTimer->xTimerListItem ) );
 449:STM32F769/Middlewares/Third_Party/FreeRTOS/Source/timers.c **** 	return xReturn;
 450:STM32F769/Middlewares/Third_Party/FreeRTOS/Source/timers.c **** }
 451:STM32F769/Middlewares/Third_Party/FreeRTOS/Source/timers.c **** /*-----------------------------------------------------------*/
 452:STM32F769/Middlewares/Third_Party/FreeRTOS/Source/timers.c **** 
 453:STM32F769/Middlewares/Third_Party/FreeRTOS/Source/timers.c **** const char * pcTimerGetName( TimerHandle_t xTimer ) /*lint !e971 Unqualified char types are allowed
 454:STM32F769/Middlewares/Third_Party/FreeRTOS/Source/timers.c **** {
 455:STM32F769/Middlewares/Third_Party/FreeRTOS/Source/timers.c **** Timer_t *pxTimer = ( Timer_t * ) xTimer;
 456:STM32F769/Middlewares/Third_Party/FreeRTOS/Source/timers.c **** 
 457:STM32F769/Middlewares/Third_Party/FreeRTOS/Source/timers.c **** 	configASSERT( xTimer );
 458:STM32F769/Middlewares/Third_Party/FreeRTOS/Source/timers.c **** 	return pxTimer->pcTimerName;
 459:STM32F769/Middlewares/Third_Party/FreeRTOS/Source/timers.c **** }
 460:STM32F769/Middlewares/Third_Party/FreeRTOS/Source/timers.c **** /*-----------------------------------------------------------*/
 461:STM32F769/Middlewares/Third_Party/FreeRTOS/Source/timers.c **** 
 462:STM32F769/Middlewares/Third_Party/FreeRTOS/Source/timers.c **** static void prvProcessExpiredTimer( const TickType_t xNextExpireTime, const TickType_t xTimeNow )
 463:STM32F769/Middlewares/Third_Party/FreeRTOS/Source/timers.c **** {
 464:STM32F769/Middlewares/Third_Party/FreeRTOS/Source/timers.c **** BaseType_t xResult;
 465:STM32F769/Middlewares/Third_Party/FreeRTOS/Source/timers.c **** Timer_t * const pxTimer = ( Timer_t * ) listGET_OWNER_OF_HEAD_ENTRY( pxCurrentTimerList );
 466:STM32F769/Middlewares/Third_Party/FreeRTOS/Source/timers.c **** 
 467:STM32F769/Middlewares/Third_Party/FreeRTOS/Source/timers.c **** 	/* Remove the timer from the list of active timers.  A check has already
 468:STM32F769/Middlewares/Third_Party/FreeRTOS/Source/timers.c **** 	been performed to ensure the list is not empty. */
 469:STM32F769/Middlewares/Third_Party/FreeRTOS/Source/timers.c **** 	( void ) uxListRemove( &( pxTimer->xTimerListItem ) );
 470:STM32F769/Middlewares/Third_Party/FreeRTOS/Source/timers.c **** 	traceTIMER_EXPIRED( pxTimer );
 471:STM32F769/Middlewares/Third_Party/FreeRTOS/Source/timers.c **** 
 472:STM32F769/Middlewares/Third_Party/FreeRTOS/Source/timers.c **** 	/* If the timer is an auto reload timer then calculate the next
 473:STM32F769/Middlewares/Third_Party/FreeRTOS/Source/timers.c **** 	expiry time and re-insert the timer in the list of active timers. */
 474:STM32F769/Middlewares/Third_Party/FreeRTOS/Source/timers.c **** 	if( pxTimer->uxAutoReload == ( UBaseType_t ) pdTRUE )
 475:STM32F769/Middlewares/Third_Party/FreeRTOS/Source/timers.c **** 	{
 476:STM32F769/Middlewares/Third_Party/FreeRTOS/Source/timers.c **** 		/* The timer is inserted into a list using a time relative to anything
 477:STM32F769/Middlewares/Third_Party/FreeRTOS/Source/timers.c **** 		other than the current time.  It will therefore be inserted into the
 478:STM32F769/Middlewares/Third_Party/FreeRTOS/Source/timers.c **** 		correct list relative to the time this task thinks it is now. */
 479:STM32F769/Middlewares/Third_Party/FreeRTOS/Source/timers.c **** 		if( prvInsertTimerInActiveList( pxTimer, ( xNextExpireTime + pxTimer->xTimerPeriodInTicks ), xTim
 480:STM32F769/Middlewares/Third_Party/FreeRTOS/Source/timers.c **** 		{
 481:STM32F769/Middlewares/Third_Party/FreeRTOS/Source/timers.c **** 			/* The timer expired before it was added to the active timer
 482:STM32F769/Middlewares/Third_Party/FreeRTOS/Source/timers.c **** 			list.  Reload it now.  */
 483:STM32F769/Middlewares/Third_Party/FreeRTOS/Source/timers.c **** 			xResult = xTimerGenericCommand( pxTimer, tmrCOMMAND_START_DONT_TRACE, xNextExpireTime, NULL, tmr
 484:STM32F769/Middlewares/Third_Party/FreeRTOS/Source/timers.c **** 			configASSERT( xResult );
 485:STM32F769/Middlewares/Third_Party/FreeRTOS/Source/timers.c **** 			( void ) xResult;
 486:STM32F769/Middlewares/Third_Party/FreeRTOS/Source/timers.c **** 		}
 487:STM32F769/Middlewares/Third_Party/FreeRTOS/Source/timers.c **** 		else
ARM GAS  /tmp/ccAupAkp.s 			page 10


 488:STM32F769/Middlewares/Third_Party/FreeRTOS/Source/timers.c **** 		{
 489:STM32F769/Middlewares/Third_Party/FreeRTOS/Source/timers.c **** 			mtCOVERAGE_TEST_MARKER();
 490:STM32F769/Middlewares/Third_Party/FreeRTOS/Source/timers.c **** 		}
 491:STM32F769/Middlewares/Third_Party/FreeRTOS/Source/timers.c **** 	}
 492:STM32F769/Middlewares/Third_Party/FreeRTOS/Source/timers.c **** 	else
 493:STM32F769/Middlewares/Third_Party/FreeRTOS/Source/timers.c **** 	{
 494:STM32F769/Middlewares/Third_Party/FreeRTOS/Source/timers.c **** 		mtCOVERAGE_TEST_MARKER();
 495:STM32F769/Middlewares/Third_Party/FreeRTOS/Source/timers.c **** 	}
 496:STM32F769/Middlewares/Third_Party/FreeRTOS/Source/timers.c **** 
 497:STM32F769/Middlewares/Third_Party/FreeRTOS/Source/timers.c **** 	/* Call the timer callback. */
 498:STM32F769/Middlewares/Third_Party/FreeRTOS/Source/timers.c **** 	pxTimer->pxCallbackFunction( ( TimerHandle_t ) pxTimer );
 499:STM32F769/Middlewares/Third_Party/FreeRTOS/Source/timers.c **** }
 500:STM32F769/Middlewares/Third_Party/FreeRTOS/Source/timers.c **** /*-----------------------------------------------------------*/
 501:STM32F769/Middlewares/Third_Party/FreeRTOS/Source/timers.c **** 
 502:STM32F769/Middlewares/Third_Party/FreeRTOS/Source/timers.c **** static void prvTimerTask( void *pvParameters )
 503:STM32F769/Middlewares/Third_Party/FreeRTOS/Source/timers.c **** {
 504:STM32F769/Middlewares/Third_Party/FreeRTOS/Source/timers.c **** TickType_t xNextExpireTime;
 505:STM32F769/Middlewares/Third_Party/FreeRTOS/Source/timers.c **** BaseType_t xListWasEmpty;
 506:STM32F769/Middlewares/Third_Party/FreeRTOS/Source/timers.c **** 
 507:STM32F769/Middlewares/Third_Party/FreeRTOS/Source/timers.c **** 	/* Just to avoid compiler warnings. */
 508:STM32F769/Middlewares/Third_Party/FreeRTOS/Source/timers.c **** 	( void ) pvParameters;
 509:STM32F769/Middlewares/Third_Party/FreeRTOS/Source/timers.c **** 
 510:STM32F769/Middlewares/Third_Party/FreeRTOS/Source/timers.c **** 	#if( configUSE_DAEMON_TASK_STARTUP_HOOK == 1 )
 511:STM32F769/Middlewares/Third_Party/FreeRTOS/Source/timers.c **** 	{
 512:STM32F769/Middlewares/Third_Party/FreeRTOS/Source/timers.c **** 		extern void vApplicationDaemonTaskStartupHook( void );
 513:STM32F769/Middlewares/Third_Party/FreeRTOS/Source/timers.c **** 
 514:STM32F769/Middlewares/Third_Party/FreeRTOS/Source/timers.c **** 		/* Allow the application writer to execute some code in the context of
 515:STM32F769/Middlewares/Third_Party/FreeRTOS/Source/timers.c **** 		this task at the point the task starts executing.  This is useful if the
 516:STM32F769/Middlewares/Third_Party/FreeRTOS/Source/timers.c **** 		application includes initialisation code that would benefit from
 517:STM32F769/Middlewares/Third_Party/FreeRTOS/Source/timers.c **** 		executing after the scheduler has been started. */
 518:STM32F769/Middlewares/Third_Party/FreeRTOS/Source/timers.c **** 		vApplicationDaemonTaskStartupHook();
 519:STM32F769/Middlewares/Third_Party/FreeRTOS/Source/timers.c **** 	}
 520:STM32F769/Middlewares/Third_Party/FreeRTOS/Source/timers.c **** 	#endif /* configUSE_DAEMON_TASK_STARTUP_HOOK */
 521:STM32F769/Middlewares/Third_Party/FreeRTOS/Source/timers.c **** 
 522:STM32F769/Middlewares/Third_Party/FreeRTOS/Source/timers.c **** 	for( ;; )
 523:STM32F769/Middlewares/Third_Party/FreeRTOS/Source/timers.c **** 	{
 524:STM32F769/Middlewares/Third_Party/FreeRTOS/Source/timers.c **** 		/* Query the timers list to see if it contains any timers, and if so,
 525:STM32F769/Middlewares/Third_Party/FreeRTOS/Source/timers.c **** 		obtain the time at which the next timer will expire. */
 526:STM32F769/Middlewares/Third_Party/FreeRTOS/Source/timers.c **** 		xNextExpireTime = prvGetNextExpireTime( &xListWasEmpty );
 527:STM32F769/Middlewares/Third_Party/FreeRTOS/Source/timers.c **** 
 528:STM32F769/Middlewares/Third_Party/FreeRTOS/Source/timers.c **** 		/* If a timer has expired, process it.  Otherwise, block this task
 529:STM32F769/Middlewares/Third_Party/FreeRTOS/Source/timers.c **** 		until either a timer does expire, or a command is received. */
 530:STM32F769/Middlewares/Third_Party/FreeRTOS/Source/timers.c **** 		prvProcessTimerOrBlockTask( xNextExpireTime, xListWasEmpty );
 531:STM32F769/Middlewares/Third_Party/FreeRTOS/Source/timers.c **** 
 532:STM32F769/Middlewares/Third_Party/FreeRTOS/Source/timers.c **** 		/* Empty the command queue. */
 533:STM32F769/Middlewares/Third_Party/FreeRTOS/Source/timers.c **** 		prvProcessReceivedCommands();
 534:STM32F769/Middlewares/Third_Party/FreeRTOS/Source/timers.c **** 	}
 535:STM32F769/Middlewares/Third_Party/FreeRTOS/Source/timers.c **** }
 536:STM32F769/Middlewares/Third_Party/FreeRTOS/Source/timers.c **** /*-----------------------------------------------------------*/
 537:STM32F769/Middlewares/Third_Party/FreeRTOS/Source/timers.c **** 
 538:STM32F769/Middlewares/Third_Party/FreeRTOS/Source/timers.c **** static void prvProcessTimerOrBlockTask( const TickType_t xNextExpireTime, BaseType_t xListWasEmpty 
 539:STM32F769/Middlewares/Third_Party/FreeRTOS/Source/timers.c **** {
 540:STM32F769/Middlewares/Third_Party/FreeRTOS/Source/timers.c **** TickType_t xTimeNow;
 541:STM32F769/Middlewares/Third_Party/FreeRTOS/Source/timers.c **** BaseType_t xTimerListsWereSwitched;
 542:STM32F769/Middlewares/Third_Party/FreeRTOS/Source/timers.c **** 
 543:STM32F769/Middlewares/Third_Party/FreeRTOS/Source/timers.c **** 	vTaskSuspendAll();
 544:STM32F769/Middlewares/Third_Party/FreeRTOS/Source/timers.c **** 	{
ARM GAS  /tmp/ccAupAkp.s 			page 11


 545:STM32F769/Middlewares/Third_Party/FreeRTOS/Source/timers.c **** 		/* Obtain the time now to make an assessment as to whether the timer
 546:STM32F769/Middlewares/Third_Party/FreeRTOS/Source/timers.c **** 		has expired or not.  If obtaining the time causes the lists to switch
 547:STM32F769/Middlewares/Third_Party/FreeRTOS/Source/timers.c **** 		then don't process this timer as any timers that remained in the list
 548:STM32F769/Middlewares/Third_Party/FreeRTOS/Source/timers.c **** 		when the lists were switched will have been processed within the
 549:STM32F769/Middlewares/Third_Party/FreeRTOS/Source/timers.c **** 		prvSampleTimeNow() function. */
 550:STM32F769/Middlewares/Third_Party/FreeRTOS/Source/timers.c **** 		xTimeNow = prvSampleTimeNow( &xTimerListsWereSwitched );
 551:STM32F769/Middlewares/Third_Party/FreeRTOS/Source/timers.c **** 		if( xTimerListsWereSwitched == pdFALSE )
 552:STM32F769/Middlewares/Third_Party/FreeRTOS/Source/timers.c **** 		{
 553:STM32F769/Middlewares/Third_Party/FreeRTOS/Source/timers.c **** 			/* The tick count has not overflowed, has the timer expired? */
 554:STM32F769/Middlewares/Third_Party/FreeRTOS/Source/timers.c **** 			if( ( xListWasEmpty == pdFALSE ) && ( xNextExpireTime <= xTimeNow ) )
 555:STM32F769/Middlewares/Third_Party/FreeRTOS/Source/timers.c **** 			{
 556:STM32F769/Middlewares/Third_Party/FreeRTOS/Source/timers.c **** 				( void ) xTaskResumeAll();
 557:STM32F769/Middlewares/Third_Party/FreeRTOS/Source/timers.c **** 				prvProcessExpiredTimer( xNextExpireTime, xTimeNow );
 558:STM32F769/Middlewares/Third_Party/FreeRTOS/Source/timers.c **** 			}
 559:STM32F769/Middlewares/Third_Party/FreeRTOS/Source/timers.c **** 			else
 560:STM32F769/Middlewares/Third_Party/FreeRTOS/Source/timers.c **** 			{
 561:STM32F769/Middlewares/Third_Party/FreeRTOS/Source/timers.c **** 				/* The tick count has not overflowed, and the next expire
 562:STM32F769/Middlewares/Third_Party/FreeRTOS/Source/timers.c **** 				time has not been reached yet.  This task should therefore
 563:STM32F769/Middlewares/Third_Party/FreeRTOS/Source/timers.c **** 				block to wait for the next expire time or a command to be
 564:STM32F769/Middlewares/Third_Party/FreeRTOS/Source/timers.c **** 				received - whichever comes first.  The following line cannot
 565:STM32F769/Middlewares/Third_Party/FreeRTOS/Source/timers.c **** 				be reached unless xNextExpireTime > xTimeNow, except in the
 566:STM32F769/Middlewares/Third_Party/FreeRTOS/Source/timers.c **** 				case when the current timer list is empty. */
 567:STM32F769/Middlewares/Third_Party/FreeRTOS/Source/timers.c **** 				if( xListWasEmpty != pdFALSE )
 568:STM32F769/Middlewares/Third_Party/FreeRTOS/Source/timers.c **** 				{
 569:STM32F769/Middlewares/Third_Party/FreeRTOS/Source/timers.c **** 					/* The current timer list is empty - is the overflow list
 570:STM32F769/Middlewares/Third_Party/FreeRTOS/Source/timers.c **** 					also empty? */
 571:STM32F769/Middlewares/Third_Party/FreeRTOS/Source/timers.c **** 					xListWasEmpty = listLIST_IS_EMPTY( pxOverflowTimerList );
 572:STM32F769/Middlewares/Third_Party/FreeRTOS/Source/timers.c **** 				}
 573:STM32F769/Middlewares/Third_Party/FreeRTOS/Source/timers.c **** 
 574:STM32F769/Middlewares/Third_Party/FreeRTOS/Source/timers.c **** 				vQueueWaitForMessageRestricted( xTimerQueue, ( xNextExpireTime - xTimeNow ), xListWasEmpty );
 575:STM32F769/Middlewares/Third_Party/FreeRTOS/Source/timers.c **** 
 576:STM32F769/Middlewares/Third_Party/FreeRTOS/Source/timers.c **** 				if( xTaskResumeAll() == pdFALSE )
 577:STM32F769/Middlewares/Third_Party/FreeRTOS/Source/timers.c **** 				{
 578:STM32F769/Middlewares/Third_Party/FreeRTOS/Source/timers.c **** 					/* Yield to wait for either a command to arrive, or the
 579:STM32F769/Middlewares/Third_Party/FreeRTOS/Source/timers.c **** 					block time to expire.  If a command arrived between the
 580:STM32F769/Middlewares/Third_Party/FreeRTOS/Source/timers.c **** 					critical section being exited and this yield then the yield
 581:STM32F769/Middlewares/Third_Party/FreeRTOS/Source/timers.c **** 					will not cause the task to block. */
 582:STM32F769/Middlewares/Third_Party/FreeRTOS/Source/timers.c **** 					portYIELD_WITHIN_API();
 583:STM32F769/Middlewares/Third_Party/FreeRTOS/Source/timers.c **** 				}
 584:STM32F769/Middlewares/Third_Party/FreeRTOS/Source/timers.c **** 				else
 585:STM32F769/Middlewares/Third_Party/FreeRTOS/Source/timers.c **** 				{
 586:STM32F769/Middlewares/Third_Party/FreeRTOS/Source/timers.c **** 					mtCOVERAGE_TEST_MARKER();
 587:STM32F769/Middlewares/Third_Party/FreeRTOS/Source/timers.c **** 				}
 588:STM32F769/Middlewares/Third_Party/FreeRTOS/Source/timers.c **** 			}
 589:STM32F769/Middlewares/Third_Party/FreeRTOS/Source/timers.c **** 		}
 590:STM32F769/Middlewares/Third_Party/FreeRTOS/Source/timers.c **** 		else
 591:STM32F769/Middlewares/Third_Party/FreeRTOS/Source/timers.c **** 		{
 592:STM32F769/Middlewares/Third_Party/FreeRTOS/Source/timers.c **** 			( void ) xTaskResumeAll();
 593:STM32F769/Middlewares/Third_Party/FreeRTOS/Source/timers.c **** 		}
 594:STM32F769/Middlewares/Third_Party/FreeRTOS/Source/timers.c **** 	}
 595:STM32F769/Middlewares/Third_Party/FreeRTOS/Source/timers.c **** }
 596:STM32F769/Middlewares/Third_Party/FreeRTOS/Source/timers.c **** /*-----------------------------------------------------------*/
 597:STM32F769/Middlewares/Third_Party/FreeRTOS/Source/timers.c **** 
 598:STM32F769/Middlewares/Third_Party/FreeRTOS/Source/timers.c **** static TickType_t prvGetNextExpireTime( BaseType_t * const pxListWasEmpty )
 599:STM32F769/Middlewares/Third_Party/FreeRTOS/Source/timers.c **** {
  28              		.loc 1 599 1 view -0
  29              		.cfi_startproc
ARM GAS  /tmp/ccAupAkp.s 			page 12


  30              		@ args = 0, pretend = 0, frame = 0
  31              		@ frame_needed = 0, uses_anonymous_args = 0
  32              		@ link register save eliminated.
 600:STM32F769/Middlewares/Third_Party/FreeRTOS/Source/timers.c **** TickType_t xNextExpireTime;
  33              		.loc 1 600 1 view .LVU1
 601:STM32F769/Middlewares/Third_Party/FreeRTOS/Source/timers.c **** 
 602:STM32F769/Middlewares/Third_Party/FreeRTOS/Source/timers.c **** 	/* Timers are listed in expiry time order, with the head of the list
 603:STM32F769/Middlewares/Third_Party/FreeRTOS/Source/timers.c **** 	referencing the task that will expire first.  Obtain the time at which
 604:STM32F769/Middlewares/Third_Party/FreeRTOS/Source/timers.c **** 	the timer with the nearest expiry time will expire.  If there are no
 605:STM32F769/Middlewares/Third_Party/FreeRTOS/Source/timers.c **** 	active timers then just set the next expire time to 0.  That will cause
 606:STM32F769/Middlewares/Third_Party/FreeRTOS/Source/timers.c **** 	this task to unblock when the tick count overflows, at which point the
 607:STM32F769/Middlewares/Third_Party/FreeRTOS/Source/timers.c **** 	timer lists will be switched and the next expiry time can be
 608:STM32F769/Middlewares/Third_Party/FreeRTOS/Source/timers.c **** 	re-assessed.  */
 609:STM32F769/Middlewares/Third_Party/FreeRTOS/Source/timers.c **** 	*pxListWasEmpty = listLIST_IS_EMPTY( pxCurrentTimerList );
  34              		.loc 1 609 2 view .LVU2
  35              		.loc 1 609 20 is_stmt 0 view .LVU3
  36 0000 064B     		ldr	r3, .L4
  37 0002 1A68     		ldr	r2, [r3]
  38 0004 1368     		ldr	r3, [r2]
  39 0006 B3FA83F3 		clz	r3, r3
  40 000a 5B09     		lsrs	r3, r3, #5
  41              		.loc 1 609 18 view .LVU4
  42 000c 0360     		str	r3, [r0]
 610:STM32F769/Middlewares/Third_Party/FreeRTOS/Source/timers.c **** 	if( *pxListWasEmpty == pdFALSE )
  43              		.loc 1 610 2 is_stmt 1 view .LVU5
  44              		.loc 1 610 4 is_stmt 0 view .LVU6
  45 000e 13B9     		cbnz	r3, .L3
 611:STM32F769/Middlewares/Third_Party/FreeRTOS/Source/timers.c **** 	{
 612:STM32F769/Middlewares/Third_Party/FreeRTOS/Source/timers.c **** 		xNextExpireTime = listGET_ITEM_VALUE_OF_HEAD_ENTRY( pxCurrentTimerList );
  46              		.loc 1 612 3 is_stmt 1 view .LVU7
  47              		.loc 1 612 21 is_stmt 0 view .LVU8
  48 0010 D368     		ldr	r3, [r2, #12]
  49              		.loc 1 612 19 view .LVU9
  50 0012 1868     		ldr	r0, [r3]
  51              	.LVL1:
  52              		.loc 1 612 19 view .LVU10
  53 0014 7047     		bx	lr
  54              	.LVL2:
  55              	.L3:
 613:STM32F769/Middlewares/Third_Party/FreeRTOS/Source/timers.c **** 	}
 614:STM32F769/Middlewares/Third_Party/FreeRTOS/Source/timers.c **** 	else
 615:STM32F769/Middlewares/Third_Party/FreeRTOS/Source/timers.c **** 	{
 616:STM32F769/Middlewares/Third_Party/FreeRTOS/Source/timers.c **** 		/* Ensure the task unblocks when the tick count rolls over. */
 617:STM32F769/Middlewares/Third_Party/FreeRTOS/Source/timers.c **** 		xNextExpireTime = ( TickType_t ) 0U;
  56              		.loc 1 617 19 view .LVU11
  57 0016 0020     		movs	r0, #0
  58              	.LVL3:
 618:STM32F769/Middlewares/Third_Party/FreeRTOS/Source/timers.c **** 	}
 619:STM32F769/Middlewares/Third_Party/FreeRTOS/Source/timers.c **** 
 620:STM32F769/Middlewares/Third_Party/FreeRTOS/Source/timers.c **** 	return xNextExpireTime;
  59              		.loc 1 620 2 is_stmt 1 view .LVU12
 621:STM32F769/Middlewares/Third_Party/FreeRTOS/Source/timers.c **** }
  60              		.loc 1 621 1 is_stmt 0 view .LVU13
  61 0018 7047     		bx	lr
  62              	.L5:
  63 001a 00BF     		.align	2
  64              	.L4:
ARM GAS  /tmp/ccAupAkp.s 			page 13


  65 001c 00000000 		.word	.LANCHOR0
  66              		.cfi_endproc
  67              	.LFE16:
  69              		.section	.text.prvInsertTimerInActiveList,"ax",%progbits
  70              		.align	1
  71              		.syntax unified
  72              		.thumb
  73              		.thumb_func
  74              		.fpu fpv5-d16
  76              	prvInsertTimerInActiveList:
  77              	.LVL4:
  78              	.LFB18:
 622:STM32F769/Middlewares/Third_Party/FreeRTOS/Source/timers.c **** /*-----------------------------------------------------------*/
 623:STM32F769/Middlewares/Third_Party/FreeRTOS/Source/timers.c **** 
 624:STM32F769/Middlewares/Third_Party/FreeRTOS/Source/timers.c **** static TickType_t prvSampleTimeNow( BaseType_t * const pxTimerListsWereSwitched )
 625:STM32F769/Middlewares/Third_Party/FreeRTOS/Source/timers.c **** {
 626:STM32F769/Middlewares/Third_Party/FreeRTOS/Source/timers.c **** TickType_t xTimeNow;
 627:STM32F769/Middlewares/Third_Party/FreeRTOS/Source/timers.c **** PRIVILEGED_DATA static TickType_t xLastTime = ( TickType_t ) 0U; /*lint !e956 Variable is only acce
 628:STM32F769/Middlewares/Third_Party/FreeRTOS/Source/timers.c **** 
 629:STM32F769/Middlewares/Third_Party/FreeRTOS/Source/timers.c **** 	xTimeNow = xTaskGetTickCount();
 630:STM32F769/Middlewares/Third_Party/FreeRTOS/Source/timers.c **** 
 631:STM32F769/Middlewares/Third_Party/FreeRTOS/Source/timers.c **** 	if( xTimeNow < xLastTime )
 632:STM32F769/Middlewares/Third_Party/FreeRTOS/Source/timers.c **** 	{
 633:STM32F769/Middlewares/Third_Party/FreeRTOS/Source/timers.c **** 		prvSwitchTimerLists();
 634:STM32F769/Middlewares/Third_Party/FreeRTOS/Source/timers.c **** 		*pxTimerListsWereSwitched = pdTRUE;
 635:STM32F769/Middlewares/Third_Party/FreeRTOS/Source/timers.c **** 	}
 636:STM32F769/Middlewares/Third_Party/FreeRTOS/Source/timers.c **** 	else
 637:STM32F769/Middlewares/Third_Party/FreeRTOS/Source/timers.c **** 	{
 638:STM32F769/Middlewares/Third_Party/FreeRTOS/Source/timers.c **** 		*pxTimerListsWereSwitched = pdFALSE;
 639:STM32F769/Middlewares/Third_Party/FreeRTOS/Source/timers.c **** 	}
 640:STM32F769/Middlewares/Third_Party/FreeRTOS/Source/timers.c **** 
 641:STM32F769/Middlewares/Third_Party/FreeRTOS/Source/timers.c **** 	xLastTime = xTimeNow;
 642:STM32F769/Middlewares/Third_Party/FreeRTOS/Source/timers.c **** 
 643:STM32F769/Middlewares/Third_Party/FreeRTOS/Source/timers.c **** 	return xTimeNow;
 644:STM32F769/Middlewares/Third_Party/FreeRTOS/Source/timers.c **** }
 645:STM32F769/Middlewares/Third_Party/FreeRTOS/Source/timers.c **** /*-----------------------------------------------------------*/
 646:STM32F769/Middlewares/Third_Party/FreeRTOS/Source/timers.c **** 
 647:STM32F769/Middlewares/Third_Party/FreeRTOS/Source/timers.c **** static BaseType_t prvInsertTimerInActiveList( Timer_t * const pxTimer, const TickType_t xNextExpiry
 648:STM32F769/Middlewares/Third_Party/FreeRTOS/Source/timers.c **** {
  79              		.loc 1 648 1 is_stmt 1 view -0
  80              		.cfi_startproc
  81              		@ args = 0, pretend = 0, frame = 0
  82              		@ frame_needed = 0, uses_anonymous_args = 0
  83              		.loc 1 648 1 is_stmt 0 view .LVU15
  84 0000 08B5     		push	{r3, lr}
  85              	.LCFI0:
  86              		.cfi_def_cfa_offset 8
  87              		.cfi_offset 3, -8
  88              		.cfi_offset 14, -4
 649:STM32F769/Middlewares/Third_Party/FreeRTOS/Source/timers.c **** BaseType_t xProcessTimerNow = pdFALSE;
  89              		.loc 1 649 1 is_stmt 1 view .LVU16
  90              	.LVL5:
 650:STM32F769/Middlewares/Third_Party/FreeRTOS/Source/timers.c **** 
 651:STM32F769/Middlewares/Third_Party/FreeRTOS/Source/timers.c **** 	listSET_LIST_ITEM_VALUE( &( pxTimer->xTimerListItem ), xNextExpiryTime );
  91              		.loc 1 651 2 view .LVU17
  92 0002 4160     		str	r1, [r0, #4]
 652:STM32F769/Middlewares/Third_Party/FreeRTOS/Source/timers.c **** 	listSET_LIST_ITEM_OWNER( &( pxTimer->xTimerListItem ), pxTimer );
ARM GAS  /tmp/ccAupAkp.s 			page 14


  93              		.loc 1 652 2 view .LVU18
  94 0004 0061     		str	r0, [r0, #16]
 653:STM32F769/Middlewares/Third_Party/FreeRTOS/Source/timers.c **** 
 654:STM32F769/Middlewares/Third_Party/FreeRTOS/Source/timers.c **** 	if( xNextExpiryTime <= xTimeNow )
  95              		.loc 1 654 2 view .LVU19
  96              		.loc 1 654 4 is_stmt 0 view .LVU20
  97 0006 9142     		cmp	r1, r2
  98 0008 0CD8     		bhi	.L7
 655:STM32F769/Middlewares/Third_Party/FreeRTOS/Source/timers.c **** 	{
 656:STM32F769/Middlewares/Third_Party/FreeRTOS/Source/timers.c **** 		/* Has the expiry time elapsed between the command to start/reset a
 657:STM32F769/Middlewares/Third_Party/FreeRTOS/Source/timers.c **** 		timer was issued, and the time the command was processed? */
 658:STM32F769/Middlewares/Third_Party/FreeRTOS/Source/timers.c **** 		if( ( ( TickType_t ) ( xTimeNow - xCommandTime ) ) >= pxTimer->xTimerPeriodInTicks ) /*lint !e961
  99              		.loc 1 658 3 is_stmt 1 view .LVU21
 100              		.loc 1 658 9 is_stmt 0 view .LVU22
 101 000a D21A     		subs	r2, r2, r3
 102              	.LVL6:
 103              		.loc 1 658 64 view .LVU23
 104 000c 8369     		ldr	r3, [r0, #24]
 105              	.LVL7:
 106              		.loc 1 658 5 view .LVU24
 107 000e 9A42     		cmp	r2, r3
 108 0010 01D3     		bcc	.L12
 659:STM32F769/Middlewares/Third_Party/FreeRTOS/Source/timers.c **** 		{
 660:STM32F769/Middlewares/Third_Party/FreeRTOS/Source/timers.c **** 			/* The time between a command being issued and the command being
 661:STM32F769/Middlewares/Third_Party/FreeRTOS/Source/timers.c **** 			processed actually exceeds the timers period.  */
 662:STM32F769/Middlewares/Third_Party/FreeRTOS/Source/timers.c **** 			xProcessTimerNow = pdTRUE;
 109              		.loc 1 662 21 view .LVU25
 110 0012 0120     		movs	r0, #1
 111              	.LVL8:
 112              	.L6:
 663:STM32F769/Middlewares/Third_Party/FreeRTOS/Source/timers.c **** 		}
 664:STM32F769/Middlewares/Third_Party/FreeRTOS/Source/timers.c **** 		else
 665:STM32F769/Middlewares/Third_Party/FreeRTOS/Source/timers.c **** 		{
 666:STM32F769/Middlewares/Third_Party/FreeRTOS/Source/timers.c **** 			vListInsert( pxOverflowTimerList, &( pxTimer->xTimerListItem ) );
 667:STM32F769/Middlewares/Third_Party/FreeRTOS/Source/timers.c **** 		}
 668:STM32F769/Middlewares/Third_Party/FreeRTOS/Source/timers.c **** 	}
 669:STM32F769/Middlewares/Third_Party/FreeRTOS/Source/timers.c **** 	else
 670:STM32F769/Middlewares/Third_Party/FreeRTOS/Source/timers.c **** 	{
 671:STM32F769/Middlewares/Third_Party/FreeRTOS/Source/timers.c **** 		if( ( xTimeNow < xCommandTime ) && ( xNextExpiryTime >= xCommandTime ) )
 672:STM32F769/Middlewares/Third_Party/FreeRTOS/Source/timers.c **** 		{
 673:STM32F769/Middlewares/Third_Party/FreeRTOS/Source/timers.c **** 			/* If, since the command was issued, the tick count has overflowed
 674:STM32F769/Middlewares/Third_Party/FreeRTOS/Source/timers.c **** 			but the expiry time has not, then the timer must have already passed
 675:STM32F769/Middlewares/Third_Party/FreeRTOS/Source/timers.c **** 			its expiry time and should be processed immediately. */
 676:STM32F769/Middlewares/Third_Party/FreeRTOS/Source/timers.c **** 			xProcessTimerNow = pdTRUE;
 677:STM32F769/Middlewares/Third_Party/FreeRTOS/Source/timers.c **** 		}
 678:STM32F769/Middlewares/Third_Party/FreeRTOS/Source/timers.c **** 		else
 679:STM32F769/Middlewares/Third_Party/FreeRTOS/Source/timers.c **** 		{
 680:STM32F769/Middlewares/Third_Party/FreeRTOS/Source/timers.c **** 			vListInsert( pxCurrentTimerList, &( pxTimer->xTimerListItem ) );
 681:STM32F769/Middlewares/Third_Party/FreeRTOS/Source/timers.c **** 		}
 682:STM32F769/Middlewares/Third_Party/FreeRTOS/Source/timers.c **** 	}
 683:STM32F769/Middlewares/Third_Party/FreeRTOS/Source/timers.c **** 
 684:STM32F769/Middlewares/Third_Party/FreeRTOS/Source/timers.c **** 	return xProcessTimerNow;
 685:STM32F769/Middlewares/Third_Party/FreeRTOS/Source/timers.c **** }
 113              		.loc 1 685 1 view .LVU26
 114 0014 08BD     		pop	{r3, pc}
 115              	.LVL9:
 116              	.L12:
ARM GAS  /tmp/ccAupAkp.s 			page 15


 666:STM32F769/Middlewares/Third_Party/FreeRTOS/Source/timers.c **** 		}
 117              		.loc 1 666 4 is_stmt 1 view .LVU27
 118 0016 011D     		adds	r1, r0, #4
 119              	.LVL10:
 666:STM32F769/Middlewares/Third_Party/FreeRTOS/Source/timers.c **** 		}
 120              		.loc 1 666 4 is_stmt 0 view .LVU28
 121 0018 0B4B     		ldr	r3, .L14
 122 001a 1868     		ldr	r0, [r3]
 123              	.LVL11:
 666:STM32F769/Middlewares/Third_Party/FreeRTOS/Source/timers.c **** 		}
 124              		.loc 1 666 4 view .LVU29
 125 001c FFF7FEFF 		bl	vListInsert
 126              	.LVL12:
 649:STM32F769/Middlewares/Third_Party/FreeRTOS/Source/timers.c **** 
 127              		.loc 1 649 12 view .LVU30
 128 0020 0020     		movs	r0, #0
 129 0022 F7E7     		b	.L6
 130              	.LVL13:
 131              	.L7:
 671:STM32F769/Middlewares/Third_Party/FreeRTOS/Source/timers.c **** 		{
 132              		.loc 1 671 3 is_stmt 1 view .LVU31
 671:STM32F769/Middlewares/Third_Party/FreeRTOS/Source/timers.c **** 		{
 133              		.loc 1 671 35 is_stmt 0 view .LVU32
 134 0024 9A42     		cmp	r2, r3
 135 0026 2CBF     		ite	cs
 136 0028 0022     		movcs	r2, #0
 137              	.LVL14:
 671:STM32F769/Middlewares/Third_Party/FreeRTOS/Source/timers.c **** 		{
 138              		.loc 1 671 35 view .LVU33
 139 002a 0122     		movcc	r2, #1
 140 002c 9942     		cmp	r1, r3
 141 002e 38BF     		it	cc
 142 0030 0022     		movcc	r2, #0
 671:STM32F769/Middlewares/Third_Party/FreeRTOS/Source/timers.c **** 		{
 143              		.loc 1 671 5 view .LVU34
 144 0032 0AB1     		cbz	r2, .L13
 676:STM32F769/Middlewares/Third_Party/FreeRTOS/Source/timers.c **** 		}
 145              		.loc 1 676 21 view .LVU35
 146 0034 0120     		movs	r0, #1
 147              	.LVL15:
 684:STM32F769/Middlewares/Third_Party/FreeRTOS/Source/timers.c **** }
 148              		.loc 1 684 2 is_stmt 1 view .LVU36
 684:STM32F769/Middlewares/Third_Party/FreeRTOS/Source/timers.c **** }
 149              		.loc 1 684 9 is_stmt 0 view .LVU37
 150 0036 EDE7     		b	.L6
 151              	.LVL16:
 152              	.L13:
 680:STM32F769/Middlewares/Third_Party/FreeRTOS/Source/timers.c **** 		}
 153              		.loc 1 680 4 is_stmt 1 view .LVU38
 154 0038 011D     		adds	r1, r0, #4
 155              	.LVL17:
 680:STM32F769/Middlewares/Third_Party/FreeRTOS/Source/timers.c **** 		}
 156              		.loc 1 680 4 is_stmt 0 view .LVU39
 157 003a 044B     		ldr	r3, .L14+4
 158              	.LVL18:
 680:STM32F769/Middlewares/Third_Party/FreeRTOS/Source/timers.c **** 		}
 159              		.loc 1 680 4 view .LVU40
ARM GAS  /tmp/ccAupAkp.s 			page 16


 160 003c 1868     		ldr	r0, [r3]
 161              	.LVL19:
 680:STM32F769/Middlewares/Third_Party/FreeRTOS/Source/timers.c **** 		}
 162              		.loc 1 680 4 view .LVU41
 163 003e FFF7FEFF 		bl	vListInsert
 164              	.LVL20:
 649:STM32F769/Middlewares/Third_Party/FreeRTOS/Source/timers.c **** 
 165              		.loc 1 649 12 view .LVU42
 166 0042 0020     		movs	r0, #0
 167 0044 E6E7     		b	.L6
 168              	.L15:
 169 0046 00BF     		.align	2
 170              	.L14:
 171 0048 00000000 		.word	.LANCHOR1
 172 004c 00000000 		.word	.LANCHOR0
 173              		.cfi_endproc
 174              	.LFE18:
 176              		.section	.text.prvCheckForValidListAndQueue,"ax",%progbits
 177              		.align	1
 178              		.syntax unified
 179              		.thumb
 180              		.thumb_func
 181              		.fpu fpv5-d16
 183              	prvCheckForValidListAndQueue:
 184              	.LFB21:
 686:STM32F769/Middlewares/Third_Party/FreeRTOS/Source/timers.c **** /*-----------------------------------------------------------*/
 687:STM32F769/Middlewares/Third_Party/FreeRTOS/Source/timers.c **** 
 688:STM32F769/Middlewares/Third_Party/FreeRTOS/Source/timers.c **** static void	prvProcessReceivedCommands( void )
 689:STM32F769/Middlewares/Third_Party/FreeRTOS/Source/timers.c **** {
 690:STM32F769/Middlewares/Third_Party/FreeRTOS/Source/timers.c **** DaemonTaskMessage_t xMessage;
 691:STM32F769/Middlewares/Third_Party/FreeRTOS/Source/timers.c **** Timer_t *pxTimer;
 692:STM32F769/Middlewares/Third_Party/FreeRTOS/Source/timers.c **** BaseType_t xTimerListsWereSwitched, xResult;
 693:STM32F769/Middlewares/Third_Party/FreeRTOS/Source/timers.c **** TickType_t xTimeNow;
 694:STM32F769/Middlewares/Third_Party/FreeRTOS/Source/timers.c **** 
 695:STM32F769/Middlewares/Third_Party/FreeRTOS/Source/timers.c **** 	while( xQueueReceive( xTimerQueue, &xMessage, tmrNO_DELAY ) != pdFAIL ) /*lint !e603 xMessage does
 696:STM32F769/Middlewares/Third_Party/FreeRTOS/Source/timers.c **** 	{
 697:STM32F769/Middlewares/Third_Party/FreeRTOS/Source/timers.c **** 		#if ( INCLUDE_xTimerPendFunctionCall == 1 )
 698:STM32F769/Middlewares/Third_Party/FreeRTOS/Source/timers.c **** 		{
 699:STM32F769/Middlewares/Third_Party/FreeRTOS/Source/timers.c **** 			/* Negative commands are pended function calls rather than timer
 700:STM32F769/Middlewares/Third_Party/FreeRTOS/Source/timers.c **** 			commands. */
 701:STM32F769/Middlewares/Third_Party/FreeRTOS/Source/timers.c **** 			if( xMessage.xMessageID < ( BaseType_t ) 0 )
 702:STM32F769/Middlewares/Third_Party/FreeRTOS/Source/timers.c **** 			{
 703:STM32F769/Middlewares/Third_Party/FreeRTOS/Source/timers.c **** 				const CallbackParameters_t * const pxCallback = &( xMessage.u.xCallbackParameters );
 704:STM32F769/Middlewares/Third_Party/FreeRTOS/Source/timers.c **** 
 705:STM32F769/Middlewares/Third_Party/FreeRTOS/Source/timers.c **** 				/* The timer uses the xCallbackParameters member to request a
 706:STM32F769/Middlewares/Third_Party/FreeRTOS/Source/timers.c **** 				callback be executed.  Check the callback is not NULL. */
 707:STM32F769/Middlewares/Third_Party/FreeRTOS/Source/timers.c **** 				configASSERT( pxCallback );
 708:STM32F769/Middlewares/Third_Party/FreeRTOS/Source/timers.c **** 
 709:STM32F769/Middlewares/Third_Party/FreeRTOS/Source/timers.c **** 				/* Call the function. */
 710:STM32F769/Middlewares/Third_Party/FreeRTOS/Source/timers.c **** 				pxCallback->pxCallbackFunction( pxCallback->pvParameter1, pxCallback->ulParameter2 );
 711:STM32F769/Middlewares/Third_Party/FreeRTOS/Source/timers.c **** 			}
 712:STM32F769/Middlewares/Third_Party/FreeRTOS/Source/timers.c **** 			else
 713:STM32F769/Middlewares/Third_Party/FreeRTOS/Source/timers.c **** 			{
 714:STM32F769/Middlewares/Third_Party/FreeRTOS/Source/timers.c **** 				mtCOVERAGE_TEST_MARKER();
 715:STM32F769/Middlewares/Third_Party/FreeRTOS/Source/timers.c **** 			}
 716:STM32F769/Middlewares/Third_Party/FreeRTOS/Source/timers.c **** 		}
 717:STM32F769/Middlewares/Third_Party/FreeRTOS/Source/timers.c **** 		#endif /* INCLUDE_xTimerPendFunctionCall */
ARM GAS  /tmp/ccAupAkp.s 			page 17


 718:STM32F769/Middlewares/Third_Party/FreeRTOS/Source/timers.c **** 
 719:STM32F769/Middlewares/Third_Party/FreeRTOS/Source/timers.c **** 		/* Commands that are positive are timer commands rather than pended
 720:STM32F769/Middlewares/Third_Party/FreeRTOS/Source/timers.c **** 		function calls. */
 721:STM32F769/Middlewares/Third_Party/FreeRTOS/Source/timers.c **** 		if( xMessage.xMessageID >= ( BaseType_t ) 0 )
 722:STM32F769/Middlewares/Third_Party/FreeRTOS/Source/timers.c **** 		{
 723:STM32F769/Middlewares/Third_Party/FreeRTOS/Source/timers.c **** 			/* The messages uses the xTimerParameters member to work on a
 724:STM32F769/Middlewares/Third_Party/FreeRTOS/Source/timers.c **** 			software timer. */
 725:STM32F769/Middlewares/Third_Party/FreeRTOS/Source/timers.c **** 			pxTimer = xMessage.u.xTimerParameters.pxTimer;
 726:STM32F769/Middlewares/Third_Party/FreeRTOS/Source/timers.c **** 
 727:STM32F769/Middlewares/Third_Party/FreeRTOS/Source/timers.c **** 			if( listIS_CONTAINED_WITHIN( NULL, &( pxTimer->xTimerListItem ) ) == pdFALSE ) /*lint !e961. The
 728:STM32F769/Middlewares/Third_Party/FreeRTOS/Source/timers.c **** 			{
 729:STM32F769/Middlewares/Third_Party/FreeRTOS/Source/timers.c **** 				/* The timer is in a list, remove it. */
 730:STM32F769/Middlewares/Third_Party/FreeRTOS/Source/timers.c **** 				( void ) uxListRemove( &( pxTimer->xTimerListItem ) );
 731:STM32F769/Middlewares/Third_Party/FreeRTOS/Source/timers.c **** 			}
 732:STM32F769/Middlewares/Third_Party/FreeRTOS/Source/timers.c **** 			else
 733:STM32F769/Middlewares/Third_Party/FreeRTOS/Source/timers.c **** 			{
 734:STM32F769/Middlewares/Third_Party/FreeRTOS/Source/timers.c **** 				mtCOVERAGE_TEST_MARKER();
 735:STM32F769/Middlewares/Third_Party/FreeRTOS/Source/timers.c **** 			}
 736:STM32F769/Middlewares/Third_Party/FreeRTOS/Source/timers.c **** 
 737:STM32F769/Middlewares/Third_Party/FreeRTOS/Source/timers.c **** 			traceTIMER_COMMAND_RECEIVED( pxTimer, xMessage.xMessageID, xMessage.u.xTimerParameters.xMessageV
 738:STM32F769/Middlewares/Third_Party/FreeRTOS/Source/timers.c **** 
 739:STM32F769/Middlewares/Third_Party/FreeRTOS/Source/timers.c **** 			/* In this case the xTimerListsWereSwitched parameter is not used, but
 740:STM32F769/Middlewares/Third_Party/FreeRTOS/Source/timers.c **** 			it must be present in the function call.  prvSampleTimeNow() must be
 741:STM32F769/Middlewares/Third_Party/FreeRTOS/Source/timers.c **** 			called after the message is received from xTimerQueue so there is no
 742:STM32F769/Middlewares/Third_Party/FreeRTOS/Source/timers.c **** 			possibility of a higher priority task adding a message to the message
 743:STM32F769/Middlewares/Third_Party/FreeRTOS/Source/timers.c **** 			queue with a time that is ahead of the timer daemon task (because it
 744:STM32F769/Middlewares/Third_Party/FreeRTOS/Source/timers.c **** 			pre-empted the timer daemon task after the xTimeNow value was set). */
 745:STM32F769/Middlewares/Third_Party/FreeRTOS/Source/timers.c **** 			xTimeNow = prvSampleTimeNow( &xTimerListsWereSwitched );
 746:STM32F769/Middlewares/Third_Party/FreeRTOS/Source/timers.c **** 
 747:STM32F769/Middlewares/Third_Party/FreeRTOS/Source/timers.c **** 			switch( xMessage.xMessageID )
 748:STM32F769/Middlewares/Third_Party/FreeRTOS/Source/timers.c **** 			{
 749:STM32F769/Middlewares/Third_Party/FreeRTOS/Source/timers.c **** 				case tmrCOMMAND_START :
 750:STM32F769/Middlewares/Third_Party/FreeRTOS/Source/timers.c **** 			    case tmrCOMMAND_START_FROM_ISR :
 751:STM32F769/Middlewares/Third_Party/FreeRTOS/Source/timers.c **** 			    case tmrCOMMAND_RESET :
 752:STM32F769/Middlewares/Third_Party/FreeRTOS/Source/timers.c **** 			    case tmrCOMMAND_RESET_FROM_ISR :
 753:STM32F769/Middlewares/Third_Party/FreeRTOS/Source/timers.c **** 				case tmrCOMMAND_START_DONT_TRACE :
 754:STM32F769/Middlewares/Third_Party/FreeRTOS/Source/timers.c **** 					/* Start or restart a timer. */
 755:STM32F769/Middlewares/Third_Party/FreeRTOS/Source/timers.c **** 					if( prvInsertTimerInActiveList( pxTimer,  xMessage.u.xTimerParameters.xMessageValue + pxTimer-
 756:STM32F769/Middlewares/Third_Party/FreeRTOS/Source/timers.c **** 					{
 757:STM32F769/Middlewares/Third_Party/FreeRTOS/Source/timers.c **** 						/* The timer expired before it was added to the active
 758:STM32F769/Middlewares/Third_Party/FreeRTOS/Source/timers.c **** 						timer list.  Process it now. */
 759:STM32F769/Middlewares/Third_Party/FreeRTOS/Source/timers.c **** 						pxTimer->pxCallbackFunction( ( TimerHandle_t ) pxTimer );
 760:STM32F769/Middlewares/Third_Party/FreeRTOS/Source/timers.c **** 						traceTIMER_EXPIRED( pxTimer );
 761:STM32F769/Middlewares/Third_Party/FreeRTOS/Source/timers.c **** 
 762:STM32F769/Middlewares/Third_Party/FreeRTOS/Source/timers.c **** 						if( pxTimer->uxAutoReload == ( UBaseType_t ) pdTRUE )
 763:STM32F769/Middlewares/Third_Party/FreeRTOS/Source/timers.c **** 						{
 764:STM32F769/Middlewares/Third_Party/FreeRTOS/Source/timers.c **** 							xResult = xTimerGenericCommand( pxTimer, tmrCOMMAND_START_DONT_TRACE, xMessage.u.xTimerParam
 765:STM32F769/Middlewares/Third_Party/FreeRTOS/Source/timers.c **** 							configASSERT( xResult );
 766:STM32F769/Middlewares/Third_Party/FreeRTOS/Source/timers.c **** 							( void ) xResult;
 767:STM32F769/Middlewares/Third_Party/FreeRTOS/Source/timers.c **** 						}
 768:STM32F769/Middlewares/Third_Party/FreeRTOS/Source/timers.c **** 						else
 769:STM32F769/Middlewares/Third_Party/FreeRTOS/Source/timers.c **** 						{
 770:STM32F769/Middlewares/Third_Party/FreeRTOS/Source/timers.c **** 							mtCOVERAGE_TEST_MARKER();
 771:STM32F769/Middlewares/Third_Party/FreeRTOS/Source/timers.c **** 						}
 772:STM32F769/Middlewares/Third_Party/FreeRTOS/Source/timers.c **** 					}
 773:STM32F769/Middlewares/Third_Party/FreeRTOS/Source/timers.c **** 					else
 774:STM32F769/Middlewares/Third_Party/FreeRTOS/Source/timers.c **** 					{
ARM GAS  /tmp/ccAupAkp.s 			page 18


 775:STM32F769/Middlewares/Third_Party/FreeRTOS/Source/timers.c **** 						mtCOVERAGE_TEST_MARKER();
 776:STM32F769/Middlewares/Third_Party/FreeRTOS/Source/timers.c **** 					}
 777:STM32F769/Middlewares/Third_Party/FreeRTOS/Source/timers.c **** 					break;
 778:STM32F769/Middlewares/Third_Party/FreeRTOS/Source/timers.c **** 
 779:STM32F769/Middlewares/Third_Party/FreeRTOS/Source/timers.c **** 				case tmrCOMMAND_STOP :
 780:STM32F769/Middlewares/Third_Party/FreeRTOS/Source/timers.c **** 				case tmrCOMMAND_STOP_FROM_ISR :
 781:STM32F769/Middlewares/Third_Party/FreeRTOS/Source/timers.c **** 					/* The timer has already been removed from the active list.
 782:STM32F769/Middlewares/Third_Party/FreeRTOS/Source/timers.c **** 					There is nothing to do here. */
 783:STM32F769/Middlewares/Third_Party/FreeRTOS/Source/timers.c **** 					break;
 784:STM32F769/Middlewares/Third_Party/FreeRTOS/Source/timers.c **** 
 785:STM32F769/Middlewares/Third_Party/FreeRTOS/Source/timers.c **** 				case tmrCOMMAND_CHANGE_PERIOD :
 786:STM32F769/Middlewares/Third_Party/FreeRTOS/Source/timers.c **** 				case tmrCOMMAND_CHANGE_PERIOD_FROM_ISR :
 787:STM32F769/Middlewares/Third_Party/FreeRTOS/Source/timers.c **** 					pxTimer->xTimerPeriodInTicks = xMessage.u.xTimerParameters.xMessageValue;
 788:STM32F769/Middlewares/Third_Party/FreeRTOS/Source/timers.c **** 					configASSERT( ( pxTimer->xTimerPeriodInTicks > 0 ) );
 789:STM32F769/Middlewares/Third_Party/FreeRTOS/Source/timers.c **** 
 790:STM32F769/Middlewares/Third_Party/FreeRTOS/Source/timers.c **** 					/* The new period does not really have a reference, and can
 791:STM32F769/Middlewares/Third_Party/FreeRTOS/Source/timers.c **** 					be longer or shorter than the old one.  The command time is
 792:STM32F769/Middlewares/Third_Party/FreeRTOS/Source/timers.c **** 					therefore set to the current time, and as the period cannot
 793:STM32F769/Middlewares/Third_Party/FreeRTOS/Source/timers.c **** 					be zero the next expiry time can only be in the future,
 794:STM32F769/Middlewares/Third_Party/FreeRTOS/Source/timers.c **** 					meaning (unlike for the xTimerStart() case above) there is
 795:STM32F769/Middlewares/Third_Party/FreeRTOS/Source/timers.c **** 					no fail case that needs to be handled here. */
 796:STM32F769/Middlewares/Third_Party/FreeRTOS/Source/timers.c **** 					( void ) prvInsertTimerInActiveList( pxTimer, ( xTimeNow + pxTimer->xTimerPeriodInTicks ), xTi
 797:STM32F769/Middlewares/Third_Party/FreeRTOS/Source/timers.c **** 					break;
 798:STM32F769/Middlewares/Third_Party/FreeRTOS/Source/timers.c **** 
 799:STM32F769/Middlewares/Third_Party/FreeRTOS/Source/timers.c **** 				case tmrCOMMAND_DELETE :
 800:STM32F769/Middlewares/Third_Party/FreeRTOS/Source/timers.c **** 					/* The timer has already been removed from the active list,
 801:STM32F769/Middlewares/Third_Party/FreeRTOS/Source/timers.c **** 					just free up the memory if the memory was dynamically
 802:STM32F769/Middlewares/Third_Party/FreeRTOS/Source/timers.c **** 					allocated. */
 803:STM32F769/Middlewares/Third_Party/FreeRTOS/Source/timers.c **** 					#if( ( configSUPPORT_DYNAMIC_ALLOCATION == 1 ) && ( configSUPPORT_STATIC_ALLOCATION == 0 ) )
 804:STM32F769/Middlewares/Third_Party/FreeRTOS/Source/timers.c **** 					{
 805:STM32F769/Middlewares/Third_Party/FreeRTOS/Source/timers.c **** 						/* The timer can only have been allocated dynamically -
 806:STM32F769/Middlewares/Third_Party/FreeRTOS/Source/timers.c **** 						free it again. */
 807:STM32F769/Middlewares/Third_Party/FreeRTOS/Source/timers.c **** 						vPortFree( pxTimer );
 808:STM32F769/Middlewares/Third_Party/FreeRTOS/Source/timers.c **** 					}
 809:STM32F769/Middlewares/Third_Party/FreeRTOS/Source/timers.c **** 					#elif( ( configSUPPORT_DYNAMIC_ALLOCATION == 1 ) && ( configSUPPORT_STATIC_ALLOCATION == 1 ) )
 810:STM32F769/Middlewares/Third_Party/FreeRTOS/Source/timers.c **** 					{
 811:STM32F769/Middlewares/Third_Party/FreeRTOS/Source/timers.c **** 						/* The timer could have been allocated statically or
 812:STM32F769/Middlewares/Third_Party/FreeRTOS/Source/timers.c **** 						dynamically, so check before attempting to free the
 813:STM32F769/Middlewares/Third_Party/FreeRTOS/Source/timers.c **** 						memory. */
 814:STM32F769/Middlewares/Third_Party/FreeRTOS/Source/timers.c **** 						if( pxTimer->ucStaticallyAllocated == ( uint8_t ) pdFALSE )
 815:STM32F769/Middlewares/Third_Party/FreeRTOS/Source/timers.c **** 						{
 816:STM32F769/Middlewares/Third_Party/FreeRTOS/Source/timers.c **** 							vPortFree( pxTimer );
 817:STM32F769/Middlewares/Third_Party/FreeRTOS/Source/timers.c **** 						}
 818:STM32F769/Middlewares/Third_Party/FreeRTOS/Source/timers.c **** 						else
 819:STM32F769/Middlewares/Third_Party/FreeRTOS/Source/timers.c **** 						{
 820:STM32F769/Middlewares/Third_Party/FreeRTOS/Source/timers.c **** 							mtCOVERAGE_TEST_MARKER();
 821:STM32F769/Middlewares/Third_Party/FreeRTOS/Source/timers.c **** 						}
 822:STM32F769/Middlewares/Third_Party/FreeRTOS/Source/timers.c **** 					}
 823:STM32F769/Middlewares/Third_Party/FreeRTOS/Source/timers.c **** 					#endif /* configSUPPORT_DYNAMIC_ALLOCATION */
 824:STM32F769/Middlewares/Third_Party/FreeRTOS/Source/timers.c **** 					break;
 825:STM32F769/Middlewares/Third_Party/FreeRTOS/Source/timers.c **** 
 826:STM32F769/Middlewares/Third_Party/FreeRTOS/Source/timers.c **** 				default	:
 827:STM32F769/Middlewares/Third_Party/FreeRTOS/Source/timers.c **** 					/* Don't expect to get here. */
 828:STM32F769/Middlewares/Third_Party/FreeRTOS/Source/timers.c **** 					break;
 829:STM32F769/Middlewares/Third_Party/FreeRTOS/Source/timers.c **** 			}
 830:STM32F769/Middlewares/Third_Party/FreeRTOS/Source/timers.c **** 		}
 831:STM32F769/Middlewares/Third_Party/FreeRTOS/Source/timers.c **** 	}
ARM GAS  /tmp/ccAupAkp.s 			page 19


 832:STM32F769/Middlewares/Third_Party/FreeRTOS/Source/timers.c **** }
 833:STM32F769/Middlewares/Third_Party/FreeRTOS/Source/timers.c **** /*-----------------------------------------------------------*/
 834:STM32F769/Middlewares/Third_Party/FreeRTOS/Source/timers.c **** 
 835:STM32F769/Middlewares/Third_Party/FreeRTOS/Source/timers.c **** static void prvSwitchTimerLists( void )
 836:STM32F769/Middlewares/Third_Party/FreeRTOS/Source/timers.c **** {
 837:STM32F769/Middlewares/Third_Party/FreeRTOS/Source/timers.c **** TickType_t xNextExpireTime, xReloadTime;
 838:STM32F769/Middlewares/Third_Party/FreeRTOS/Source/timers.c **** List_t *pxTemp;
 839:STM32F769/Middlewares/Third_Party/FreeRTOS/Source/timers.c **** Timer_t *pxTimer;
 840:STM32F769/Middlewares/Third_Party/FreeRTOS/Source/timers.c **** BaseType_t xResult;
 841:STM32F769/Middlewares/Third_Party/FreeRTOS/Source/timers.c **** 
 842:STM32F769/Middlewares/Third_Party/FreeRTOS/Source/timers.c **** 	/* The tick count has overflowed.  The timer lists must be switched.
 843:STM32F769/Middlewares/Third_Party/FreeRTOS/Source/timers.c **** 	If there are any timers still referenced from the current timer list
 844:STM32F769/Middlewares/Third_Party/FreeRTOS/Source/timers.c **** 	then they must have expired and should be processed before the lists
 845:STM32F769/Middlewares/Third_Party/FreeRTOS/Source/timers.c **** 	are switched. */
 846:STM32F769/Middlewares/Third_Party/FreeRTOS/Source/timers.c **** 	while( listLIST_IS_EMPTY( pxCurrentTimerList ) == pdFALSE )
 847:STM32F769/Middlewares/Third_Party/FreeRTOS/Source/timers.c **** 	{
 848:STM32F769/Middlewares/Third_Party/FreeRTOS/Source/timers.c **** 		xNextExpireTime = listGET_ITEM_VALUE_OF_HEAD_ENTRY( pxCurrentTimerList );
 849:STM32F769/Middlewares/Third_Party/FreeRTOS/Source/timers.c **** 
 850:STM32F769/Middlewares/Third_Party/FreeRTOS/Source/timers.c **** 		/* Remove the timer from the list. */
 851:STM32F769/Middlewares/Third_Party/FreeRTOS/Source/timers.c **** 		pxTimer = ( Timer_t * ) listGET_OWNER_OF_HEAD_ENTRY( pxCurrentTimerList );
 852:STM32F769/Middlewares/Third_Party/FreeRTOS/Source/timers.c **** 		( void ) uxListRemove( &( pxTimer->xTimerListItem ) );
 853:STM32F769/Middlewares/Third_Party/FreeRTOS/Source/timers.c **** 		traceTIMER_EXPIRED( pxTimer );
 854:STM32F769/Middlewares/Third_Party/FreeRTOS/Source/timers.c **** 
 855:STM32F769/Middlewares/Third_Party/FreeRTOS/Source/timers.c **** 		/* Execute its callback, then send a command to restart the timer if
 856:STM32F769/Middlewares/Third_Party/FreeRTOS/Source/timers.c **** 		it is an auto-reload timer.  It cannot be restarted here as the lists
 857:STM32F769/Middlewares/Third_Party/FreeRTOS/Source/timers.c **** 		have not yet been switched. */
 858:STM32F769/Middlewares/Third_Party/FreeRTOS/Source/timers.c **** 		pxTimer->pxCallbackFunction( ( TimerHandle_t ) pxTimer );
 859:STM32F769/Middlewares/Third_Party/FreeRTOS/Source/timers.c **** 
 860:STM32F769/Middlewares/Third_Party/FreeRTOS/Source/timers.c **** 		if( pxTimer->uxAutoReload == ( UBaseType_t ) pdTRUE )
 861:STM32F769/Middlewares/Third_Party/FreeRTOS/Source/timers.c **** 		{
 862:STM32F769/Middlewares/Third_Party/FreeRTOS/Source/timers.c **** 			/* Calculate the reload value, and if the reload value results in
 863:STM32F769/Middlewares/Third_Party/FreeRTOS/Source/timers.c **** 			the timer going into the same timer list then it has already expired
 864:STM32F769/Middlewares/Third_Party/FreeRTOS/Source/timers.c **** 			and the timer should be re-inserted into the current list so it is
 865:STM32F769/Middlewares/Third_Party/FreeRTOS/Source/timers.c **** 			processed again within this loop.  Otherwise a command should be sent
 866:STM32F769/Middlewares/Third_Party/FreeRTOS/Source/timers.c **** 			to restart the timer to ensure it is only inserted into a list after
 867:STM32F769/Middlewares/Third_Party/FreeRTOS/Source/timers.c **** 			the lists have been swapped. */
 868:STM32F769/Middlewares/Third_Party/FreeRTOS/Source/timers.c **** 			xReloadTime = ( xNextExpireTime + pxTimer->xTimerPeriodInTicks );
 869:STM32F769/Middlewares/Third_Party/FreeRTOS/Source/timers.c **** 			if( xReloadTime > xNextExpireTime )
 870:STM32F769/Middlewares/Third_Party/FreeRTOS/Source/timers.c **** 			{
 871:STM32F769/Middlewares/Third_Party/FreeRTOS/Source/timers.c **** 				listSET_LIST_ITEM_VALUE( &( pxTimer->xTimerListItem ), xReloadTime );
 872:STM32F769/Middlewares/Third_Party/FreeRTOS/Source/timers.c **** 				listSET_LIST_ITEM_OWNER( &( pxTimer->xTimerListItem ), pxTimer );
 873:STM32F769/Middlewares/Third_Party/FreeRTOS/Source/timers.c **** 				vListInsert( pxCurrentTimerList, &( pxTimer->xTimerListItem ) );
 874:STM32F769/Middlewares/Third_Party/FreeRTOS/Source/timers.c **** 			}
 875:STM32F769/Middlewares/Third_Party/FreeRTOS/Source/timers.c **** 			else
 876:STM32F769/Middlewares/Third_Party/FreeRTOS/Source/timers.c **** 			{
 877:STM32F769/Middlewares/Third_Party/FreeRTOS/Source/timers.c **** 				xResult = xTimerGenericCommand( pxTimer, tmrCOMMAND_START_DONT_TRACE, xNextExpireTime, NULL, tm
 878:STM32F769/Middlewares/Third_Party/FreeRTOS/Source/timers.c **** 				configASSERT( xResult );
 879:STM32F769/Middlewares/Third_Party/FreeRTOS/Source/timers.c **** 				( void ) xResult;
 880:STM32F769/Middlewares/Third_Party/FreeRTOS/Source/timers.c **** 			}
 881:STM32F769/Middlewares/Third_Party/FreeRTOS/Source/timers.c **** 		}
 882:STM32F769/Middlewares/Third_Party/FreeRTOS/Source/timers.c **** 		else
 883:STM32F769/Middlewares/Third_Party/FreeRTOS/Source/timers.c **** 		{
 884:STM32F769/Middlewares/Third_Party/FreeRTOS/Source/timers.c **** 			mtCOVERAGE_TEST_MARKER();
 885:STM32F769/Middlewares/Third_Party/FreeRTOS/Source/timers.c **** 		}
 886:STM32F769/Middlewares/Third_Party/FreeRTOS/Source/timers.c **** 	}
 887:STM32F769/Middlewares/Third_Party/FreeRTOS/Source/timers.c **** 
 888:STM32F769/Middlewares/Third_Party/FreeRTOS/Source/timers.c **** 	pxTemp = pxCurrentTimerList;
ARM GAS  /tmp/ccAupAkp.s 			page 20


 889:STM32F769/Middlewares/Third_Party/FreeRTOS/Source/timers.c **** 	pxCurrentTimerList = pxOverflowTimerList;
 890:STM32F769/Middlewares/Third_Party/FreeRTOS/Source/timers.c **** 	pxOverflowTimerList = pxTemp;
 891:STM32F769/Middlewares/Third_Party/FreeRTOS/Source/timers.c **** }
 892:STM32F769/Middlewares/Third_Party/FreeRTOS/Source/timers.c **** /*-----------------------------------------------------------*/
 893:STM32F769/Middlewares/Third_Party/FreeRTOS/Source/timers.c **** 
 894:STM32F769/Middlewares/Third_Party/FreeRTOS/Source/timers.c **** static void prvCheckForValidListAndQueue( void )
 895:STM32F769/Middlewares/Third_Party/FreeRTOS/Source/timers.c **** {
 185              		.loc 1 895 1 is_stmt 1 view -0
 186              		.cfi_startproc
 187              		@ args = 0, pretend = 0, frame = 0
 188              		@ frame_needed = 0, uses_anonymous_args = 0
 189 0000 30B5     		push	{r4, r5, lr}
 190              	.LCFI1:
 191              		.cfi_def_cfa_offset 12
 192              		.cfi_offset 4, -12
 193              		.cfi_offset 5, -8
 194              		.cfi_offset 14, -4
 195 0002 83B0     		sub	sp, sp, #12
 196              	.LCFI2:
 197              		.cfi_def_cfa_offset 24
 896:STM32F769/Middlewares/Third_Party/FreeRTOS/Source/timers.c **** 	/* Check that the list from which active timers are referenced, and the
 897:STM32F769/Middlewares/Third_Party/FreeRTOS/Source/timers.c **** 	queue used to communicate with the timer service, have been
 898:STM32F769/Middlewares/Third_Party/FreeRTOS/Source/timers.c **** 	initialised. */
 899:STM32F769/Middlewares/Third_Party/FreeRTOS/Source/timers.c **** 	taskENTER_CRITICAL();
 198              		.loc 1 899 2 view .LVU44
 199 0004 FFF7FEFF 		bl	vPortEnterCritical
 200              	.LVL21:
 900:STM32F769/Middlewares/Third_Party/FreeRTOS/Source/timers.c **** 	{
 901:STM32F769/Middlewares/Third_Party/FreeRTOS/Source/timers.c **** 		if( xTimerQueue == NULL )
 201              		.loc 1 901 3 view .LVU45
 202              		.loc 1 901 19 is_stmt 0 view .LVU46
 203 0008 114B     		ldr	r3, .L20
 204 000a 1B68     		ldr	r3, [r3]
 205              		.loc 1 901 5 view .LVU47
 206 000c 1BB1     		cbz	r3, .L19
 207              	.L17:
 902:STM32F769/Middlewares/Third_Party/FreeRTOS/Source/timers.c **** 		{
 903:STM32F769/Middlewares/Third_Party/FreeRTOS/Source/timers.c **** 			vListInitialise( &xActiveTimerList1 );
 904:STM32F769/Middlewares/Third_Party/FreeRTOS/Source/timers.c **** 			vListInitialise( &xActiveTimerList2 );
 905:STM32F769/Middlewares/Third_Party/FreeRTOS/Source/timers.c **** 			pxCurrentTimerList = &xActiveTimerList1;
 906:STM32F769/Middlewares/Third_Party/FreeRTOS/Source/timers.c **** 			pxOverflowTimerList = &xActiveTimerList2;
 907:STM32F769/Middlewares/Third_Party/FreeRTOS/Source/timers.c **** 
 908:STM32F769/Middlewares/Third_Party/FreeRTOS/Source/timers.c **** 			#if( configSUPPORT_STATIC_ALLOCATION == 1 )
 909:STM32F769/Middlewares/Third_Party/FreeRTOS/Source/timers.c **** 			{
 910:STM32F769/Middlewares/Third_Party/FreeRTOS/Source/timers.c **** 				/* The timer queue is allocated statically in case
 911:STM32F769/Middlewares/Third_Party/FreeRTOS/Source/timers.c **** 				configSUPPORT_DYNAMIC_ALLOCATION is 0. */
 912:STM32F769/Middlewares/Third_Party/FreeRTOS/Source/timers.c **** 				static StaticQueue_t xStaticTimerQueue; /*lint !e956 Ok to declare in this manner to prevent ad
 913:STM32F769/Middlewares/Third_Party/FreeRTOS/Source/timers.c **** 				static uint8_t ucStaticTimerQueueStorage[ ( size_t ) configTIMER_QUEUE_LENGTH * sizeof( DaemonT
 914:STM32F769/Middlewares/Third_Party/FreeRTOS/Source/timers.c **** 
 915:STM32F769/Middlewares/Third_Party/FreeRTOS/Source/timers.c **** 				xTimerQueue = xQueueCreateStatic( ( UBaseType_t ) configTIMER_QUEUE_LENGTH, ( UBaseType_t ) siz
 916:STM32F769/Middlewares/Third_Party/FreeRTOS/Source/timers.c **** 			}
 917:STM32F769/Middlewares/Third_Party/FreeRTOS/Source/timers.c **** 			#else
 918:STM32F769/Middlewares/Third_Party/FreeRTOS/Source/timers.c **** 			{
 919:STM32F769/Middlewares/Third_Party/FreeRTOS/Source/timers.c **** 				xTimerQueue = xQueueCreate( ( UBaseType_t ) configTIMER_QUEUE_LENGTH, sizeof( DaemonTaskMessage
 920:STM32F769/Middlewares/Third_Party/FreeRTOS/Source/timers.c **** 			}
 921:STM32F769/Middlewares/Third_Party/FreeRTOS/Source/timers.c **** 			#endif
 922:STM32F769/Middlewares/Third_Party/FreeRTOS/Source/timers.c **** 
ARM GAS  /tmp/ccAupAkp.s 			page 21


 923:STM32F769/Middlewares/Third_Party/FreeRTOS/Source/timers.c **** 			#if ( configQUEUE_REGISTRY_SIZE > 0 )
 924:STM32F769/Middlewares/Third_Party/FreeRTOS/Source/timers.c **** 			{
 925:STM32F769/Middlewares/Third_Party/FreeRTOS/Source/timers.c **** 				if( xTimerQueue != NULL )
 926:STM32F769/Middlewares/Third_Party/FreeRTOS/Source/timers.c **** 				{
 927:STM32F769/Middlewares/Third_Party/FreeRTOS/Source/timers.c **** 					vQueueAddToRegistry( xTimerQueue, "TmrQ" );
 928:STM32F769/Middlewares/Third_Party/FreeRTOS/Source/timers.c **** 				}
 929:STM32F769/Middlewares/Third_Party/FreeRTOS/Source/timers.c **** 				else
 930:STM32F769/Middlewares/Third_Party/FreeRTOS/Source/timers.c **** 				{
 931:STM32F769/Middlewares/Third_Party/FreeRTOS/Source/timers.c **** 					mtCOVERAGE_TEST_MARKER();
 932:STM32F769/Middlewares/Third_Party/FreeRTOS/Source/timers.c **** 				}
 933:STM32F769/Middlewares/Third_Party/FreeRTOS/Source/timers.c **** 			}
 934:STM32F769/Middlewares/Third_Party/FreeRTOS/Source/timers.c **** 			#endif /* configQUEUE_REGISTRY_SIZE */
 935:STM32F769/Middlewares/Third_Party/FreeRTOS/Source/timers.c **** 		}
 936:STM32F769/Middlewares/Third_Party/FreeRTOS/Source/timers.c **** 		else
 937:STM32F769/Middlewares/Third_Party/FreeRTOS/Source/timers.c **** 		{
 938:STM32F769/Middlewares/Third_Party/FreeRTOS/Source/timers.c **** 			mtCOVERAGE_TEST_MARKER();
 208              		.loc 1 938 28 is_stmt 1 view .LVU48
 939:STM32F769/Middlewares/Third_Party/FreeRTOS/Source/timers.c **** 		}
 940:STM32F769/Middlewares/Third_Party/FreeRTOS/Source/timers.c **** 	}
 941:STM32F769/Middlewares/Third_Party/FreeRTOS/Source/timers.c **** 	taskEXIT_CRITICAL();
 209              		.loc 1 941 2 view .LVU49
 210 000e FFF7FEFF 		bl	vPortExitCritical
 211              	.LVL22:
 942:STM32F769/Middlewares/Third_Party/FreeRTOS/Source/timers.c **** }
 212              		.loc 1 942 1 is_stmt 0 view .LVU50
 213 0012 03B0     		add	sp, sp, #12
 214              	.LCFI3:
 215              		.cfi_remember_state
 216              		.cfi_def_cfa_offset 12
 217              		@ sp needed
 218 0014 30BD     		pop	{r4, r5, pc}
 219              	.L19:
 220              	.LCFI4:
 221              		.cfi_restore_state
 903:STM32F769/Middlewares/Third_Party/FreeRTOS/Source/timers.c **** 			vListInitialise( &xActiveTimerList2 );
 222              		.loc 1 903 4 is_stmt 1 view .LVU51
 223 0016 0F4D     		ldr	r5, .L20+4
 224 0018 2846     		mov	r0, r5
 225 001a FFF7FEFF 		bl	vListInitialise
 226              	.LVL23:
 904:STM32F769/Middlewares/Third_Party/FreeRTOS/Source/timers.c **** 			pxCurrentTimerList = &xActiveTimerList1;
 227              		.loc 1 904 4 view .LVU52
 228 001e 0E4C     		ldr	r4, .L20+8
 229 0020 2046     		mov	r0, r4
 230 0022 FFF7FEFF 		bl	vListInitialise
 231              	.LVL24:
 905:STM32F769/Middlewares/Third_Party/FreeRTOS/Source/timers.c **** 			pxOverflowTimerList = &xActiveTimerList2;
 232              		.loc 1 905 4 view .LVU53
 905:STM32F769/Middlewares/Third_Party/FreeRTOS/Source/timers.c **** 			pxOverflowTimerList = &xActiveTimerList2;
 233              		.loc 1 905 23 is_stmt 0 view .LVU54
 234 0026 0D4B     		ldr	r3, .L20+12
 235 0028 1D60     		str	r5, [r3]
 906:STM32F769/Middlewares/Third_Party/FreeRTOS/Source/timers.c **** 
 236              		.loc 1 906 4 is_stmt 1 view .LVU55
 906:STM32F769/Middlewares/Third_Party/FreeRTOS/Source/timers.c **** 
 237              		.loc 1 906 24 is_stmt 0 view .LVU56
 238 002a 0D4B     		ldr	r3, .L20+16
ARM GAS  /tmp/ccAupAkp.s 			page 22


 239 002c 1C60     		str	r4, [r3]
 240              	.LBB41:
 912:STM32F769/Middlewares/Third_Party/FreeRTOS/Source/timers.c **** 				static uint8_t ucStaticTimerQueueStorage[ ( size_t ) configTIMER_QUEUE_LENGTH * sizeof( DaemonT
 241              		.loc 1 912 5 is_stmt 1 view .LVU57
 913:STM32F769/Middlewares/Third_Party/FreeRTOS/Source/timers.c **** 
 242              		.loc 1 913 5 view .LVU58
 915:STM32F769/Middlewares/Third_Party/FreeRTOS/Source/timers.c **** 			}
 243              		.loc 1 915 5 view .LVU59
 915:STM32F769/Middlewares/Third_Party/FreeRTOS/Source/timers.c **** 			}
 244              		.loc 1 915 19 is_stmt 0 view .LVU60
 245 002e 0023     		movs	r3, #0
 246 0030 0093     		str	r3, [sp]
 247 0032 0C4B     		ldr	r3, .L20+20
 248 0034 0C4A     		ldr	r2, .L20+24
 249 0036 1021     		movs	r1, #16
 250 0038 0A20     		movs	r0, #10
 251 003a FFF7FEFF 		bl	xQueueGenericCreateStatic
 252              	.LVL25:
 915:STM32F769/Middlewares/Third_Party/FreeRTOS/Source/timers.c **** 			}
 253              		.loc 1 915 17 view .LVU61
 254 003e 044B     		ldr	r3, .L20
 255 0040 1860     		str	r0, [r3]
 256              	.LBE41:
 925:STM32F769/Middlewares/Third_Party/FreeRTOS/Source/timers.c **** 				{
 257              		.loc 1 925 5 is_stmt 1 view .LVU62
 925:STM32F769/Middlewares/Third_Party/FreeRTOS/Source/timers.c **** 				{
 258              		.loc 1 925 7 is_stmt 0 view .LVU63
 259 0042 0028     		cmp	r0, #0
 260 0044 E3D0     		beq	.L17
 927:STM32F769/Middlewares/Third_Party/FreeRTOS/Source/timers.c **** 				}
 261              		.loc 1 927 6 is_stmt 1 view .LVU64
 262 0046 0949     		ldr	r1, .L20+28
 263 0048 FFF7FEFF 		bl	vQueueAddToRegistry
 264              	.LVL26:
 265 004c DFE7     		b	.L17
 266              	.L21:
 267 004e 00BF     		.align	2
 268              	.L20:
 269 0050 00000000 		.word	.LANCHOR2
 270 0054 00000000 		.word	.LANCHOR3
 271 0058 00000000 		.word	.LANCHOR4
 272 005c 00000000 		.word	.LANCHOR0
 273 0060 00000000 		.word	.LANCHOR1
 274 0064 00000000 		.word	.LANCHOR5
 275 0068 00000000 		.word	.LANCHOR6
 276 006c 00000000 		.word	.LC0
 277              		.cfi_endproc
 278              	.LFE21:
 280              		.section	.text.prvInitialiseNewTimer,"ax",%progbits
 281              		.align	1
 282              		.syntax unified
 283              		.thumb
 284              		.thumb_func
 285              		.fpu fpv5-d16
 287              	prvInitialiseNewTimer:
 288              	.LVL27:
 289              	.LFB7:
ARM GAS  /tmp/ccAupAkp.s 			page 23


 358:STM32F769/Middlewares/Third_Party/FreeRTOS/Source/timers.c **** 	/* 0 is not a valid value for xTimerPeriodInTicks. */
 290              		.loc 1 358 1 view -0
 291              		.cfi_startproc
 292              		@ args = 8, pretend = 0, frame = 0
 293              		@ frame_needed = 0, uses_anonymous_args = 0
 358:STM32F769/Middlewares/Third_Party/FreeRTOS/Source/timers.c **** 	/* 0 is not a valid value for xTimerPeriodInTicks. */
 294              		.loc 1 358 1 is_stmt 0 view .LVU66
 295 0000 2DE9F041 		push	{r4, r5, r6, r7, r8, lr}
 296              	.LCFI5:
 297              		.cfi_def_cfa_offset 24
 298              		.cfi_offset 4, -24
 299              		.cfi_offset 5, -20
 300              		.cfi_offset 6, -16
 301              		.cfi_offset 7, -12
 302              		.cfi_offset 8, -8
 303              		.cfi_offset 14, -4
 304 0004 079C     		ldr	r4, [sp, #28]
 360:STM32F769/Middlewares/Third_Party/FreeRTOS/Source/timers.c **** 
 305              		.loc 1 360 2 is_stmt 1 view .LVU67
 306 0006 51B9     		cbnz	r1, .L23
 360:STM32F769/Middlewares/Third_Party/FreeRTOS/Source/timers.c **** 
 307              		.loc 1 360 2 view .LVU68
 308              	.LBB42:
 309              	.LBI42:
 310              		.file 2 "STM32F769/Middlewares/Third_Party/FreeRTOS/Source/portable/GCC/ARM_CM7/r0p1/portmacro.h"
   1:STM32F769/Middlewares/Third_Party/FreeRTOS/Source/portable/GCC/ARM_CM7/r0p1/portmacro.h **** /*
   2:STM32F769/Middlewares/Third_Party/FreeRTOS/Source/portable/GCC/ARM_CM7/r0p1/portmacro.h ****  * FreeRTOS Kernel V10.0.1
   3:STM32F769/Middlewares/Third_Party/FreeRTOS/Source/portable/GCC/ARM_CM7/r0p1/portmacro.h ****  * Copyright (C) 2017 Amazon.com, Inc. or its affiliates.  All Rights Reserved.
   4:STM32F769/Middlewares/Third_Party/FreeRTOS/Source/portable/GCC/ARM_CM7/r0p1/portmacro.h ****  *
   5:STM32F769/Middlewares/Third_Party/FreeRTOS/Source/portable/GCC/ARM_CM7/r0p1/portmacro.h ****  * Permission is hereby granted, free of charge, to any person obtaining a copy of
   6:STM32F769/Middlewares/Third_Party/FreeRTOS/Source/portable/GCC/ARM_CM7/r0p1/portmacro.h ****  * this software and associated documentation files (the "Software"), to deal in
   7:STM32F769/Middlewares/Third_Party/FreeRTOS/Source/portable/GCC/ARM_CM7/r0p1/portmacro.h ****  * the Software without restriction, including without limitation the rights to
   8:STM32F769/Middlewares/Third_Party/FreeRTOS/Source/portable/GCC/ARM_CM7/r0p1/portmacro.h ****  * use, copy, modify, merge, publish, distribute, sublicense, and/or sell copies of
   9:STM32F769/Middlewares/Third_Party/FreeRTOS/Source/portable/GCC/ARM_CM7/r0p1/portmacro.h ****  * the Software, and to permit persons to whom the Software is furnished to do so,
  10:STM32F769/Middlewares/Third_Party/FreeRTOS/Source/portable/GCC/ARM_CM7/r0p1/portmacro.h ****  * subject to the following conditions:
  11:STM32F769/Middlewares/Third_Party/FreeRTOS/Source/portable/GCC/ARM_CM7/r0p1/portmacro.h ****  *
  12:STM32F769/Middlewares/Third_Party/FreeRTOS/Source/portable/GCC/ARM_CM7/r0p1/portmacro.h ****  * The above copyright notice and this permission notice shall be included in all
  13:STM32F769/Middlewares/Third_Party/FreeRTOS/Source/portable/GCC/ARM_CM7/r0p1/portmacro.h ****  * copies or substantial portions of the Software.
  14:STM32F769/Middlewares/Third_Party/FreeRTOS/Source/portable/GCC/ARM_CM7/r0p1/portmacro.h ****  *
  15:STM32F769/Middlewares/Third_Party/FreeRTOS/Source/portable/GCC/ARM_CM7/r0p1/portmacro.h ****  * THE SOFTWARE IS PROVIDED "AS IS", WITHOUT WARRANTY OF ANY KIND, EXPRESS OR
  16:STM32F769/Middlewares/Third_Party/FreeRTOS/Source/portable/GCC/ARM_CM7/r0p1/portmacro.h ****  * IMPLIED, INCLUDING BUT NOT LIMITED TO THE WARRANTIES OF MERCHANTABILITY, FITNESS
  17:STM32F769/Middlewares/Third_Party/FreeRTOS/Source/portable/GCC/ARM_CM7/r0p1/portmacro.h ****  * FOR A PARTICULAR PURPOSE AND NONINFRINGEMENT. IN NO EVENT SHALL THE AUTHORS OR
  18:STM32F769/Middlewares/Third_Party/FreeRTOS/Source/portable/GCC/ARM_CM7/r0p1/portmacro.h ****  * COPYRIGHT HOLDERS BE LIABLE FOR ANY CLAIM, DAMAGES OR OTHER LIABILITY, WHETHER
  19:STM32F769/Middlewares/Third_Party/FreeRTOS/Source/portable/GCC/ARM_CM7/r0p1/portmacro.h ****  * IN AN ACTION OF CONTRACT, TORT OR OTHERWISE, ARISING FROM, OUT OF OR IN
  20:STM32F769/Middlewares/Third_Party/FreeRTOS/Source/portable/GCC/ARM_CM7/r0p1/portmacro.h ****  * CONNECTION WITH THE SOFTWARE OR THE USE OR OTHER DEALINGS IN THE SOFTWARE.
  21:STM32F769/Middlewares/Third_Party/FreeRTOS/Source/portable/GCC/ARM_CM7/r0p1/portmacro.h ****  *
  22:STM32F769/Middlewares/Third_Party/FreeRTOS/Source/portable/GCC/ARM_CM7/r0p1/portmacro.h ****  * http://www.FreeRTOS.org
  23:STM32F769/Middlewares/Third_Party/FreeRTOS/Source/portable/GCC/ARM_CM7/r0p1/portmacro.h ****  * http://aws.amazon.com/freertos
  24:STM32F769/Middlewares/Third_Party/FreeRTOS/Source/portable/GCC/ARM_CM7/r0p1/portmacro.h ****  *
  25:STM32F769/Middlewares/Third_Party/FreeRTOS/Source/portable/GCC/ARM_CM7/r0p1/portmacro.h ****  * 1 tab == 4 spaces!
  26:STM32F769/Middlewares/Third_Party/FreeRTOS/Source/portable/GCC/ARM_CM7/r0p1/portmacro.h ****  */
  27:STM32F769/Middlewares/Third_Party/FreeRTOS/Source/portable/GCC/ARM_CM7/r0p1/portmacro.h **** 
  28:STM32F769/Middlewares/Third_Party/FreeRTOS/Source/portable/GCC/ARM_CM7/r0p1/portmacro.h **** 
  29:STM32F769/Middlewares/Third_Party/FreeRTOS/Source/portable/GCC/ARM_CM7/r0p1/portmacro.h **** #ifndef PORTMACRO_H
  30:STM32F769/Middlewares/Third_Party/FreeRTOS/Source/portable/GCC/ARM_CM7/r0p1/portmacro.h **** #define PORTMACRO_H
  31:STM32F769/Middlewares/Third_Party/FreeRTOS/Source/portable/GCC/ARM_CM7/r0p1/portmacro.h **** 
  32:STM32F769/Middlewares/Third_Party/FreeRTOS/Source/portable/GCC/ARM_CM7/r0p1/portmacro.h **** #ifdef __cplusplus
ARM GAS  /tmp/ccAupAkp.s 			page 24


  33:STM32F769/Middlewares/Third_Party/FreeRTOS/Source/portable/GCC/ARM_CM7/r0p1/portmacro.h **** extern "C" {
  34:STM32F769/Middlewares/Third_Party/FreeRTOS/Source/portable/GCC/ARM_CM7/r0p1/portmacro.h **** #endif
  35:STM32F769/Middlewares/Third_Party/FreeRTOS/Source/portable/GCC/ARM_CM7/r0p1/portmacro.h **** 
  36:STM32F769/Middlewares/Third_Party/FreeRTOS/Source/portable/GCC/ARM_CM7/r0p1/portmacro.h **** /*-----------------------------------------------------------
  37:STM32F769/Middlewares/Third_Party/FreeRTOS/Source/portable/GCC/ARM_CM7/r0p1/portmacro.h ****  * Port specific definitions.
  38:STM32F769/Middlewares/Third_Party/FreeRTOS/Source/portable/GCC/ARM_CM7/r0p1/portmacro.h ****  *
  39:STM32F769/Middlewares/Third_Party/FreeRTOS/Source/portable/GCC/ARM_CM7/r0p1/portmacro.h ****  * The settings in this file configure FreeRTOS correctly for the
  40:STM32F769/Middlewares/Third_Party/FreeRTOS/Source/portable/GCC/ARM_CM7/r0p1/portmacro.h ****  * given hardware and compiler.
  41:STM32F769/Middlewares/Third_Party/FreeRTOS/Source/portable/GCC/ARM_CM7/r0p1/portmacro.h ****  *
  42:STM32F769/Middlewares/Third_Party/FreeRTOS/Source/portable/GCC/ARM_CM7/r0p1/portmacro.h ****  * These settings should not be altered.
  43:STM32F769/Middlewares/Third_Party/FreeRTOS/Source/portable/GCC/ARM_CM7/r0p1/portmacro.h ****  *-----------------------------------------------------------
  44:STM32F769/Middlewares/Third_Party/FreeRTOS/Source/portable/GCC/ARM_CM7/r0p1/portmacro.h ****  */
  45:STM32F769/Middlewares/Third_Party/FreeRTOS/Source/portable/GCC/ARM_CM7/r0p1/portmacro.h **** 
  46:STM32F769/Middlewares/Third_Party/FreeRTOS/Source/portable/GCC/ARM_CM7/r0p1/portmacro.h **** /* Type definitions. */
  47:STM32F769/Middlewares/Third_Party/FreeRTOS/Source/portable/GCC/ARM_CM7/r0p1/portmacro.h **** #define portCHAR		char
  48:STM32F769/Middlewares/Third_Party/FreeRTOS/Source/portable/GCC/ARM_CM7/r0p1/portmacro.h **** #define portFLOAT		float
  49:STM32F769/Middlewares/Third_Party/FreeRTOS/Source/portable/GCC/ARM_CM7/r0p1/portmacro.h **** #define portDOUBLE		double
  50:STM32F769/Middlewares/Third_Party/FreeRTOS/Source/portable/GCC/ARM_CM7/r0p1/portmacro.h **** #define portLONG		long
  51:STM32F769/Middlewares/Third_Party/FreeRTOS/Source/portable/GCC/ARM_CM7/r0p1/portmacro.h **** #define portSHORT		short
  52:STM32F769/Middlewares/Third_Party/FreeRTOS/Source/portable/GCC/ARM_CM7/r0p1/portmacro.h **** #define portSTACK_TYPE	uint32_t
  53:STM32F769/Middlewares/Third_Party/FreeRTOS/Source/portable/GCC/ARM_CM7/r0p1/portmacro.h **** #define portBASE_TYPE	long
  54:STM32F769/Middlewares/Third_Party/FreeRTOS/Source/portable/GCC/ARM_CM7/r0p1/portmacro.h **** 
  55:STM32F769/Middlewares/Third_Party/FreeRTOS/Source/portable/GCC/ARM_CM7/r0p1/portmacro.h **** typedef portSTACK_TYPE StackType_t;
  56:STM32F769/Middlewares/Third_Party/FreeRTOS/Source/portable/GCC/ARM_CM7/r0p1/portmacro.h **** typedef long BaseType_t;
  57:STM32F769/Middlewares/Third_Party/FreeRTOS/Source/portable/GCC/ARM_CM7/r0p1/portmacro.h **** typedef unsigned long UBaseType_t;
  58:STM32F769/Middlewares/Third_Party/FreeRTOS/Source/portable/GCC/ARM_CM7/r0p1/portmacro.h **** 
  59:STM32F769/Middlewares/Third_Party/FreeRTOS/Source/portable/GCC/ARM_CM7/r0p1/portmacro.h **** #if( configUSE_16_BIT_TICKS == 1 )
  60:STM32F769/Middlewares/Third_Party/FreeRTOS/Source/portable/GCC/ARM_CM7/r0p1/portmacro.h **** 	typedef uint16_t TickType_t;
  61:STM32F769/Middlewares/Third_Party/FreeRTOS/Source/portable/GCC/ARM_CM7/r0p1/portmacro.h **** 	#define portMAX_DELAY ( TickType_t ) 0xffff
  62:STM32F769/Middlewares/Third_Party/FreeRTOS/Source/portable/GCC/ARM_CM7/r0p1/portmacro.h **** #else
  63:STM32F769/Middlewares/Third_Party/FreeRTOS/Source/portable/GCC/ARM_CM7/r0p1/portmacro.h **** 	typedef uint32_t TickType_t;
  64:STM32F769/Middlewares/Third_Party/FreeRTOS/Source/portable/GCC/ARM_CM7/r0p1/portmacro.h **** 	#define portMAX_DELAY ( TickType_t ) 0xffffffffUL
  65:STM32F769/Middlewares/Third_Party/FreeRTOS/Source/portable/GCC/ARM_CM7/r0p1/portmacro.h **** 
  66:STM32F769/Middlewares/Third_Party/FreeRTOS/Source/portable/GCC/ARM_CM7/r0p1/portmacro.h **** 	/* 32-bit tick type on a 32-bit architecture, so reads of the tick count do
  67:STM32F769/Middlewares/Third_Party/FreeRTOS/Source/portable/GCC/ARM_CM7/r0p1/portmacro.h **** 	not need to be guarded with a critical section. */
  68:STM32F769/Middlewares/Third_Party/FreeRTOS/Source/portable/GCC/ARM_CM7/r0p1/portmacro.h **** 	#define portTICK_TYPE_IS_ATOMIC 1
  69:STM32F769/Middlewares/Third_Party/FreeRTOS/Source/portable/GCC/ARM_CM7/r0p1/portmacro.h **** #endif
  70:STM32F769/Middlewares/Third_Party/FreeRTOS/Source/portable/GCC/ARM_CM7/r0p1/portmacro.h **** /*-----------------------------------------------------------*/
  71:STM32F769/Middlewares/Third_Party/FreeRTOS/Source/portable/GCC/ARM_CM7/r0p1/portmacro.h **** 
  72:STM32F769/Middlewares/Third_Party/FreeRTOS/Source/portable/GCC/ARM_CM7/r0p1/portmacro.h **** /* Architecture specifics. */
  73:STM32F769/Middlewares/Third_Party/FreeRTOS/Source/portable/GCC/ARM_CM7/r0p1/portmacro.h **** #define portSTACK_GROWTH			( -1 )
  74:STM32F769/Middlewares/Third_Party/FreeRTOS/Source/portable/GCC/ARM_CM7/r0p1/portmacro.h **** #define portTICK_PERIOD_MS			( ( TickType_t ) 1000 / configTICK_RATE_HZ )
  75:STM32F769/Middlewares/Third_Party/FreeRTOS/Source/portable/GCC/ARM_CM7/r0p1/portmacro.h **** #define portBYTE_ALIGNMENT			8
  76:STM32F769/Middlewares/Third_Party/FreeRTOS/Source/portable/GCC/ARM_CM7/r0p1/portmacro.h **** /*-----------------------------------------------------------*/
  77:STM32F769/Middlewares/Third_Party/FreeRTOS/Source/portable/GCC/ARM_CM7/r0p1/portmacro.h **** 
  78:STM32F769/Middlewares/Third_Party/FreeRTOS/Source/portable/GCC/ARM_CM7/r0p1/portmacro.h **** /* Scheduler utilities. */
  79:STM32F769/Middlewares/Third_Party/FreeRTOS/Source/portable/GCC/ARM_CM7/r0p1/portmacro.h **** #define portYIELD() 															\
  80:STM32F769/Middlewares/Third_Party/FreeRTOS/Source/portable/GCC/ARM_CM7/r0p1/portmacro.h **** {																				\
  81:STM32F769/Middlewares/Third_Party/FreeRTOS/Source/portable/GCC/ARM_CM7/r0p1/portmacro.h **** 	/* Set a PendSV to request a context switch. */								\
  82:STM32F769/Middlewares/Third_Party/FreeRTOS/Source/portable/GCC/ARM_CM7/r0p1/portmacro.h **** 	portNVIC_INT_CTRL_REG = portNVIC_PENDSVSET_BIT;								\
  83:STM32F769/Middlewares/Third_Party/FreeRTOS/Source/portable/GCC/ARM_CM7/r0p1/portmacro.h **** 																				\
  84:STM32F769/Middlewares/Third_Party/FreeRTOS/Source/portable/GCC/ARM_CM7/r0p1/portmacro.h **** 	/* Barriers are normally not required but do ensure the code is completely	\
  85:STM32F769/Middlewares/Third_Party/FreeRTOS/Source/portable/GCC/ARM_CM7/r0p1/portmacro.h **** 	within the specified behaviour for the architecture. */						\
  86:STM32F769/Middlewares/Third_Party/FreeRTOS/Source/portable/GCC/ARM_CM7/r0p1/portmacro.h **** 	__asm volatile( "dsb" ::: "memory" );										\
  87:STM32F769/Middlewares/Third_Party/FreeRTOS/Source/portable/GCC/ARM_CM7/r0p1/portmacro.h **** 	__asm volatile( "isb" );													\
  88:STM32F769/Middlewares/Third_Party/FreeRTOS/Source/portable/GCC/ARM_CM7/r0p1/portmacro.h **** }
  89:STM32F769/Middlewares/Third_Party/FreeRTOS/Source/portable/GCC/ARM_CM7/r0p1/portmacro.h **** 
ARM GAS  /tmp/ccAupAkp.s 			page 25


  90:STM32F769/Middlewares/Third_Party/FreeRTOS/Source/portable/GCC/ARM_CM7/r0p1/portmacro.h **** #define portNVIC_INT_CTRL_REG		( * ( ( volatile uint32_t * ) 0xe000ed04 ) )
  91:STM32F769/Middlewares/Third_Party/FreeRTOS/Source/portable/GCC/ARM_CM7/r0p1/portmacro.h **** #define portNVIC_PENDSVSET_BIT		( 1UL << 28UL )
  92:STM32F769/Middlewares/Third_Party/FreeRTOS/Source/portable/GCC/ARM_CM7/r0p1/portmacro.h **** #define portEND_SWITCHING_ISR( xSwitchRequired ) if( xSwitchRequired != pdFALSE ) portYIELD()
  93:STM32F769/Middlewares/Third_Party/FreeRTOS/Source/portable/GCC/ARM_CM7/r0p1/portmacro.h **** #define portYIELD_FROM_ISR( x ) portEND_SWITCHING_ISR( x )
  94:STM32F769/Middlewares/Third_Party/FreeRTOS/Source/portable/GCC/ARM_CM7/r0p1/portmacro.h **** /*-----------------------------------------------------------*/
  95:STM32F769/Middlewares/Third_Party/FreeRTOS/Source/portable/GCC/ARM_CM7/r0p1/portmacro.h **** 
  96:STM32F769/Middlewares/Third_Party/FreeRTOS/Source/portable/GCC/ARM_CM7/r0p1/portmacro.h **** /* Critical section management. */
  97:STM32F769/Middlewares/Third_Party/FreeRTOS/Source/portable/GCC/ARM_CM7/r0p1/portmacro.h **** extern void vPortEnterCritical( void );
  98:STM32F769/Middlewares/Third_Party/FreeRTOS/Source/portable/GCC/ARM_CM7/r0p1/portmacro.h **** extern void vPortExitCritical( void );
  99:STM32F769/Middlewares/Third_Party/FreeRTOS/Source/portable/GCC/ARM_CM7/r0p1/portmacro.h **** #define portSET_INTERRUPT_MASK_FROM_ISR()		ulPortRaiseBASEPRI()
 100:STM32F769/Middlewares/Third_Party/FreeRTOS/Source/portable/GCC/ARM_CM7/r0p1/portmacro.h **** #define portCLEAR_INTERRUPT_MASK_FROM_ISR(x)	vPortSetBASEPRI(x)
 101:STM32F769/Middlewares/Third_Party/FreeRTOS/Source/portable/GCC/ARM_CM7/r0p1/portmacro.h **** #define portDISABLE_INTERRUPTS()				vPortRaiseBASEPRI()
 102:STM32F769/Middlewares/Third_Party/FreeRTOS/Source/portable/GCC/ARM_CM7/r0p1/portmacro.h **** #define portENABLE_INTERRUPTS()					vPortSetBASEPRI(0)
 103:STM32F769/Middlewares/Third_Party/FreeRTOS/Source/portable/GCC/ARM_CM7/r0p1/portmacro.h **** #define portENTER_CRITICAL()					vPortEnterCritical()
 104:STM32F769/Middlewares/Third_Party/FreeRTOS/Source/portable/GCC/ARM_CM7/r0p1/portmacro.h **** #define portEXIT_CRITICAL()						vPortExitCritical()
 105:STM32F769/Middlewares/Third_Party/FreeRTOS/Source/portable/GCC/ARM_CM7/r0p1/portmacro.h **** 
 106:STM32F769/Middlewares/Third_Party/FreeRTOS/Source/portable/GCC/ARM_CM7/r0p1/portmacro.h **** /*-----------------------------------------------------------*/
 107:STM32F769/Middlewares/Third_Party/FreeRTOS/Source/portable/GCC/ARM_CM7/r0p1/portmacro.h **** 
 108:STM32F769/Middlewares/Third_Party/FreeRTOS/Source/portable/GCC/ARM_CM7/r0p1/portmacro.h **** /* Task function macros as described on the FreeRTOS.org WEB site.  These are
 109:STM32F769/Middlewares/Third_Party/FreeRTOS/Source/portable/GCC/ARM_CM7/r0p1/portmacro.h **** not necessary for to use this port.  They are defined so the common demo files
 110:STM32F769/Middlewares/Third_Party/FreeRTOS/Source/portable/GCC/ARM_CM7/r0p1/portmacro.h **** (which build with all the ports) will build. */
 111:STM32F769/Middlewares/Third_Party/FreeRTOS/Source/portable/GCC/ARM_CM7/r0p1/portmacro.h **** #define portTASK_FUNCTION_PROTO( vFunction, pvParameters ) void vFunction( void *pvParameters )
 112:STM32F769/Middlewares/Third_Party/FreeRTOS/Source/portable/GCC/ARM_CM7/r0p1/portmacro.h **** #define portTASK_FUNCTION( vFunction, pvParameters ) void vFunction( void *pvParameters )
 113:STM32F769/Middlewares/Third_Party/FreeRTOS/Source/portable/GCC/ARM_CM7/r0p1/portmacro.h **** /*-----------------------------------------------------------*/
 114:STM32F769/Middlewares/Third_Party/FreeRTOS/Source/portable/GCC/ARM_CM7/r0p1/portmacro.h **** 
 115:STM32F769/Middlewares/Third_Party/FreeRTOS/Source/portable/GCC/ARM_CM7/r0p1/portmacro.h **** /* Tickless idle/low power functionality. */
 116:STM32F769/Middlewares/Third_Party/FreeRTOS/Source/portable/GCC/ARM_CM7/r0p1/portmacro.h **** #ifndef portSUPPRESS_TICKS_AND_SLEEP
 117:STM32F769/Middlewares/Third_Party/FreeRTOS/Source/portable/GCC/ARM_CM7/r0p1/portmacro.h **** 	extern void vPortSuppressTicksAndSleep( TickType_t xExpectedIdleTime );
 118:STM32F769/Middlewares/Third_Party/FreeRTOS/Source/portable/GCC/ARM_CM7/r0p1/portmacro.h **** 	#define portSUPPRESS_TICKS_AND_SLEEP( xExpectedIdleTime ) vPortSuppressTicksAndSleep( xExpectedIdl
 119:STM32F769/Middlewares/Third_Party/FreeRTOS/Source/portable/GCC/ARM_CM7/r0p1/portmacro.h **** #endif
 120:STM32F769/Middlewares/Third_Party/FreeRTOS/Source/portable/GCC/ARM_CM7/r0p1/portmacro.h **** /*-----------------------------------------------------------*/
 121:STM32F769/Middlewares/Third_Party/FreeRTOS/Source/portable/GCC/ARM_CM7/r0p1/portmacro.h **** 
 122:STM32F769/Middlewares/Third_Party/FreeRTOS/Source/portable/GCC/ARM_CM7/r0p1/portmacro.h **** /* Architecture specific optimisations. */
 123:STM32F769/Middlewares/Third_Party/FreeRTOS/Source/portable/GCC/ARM_CM7/r0p1/portmacro.h **** #ifndef configUSE_PORT_OPTIMISED_TASK_SELECTION
 124:STM32F769/Middlewares/Third_Party/FreeRTOS/Source/portable/GCC/ARM_CM7/r0p1/portmacro.h **** 	#define configUSE_PORT_OPTIMISED_TASK_SELECTION 1
 125:STM32F769/Middlewares/Third_Party/FreeRTOS/Source/portable/GCC/ARM_CM7/r0p1/portmacro.h **** #endif
 126:STM32F769/Middlewares/Third_Party/FreeRTOS/Source/portable/GCC/ARM_CM7/r0p1/portmacro.h **** 
 127:STM32F769/Middlewares/Third_Party/FreeRTOS/Source/portable/GCC/ARM_CM7/r0p1/portmacro.h **** #if configUSE_PORT_OPTIMISED_TASK_SELECTION == 1
 128:STM32F769/Middlewares/Third_Party/FreeRTOS/Source/portable/GCC/ARM_CM7/r0p1/portmacro.h **** 
 129:STM32F769/Middlewares/Third_Party/FreeRTOS/Source/portable/GCC/ARM_CM7/r0p1/portmacro.h **** 	/* Generic helper function. */
 130:STM32F769/Middlewares/Third_Party/FreeRTOS/Source/portable/GCC/ARM_CM7/r0p1/portmacro.h **** 	__attribute__( ( always_inline ) ) static inline uint8_t ucPortCountLeadingZeros( uint32_t ulBitma
 131:STM32F769/Middlewares/Third_Party/FreeRTOS/Source/portable/GCC/ARM_CM7/r0p1/portmacro.h **** 	{
 132:STM32F769/Middlewares/Third_Party/FreeRTOS/Source/portable/GCC/ARM_CM7/r0p1/portmacro.h **** 	uint8_t ucReturn;
 133:STM32F769/Middlewares/Third_Party/FreeRTOS/Source/portable/GCC/ARM_CM7/r0p1/portmacro.h **** 
 134:STM32F769/Middlewares/Third_Party/FreeRTOS/Source/portable/GCC/ARM_CM7/r0p1/portmacro.h **** 		__asm volatile ( "clz %0, %1" : "=r" ( ucReturn ) : "r" ( ulBitmap ) : "memory" );
 135:STM32F769/Middlewares/Third_Party/FreeRTOS/Source/portable/GCC/ARM_CM7/r0p1/portmacro.h **** 		return ucReturn;
 136:STM32F769/Middlewares/Third_Party/FreeRTOS/Source/portable/GCC/ARM_CM7/r0p1/portmacro.h **** 	}
 137:STM32F769/Middlewares/Third_Party/FreeRTOS/Source/portable/GCC/ARM_CM7/r0p1/portmacro.h **** 
 138:STM32F769/Middlewares/Third_Party/FreeRTOS/Source/portable/GCC/ARM_CM7/r0p1/portmacro.h **** 	/* Check the configuration. */
 139:STM32F769/Middlewares/Third_Party/FreeRTOS/Source/portable/GCC/ARM_CM7/r0p1/portmacro.h **** 	#if( configMAX_PRIORITIES > 32 )
 140:STM32F769/Middlewares/Third_Party/FreeRTOS/Source/portable/GCC/ARM_CM7/r0p1/portmacro.h **** 		#error configUSE_PORT_OPTIMISED_TASK_SELECTION can only be set to 1 when configMAX_PRIORITIES is 
 141:STM32F769/Middlewares/Third_Party/FreeRTOS/Source/portable/GCC/ARM_CM7/r0p1/portmacro.h **** 	#endif
 142:STM32F769/Middlewares/Third_Party/FreeRTOS/Source/portable/GCC/ARM_CM7/r0p1/portmacro.h **** 
 143:STM32F769/Middlewares/Third_Party/FreeRTOS/Source/portable/GCC/ARM_CM7/r0p1/portmacro.h **** 	/* Store/clear the ready priorities in a bit map. */
 144:STM32F769/Middlewares/Third_Party/FreeRTOS/Source/portable/GCC/ARM_CM7/r0p1/portmacro.h **** 	#define portRECORD_READY_PRIORITY( uxPriority, uxReadyPriorities ) ( uxReadyPriorities ) |= ( 1UL 
 145:STM32F769/Middlewares/Third_Party/FreeRTOS/Source/portable/GCC/ARM_CM7/r0p1/portmacro.h **** 	#define portRESET_READY_PRIORITY( uxPriority, uxReadyPriorities ) ( uxReadyPriorities ) &= ~( 1UL 
 146:STM32F769/Middlewares/Third_Party/FreeRTOS/Source/portable/GCC/ARM_CM7/r0p1/portmacro.h **** 
ARM GAS  /tmp/ccAupAkp.s 			page 26


 147:STM32F769/Middlewares/Third_Party/FreeRTOS/Source/portable/GCC/ARM_CM7/r0p1/portmacro.h **** 	/*-----------------------------------------------------------*/
 148:STM32F769/Middlewares/Third_Party/FreeRTOS/Source/portable/GCC/ARM_CM7/r0p1/portmacro.h **** 
 149:STM32F769/Middlewares/Third_Party/FreeRTOS/Source/portable/GCC/ARM_CM7/r0p1/portmacro.h **** 	#define portGET_HIGHEST_PRIORITY( uxTopPriority, uxReadyPriorities ) uxTopPriority = ( 31UL - ( ui
 150:STM32F769/Middlewares/Third_Party/FreeRTOS/Source/portable/GCC/ARM_CM7/r0p1/portmacro.h **** 
 151:STM32F769/Middlewares/Third_Party/FreeRTOS/Source/portable/GCC/ARM_CM7/r0p1/portmacro.h **** #endif /* configUSE_PORT_OPTIMISED_TASK_SELECTION */
 152:STM32F769/Middlewares/Third_Party/FreeRTOS/Source/portable/GCC/ARM_CM7/r0p1/portmacro.h **** 
 153:STM32F769/Middlewares/Third_Party/FreeRTOS/Source/portable/GCC/ARM_CM7/r0p1/portmacro.h **** /*-----------------------------------------------------------*/
 154:STM32F769/Middlewares/Third_Party/FreeRTOS/Source/portable/GCC/ARM_CM7/r0p1/portmacro.h **** 
 155:STM32F769/Middlewares/Third_Party/FreeRTOS/Source/portable/GCC/ARM_CM7/r0p1/portmacro.h **** #ifdef configASSERT
 156:STM32F769/Middlewares/Third_Party/FreeRTOS/Source/portable/GCC/ARM_CM7/r0p1/portmacro.h **** 	void vPortValidateInterruptPriority( void );
 157:STM32F769/Middlewares/Third_Party/FreeRTOS/Source/portable/GCC/ARM_CM7/r0p1/portmacro.h **** 	#define portASSERT_IF_INTERRUPT_PRIORITY_INVALID() 	vPortValidateInterruptPriority()
 158:STM32F769/Middlewares/Third_Party/FreeRTOS/Source/portable/GCC/ARM_CM7/r0p1/portmacro.h **** #endif
 159:STM32F769/Middlewares/Third_Party/FreeRTOS/Source/portable/GCC/ARM_CM7/r0p1/portmacro.h **** 
 160:STM32F769/Middlewares/Third_Party/FreeRTOS/Source/portable/GCC/ARM_CM7/r0p1/portmacro.h **** /* portNOP() is not required by this port. */
 161:STM32F769/Middlewares/Third_Party/FreeRTOS/Source/portable/GCC/ARM_CM7/r0p1/portmacro.h **** #define portNOP()
 162:STM32F769/Middlewares/Third_Party/FreeRTOS/Source/portable/GCC/ARM_CM7/r0p1/portmacro.h **** 
 163:STM32F769/Middlewares/Third_Party/FreeRTOS/Source/portable/GCC/ARM_CM7/r0p1/portmacro.h **** #define portINLINE	__inline
 164:STM32F769/Middlewares/Third_Party/FreeRTOS/Source/portable/GCC/ARM_CM7/r0p1/portmacro.h **** 
 165:STM32F769/Middlewares/Third_Party/FreeRTOS/Source/portable/GCC/ARM_CM7/r0p1/portmacro.h **** #ifndef portFORCE_INLINE
 166:STM32F769/Middlewares/Third_Party/FreeRTOS/Source/portable/GCC/ARM_CM7/r0p1/portmacro.h **** 	#define portFORCE_INLINE inline __attribute__(( always_inline))
 167:STM32F769/Middlewares/Third_Party/FreeRTOS/Source/portable/GCC/ARM_CM7/r0p1/portmacro.h **** #endif
 168:STM32F769/Middlewares/Third_Party/FreeRTOS/Source/portable/GCC/ARM_CM7/r0p1/portmacro.h **** 
 169:STM32F769/Middlewares/Third_Party/FreeRTOS/Source/portable/GCC/ARM_CM7/r0p1/portmacro.h **** portFORCE_INLINE static BaseType_t xPortIsInsideInterrupt( void )
 170:STM32F769/Middlewares/Third_Party/FreeRTOS/Source/portable/GCC/ARM_CM7/r0p1/portmacro.h **** {
 171:STM32F769/Middlewares/Third_Party/FreeRTOS/Source/portable/GCC/ARM_CM7/r0p1/portmacro.h **** uint32_t ulCurrentInterrupt;
 172:STM32F769/Middlewares/Third_Party/FreeRTOS/Source/portable/GCC/ARM_CM7/r0p1/portmacro.h **** BaseType_t xReturn;
 173:STM32F769/Middlewares/Third_Party/FreeRTOS/Source/portable/GCC/ARM_CM7/r0p1/portmacro.h **** 
 174:STM32F769/Middlewares/Third_Party/FreeRTOS/Source/portable/GCC/ARM_CM7/r0p1/portmacro.h **** 	/* Obtain the number of the currently executing interrupt. */
 175:STM32F769/Middlewares/Third_Party/FreeRTOS/Source/portable/GCC/ARM_CM7/r0p1/portmacro.h **** 	__asm volatile( "mrs %0, ipsr" : "=r"( ulCurrentInterrupt ) :: "memory" );
 176:STM32F769/Middlewares/Third_Party/FreeRTOS/Source/portable/GCC/ARM_CM7/r0p1/portmacro.h **** 
 177:STM32F769/Middlewares/Third_Party/FreeRTOS/Source/portable/GCC/ARM_CM7/r0p1/portmacro.h **** 	if( ulCurrentInterrupt == 0 )
 178:STM32F769/Middlewares/Third_Party/FreeRTOS/Source/portable/GCC/ARM_CM7/r0p1/portmacro.h **** 	{
 179:STM32F769/Middlewares/Third_Party/FreeRTOS/Source/portable/GCC/ARM_CM7/r0p1/portmacro.h **** 		xReturn = pdFALSE;
 180:STM32F769/Middlewares/Third_Party/FreeRTOS/Source/portable/GCC/ARM_CM7/r0p1/portmacro.h **** 	}
 181:STM32F769/Middlewares/Third_Party/FreeRTOS/Source/portable/GCC/ARM_CM7/r0p1/portmacro.h **** 	else
 182:STM32F769/Middlewares/Third_Party/FreeRTOS/Source/portable/GCC/ARM_CM7/r0p1/portmacro.h **** 	{
 183:STM32F769/Middlewares/Third_Party/FreeRTOS/Source/portable/GCC/ARM_CM7/r0p1/portmacro.h **** 		xReturn = pdTRUE;
 184:STM32F769/Middlewares/Third_Party/FreeRTOS/Source/portable/GCC/ARM_CM7/r0p1/portmacro.h **** 	}
 185:STM32F769/Middlewares/Third_Party/FreeRTOS/Source/portable/GCC/ARM_CM7/r0p1/portmacro.h **** 
 186:STM32F769/Middlewares/Third_Party/FreeRTOS/Source/portable/GCC/ARM_CM7/r0p1/portmacro.h **** 	return xReturn;
 187:STM32F769/Middlewares/Third_Party/FreeRTOS/Source/portable/GCC/ARM_CM7/r0p1/portmacro.h **** }
 188:STM32F769/Middlewares/Third_Party/FreeRTOS/Source/portable/GCC/ARM_CM7/r0p1/portmacro.h **** 
 189:STM32F769/Middlewares/Third_Party/FreeRTOS/Source/portable/GCC/ARM_CM7/r0p1/portmacro.h **** /*-----------------------------------------------------------*/
 190:STM32F769/Middlewares/Third_Party/FreeRTOS/Source/portable/GCC/ARM_CM7/r0p1/portmacro.h **** 
 191:STM32F769/Middlewares/Third_Party/FreeRTOS/Source/portable/GCC/ARM_CM7/r0p1/portmacro.h **** portFORCE_INLINE static void vPortRaiseBASEPRI( void )
 311              		.loc 2 191 30 view .LVU69
 312              	.LBB43:
 192:STM32F769/Middlewares/Third_Party/FreeRTOS/Source/portable/GCC/ARM_CM7/r0p1/portmacro.h **** {
 193:STM32F769/Middlewares/Third_Party/FreeRTOS/Source/portable/GCC/ARM_CM7/r0p1/portmacro.h **** uint32_t ulNewBASEPRI;
 313              		.loc 2 193 1 view .LVU70
 194:STM32F769/Middlewares/Third_Party/FreeRTOS/Source/portable/GCC/ARM_CM7/r0p1/portmacro.h **** 
 195:STM32F769/Middlewares/Third_Party/FreeRTOS/Source/portable/GCC/ARM_CM7/r0p1/portmacro.h **** 	__asm volatile
 314              		.loc 2 195 2 view .LVU71
 315              		.syntax unified
 316              	@ 195 "STM32F769/Middlewares/Third_Party/FreeRTOS/Source/portable/GCC/ARM_CM7/r0p1/portmacro.h" 1
 317 0008 4FF05003 			mov r3, #80												
 318 000c 72B6     		cpsid i													
ARM GAS  /tmp/ccAupAkp.s 			page 27


 319 000e 83F31188 		msr basepri, r3											
 320 0012 BFF36F8F 		isb														
 321 0016 BFF34F8F 		dsb														
 322 001a 62B6     		cpsie i													
 323              	
 324              	@ 0 "" 2
 325              	.LVL28:
 326              		.thumb
 327              		.syntax unified
 328              	.L24:
 329              		.loc 2 195 2 is_stmt 0 view .LVU72
 330              	.LBE43:
 331              	.LBE42:
 360:STM32F769/Middlewares/Third_Party/FreeRTOS/Source/timers.c **** 
 332              		.loc 1 360 2 is_stmt 1 discriminator 1 view .LVU73
 360:STM32F769/Middlewares/Third_Party/FreeRTOS/Source/timers.c **** 
 333              		.loc 1 360 2 discriminator 1 view .LVU74
 334 001c FEE7     		b	.L24
 335              	.LVL29:
 336              	.L23:
 360:STM32F769/Middlewares/Third_Party/FreeRTOS/Source/timers.c **** 
 337              		.loc 1 360 2 is_stmt 0 discriminator 1 view .LVU75
 338 001e 0F46     		mov	r7, r1
 360:STM32F769/Middlewares/Third_Party/FreeRTOS/Source/timers.c **** 
 339              		.loc 1 360 45 is_stmt 1 discriminator 2 view .LVU76
 362:STM32F769/Middlewares/Third_Party/FreeRTOS/Source/timers.c **** 	{
 340              		.loc 1 362 2 discriminator 2 view .LVU77
 362:STM32F769/Middlewares/Third_Party/FreeRTOS/Source/timers.c **** 	{
 341              		.loc 1 362 4 is_stmt 0 discriminator 2 view .LVU78
 342 0020 74B1     		cbz	r4, .L22
 362:STM32F769/Middlewares/Third_Party/FreeRTOS/Source/timers.c **** 	{
 343              		.loc 1 362 4 discriminator 2 view .LVU79
 344 0022 1D46     		mov	r5, r3
 345 0024 1646     		mov	r6, r2
 346 0026 8046     		mov	r8, r0
 366:STM32F769/Middlewares/Third_Party/FreeRTOS/Source/timers.c **** 
 347              		.loc 1 366 3 is_stmt 1 view .LVU80
 348 0028 FFF7FEFF 		bl	prvCheckForValidListAndQueue
 349              	.LVL30:
 370:STM32F769/Middlewares/Third_Party/FreeRTOS/Source/timers.c **** 		pxNewTimer->xTimerPeriodInTicks = xTimerPeriodInTicks;
 350              		.loc 1 370 3 view .LVU81
 370:STM32F769/Middlewares/Third_Party/FreeRTOS/Source/timers.c **** 		pxNewTimer->xTimerPeriodInTicks = xTimerPeriodInTicks;
 351              		.loc 1 370 27 is_stmt 0 view .LVU82
 352 002c C4F80080 		str	r8, [r4]
 371:STM32F769/Middlewares/Third_Party/FreeRTOS/Source/timers.c **** 		pxNewTimer->uxAutoReload = uxAutoReload;
 353              		.loc 1 371 3 is_stmt 1 view .LVU83
 371:STM32F769/Middlewares/Third_Party/FreeRTOS/Source/timers.c **** 		pxNewTimer->uxAutoReload = uxAutoReload;
 354              		.loc 1 371 35 is_stmt 0 view .LVU84
 355 0030 A761     		str	r7, [r4, #24]
 372:STM32F769/Middlewares/Third_Party/FreeRTOS/Source/timers.c **** 		pxNewTimer->pvTimerID = pvTimerID;
 356              		.loc 1 372 3 is_stmt 1 view .LVU85
 372:STM32F769/Middlewares/Third_Party/FreeRTOS/Source/timers.c **** 		pxNewTimer->pvTimerID = pvTimerID;
 357              		.loc 1 372 28 is_stmt 0 view .LVU86
 358 0032 E661     		str	r6, [r4, #28]
 373:STM32F769/Middlewares/Third_Party/FreeRTOS/Source/timers.c **** 		pxNewTimer->pxCallbackFunction = pxCallbackFunction;
 359              		.loc 1 373 3 is_stmt 1 view .LVU87
 373:STM32F769/Middlewares/Third_Party/FreeRTOS/Source/timers.c **** 		pxNewTimer->pxCallbackFunction = pxCallbackFunction;
ARM GAS  /tmp/ccAupAkp.s 			page 28


 360              		.loc 1 373 25 is_stmt 0 view .LVU88
 361 0034 2562     		str	r5, [r4, #32]
 374:STM32F769/Middlewares/Third_Party/FreeRTOS/Source/timers.c **** 		vListInitialiseItem( &( pxNewTimer->xTimerListItem ) );
 362              		.loc 1 374 3 is_stmt 1 view .LVU89
 374:STM32F769/Middlewares/Third_Party/FreeRTOS/Source/timers.c **** 		vListInitialiseItem( &( pxNewTimer->xTimerListItem ) );
 363              		.loc 1 374 34 is_stmt 0 view .LVU90
 364 0036 069B     		ldr	r3, [sp, #24]
 365 0038 6362     		str	r3, [r4, #36]
 375:STM32F769/Middlewares/Third_Party/FreeRTOS/Source/timers.c **** 		traceTIMER_CREATE( pxNewTimer );
 366              		.loc 1 375 3 is_stmt 1 view .LVU91
 367 003a 201D     		adds	r0, r4, #4
 368 003c FFF7FEFF 		bl	vListInitialiseItem
 369              	.LVL31:
 376:STM32F769/Middlewares/Third_Party/FreeRTOS/Source/timers.c **** 	}
 370              		.loc 1 376 34 view .LVU92
 371              	.L22:
 378:STM32F769/Middlewares/Third_Party/FreeRTOS/Source/timers.c **** /*-----------------------------------------------------------*/
 372              		.loc 1 378 1 is_stmt 0 view .LVU93
 373 0040 BDE8F081 		pop	{r4, r5, r6, r7, r8, pc}
 378:STM32F769/Middlewares/Third_Party/FreeRTOS/Source/timers.c **** /*-----------------------------------------------------------*/
 374              		.loc 1 378 1 view .LVU94
 375              		.cfi_endproc
 376              	.LFE7:
 378              		.section	.text.xTimerCreateTimerTask,"ax",%progbits
 379              		.align	1
 380              		.global	xTimerCreateTimerTask
 381              		.syntax unified
 382              		.thumb
 383              		.thumb_func
 384              		.fpu fpv5-d16
 386              	xTimerCreateTimerTask:
 387              	.LFB4:
 224:STM32F769/Middlewares/Third_Party/FreeRTOS/Source/timers.c **** BaseType_t xReturn = pdFAIL;
 388              		.loc 1 224 1 is_stmt 1 view -0
 389              		.cfi_startproc
 390              		@ args = 0, pretend = 0, frame = 16
 391              		@ frame_needed = 0, uses_anonymous_args = 0
 392 0000 10B5     		push	{r4, lr}
 393              	.LCFI6:
 394              		.cfi_def_cfa_offset 8
 395              		.cfi_offset 4, -8
 396              		.cfi_offset 14, -4
 397 0002 88B0     		sub	sp, sp, #32
 398              	.LCFI7:
 399              		.cfi_def_cfa_offset 40
 225:STM32F769/Middlewares/Third_Party/FreeRTOS/Source/timers.c **** 
 400              		.loc 1 225 1 view .LVU96
 401              	.LVL32:
 231:STM32F769/Middlewares/Third_Party/FreeRTOS/Source/timers.c **** 
 402              		.loc 1 231 2 view .LVU97
 403 0004 FFF7FEFF 		bl	prvCheckForValidListAndQueue
 404              	.LVL33:
 233:STM32F769/Middlewares/Third_Party/FreeRTOS/Source/timers.c **** 	{
 405              		.loc 1 233 2 view .LVU98
 233:STM32F769/Middlewares/Third_Party/FreeRTOS/Source/timers.c **** 	{
 406              		.loc 1 233 18 is_stmt 0 view .LVU99
 407 0008 134B     		ldr	r3, .L33
ARM GAS  /tmp/ccAupAkp.s 			page 29


 408 000a 1B68     		ldr	r3, [r3]
 233:STM32F769/Middlewares/Third_Party/FreeRTOS/Source/timers.c **** 	{
 409              		.loc 1 233 4 view .LVU100
 410 000c CBB1     		cbz	r3, .L28
 411              	.LBB44:
 237:STM32F769/Middlewares/Third_Party/FreeRTOS/Source/timers.c **** 			StackType_t *pxTimerTaskStackBuffer = NULL;
 412              		.loc 1 237 4 is_stmt 1 view .LVU101
 237:STM32F769/Middlewares/Third_Party/FreeRTOS/Source/timers.c **** 			StackType_t *pxTimerTaskStackBuffer = NULL;
 413              		.loc 1 237 18 is_stmt 0 view .LVU102
 414 000e 0024     		movs	r4, #0
 415 0010 0594     		str	r4, [sp, #20]
 238:STM32F769/Middlewares/Third_Party/FreeRTOS/Source/timers.c **** 			uint32_t ulTimerTaskStackSize;
 416              		.loc 1 238 4 is_stmt 1 view .LVU103
 238:STM32F769/Middlewares/Third_Party/FreeRTOS/Source/timers.c **** 			uint32_t ulTimerTaskStackSize;
 417              		.loc 1 238 17 is_stmt 0 view .LVU104
 418 0012 0694     		str	r4, [sp, #24]
 239:STM32F769/Middlewares/Third_Party/FreeRTOS/Source/timers.c **** 
 419              		.loc 1 239 4 is_stmt 1 view .LVU105
 241:STM32F769/Middlewares/Third_Party/FreeRTOS/Source/timers.c **** 			xTimerTaskHandle = xTaskCreateStatic(	prvTimerTask,
 420              		.loc 1 241 4 view .LVU106
 421 0014 07AA     		add	r2, sp, #28
 422 0016 06A9     		add	r1, sp, #24
 423 0018 05A8     		add	r0, sp, #20
 424 001a FFF7FEFF 		bl	vApplicationGetTimerTaskMemory
 425              	.LVL34:
 242:STM32F769/Middlewares/Third_Party/FreeRTOS/Source/timers.c **** 													configTIMER_SERVICE_TASK_NAME,
 426              		.loc 1 242 4 view .LVU107
 242:STM32F769/Middlewares/Third_Party/FreeRTOS/Source/timers.c **** 													configTIMER_SERVICE_TASK_NAME,
 427              		.loc 1 242 23 is_stmt 0 view .LVU108
 428 001e 059B     		ldr	r3, [sp, #20]
 429 0020 0293     		str	r3, [sp, #8]
 430 0022 069B     		ldr	r3, [sp, #24]
 431 0024 0193     		str	r3, [sp, #4]
 432 0026 0223     		movs	r3, #2
 433 0028 0093     		str	r3, [sp]
 434 002a 2346     		mov	r3, r4
 435 002c 079A     		ldr	r2, [sp, #28]
 436 002e 0B49     		ldr	r1, .L33+4
 437 0030 0B48     		ldr	r0, .L33+8
 438 0032 FFF7FEFF 		bl	xTaskCreateStatic
 439              	.LVL35:
 242:STM32F769/Middlewares/Third_Party/FreeRTOS/Source/timers.c **** 													configTIMER_SERVICE_TASK_NAME,
 440              		.loc 1 242 21 view .LVU109
 441 0036 0B4B     		ldr	r3, .L33+12
 442 0038 1860     		str	r0, [r3]
 250:STM32F769/Middlewares/Third_Party/FreeRTOS/Source/timers.c **** 			{
 443              		.loc 1 250 4 is_stmt 1 view .LVU110
 250:STM32F769/Middlewares/Third_Party/FreeRTOS/Source/timers.c **** 			{
 444              		.loc 1 250 6 is_stmt 0 view .LVU111
 445 003a 10B1     		cbz	r0, .L28
 446              	.LBE44:
 273:STM32F769/Middlewares/Third_Party/FreeRTOS/Source/timers.c **** /*-----------------------------------------------------------*/
 447              		.loc 1 273 1 view .LVU112
 448 003c 0120     		movs	r0, #1
 449 003e 08B0     		add	sp, sp, #32
 450              	.LCFI8:
 451              		.cfi_remember_state
ARM GAS  /tmp/ccAupAkp.s 			page 30


 452              		.cfi_def_cfa_offset 8
 453              		@ sp needed
 454 0040 10BD     		pop	{r4, pc}
 455              	.L28:
 456              	.LCFI9:
 457              		.cfi_restore_state
 271:STM32F769/Middlewares/Third_Party/FreeRTOS/Source/timers.c **** 	return xReturn;
 458              		.loc 1 271 2 is_stmt 1 view .LVU113
 459              	.LBB45:
 460              	.LBI45:
 191:STM32F769/Middlewares/Third_Party/FreeRTOS/Source/portable/GCC/ARM_CM7/r0p1/portmacro.h **** {
 461              		.loc 2 191 30 view .LVU114
 462              	.LBB46:
 193:STM32F769/Middlewares/Third_Party/FreeRTOS/Source/portable/GCC/ARM_CM7/r0p1/portmacro.h **** 
 463              		.loc 2 193 1 view .LVU115
 464              		.loc 2 195 2 view .LVU116
 465              		.syntax unified
 466              	@ 195 "STM32F769/Middlewares/Third_Party/FreeRTOS/Source/portable/GCC/ARM_CM7/r0p1/portmacro.h" 1
 467 0042 4FF05003 			mov r3, #80												
 468 0046 72B6     		cpsid i													
 469 0048 83F31188 		msr basepri, r3											
 470 004c BFF36F8F 		isb														
 471 0050 BFF34F8F 		dsb														
 472 0054 62B6     		cpsie i													
 473              	
 474              	@ 0 "" 2
 475              	.LVL36:
 476              		.thumb
 477              		.syntax unified
 478              	.L30:
 479              		.loc 2 195 2 is_stmt 0 view .LVU117
 480              	.LBE46:
 481              	.LBE45:
 271:STM32F769/Middlewares/Third_Party/FreeRTOS/Source/timers.c **** 	return xReturn;
 482              		.loc 1 271 2 is_stmt 1 discriminator 1 view .LVU118
 271:STM32F769/Middlewares/Third_Party/FreeRTOS/Source/timers.c **** 	return xReturn;
 483              		.loc 1 271 2 discriminator 1 view .LVU119
 484 0056 FEE7     		b	.L30
 485              	.L34:
 486              		.align	2
 487              	.L33:
 488 0058 00000000 		.word	.LANCHOR2
 489 005c 00000000 		.word	.LC1
 490 0060 00000000 		.word	prvTimerTask
 491 0064 00000000 		.word	.LANCHOR7
 492              		.cfi_endproc
 493              	.LFE4:
 495              		.section	.text.xTimerCreate,"ax",%progbits
 496              		.align	1
 497              		.global	xTimerCreate
 498              		.syntax unified
 499              		.thumb
 500              		.thumb_func
 501              		.fpu fpv5-d16
 503              	xTimerCreate:
 504              	.LVL37:
 505              	.LFB5:
ARM GAS  /tmp/ccAupAkp.s 			page 31


 283:STM32F769/Middlewares/Third_Party/FreeRTOS/Source/timers.c **** 	Timer_t *pxNewTimer;
 506              		.loc 1 283 2 view -0
 507              		.cfi_startproc
 508              		@ args = 4, pretend = 0, frame = 0
 509              		@ frame_needed = 0, uses_anonymous_args = 0
 283:STM32F769/Middlewares/Third_Party/FreeRTOS/Source/timers.c **** 	Timer_t *pxNewTimer;
 510              		.loc 1 283 2 is_stmt 0 view .LVU121
 511 0000 2DE9F041 		push	{r4, r5, r6, r7, r8, lr}
 512              	.LCFI10:
 513              		.cfi_def_cfa_offset 24
 514              		.cfi_offset 4, -24
 515              		.cfi_offset 5, -20
 516              		.cfi_offset 6, -16
 517              		.cfi_offset 7, -12
 518              		.cfi_offset 8, -8
 519              		.cfi_offset 14, -4
 520 0004 82B0     		sub	sp, sp, #8
 521              	.LCFI11:
 522              		.cfi_def_cfa_offset 32
 523 0006 0546     		mov	r5, r0
 524 0008 0E46     		mov	r6, r1
 525 000a 1746     		mov	r7, r2
 526 000c 9846     		mov	r8, r3
 284:STM32F769/Middlewares/Third_Party/FreeRTOS/Source/timers.c **** 
 527              		.loc 1 284 2 is_stmt 1 view .LVU122
 286:STM32F769/Middlewares/Third_Party/FreeRTOS/Source/timers.c **** 
 528              		.loc 1 286 3 view .LVU123
 286:STM32F769/Middlewares/Third_Party/FreeRTOS/Source/timers.c **** 
 529              		.loc 1 286 30 is_stmt 0 view .LVU124
 530 000e 3020     		movs	r0, #48
 531              	.LVL38:
 286:STM32F769/Middlewares/Third_Party/FreeRTOS/Source/timers.c **** 
 532              		.loc 1 286 30 view .LVU125
 533 0010 FFF7FEFF 		bl	pvPortMalloc
 534              	.LVL39:
 288:STM32F769/Middlewares/Third_Party/FreeRTOS/Source/timers.c **** 		{
 535              		.loc 1 288 3 is_stmt 1 view .LVU126
 288:STM32F769/Middlewares/Third_Party/FreeRTOS/Source/timers.c **** 		{
 536              		.loc 1 288 5 is_stmt 0 view .LVU127
 537 0014 0446     		mov	r4, r0
 538 0016 58B1     		cbz	r0, .L35
 290:STM32F769/Middlewares/Third_Party/FreeRTOS/Source/timers.c **** 
 539              		.loc 1 290 4 is_stmt 1 view .LVU128
 540 0018 0190     		str	r0, [sp, #4]
 541 001a 089B     		ldr	r3, [sp, #32]
 542 001c 0093     		str	r3, [sp]
 543 001e 4346     		mov	r3, r8
 544 0020 3A46     		mov	r2, r7
 545 0022 3146     		mov	r1, r6
 546 0024 2846     		mov	r0, r5
 547              	.LVL40:
 290:STM32F769/Middlewares/Third_Party/FreeRTOS/Source/timers.c **** 
 548              		.loc 1 290 4 is_stmt 0 view .LVU129
 549 0026 FFF7FEFF 		bl	prvInitialiseNewTimer
 550              	.LVL41:
 297:STM32F769/Middlewares/Third_Party/FreeRTOS/Source/timers.c **** 			}
 551              		.loc 1 297 5 is_stmt 1 view .LVU130
ARM GAS  /tmp/ccAupAkp.s 			page 32


 297:STM32F769/Middlewares/Third_Party/FreeRTOS/Source/timers.c **** 			}
 552              		.loc 1 297 39 is_stmt 0 view .LVU131
 553 002a 0023     		movs	r3, #0
 554 002c 84F82C30 		strb	r3, [r4, #44]
 302:STM32F769/Middlewares/Third_Party/FreeRTOS/Source/timers.c **** 	}
 555              		.loc 1 302 3 is_stmt 1 view .LVU132
 556              	.L35:
 303:STM32F769/Middlewares/Third_Party/FreeRTOS/Source/timers.c **** 
 557              		.loc 1 303 2 is_stmt 0 view .LVU133
 558 0030 2046     		mov	r0, r4
 559 0032 02B0     		add	sp, sp, #8
 560              	.LCFI12:
 561              		.cfi_def_cfa_offset 24
 562              		@ sp needed
 563 0034 BDE8F081 		pop	{r4, r5, r6, r7, r8, pc}
 303:STM32F769/Middlewares/Third_Party/FreeRTOS/Source/timers.c **** 
 564              		.loc 1 303 2 view .LVU134
 565              		.cfi_endproc
 566              	.LFE5:
 568              		.section	.text.xTimerCreateStatic,"ax",%progbits
 569              		.align	1
 570              		.global	xTimerCreateStatic
 571              		.syntax unified
 572              		.thumb
 573              		.thumb_func
 574              		.fpu fpv5-d16
 576              	xTimerCreateStatic:
 577              	.LVL42:
 578              	.LFB6:
 316:STM32F769/Middlewares/Third_Party/FreeRTOS/Source/timers.c **** 	Timer_t *pxNewTimer;
 579              		.loc 1 316 2 is_stmt 1 view -0
 580              		.cfi_startproc
 581              		@ args = 8, pretend = 0, frame = 8
 582              		@ frame_needed = 0, uses_anonymous_args = 0
 316:STM32F769/Middlewares/Third_Party/FreeRTOS/Source/timers.c **** 	Timer_t *pxNewTimer;
 583              		.loc 1 316 2 is_stmt 0 view .LVU136
 584 0000 30B5     		push	{r4, r5, lr}
 585              	.LCFI13:
 586              		.cfi_def_cfa_offset 12
 587              		.cfi_offset 4, -12
 588              		.cfi_offset 5, -8
 589              		.cfi_offset 14, -4
 590 0002 85B0     		sub	sp, sp, #20
 591              	.LCFI14:
 592              		.cfi_def_cfa_offset 32
 593 0004 099C     		ldr	r4, [sp, #36]
 317:STM32F769/Middlewares/Third_Party/FreeRTOS/Source/timers.c **** 
 594              		.loc 1 317 2 is_stmt 1 view .LVU137
 595              	.LBB47:
 324:STM32F769/Middlewares/Third_Party/FreeRTOS/Source/timers.c **** 			configASSERT( xSize == sizeof( Timer_t ) );
 596              		.loc 1 324 4 view .LVU138
 324:STM32F769/Middlewares/Third_Party/FreeRTOS/Source/timers.c **** 			configASSERT( xSize == sizeof( Timer_t ) );
 597              		.loc 1 324 20 is_stmt 0 view .LVU139
 598 0006 3025     		movs	r5, #48
 599 0008 0395     		str	r5, [sp, #12]
 325:STM32F769/Middlewares/Third_Party/FreeRTOS/Source/timers.c **** 		}
 600              		.loc 1 325 4 is_stmt 1 view .LVU140
ARM GAS  /tmp/ccAupAkp.s 			page 33


 601 000a 039D     		ldr	r5, [sp, #12]
 602 000c 302D     		cmp	r5, #48
 603 000e 0AD0     		beq	.L39
 325:STM32F769/Middlewares/Third_Party/FreeRTOS/Source/timers.c **** 		}
 604              		.loc 1 325 4 view .LVU141
 605              	.LBB48:
 606              	.LBI48:
 191:STM32F769/Middlewares/Third_Party/FreeRTOS/Source/portable/GCC/ARM_CM7/r0p1/portmacro.h **** {
 607              		.loc 2 191 30 view .LVU142
 608              	.LBB49:
 193:STM32F769/Middlewares/Third_Party/FreeRTOS/Source/portable/GCC/ARM_CM7/r0p1/portmacro.h **** 
 609              		.loc 2 193 1 view .LVU143
 610              		.loc 2 195 2 view .LVU144
 611              		.syntax unified
 612              	@ 195 "STM32F769/Middlewares/Third_Party/FreeRTOS/Source/portable/GCC/ARM_CM7/r0p1/portmacro.h" 1
 613 0010 4FF05003 			mov r3, #80												
 614 0014 72B6     		cpsid i													
 615 0016 83F31188 		msr basepri, r3											
 616 001a BFF36F8F 		isb														
 617 001e BFF34F8F 		dsb														
 618 0022 62B6     		cpsie i													
 619              	
 620              	@ 0 "" 2
 621              	.LVL43:
 622              		.thumb
 623              		.syntax unified
 624              	.L40:
 625              		.loc 2 195 2 is_stmt 0 view .LVU145
 626              	.LBE49:
 627              	.LBE48:
 325:STM32F769/Middlewares/Third_Party/FreeRTOS/Source/timers.c **** 		}
 628              		.loc 1 325 4 is_stmt 1 discriminator 1 view .LVU146
 325:STM32F769/Middlewares/Third_Party/FreeRTOS/Source/timers.c **** 		}
 629              		.loc 1 325 4 discriminator 1 view .LVU147
 630 0024 FEE7     		b	.L40
 631              	.LVL44:
 632              	.L39:
 325:STM32F769/Middlewares/Third_Party/FreeRTOS/Source/timers.c **** 		}
 633              		.loc 1 325 46 discriminator 2 view .LVU148
 634              	.LBE47:
 330:STM32F769/Middlewares/Third_Party/FreeRTOS/Source/timers.c **** 		pxNewTimer = ( Timer_t * ) pxTimerBuffer; /*lint !e740 Unusual cast is ok as the structures are d
 635              		.loc 1 330 3 discriminator 2 view .LVU149
 636 0026 54B1     		cbz	r4, .L44
 330:STM32F769/Middlewares/Third_Party/FreeRTOS/Source/timers.c **** 		pxNewTimer = ( Timer_t * ) pxTimerBuffer; /*lint !e740 Unusual cast is ok as the structures are d
 637              		.loc 1 330 32 view .LVU150
 331:STM32F769/Middlewares/Third_Party/FreeRTOS/Source/timers.c **** 
 638              		.loc 1 331 3 view .LVU151
 639              	.LVL45:
 333:STM32F769/Middlewares/Third_Party/FreeRTOS/Source/timers.c **** 		{
 640              		.loc 1 333 3 view .LVU152
 335:STM32F769/Middlewares/Third_Party/FreeRTOS/Source/timers.c **** 
 641              		.loc 1 335 4 view .LVU153
 642 0028 0194     		str	r4, [sp, #4]
 643 002a 089D     		ldr	r5, [sp, #32]
 644 002c 0095     		str	r5, [sp]
 645 002e FFF7FEFF 		bl	prvInitialiseNewTimer
 646              	.LVL46:
ARM GAS  /tmp/ccAupAkp.s 			page 34


 341:STM32F769/Middlewares/Third_Party/FreeRTOS/Source/timers.c **** 			}
 647              		.loc 1 341 5 view .LVU154
 341:STM32F769/Middlewares/Third_Party/FreeRTOS/Source/timers.c **** 			}
 648              		.loc 1 341 39 is_stmt 0 view .LVU155
 649 0032 0123     		movs	r3, #1
 650 0034 84F82C30 		strb	r3, [r4, #44]
 346:STM32F769/Middlewares/Third_Party/FreeRTOS/Source/timers.c **** 	}
 651              		.loc 1 346 3 is_stmt 1 view .LVU156
 347:STM32F769/Middlewares/Third_Party/FreeRTOS/Source/timers.c **** 
 652              		.loc 1 347 2 is_stmt 0 view .LVU157
 653 0038 2046     		mov	r0, r4
 654 003a 05B0     		add	sp, sp, #20
 655              	.LCFI15:
 656              		.cfi_remember_state
 657              		.cfi_def_cfa_offset 12
 658              		@ sp needed
 659 003c 30BD     		pop	{r4, r5, pc}
 660              	.LVL47:
 661              	.L44:
 662              	.LCFI16:
 663              		.cfi_restore_state
 330:STM32F769/Middlewares/Third_Party/FreeRTOS/Source/timers.c **** 		pxNewTimer = ( Timer_t * ) pxTimerBuffer; /*lint !e740 Unusual cast is ok as the structures are d
 664              		.loc 1 330 3 is_stmt 1 view .LVU158
 665              	.LBB50:
 666              	.LBI50:
 191:STM32F769/Middlewares/Third_Party/FreeRTOS/Source/portable/GCC/ARM_CM7/r0p1/portmacro.h **** {
 667              		.loc 2 191 30 view .LVU159
 668              	.LBB51:
 193:STM32F769/Middlewares/Third_Party/FreeRTOS/Source/portable/GCC/ARM_CM7/r0p1/portmacro.h **** 
 669              		.loc 2 193 1 view .LVU160
 670              		.loc 2 195 2 view .LVU161
 671              		.syntax unified
 672              	@ 195 "STM32F769/Middlewares/Third_Party/FreeRTOS/Source/portable/GCC/ARM_CM7/r0p1/portmacro.h" 1
 673 003e 4FF05003 			mov r3, #80												
 674 0042 72B6     		cpsid i													
 675 0044 83F31188 		msr basepri, r3											
 676 0048 BFF36F8F 		isb														
 677 004c BFF34F8F 		dsb														
 678 0050 62B6     		cpsie i													
 679              	
 680              	@ 0 "" 2
 681              	.LVL48:
 682              		.thumb
 683              		.syntax unified
 684              	.L42:
 685              		.loc 2 195 2 is_stmt 0 view .LVU162
 686              	.LBE51:
 687              	.LBE50:
 330:STM32F769/Middlewares/Third_Party/FreeRTOS/Source/timers.c **** 		pxNewTimer = ( Timer_t * ) pxTimerBuffer; /*lint !e740 Unusual cast is ok as the structures are d
 688              		.loc 1 330 3 is_stmt 1 discriminator 2 view .LVU163
 330:STM32F769/Middlewares/Third_Party/FreeRTOS/Source/timers.c **** 		pxNewTimer = ( Timer_t * ) pxTimerBuffer; /*lint !e740 Unusual cast is ok as the structures are d
 689              		.loc 1 330 3 discriminator 2 view .LVU164
 690 0052 FEE7     		b	.L42
 691              		.cfi_endproc
 692              	.LFE6:
 694              		.section	.text.xTimerGenericCommand,"ax",%progbits
 695              		.align	1
ARM GAS  /tmp/ccAupAkp.s 			page 35


 696              		.global	xTimerGenericCommand
 697              		.syntax unified
 698              		.thumb
 699              		.thumb_func
 700              		.fpu fpv5-d16
 702              	xTimerGenericCommand:
 703              	.LVL49:
 704              	.LFB8:
 382:STM32F769/Middlewares/Third_Party/FreeRTOS/Source/timers.c **** BaseType_t xReturn = pdFAIL;
 705              		.loc 1 382 1 view -0
 706              		.cfi_startproc
 707              		@ args = 4, pretend = 0, frame = 16
 708              		@ frame_needed = 0, uses_anonymous_args = 0
 383:STM32F769/Middlewares/Third_Party/FreeRTOS/Source/timers.c **** DaemonTaskMessage_t xMessage;
 709              		.loc 1 383 1 view .LVU166
 384:STM32F769/Middlewares/Third_Party/FreeRTOS/Source/timers.c **** 
 710              		.loc 1 384 1 view .LVU167
 386:STM32F769/Middlewares/Third_Party/FreeRTOS/Source/timers.c **** 
 711              		.loc 1 386 2 view .LVU168
 712 0000 C0B1     		cbz	r0, .L54
 382:STM32F769/Middlewares/Third_Party/FreeRTOS/Source/timers.c **** BaseType_t xReturn = pdFAIL;
 713              		.loc 1 382 1 is_stmt 0 discriminator 2 view .LVU169
 714 0002 30B5     		push	{r4, r5, lr}
 715              	.LCFI17:
 716              		.cfi_def_cfa_offset 12
 717              		.cfi_offset 4, -12
 718              		.cfi_offset 5, -8
 719              		.cfi_offset 14, -4
 720 0004 85B0     		sub	sp, sp, #20
 721              	.LCFI18:
 722              		.cfi_def_cfa_offset 32
 723 0006 1546     		mov	r5, r2
 724 0008 0446     		mov	r4, r0
 386:STM32F769/Middlewares/Third_Party/FreeRTOS/Source/timers.c **** 
 725              		.loc 1 386 24 is_stmt 1 discriminator 2 view .LVU170
 390:STM32F769/Middlewares/Third_Party/FreeRTOS/Source/timers.c **** 	{
 726              		.loc 1 390 2 discriminator 2 view .LVU171
 390:STM32F769/Middlewares/Third_Party/FreeRTOS/Source/timers.c **** 	{
 727              		.loc 1 390 18 is_stmt 0 discriminator 2 view .LVU172
 728 000a 184A     		ldr	r2, .L56
 729              	.LVL50:
 390:STM32F769/Middlewares/Third_Party/FreeRTOS/Source/timers.c **** 	{
 730              		.loc 1 390 18 discriminator 2 view .LVU173
 731 000c 1068     		ldr	r0, [r2]
 732              	.LVL51:
 390:STM32F769/Middlewares/Third_Party/FreeRTOS/Source/timers.c **** 	{
 733              		.loc 1 390 4 discriminator 2 view .LVU174
 734 000e 50B3     		cbz	r0, .L51
 735 0010 1A46     		mov	r2, r3
 393:STM32F769/Middlewares/Third_Party/FreeRTOS/Source/timers.c **** 		xMessage.u.xTimerParameters.xMessageValue = xOptionalValue;
 736              		.loc 1 393 3 is_stmt 1 view .LVU175
 393:STM32F769/Middlewares/Third_Party/FreeRTOS/Source/timers.c **** 		xMessage.u.xTimerParameters.xMessageValue = xOptionalValue;
 737              		.loc 1 393 23 is_stmt 0 view .LVU176
 738 0012 0091     		str	r1, [sp]
 394:STM32F769/Middlewares/Third_Party/FreeRTOS/Source/timers.c **** 		xMessage.u.xTimerParameters.pxTimer = ( Timer_t * ) xTimer;
 739              		.loc 1 394 3 is_stmt 1 view .LVU177
 394:STM32F769/Middlewares/Third_Party/FreeRTOS/Source/timers.c **** 		xMessage.u.xTimerParameters.pxTimer = ( Timer_t * ) xTimer;
ARM GAS  /tmp/ccAupAkp.s 			page 36


 740              		.loc 1 394 45 is_stmt 0 view .LVU178
 741 0014 0195     		str	r5, [sp, #4]
 395:STM32F769/Middlewares/Third_Party/FreeRTOS/Source/timers.c **** 
 742              		.loc 1 395 3 is_stmt 1 view .LVU179
 395:STM32F769/Middlewares/Third_Party/FreeRTOS/Source/timers.c **** 
 743              		.loc 1 395 39 is_stmt 0 view .LVU180
 744 0016 0294     		str	r4, [sp, #8]
 397:STM32F769/Middlewares/Third_Party/FreeRTOS/Source/timers.c **** 		{
 745              		.loc 1 397 3 is_stmt 1 view .LVU181
 397:STM32F769/Middlewares/Third_Party/FreeRTOS/Source/timers.c **** 		{
 746              		.loc 1 397 5 is_stmt 0 view .LVU182
 747 0018 0529     		cmp	r1, #5
 748 001a 1EDC     		bgt	.L49
 399:STM32F769/Middlewares/Third_Party/FreeRTOS/Source/timers.c **** 			{
 749              		.loc 1 399 4 is_stmt 1 view .LVU183
 399:STM32F769/Middlewares/Third_Party/FreeRTOS/Source/timers.c **** 			{
 750              		.loc 1 399 8 is_stmt 0 view .LVU184
 751 001c FFF7FEFF 		bl	xTaskGetSchedulerState
 752              	.LVL52:
 399:STM32F769/Middlewares/Third_Party/FreeRTOS/Source/timers.c **** 			{
 753              		.loc 1 399 6 view .LVU185
 754 0020 0228     		cmp	r0, #2
 755 0022 12D0     		beq	.L55
 405:STM32F769/Middlewares/Third_Party/FreeRTOS/Source/timers.c **** 			}
 756              		.loc 1 405 5 is_stmt 1 view .LVU186
 405:STM32F769/Middlewares/Third_Party/FreeRTOS/Source/timers.c **** 			}
 757              		.loc 1 405 15 is_stmt 0 view .LVU187
 758 0024 0023     		movs	r3, #0
 759 0026 1A46     		mov	r2, r3
 760 0028 6946     		mov	r1, sp
 761 002a 1048     		ldr	r0, .L56
 762 002c 0068     		ldr	r0, [r0]
 763 002e FFF7FEFF 		bl	xQueueGenericSend
 764              	.LVL53:
 405:STM32F769/Middlewares/Third_Party/FreeRTOS/Source/timers.c **** 			}
 765              		.loc 1 405 15 view .LVU188
 766 0032 16E0     		b	.L45
 767              	.LVL54:
 768              	.L54:
 769              	.LCFI19:
 770              		.cfi_def_cfa_offset 0
 771              		.cfi_restore 4
 772              		.cfi_restore 5
 773              		.cfi_restore 14
 386:STM32F769/Middlewares/Third_Party/FreeRTOS/Source/timers.c **** 
 774              		.loc 1 386 2 is_stmt 1 view .LVU189
 775              	.LBB52:
 776              	.LBI52:
 191:STM32F769/Middlewares/Third_Party/FreeRTOS/Source/portable/GCC/ARM_CM7/r0p1/portmacro.h **** {
 777              		.loc 2 191 30 view .LVU190
 778              	.LBB53:
 193:STM32F769/Middlewares/Third_Party/FreeRTOS/Source/portable/GCC/ARM_CM7/r0p1/portmacro.h **** 
 779              		.loc 2 193 1 view .LVU191
 780              		.loc 2 195 2 view .LVU192
 781              		.syntax unified
 782              	@ 195 "STM32F769/Middlewares/Third_Party/FreeRTOS/Source/portable/GCC/ARM_CM7/r0p1/portmacro.h" 1
 783 0034 4FF05003 			mov r3, #80												
ARM GAS  /tmp/ccAupAkp.s 			page 37


 784 0038 72B6     		cpsid i													
 785 003a 83F31188 		msr basepri, r3											
 786 003e BFF36F8F 		isb														
 787 0042 BFF34F8F 		dsb														
 788 0046 62B6     		cpsie i													
 789              	
 790              	@ 0 "" 2
 791              	.LVL55:
 792              		.thumb
 793              		.syntax unified
 794              	.L47:
 795              		.loc 2 195 2 is_stmt 0 view .LVU193
 796              	.LBE53:
 797              	.LBE52:
 386:STM32F769/Middlewares/Third_Party/FreeRTOS/Source/timers.c **** 
 798              		.loc 1 386 2 is_stmt 1 discriminator 1 view .LVU194
 386:STM32F769/Middlewares/Third_Party/FreeRTOS/Source/timers.c **** 
 799              		.loc 1 386 2 discriminator 1 view .LVU195
 800 0048 FEE7     		b	.L47
 801              	.LVL56:
 802              	.L55:
 803              	.LCFI20:
 804              		.cfi_def_cfa_offset 32
 805              		.cfi_offset 4, -12
 806              		.cfi_offset 5, -8
 807              		.cfi_offset 14, -4
 401:STM32F769/Middlewares/Third_Party/FreeRTOS/Source/timers.c **** 			}
 808              		.loc 1 401 5 view .LVU196
 401:STM32F769/Middlewares/Third_Party/FreeRTOS/Source/timers.c **** 			}
 809              		.loc 1 401 15 is_stmt 0 view .LVU197
 810 004a 0023     		movs	r3, #0
 811 004c 089A     		ldr	r2, [sp, #32]
 812 004e 6946     		mov	r1, sp
 813 0050 0648     		ldr	r0, .L56
 814 0052 0068     		ldr	r0, [r0]
 815 0054 FFF7FEFF 		bl	xQueueGenericSend
 816              	.LVL57:
 401:STM32F769/Middlewares/Third_Party/FreeRTOS/Source/timers.c **** 			}
 817              		.loc 1 401 15 view .LVU198
 818 0058 03E0     		b	.L45
 819              	.LVL58:
 820              	.L49:
 410:STM32F769/Middlewares/Third_Party/FreeRTOS/Source/timers.c **** 		}
 821              		.loc 1 410 4 is_stmt 1 view .LVU199
 410:STM32F769/Middlewares/Third_Party/FreeRTOS/Source/timers.c **** 		}
 822              		.loc 1 410 14 is_stmt 0 view .LVU200
 823 005a 0023     		movs	r3, #0
 824 005c 6946     		mov	r1, sp
 825              	.LVL59:
 410:STM32F769/Middlewares/Third_Party/FreeRTOS/Source/timers.c **** 		}
 826              		.loc 1 410 14 view .LVU201
 827 005e FFF7FEFF 		bl	xQueueGenericSendFromISR
 828              	.LVL60:
 829              	.L45:
 421:STM32F769/Middlewares/Third_Party/FreeRTOS/Source/timers.c **** /*-----------------------------------------------------------*/
 830              		.loc 1 421 1 view .LVU202
 831 0062 05B0     		add	sp, sp, #20
ARM GAS  /tmp/ccAupAkp.s 			page 38


 832              	.LCFI21:
 833              		.cfi_remember_state
 834              		.cfi_def_cfa_offset 12
 835              		@ sp needed
 836 0064 30BD     		pop	{r4, r5, pc}
 837              	.LVL61:
 838              	.L51:
 839              	.LCFI22:
 840              		.cfi_restore_state
 383:STM32F769/Middlewares/Third_Party/FreeRTOS/Source/timers.c **** DaemonTaskMessage_t xMessage;
 841              		.loc 1 383 12 view .LVU203
 842 0066 0020     		movs	r0, #0
 417:STM32F769/Middlewares/Third_Party/FreeRTOS/Source/timers.c **** 	}
 843              		.loc 1 417 27 is_stmt 1 view .LVU204
 420:STM32F769/Middlewares/Third_Party/FreeRTOS/Source/timers.c **** }
 844              		.loc 1 420 2 view .LVU205
 420:STM32F769/Middlewares/Third_Party/FreeRTOS/Source/timers.c **** }
 845              		.loc 1 420 9 is_stmt 0 view .LVU206
 846 0068 FBE7     		b	.L45
 847              	.L57:
 848 006a 00BF     		.align	2
 849              	.L56:
 850 006c 00000000 		.word	.LANCHOR2
 851              		.cfi_endproc
 852              	.LFE8:
 854              		.section	.text.prvSwitchTimerLists,"ax",%progbits
 855              		.align	1
 856              		.syntax unified
 857              		.thumb
 858              		.thumb_func
 859              		.fpu fpv5-d16
 861              	prvSwitchTimerLists:
 862              	.LFB20:
 836:STM32F769/Middlewares/Third_Party/FreeRTOS/Source/timers.c **** TickType_t xNextExpireTime, xReloadTime;
 863              		.loc 1 836 1 is_stmt 1 view -0
 864              		.cfi_startproc
 865              		@ args = 0, pretend = 0, frame = 0
 866              		@ frame_needed = 0, uses_anonymous_args = 0
 867 0000 70B5     		push	{r4, r5, r6, lr}
 868              	.LCFI23:
 869              		.cfi_def_cfa_offset 16
 870              		.cfi_offset 4, -16
 871              		.cfi_offset 5, -12
 872              		.cfi_offset 6, -8
 873              		.cfi_offset 14, -4
 874 0002 82B0     		sub	sp, sp, #8
 875              	.LCFI24:
 876              		.cfi_def_cfa_offset 24
 837:STM32F769/Middlewares/Third_Party/FreeRTOS/Source/timers.c **** List_t *pxTemp;
 877              		.loc 1 837 1 view .LVU208
 838:STM32F769/Middlewares/Third_Party/FreeRTOS/Source/timers.c **** Timer_t *pxTimer;
 878              		.loc 1 838 1 view .LVU209
 839:STM32F769/Middlewares/Third_Party/FreeRTOS/Source/timers.c **** BaseType_t xResult;
 879              		.loc 1 839 1 view .LVU210
 840:STM32F769/Middlewares/Third_Party/FreeRTOS/Source/timers.c **** 
 880              		.loc 1 840 1 view .LVU211
 846:STM32F769/Middlewares/Third_Party/FreeRTOS/Source/timers.c **** 	{
ARM GAS  /tmp/ccAupAkp.s 			page 39


 881              		.loc 1 846 2 view .LVU212
 882              	.L60:
 884:STM32F769/Middlewares/Third_Party/FreeRTOS/Source/timers.c **** 		}
 883              		.loc 1 884 28 view .LVU213
 846:STM32F769/Middlewares/Third_Party/FreeRTOS/Source/timers.c **** 	{
 884              		.loc 1 846 9 is_stmt 0 view .LVU214
 885 0004 1B4B     		ldr	r3, .L67
 886 0006 1B68     		ldr	r3, [r3]
 887 0008 1A68     		ldr	r2, [r3]
 846:STM32F769/Middlewares/Third_Party/FreeRTOS/Source/timers.c **** 	{
 888              		.loc 1 846 7 view .LVU215
 889 000a 62B3     		cbz	r2, .L66
 848:STM32F769/Middlewares/Third_Party/FreeRTOS/Source/timers.c **** 
 890              		.loc 1 848 3 is_stmt 1 view .LVU216
 848:STM32F769/Middlewares/Third_Party/FreeRTOS/Source/timers.c **** 
 891              		.loc 1 848 21 is_stmt 0 view .LVU217
 892 000c DB68     		ldr	r3, [r3, #12]
 848:STM32F769/Middlewares/Third_Party/FreeRTOS/Source/timers.c **** 
 893              		.loc 1 848 19 view .LVU218
 894 000e 1E68     		ldr	r6, [r3]
 895              	.LVL62:
 851:STM32F769/Middlewares/Third_Party/FreeRTOS/Source/timers.c **** 		( void ) uxListRemove( &( pxTimer->xTimerListItem ) );
 896              		.loc 1 851 3 is_stmt 1 view .LVU219
 851:STM32F769/Middlewares/Third_Party/FreeRTOS/Source/timers.c **** 		( void ) uxListRemove( &( pxTimer->xTimerListItem ) );
 897              		.loc 1 851 11 is_stmt 0 view .LVU220
 898 0010 DC68     		ldr	r4, [r3, #12]
 899              	.LVL63:
 852:STM32F769/Middlewares/Third_Party/FreeRTOS/Source/timers.c **** 		traceTIMER_EXPIRED( pxTimer );
 900              		.loc 1 852 3 is_stmt 1 view .LVU221
 852:STM32F769/Middlewares/Third_Party/FreeRTOS/Source/timers.c **** 		traceTIMER_EXPIRED( pxTimer );
 901              		.loc 1 852 12 is_stmt 0 view .LVU222
 902 0012 251D     		adds	r5, r4, #4
 903 0014 2846     		mov	r0, r5
 904 0016 FFF7FEFF 		bl	uxListRemove
 905              	.LVL64:
 853:STM32F769/Middlewares/Third_Party/FreeRTOS/Source/timers.c **** 
 906              		.loc 1 853 32 is_stmt 1 view .LVU223
 858:STM32F769/Middlewares/Third_Party/FreeRTOS/Source/timers.c **** 
 907              		.loc 1 858 3 view .LVU224
 858:STM32F769/Middlewares/Third_Party/FreeRTOS/Source/timers.c **** 
 908              		.loc 1 858 10 is_stmt 0 view .LVU225
 909 001a 636A     		ldr	r3, [r4, #36]
 858:STM32F769/Middlewares/Third_Party/FreeRTOS/Source/timers.c **** 
 910              		.loc 1 858 3 view .LVU226
 911 001c 2046     		mov	r0, r4
 912 001e 9847     		blx	r3
 913              	.LVL65:
 860:STM32F769/Middlewares/Third_Party/FreeRTOS/Source/timers.c **** 		{
 914              		.loc 1 860 3 is_stmt 1 view .LVU227
 860:STM32F769/Middlewares/Third_Party/FreeRTOS/Source/timers.c **** 		{
 915              		.loc 1 860 14 is_stmt 0 view .LVU228
 916 0020 E369     		ldr	r3, [r4, #28]
 860:STM32F769/Middlewares/Third_Party/FreeRTOS/Source/timers.c **** 		{
 917              		.loc 1 860 5 view .LVU229
 918 0022 012B     		cmp	r3, #1
 919 0024 EED1     		bne	.L60
 868:STM32F769/Middlewares/Third_Party/FreeRTOS/Source/timers.c **** 			if( xReloadTime > xNextExpireTime )
ARM GAS  /tmp/ccAupAkp.s 			page 40


 920              		.loc 1 868 4 is_stmt 1 view .LVU230
 868:STM32F769/Middlewares/Third_Party/FreeRTOS/Source/timers.c **** 			if( xReloadTime > xNextExpireTime )
 921              		.loc 1 868 45 is_stmt 0 view .LVU231
 922 0026 A369     		ldr	r3, [r4, #24]
 868:STM32F769/Middlewares/Third_Party/FreeRTOS/Source/timers.c **** 			if( xReloadTime > xNextExpireTime )
 923              		.loc 1 868 16 view .LVU232
 924 0028 3344     		add	r3, r3, r6
 925              	.LVL66:
 869:STM32F769/Middlewares/Third_Party/FreeRTOS/Source/timers.c **** 			{
 926              		.loc 1 869 4 is_stmt 1 view .LVU233
 869:STM32F769/Middlewares/Third_Party/FreeRTOS/Source/timers.c **** 			{
 927              		.loc 1 869 6 is_stmt 0 view .LVU234
 928 002a 9E42     		cmp	r6, r3
 929 002c 07D2     		bcs	.L61
 871:STM32F769/Middlewares/Third_Party/FreeRTOS/Source/timers.c **** 				listSET_LIST_ITEM_OWNER( &( pxTimer->xTimerListItem ), pxTimer );
 930              		.loc 1 871 5 is_stmt 1 view .LVU235
 931 002e 6360     		str	r3, [r4, #4]
 872:STM32F769/Middlewares/Third_Party/FreeRTOS/Source/timers.c **** 				vListInsert( pxCurrentTimerList, &( pxTimer->xTimerListItem ) );
 932              		.loc 1 872 5 view .LVU236
 933 0030 2461     		str	r4, [r4, #16]
 873:STM32F769/Middlewares/Third_Party/FreeRTOS/Source/timers.c **** 			}
 934              		.loc 1 873 5 view .LVU237
 935 0032 2946     		mov	r1, r5
 936 0034 0F4B     		ldr	r3, .L67
 937              	.LVL67:
 873:STM32F769/Middlewares/Third_Party/FreeRTOS/Source/timers.c **** 			}
 938              		.loc 1 873 5 is_stmt 0 view .LVU238
 939 0036 1868     		ldr	r0, [r3]
 940 0038 FFF7FEFF 		bl	vListInsert
 941              	.LVL68:
 873:STM32F769/Middlewares/Third_Party/FreeRTOS/Source/timers.c **** 			}
 942              		.loc 1 873 5 view .LVU239
 943 003c E2E7     		b	.L60
 944              	.LVL69:
 945              	.L61:
 877:STM32F769/Middlewares/Third_Party/FreeRTOS/Source/timers.c **** 				configASSERT( xResult );
 946              		.loc 1 877 5 is_stmt 1 view .LVU240
 877:STM32F769/Middlewares/Third_Party/FreeRTOS/Source/timers.c **** 				configASSERT( xResult );
 947              		.loc 1 877 15 is_stmt 0 view .LVU241
 948 003e 0021     		movs	r1, #0
 949 0040 0091     		str	r1, [sp]
 950 0042 0B46     		mov	r3, r1
 951              	.LVL70:
 877:STM32F769/Middlewares/Third_Party/FreeRTOS/Source/timers.c **** 				configASSERT( xResult );
 952              		.loc 1 877 15 view .LVU242
 953 0044 3246     		mov	r2, r6
 954 0046 2046     		mov	r0, r4
 955 0048 FFF7FEFF 		bl	xTimerGenericCommand
 956              	.LVL71:
 878:STM32F769/Middlewares/Third_Party/FreeRTOS/Source/timers.c **** 				( void ) xResult;
 957              		.loc 1 878 5 is_stmt 1 view .LVU243
 958 004c 0028     		cmp	r0, #0
 959 004e D9D1     		bne	.L60
 878:STM32F769/Middlewares/Third_Party/FreeRTOS/Source/timers.c **** 				( void ) xResult;
 960              		.loc 1 878 5 view .LVU244
 961              	.LBB54:
 962              	.LBI54:
ARM GAS  /tmp/ccAupAkp.s 			page 41


 191:STM32F769/Middlewares/Third_Party/FreeRTOS/Source/portable/GCC/ARM_CM7/r0p1/portmacro.h **** {
 963              		.loc 2 191 30 view .LVU245
 964              	.LBB55:
 193:STM32F769/Middlewares/Third_Party/FreeRTOS/Source/portable/GCC/ARM_CM7/r0p1/portmacro.h **** 
 965              		.loc 2 193 1 view .LVU246
 966              		.loc 2 195 2 view .LVU247
 967              		.syntax unified
 968              	@ 195 "STM32F769/Middlewares/Third_Party/FreeRTOS/Source/portable/GCC/ARM_CM7/r0p1/portmacro.h" 1
 969 0050 4FF05003 			mov r3, #80												
 970 0054 72B6     		cpsid i													
 971 0056 83F31188 		msr basepri, r3											
 972 005a BFF36F8F 		isb														
 973 005e BFF34F8F 		dsb														
 974 0062 62B6     		cpsie i													
 975              	
 976              	@ 0 "" 2
 977              	.LVL72:
 978              		.thumb
 979              		.syntax unified
 980              	.L63:
 981              		.loc 2 195 2 is_stmt 0 view .LVU248
 982              	.LBE55:
 983              	.LBE54:
 878:STM32F769/Middlewares/Third_Party/FreeRTOS/Source/timers.c **** 				( void ) xResult;
 984              		.loc 1 878 5 is_stmt 1 discriminator 1 view .LVU249
 878:STM32F769/Middlewares/Third_Party/FreeRTOS/Source/timers.c **** 				( void ) xResult;
 985              		.loc 1 878 5 discriminator 1 view .LVU250
 986 0064 FEE7     		b	.L63
 987              	.LVL73:
 988              	.L66:
 888:STM32F769/Middlewares/Third_Party/FreeRTOS/Source/timers.c **** 	pxCurrentTimerList = pxOverflowTimerList;
 989              		.loc 1 888 2 view .LVU251
 889:STM32F769/Middlewares/Third_Party/FreeRTOS/Source/timers.c **** 	pxOverflowTimerList = pxTemp;
 990              		.loc 1 889 2 view .LVU252
 889:STM32F769/Middlewares/Third_Party/FreeRTOS/Source/timers.c **** 	pxOverflowTimerList = pxTemp;
 991              		.loc 1 889 21 is_stmt 0 view .LVU253
 992 0066 044A     		ldr	r2, .L67+4
 993 0068 1068     		ldr	r0, [r2]
 994 006a 0249     		ldr	r1, .L67
 995 006c 0860     		str	r0, [r1]
 890:STM32F769/Middlewares/Third_Party/FreeRTOS/Source/timers.c **** }
 996              		.loc 1 890 2 is_stmt 1 view .LVU254
 890:STM32F769/Middlewares/Third_Party/FreeRTOS/Source/timers.c **** }
 997              		.loc 1 890 22 is_stmt 0 view .LVU255
 998 006e 1360     		str	r3, [r2]
 891:STM32F769/Middlewares/Third_Party/FreeRTOS/Source/timers.c **** /*-----------------------------------------------------------*/
 999              		.loc 1 891 1 view .LVU256
 1000 0070 02B0     		add	sp, sp, #8
 1001              	.LCFI25:
 1002              		.cfi_def_cfa_offset 16
 1003              		@ sp needed
 1004 0072 70BD     		pop	{r4, r5, r6, pc}
 1005              	.L68:
 1006              		.align	2
 1007              	.L67:
 1008 0074 00000000 		.word	.LANCHOR0
 1009 0078 00000000 		.word	.LANCHOR1
ARM GAS  /tmp/ccAupAkp.s 			page 42


 1010              		.cfi_endproc
 1011              	.LFE20:
 1013              		.section	.text.prvSampleTimeNow,"ax",%progbits
 1014              		.align	1
 1015              		.syntax unified
 1016              		.thumb
 1017              		.thumb_func
 1018              		.fpu fpv5-d16
 1020              	prvSampleTimeNow:
 1021              	.LVL74:
 1022              	.LFB17:
 625:STM32F769/Middlewares/Third_Party/FreeRTOS/Source/timers.c **** TickType_t xTimeNow;
 1023              		.loc 1 625 1 is_stmt 1 view -0
 1024              		.cfi_startproc
 1025              		@ args = 0, pretend = 0, frame = 0
 1026              		@ frame_needed = 0, uses_anonymous_args = 0
 625:STM32F769/Middlewares/Third_Party/FreeRTOS/Source/timers.c **** TickType_t xTimeNow;
 1027              		.loc 1 625 1 is_stmt 0 view .LVU258
 1028 0000 38B5     		push	{r3, r4, r5, lr}
 1029              	.LCFI26:
 1030              		.cfi_def_cfa_offset 16
 1031              		.cfi_offset 3, -16
 1032              		.cfi_offset 4, -12
 1033              		.cfi_offset 5, -8
 1034              		.cfi_offset 14, -4
 1035 0002 0546     		mov	r5, r0
 626:STM32F769/Middlewares/Third_Party/FreeRTOS/Source/timers.c **** PRIVILEGED_DATA static TickType_t xLastTime = ( TickType_t ) 0U; /*lint !e956 Variable is only acce
 1036              		.loc 1 626 1 is_stmt 1 view .LVU259
 627:STM32F769/Middlewares/Third_Party/FreeRTOS/Source/timers.c **** 
 1037              		.loc 1 627 17 view .LVU260
 629:STM32F769/Middlewares/Third_Party/FreeRTOS/Source/timers.c **** 
 1038              		.loc 1 629 2 view .LVU261
 629:STM32F769/Middlewares/Third_Party/FreeRTOS/Source/timers.c **** 
 1039              		.loc 1 629 13 is_stmt 0 view .LVU262
 1040 0004 FFF7FEFF 		bl	xTaskGetTickCount
 1041              	.LVL75:
 629:STM32F769/Middlewares/Third_Party/FreeRTOS/Source/timers.c **** 
 1042              		.loc 1 629 13 view .LVU263
 1043 0008 0446     		mov	r4, r0
 1044              	.LVL76:
 631:STM32F769/Middlewares/Third_Party/FreeRTOS/Source/timers.c **** 	{
 1045              		.loc 1 631 2 is_stmt 1 view .LVU264
 631:STM32F769/Middlewares/Third_Party/FreeRTOS/Source/timers.c **** 	{
 1046              		.loc 1 631 15 is_stmt 0 view .LVU265
 1047 000a 074B     		ldr	r3, .L74
 1048 000c 1B68     		ldr	r3, [r3]
 631:STM32F769/Middlewares/Third_Party/FreeRTOS/Source/timers.c **** 	{
 1049              		.loc 1 631 4 view .LVU266
 1050 000e 8342     		cmp	r3, r0
 1051 0010 05D8     		bhi	.L73
 638:STM32F769/Middlewares/Third_Party/FreeRTOS/Source/timers.c **** 	}
 1052              		.loc 1 638 3 is_stmt 1 view .LVU267
 638:STM32F769/Middlewares/Third_Party/FreeRTOS/Source/timers.c **** 	}
 1053              		.loc 1 638 29 is_stmt 0 view .LVU268
 1054 0012 0023     		movs	r3, #0
 1055 0014 2B60     		str	r3, [r5]
 1056              	.LVL77:
ARM GAS  /tmp/ccAupAkp.s 			page 43


 1057              	.L71:
 641:STM32F769/Middlewares/Third_Party/FreeRTOS/Source/timers.c **** 
 1058              		.loc 1 641 2 is_stmt 1 view .LVU269
 641:STM32F769/Middlewares/Third_Party/FreeRTOS/Source/timers.c **** 
 1059              		.loc 1 641 12 is_stmt 0 view .LVU270
 1060 0016 044B     		ldr	r3, .L74
 1061 0018 1C60     		str	r4, [r3]
 643:STM32F769/Middlewares/Third_Party/FreeRTOS/Source/timers.c **** }
 1062              		.loc 1 643 2 is_stmt 1 view .LVU271
 644:STM32F769/Middlewares/Third_Party/FreeRTOS/Source/timers.c **** /*-----------------------------------------------------------*/
 1063              		.loc 1 644 1 is_stmt 0 view .LVU272
 1064 001a 2046     		mov	r0, r4
 1065 001c 38BD     		pop	{r3, r4, r5, pc}
 1066              	.LVL78:
 1067              	.L73:
 633:STM32F769/Middlewares/Third_Party/FreeRTOS/Source/timers.c **** 		*pxTimerListsWereSwitched = pdTRUE;
 1068              		.loc 1 633 3 is_stmt 1 view .LVU273
 1069 001e FFF7FEFF 		bl	prvSwitchTimerLists
 1070              	.LVL79:
 634:STM32F769/Middlewares/Third_Party/FreeRTOS/Source/timers.c **** 	}
 1071              		.loc 1 634 3 view .LVU274
 634:STM32F769/Middlewares/Third_Party/FreeRTOS/Source/timers.c **** 	}
 1072              		.loc 1 634 29 is_stmt 0 view .LVU275
 1073 0022 0123     		movs	r3, #1
 1074 0024 2B60     		str	r3, [r5]
 1075 0026 F6E7     		b	.L71
 1076              	.L75:
 1077              		.align	2
 1078              	.L74:
 1079 0028 00000000 		.word	.LANCHOR8
 1080              		.cfi_endproc
 1081              	.LFE17:
 1083              		.section	.text.prvProcessExpiredTimer,"ax",%progbits
 1084              		.align	1
 1085              		.syntax unified
 1086              		.thumb
 1087              		.thumb_func
 1088              		.fpu fpv5-d16
 1090              	prvProcessExpiredTimer:
 1091              	.LVL80:
 1092              	.LFB13:
 463:STM32F769/Middlewares/Third_Party/FreeRTOS/Source/timers.c **** BaseType_t xResult;
 1093              		.loc 1 463 1 is_stmt 1 view -0
 1094              		.cfi_startproc
 1095              		@ args = 0, pretend = 0, frame = 0
 1096              		@ frame_needed = 0, uses_anonymous_args = 0
 463:STM32F769/Middlewares/Third_Party/FreeRTOS/Source/timers.c **** BaseType_t xResult;
 1097              		.loc 1 463 1 is_stmt 0 view .LVU277
 1098 0000 70B5     		push	{r4, r5, r6, lr}
 1099              	.LCFI27:
 1100              		.cfi_def_cfa_offset 16
 1101              		.cfi_offset 4, -16
 1102              		.cfi_offset 5, -12
 1103              		.cfi_offset 6, -8
 1104              		.cfi_offset 14, -4
 1105 0002 82B0     		sub	sp, sp, #8
 1106              	.LCFI28:
ARM GAS  /tmp/ccAupAkp.s 			page 44


 1107              		.cfi_def_cfa_offset 24
 1108 0004 0546     		mov	r5, r0
 1109 0006 0E46     		mov	r6, r1
 464:STM32F769/Middlewares/Third_Party/FreeRTOS/Source/timers.c **** Timer_t * const pxTimer = ( Timer_t * ) listGET_OWNER_OF_HEAD_ENTRY( pxCurrentTimerList );
 1110              		.loc 1 464 1 is_stmt 1 view .LVU278
 465:STM32F769/Middlewares/Third_Party/FreeRTOS/Source/timers.c **** 
 1111              		.loc 1 465 1 view .LVU279
 465:STM32F769/Middlewares/Third_Party/FreeRTOS/Source/timers.c **** 
 1112              		.loc 1 465 41 is_stmt 0 view .LVU280
 1113 0008 154B     		ldr	r3, .L81
 1114 000a 1B68     		ldr	r3, [r3]
 1115 000c DB68     		ldr	r3, [r3, #12]
 465:STM32F769/Middlewares/Third_Party/FreeRTOS/Source/timers.c **** 
 1116              		.loc 1 465 17 view .LVU281
 1117 000e DC68     		ldr	r4, [r3, #12]
 1118              	.LVL81:
 469:STM32F769/Middlewares/Third_Party/FreeRTOS/Source/timers.c **** 	traceTIMER_EXPIRED( pxTimer );
 1119              		.loc 1 469 2 is_stmt 1 view .LVU282
 469:STM32F769/Middlewares/Third_Party/FreeRTOS/Source/timers.c **** 	traceTIMER_EXPIRED( pxTimer );
 1120              		.loc 1 469 11 is_stmt 0 view .LVU283
 1121 0010 201D     		adds	r0, r4, #4
 1122              	.LVL82:
 469:STM32F769/Middlewares/Third_Party/FreeRTOS/Source/timers.c **** 	traceTIMER_EXPIRED( pxTimer );
 1123              		.loc 1 469 11 view .LVU284
 1124 0012 FFF7FEFF 		bl	uxListRemove
 1125              	.LVL83:
 470:STM32F769/Middlewares/Third_Party/FreeRTOS/Source/timers.c **** 
 1126              		.loc 1 470 31 is_stmt 1 view .LVU285
 474:STM32F769/Middlewares/Third_Party/FreeRTOS/Source/timers.c **** 	{
 1127              		.loc 1 474 2 view .LVU286
 474:STM32F769/Middlewares/Third_Party/FreeRTOS/Source/timers.c **** 	{
 1128              		.loc 1 474 13 is_stmt 0 view .LVU287
 1129 0016 E369     		ldr	r3, [r4, #28]
 474:STM32F769/Middlewares/Third_Party/FreeRTOS/Source/timers.c **** 	{
 1130              		.loc 1 474 4 view .LVU288
 1131 0018 012B     		cmp	r3, #1
 1132 001a 04D0     		beq	.L80
 1133              	.L77:
 494:STM32F769/Middlewares/Third_Party/FreeRTOS/Source/timers.c **** 	}
 1134              		.loc 1 494 27 is_stmt 1 view .LVU289
 498:STM32F769/Middlewares/Third_Party/FreeRTOS/Source/timers.c **** }
 1135              		.loc 1 498 2 view .LVU290
 498:STM32F769/Middlewares/Third_Party/FreeRTOS/Source/timers.c **** }
 1136              		.loc 1 498 9 is_stmt 0 view .LVU291
 1137 001c 636A     		ldr	r3, [r4, #36]
 498:STM32F769/Middlewares/Third_Party/FreeRTOS/Source/timers.c **** }
 1138              		.loc 1 498 2 view .LVU292
 1139 001e 2046     		mov	r0, r4
 1140 0020 9847     		blx	r3
 1141              	.LVL84:
 499:STM32F769/Middlewares/Third_Party/FreeRTOS/Source/timers.c **** /*-----------------------------------------------------------*/
 1142              		.loc 1 499 1 view .LVU293
 1143 0022 02B0     		add	sp, sp, #8
 1144              	.LCFI29:
 1145              		.cfi_remember_state
 1146              		.cfi_def_cfa_offset 16
 1147              		@ sp needed
ARM GAS  /tmp/ccAupAkp.s 			page 45


 1148 0024 70BD     		pop	{r4, r5, r6, pc}
 1149              	.LVL85:
 1150              	.L80:
 1151              	.LCFI30:
 1152              		.cfi_restore_state
 479:STM32F769/Middlewares/Third_Party/FreeRTOS/Source/timers.c **** 		{
 1153              		.loc 1 479 3 is_stmt 1 view .LVU294
 479:STM32F769/Middlewares/Third_Party/FreeRTOS/Source/timers.c **** 		{
 1154              		.loc 1 479 71 is_stmt 0 view .LVU295
 1155 0026 A169     		ldr	r1, [r4, #24]
 479:STM32F769/Middlewares/Third_Party/FreeRTOS/Source/timers.c **** 		{
 1156              		.loc 1 479 7 view .LVU296
 1157 0028 2B46     		mov	r3, r5
 1158 002a 3246     		mov	r2, r6
 1159 002c 2944     		add	r1, r1, r5
 1160 002e 2046     		mov	r0, r4
 1161 0030 FFF7FEFF 		bl	prvInsertTimerInActiveList
 1162              	.LVL86:
 479:STM32F769/Middlewares/Third_Party/FreeRTOS/Source/timers.c **** 		{
 1163              		.loc 1 479 5 view .LVU297
 1164 0034 0028     		cmp	r0, #0
 1165 0036 F1D0     		beq	.L77
 483:STM32F769/Middlewares/Third_Party/FreeRTOS/Source/timers.c **** 			configASSERT( xResult );
 1166              		.loc 1 483 4 is_stmt 1 view .LVU298
 483:STM32F769/Middlewares/Third_Party/FreeRTOS/Source/timers.c **** 			configASSERT( xResult );
 1167              		.loc 1 483 14 is_stmt 0 view .LVU299
 1168 0038 0021     		movs	r1, #0
 1169 003a 0091     		str	r1, [sp]
 1170 003c 0B46     		mov	r3, r1
 1171 003e 2A46     		mov	r2, r5
 1172 0040 2046     		mov	r0, r4
 1173 0042 FFF7FEFF 		bl	xTimerGenericCommand
 1174              	.LVL87:
 484:STM32F769/Middlewares/Third_Party/FreeRTOS/Source/timers.c **** 			( void ) xResult;
 1175              		.loc 1 484 4 is_stmt 1 view .LVU300
 1176 0046 0028     		cmp	r0, #0
 1177 0048 E8D1     		bne	.L77
 484:STM32F769/Middlewares/Third_Party/FreeRTOS/Source/timers.c **** 			( void ) xResult;
 1178              		.loc 1 484 4 view .LVU301
 1179              	.LBB56:
 1180              	.LBI56:
 191:STM32F769/Middlewares/Third_Party/FreeRTOS/Source/portable/GCC/ARM_CM7/r0p1/portmacro.h **** {
 1181              		.loc 2 191 30 view .LVU302
 1182              	.LBB57:
 193:STM32F769/Middlewares/Third_Party/FreeRTOS/Source/portable/GCC/ARM_CM7/r0p1/portmacro.h **** 
 1183              		.loc 2 193 1 view .LVU303
 1184              		.loc 2 195 2 view .LVU304
 1185              		.syntax unified
 1186              	@ 195 "STM32F769/Middlewares/Third_Party/FreeRTOS/Source/portable/GCC/ARM_CM7/r0p1/portmacro.h" 1
 1187 004a 4FF05003 			mov r3, #80												
 1188 004e 72B6     		cpsid i													
 1189 0050 83F31188 		msr basepri, r3											
 1190 0054 BFF36F8F 		isb														
 1191 0058 BFF34F8F 		dsb														
 1192 005c 62B6     		cpsie i													
 1193              	
 1194              	@ 0 "" 2
ARM GAS  /tmp/ccAupAkp.s 			page 46


 1195              	.LVL88:
 1196              		.thumb
 1197              		.syntax unified
 1198              	.L78:
 1199              		.loc 2 195 2 is_stmt 0 view .LVU305
 1200              	.LBE57:
 1201              	.LBE56:
 484:STM32F769/Middlewares/Third_Party/FreeRTOS/Source/timers.c **** 			( void ) xResult;
 1202              		.loc 1 484 4 is_stmt 1 discriminator 1 view .LVU306
 484:STM32F769/Middlewares/Third_Party/FreeRTOS/Source/timers.c **** 			( void ) xResult;
 1203              		.loc 1 484 4 discriminator 1 view .LVU307
 1204 005e FEE7     		b	.L78
 1205              	.L82:
 1206              		.align	2
 1207              	.L81:
 1208 0060 00000000 		.word	.LANCHOR0
 1209              		.cfi_endproc
 1210              	.LFE13:
 1212              		.section	.text.prvProcessTimerOrBlockTask,"ax",%progbits
 1213              		.align	1
 1214              		.syntax unified
 1215              		.thumb
 1216              		.thumb_func
 1217              		.fpu fpv5-d16
 1219              	prvProcessTimerOrBlockTask:
 1220              	.LVL89:
 1221              	.LFB15:
 539:STM32F769/Middlewares/Third_Party/FreeRTOS/Source/timers.c **** TickType_t xTimeNow;
 1222              		.loc 1 539 1 view -0
 1223              		.cfi_startproc
 1224              		@ args = 0, pretend = 0, frame = 8
 1225              		@ frame_needed = 0, uses_anonymous_args = 0
 539:STM32F769/Middlewares/Third_Party/FreeRTOS/Source/timers.c **** TickType_t xTimeNow;
 1226              		.loc 1 539 1 is_stmt 0 view .LVU309
 1227 0000 70B5     		push	{r4, r5, r6, lr}
 1228              	.LCFI31:
 1229              		.cfi_def_cfa_offset 16
 1230              		.cfi_offset 4, -16
 1231              		.cfi_offset 5, -12
 1232              		.cfi_offset 6, -8
 1233              		.cfi_offset 14, -4
 1234 0002 82B0     		sub	sp, sp, #8
 1235              	.LCFI32:
 1236              		.cfi_def_cfa_offset 24
 1237 0004 0646     		mov	r6, r0
 1238 0006 0C46     		mov	r4, r1
 540:STM32F769/Middlewares/Third_Party/FreeRTOS/Source/timers.c **** BaseType_t xTimerListsWereSwitched;
 1239              		.loc 1 540 1 is_stmt 1 view .LVU310
 541:STM32F769/Middlewares/Third_Party/FreeRTOS/Source/timers.c **** 
 1240              		.loc 1 541 1 view .LVU311
 543:STM32F769/Middlewares/Third_Party/FreeRTOS/Source/timers.c **** 	{
 1241              		.loc 1 543 2 view .LVU312
 1242 0008 FFF7FEFF 		bl	vTaskSuspendAll
 1243              	.LVL90:
 550:STM32F769/Middlewares/Third_Party/FreeRTOS/Source/timers.c **** 		if( xTimerListsWereSwitched == pdFALSE )
 1244              		.loc 1 550 3 view .LVU313
 550:STM32F769/Middlewares/Third_Party/FreeRTOS/Source/timers.c **** 		if( xTimerListsWereSwitched == pdFALSE )
ARM GAS  /tmp/ccAupAkp.s 			page 47


 1245              		.loc 1 550 14 is_stmt 0 view .LVU314
 1246 000c 01A8     		add	r0, sp, #4
 1247 000e FFF7FEFF 		bl	prvSampleTimeNow
 1248              	.LVL91:
 551:STM32F769/Middlewares/Third_Party/FreeRTOS/Source/timers.c **** 		{
 1249              		.loc 1 551 3 is_stmt 1 view .LVU315
 551:STM32F769/Middlewares/Third_Party/FreeRTOS/Source/timers.c **** 		{
 1250              		.loc 1 551 31 is_stmt 0 view .LVU316
 1251 0012 019B     		ldr	r3, [sp, #4]
 551:STM32F769/Middlewares/Third_Party/FreeRTOS/Source/timers.c **** 		{
 1252              		.loc 1 551 5 view .LVU317
 1253 0014 43BB     		cbnz	r3, .L84
 1254 0016 0546     		mov	r5, r0
 554:STM32F769/Middlewares/Third_Party/FreeRTOS/Source/timers.c **** 			{
 1255              		.loc 1 554 4 is_stmt 1 view .LVU318
 554:STM32F769/Middlewares/Third_Party/FreeRTOS/Source/timers.c **** 			{
 1256              		.loc 1 554 58 is_stmt 0 view .LVU319
 1257 0018 B042     		cmp	r0, r6
 1258 001a 34BF     		ite	cc
 1259 001c 0023     		movcc	r3, #0
 1260 001e 0123     		movcs	r3, #1
 554:STM32F769/Middlewares/Third_Party/FreeRTOS/Source/timers.c **** 			{
 1261              		.loc 1 554 37 view .LVU320
 1262 0020 002C     		cmp	r4, #0
 1263 0022 18BF     		it	ne
 1264 0024 0023     		movne	r3, #0
 554:STM32F769/Middlewares/Third_Party/FreeRTOS/Source/timers.c **** 			{
 1265              		.loc 1 554 6 view .LVU321
 1266 0026 C3B9     		cbnz	r3, .L89
 567:STM32F769/Middlewares/Third_Party/FreeRTOS/Source/timers.c **** 				{
 1267              		.loc 1 567 5 is_stmt 1 view .LVU322
 567:STM32F769/Middlewares/Third_Party/FreeRTOS/Source/timers.c **** 				{
 1268              		.loc 1 567 7 is_stmt 0 view .LVU323
 1269 0028 2CB1     		cbz	r4, .L87
 571:STM32F769/Middlewares/Third_Party/FreeRTOS/Source/timers.c **** 				}
 1270              		.loc 1 571 6 is_stmt 1 view .LVU324
 571:STM32F769/Middlewares/Third_Party/FreeRTOS/Source/timers.c **** 				}
 1271              		.loc 1 571 22 is_stmt 0 view .LVU325
 1272 002a 114B     		ldr	r3, .L90
 1273 002c 1B68     		ldr	r3, [r3]
 1274 002e 1C68     		ldr	r4, [r3]
 1275              	.LVL92:
 571:STM32F769/Middlewares/Third_Party/FreeRTOS/Source/timers.c **** 				}
 1276              		.loc 1 571 22 view .LVU326
 1277 0030 B4FA84F4 		clz	r4, r4
 1278 0034 6409     		lsrs	r4, r4, #5
 1279              	.LVL93:
 1280              	.L87:
 574:STM32F769/Middlewares/Third_Party/FreeRTOS/Source/timers.c **** 
 1281              		.loc 1 574 5 is_stmt 1 view .LVU327
